:020000040000FA
:100000009F31002798310028200020080B000900AC
:100010000900043212320900090009009501131287
:10002000233085003E358400BE0A26000130930649
:1000300011081A0012081A000900950193122330C2
:1000400085003E358400BE0A260001309A06180855
:080050001A0019081A0009004A
:1030000021006A3099002100E7308C0027308D00C4
:10301000230007308C008D0122008A309700883011
:10302000980017309900230019309B001E151E12BE
:103030009E169D171D1620009801A301A4018B1355
:103040002100D730950022001030920011309400FA
:10305000A6309100930021009216121723009B3096
:103060009200A1309100BB2223009B309200BA3025
:103070009100BB22013085002030840023009D1C7C
:10308000033219081D121D162000A0016400B32090
:103090004D20A008031946281F28911E0800230070
:1030A0001D1D083219082000031D080064000D1DB5
:1030B000FD330100190880002000E03903190732B0
:1030C0006F300402031808001200422308000008B1
:1030D0000B000800080008000800080008000800AD
:1030E0000800163208000800080008001C3208001A
:1030F0000800080008000800080008000800080090
:10310000080008000800080008000800080008007F
:1031100020300402031908008403083042234223AC
:10312000083042230800B722800120308400800844
:103130000319B7281A30200203180D322008A007FF
:10314000A00DA007A00D1200393C093C031C03325E
:10315000A007031C972823009B309200FF309100AA
:10316000BB22A0090800A119111E08005C2B200831
:10317000063C063C031CAB280B00C428C928EA28DF
:10318000F1283529A829472A20300402031908000C
:103190000100BD010130BC002100D73095002000A6
:1031A0006400AF220319E7280B1DD0280B11BC0BBC
:1031B000D0280130BC000310BD0DBD080319BD159A
:1031C000BD1ABD0DD8308D043D098D05D028D830ED
:1031D0008D040800262193002000131221001316ED
:1031E000063226219A0020009312210093162330E4
:1031F000850020000B178B17B601BE018401640007
:10320000B320AF2203192A323E350319F83384085C
:10321000031912320B19163204020319F033040891
:10322000023A2C30031D422337080002B400013F4C
:10323000B5003808B53BDC220B111200B7001200B4
:10324000B800DD332E304223B722D7330130980047
:10325000BE012100D5301508260004342100930159
:10326000260093019A012000080022009112931277
:1032700020008C110C12980196019701111018145E
:10328000640011182832220095082000031DF8332D
:1032900023009C3092003D309100BB22023072210D
:1032A00023009C30920047309100BB2242307221B3
:1032B00023009C30920051309100BB2203307221D8
:1032C00023009C3092005B309100BB22433072217E
:1032D00098019901080023009C309200073091006A
:1032E000BB22F6339801960197018038990040304F
:1032F0009800083019181030111018148C0664004A
:103300001118A02919197F291736B500160CB40019
:10331000B536B40CB601DC222E3042231608033930
:10332000093596180138303E4223303016183530B2
:10333000422323009C30920065309100BB2208009C
:10334000181023009C3092001F309100BB2208000F
:10335000210090309E007C30E6212030B200B10187
:10336000B001EB217A2323009C309200253091009C
:10337000BB223408BA003508BB00DB22B722783004
:10338000E62123009C30920037309100BB22EB21D4
:103390003A08B4003B08B50067230430B800B70111
:1033A0007A23DB22B72223009C3092002D3091003B
:1033B000BB220030E621F82123009C3092003330FC
:1033C0009100BB220430E621F821080021000138D9
:1033D0009D002000080021009D149D18ED291B0868
:1033E0002000B70021001C082000B800B901080027
:1033F0001030A5003E3085018400FF301A00A50B77
:10340000FE294030BD0021009E13A601EB2164007F
:10341000B3203808BC00EB2138083C02031C003CF8
:10342000023C031CA601A60AA61D1F2A380E0F394E
:103430003E3E8400380EF0398000370E8004A50B24
:10344000072ABD0B072A3A30A6003E308400001838
:10345000402A2608422342233E3004020936B8009F
:10346000000CB700B836B70C3A08B4003B08B500FA
:1034700067230430B800B7017A23DB222C30A60082
:10348000840A4E300402031C272AB72208000130A8
:1034900098002100D53095000330850026000430C7
:1034A00093009A00200093019501BC016400B320B1
:1034B000AF2203194E323030130503190432BC0019
:1034C000930695010B11BC08031D0B1DEF33123041
:1034D0003C1E1930840001301110971F801F03011A
:1034E000B600031D11103F3FB400003FB500260099
:1034F000013093069A06200093016400B320AF22A6
:103500000319273230301305031D0732111CF53320
:10351000B60A1110031DF133C933BC0011303C1E33
:103520001830840034080002B400840A3508003BD7
:10353000B500031CB603B60A801B111CB603543039
:103540003C1E423042233A3042234223DB22B72240
:10355000A5331810260093019A01200008000311DA
:10356000911E08002300190820000D3C08000D30B2
:1035700042230A30422B23009501951715140000B1
:103580000000130D140DD22203190A322300130870
:10359000D222031905322300910A0319920AEB3350
:1035A000200008007F391A3A031908001A3A031D4F
:1035B000422303110800211618302000A500AB019A
:1035C000AC01AD01AE010030870006322B30860021
:1035D0000523052305230523B435B50DB60DAB0D25
:1035E000AC0DAD0DAE0DA50BF13321152E08162334
:1035F0002D0816232C08211E1623211A0D232B0813
:103600001623303021194223080033300107891D69
:10361000FD3E891FD03E1E00080021122111A60088
:10362000260E1A232E30422326080432A600260E28
:103630001A2326080F390319211D223208003108E8
:103640002A236430A6003008B01BB10A3108A60056
:103650002E30312B2115A6009C3E031C332BA600D7
:10366000313042232111A5012608A600F63E031C95
:103670003B2BA50A352B25080319211D40232608BD
:103680002111303E2000A11D111E043223009A009A
:1036900020002034A200230A2402031D0332111E3D
:1036A000FE335C2322308700230886002208810035
:1036B000A30AA115111E2034223087002408860099
:1036C000A40A240823020319A1110108DF331030D2
:1036D000A500B301B201B50CB40C031C04323708C9
:1036E000B2073808B33DB30CB20CB10CB00CA50B4B
:1036F000F2330800B601B501B401AF01AF0AB91B3E
:103700000432B735B80DB90DF933B435B50DB60D72
:10371000370830023808313B3908323B031C0B3282
:103720003708B0023808B13B3908B23BB40A031974
:10373000B50A0319B60AB936B80CB70CAF0BE533A6
:1037400008008A06F027EE32683AF232A036E133FA
:10375000653AE13BA03C6932E7306F37F439E33436
:10376000A039A016652B7339EF3420372E190018B5
:103770008A061A05AE184C10C4227410F3320D3AA2
:1037800000052E194210F4347410ED34EE34A033D9
:10379000683AF232EF36F439F4308A06AE19421044
:1037A000F4347410ED34EE34A0336F31EC34F23273
:1037B0008A062E1A4410EC32F9307310ED3CE536CF
:1037C000723A8D3C0005AE1A5610EC37613AE5337B
:1037D0006C10F632EC328D3900052E1B49106C321C
:1037E000A032693AE5368D390A05EE22653A20396C
:1037F000653AF4396E10ED3A65313A391A108A0695
:10380000EE24613B69362032653AF439000DA3118C
:10381000A011F2226F393A3949107437F23261330C
:10382000E531A0396F322737203AF0306538F23071
:103830007410A03765316C10EF3765381A32A31158
:10384000A011F2226F390D391A056F28E53B203996
:10385000F53970387936201D000D682AF232EF36BE
:10386000F439F430000D6F21EC34F232000D65298B
:10387000653365396337BA321A10CB27C11868101F
:10388000E7342D346F3AEC16F737201D000DCB27A7
:10389000C1186C10F737F416AD376934E833201DC2
:1038A000000DCB27C2186810E7342D346F3AEC16A0
:1038B000F737201D000DCB27C2186C10F737F41610
:1038C000AD376934E833201D000DF33A8A06000D48
:103E0000031E08008B1321006A309900D7309500FB
:103E10002200FF308D0088309700C830980017309E
:103E200099001030920011309400A6309100930058
:103E30001E149D172100E7308C0007308D002300F1
:103E400007308C008D0119309B0026309E009D1795
:103E50001D168701113086000301C43F0130E127A0
:103E6000C7271030E127811E0800CC27031D08005A
:103E7000203085008401F001CC270319F9330B3A77
:103E800003190732013A0319CC2772081A00F00708
:103E9000F333F008031D413284019501023F910084
:103EA000033F9200013FF100043084073C3F083C8F
:103EB000083C031C32320B000D32123232324232D5
:103EC000493250320532293201000002001FE91F39
:103ED00015170632653091009F3092000230840041
:103EE000951715140000000013081A0014081A0092
:103EF000910A0319920AF10BF3330408F10015112A
:103F000084010F30C727F0011200F007BA27F10B28
:103F1000FB337009013EBA27C727CC270319A83302
:103F2000FC33A43095001200930012009400110994
:103F30001F3903190232710303199512D527F10BAA
:103F4000F033DC33943095001F309104D527F10B0A
:103F5000F933D4339501151413081A00910AF10BA3
:103F6000F933CB330430950012009300D527F10BC1
:103F7000F933C433F3000F3A031906320B3A03192D
:103F80000332013A031D02320530C727730864006B
:103F9000011EFE339A0004349D1801006400811E46
:103FA000FD331908F2000F3A0800640055309600FE
:103FB000AA30960095149518FE33910A0319920AB7
:103FC00001346400811A08000B1DFB330B11090B2F
:043FD000F83304348A
:020000040001F9
:02000E00FC0BE9
:02001000FF1AD5
:00000001FF
