:020000040000FA
:100000009F31002784313C2C20001A08F0009D31DC
:100010009118F025921E121B63250900731B3928C5
:10002000731AD523322074087806031DE001F80600
:100030007C1152178A20E501D81E9E23031924281B
:100040007C1D581967280800D81A32207C155213D5
:100050003F237C1DF633D212F4008A206728521BFE
:10006000033208007308F7007508A4007608A5009D
:100070000800D1157408430603195813731ED523BD
:100080009E23F31A731E0A3203190332553980076F
:10009000083274089B31312380310332FF3AD71F75
:1000A0008005D713D217D2187F287C1905328A20F1
:1000B0007C19581908000B328A20D21658190800EA
:1000C0004030521F70308523D213521F8A20760889
:1000D00075067406F3137306F100F10E7106F10054
:1000E000F10CF10CF1060130F118F1067118F3175B
:1000F0007C1808005230731B4130883136288A2022
:100100005030F3000430F400AA30F5002908F6005E
:10011000D2106728F41BFA2B74080B002B297529C1
:100120009229042CA729B529BB29CD29D529DF2956
:10013000182B272B182B302BF329052C012A042CE4
:10014000052C052C312A052C052CFA2B052C042C0A
:10015000052C3A2A442A052C052C052C052C052CA7
:10016000052C052CFA2BFA2BFA2BFA2BFA2BFA2B4F
:10017000FA2BFA2BFA2BFA2BFA2BFA2B502A5A2AA3
:10018000052C052C052C052C052C052C642A852A0C
:10019000052C052C052C052C052C052CFA2BFA2BEF
:1001A000FA2BFA2BFA2BFA2BFF2BAB2A052C052C5A
:1001B000052C052C052C052C052C052C052C052CB7
:1001C000052C052C052C052C052C052C182B272B74
:1001D000182B302BFA2BFA2BFA2BFA2BFA2BFA2BA3
:1001E000FA2BB32AE72AFF2B052C052C052C182BFC
:1001F000272B182B302BFA2BFA2BFA2BFA2B052C4A
:10020000052C052C052C052C052C052C052C052C66
:10021000052C052CFA2B072B0D2B052C60300432F6
:100220007708C038F31F7F397306031D7C15F3066A
:1002300000347506031D7C15F5060034F31E080016
:10024000771E0E2910212408192125087606031D82
:100250007C15F6060034731B452939235909EA3801
:10026000FD39E61E5C1A0238F1000301B41BD819EF
:100270000138661E5C1A0238B81F0438B61F1038E1
:10028000F105FF3A750571041929F31A08005C1A83
:1002900066217608A500413903195112031D511A30
:1002A00054295116053023234D3018247608083977
:1002B0004630182476080439573018247608023955
:1002C00048301824750802394330182CDC190932DB
:1002D000F61D03327619DC150800DC0ADC1D080067
:1002E0000132761DDC0149120800731B8E29392367
:1002F000581D7C197D29B41B08007316B41BD81D2A
:1003000087293208031947081921330826290301D0
:10031000B41F34081921B41F35082629F31E08001C
:10032000B4170800731F9A290130240519212508E4
:10033000262110297518D5165B1A080076080B3C83
:100340000319DB1B0800DB17D51A5B170800731FA6
:100350000800C8007502031DF31A5711AA30750270
:10036000031D0800102129082629731B052C561A85
:10037000561B08001F2A731F08000301F31E731A7F
:10038000C5297608FC38571BD70558060339D80607
:1003900010215713750803381929731FB81B08005B
:1003A00073163808192139082629731BFA2BB61B36
:1003B0007C19DB2908007316192137082629731FB9
:1003C0000800D619E529F31E08001021561E2A0838
:1003D0001921561E2B0826215613DB1AD61D08009C
:1003E000561DD2140800731B08003923CF1B7C193B
:1003F000FB29581D080073164F08CF1B64301921C4
:100400002629731B1029D619561B0800561A1F2AB5
:100410002B087602F1002A08031C013E7502031C1A
:10042000FF3A031D262A031CF109E0307105031D64
:10043000262A561908005615D6134F301A2C561274
:100440002A082B0403192E2A56170800561DD60A0F
:10045000561D08005B1B2E2AAA01AB01D6014F30A6
:10046000262C731F0800AF1B1E2910212E081921EE
:100470002F082629731B511C0800D1180E291021A2
:100480002C0819212D082629731B661D0800581AEF
:100490000E29102122004008192141082000262998
:1004A000731F08005712F31A052C7508C50076084B
:1004B000C400052C731F0800D712F31A052C750809
:1004C000C7007608C600052C731B722AB008731E7D
:1004D0005718031908001030142130081921310869
:1004E000262138345710F31E2F28731E7E2A102120
:1004F000300803194508192131082629B0080319C5
:100500000800B001B1010F302032731B932AB208EA
:10051000731ED7180319080010301421320819214E
:10052000330826213934D710F31E2F28731E9F2A33
:100530001021320803194708192133082629B20867
:1005400003190800B201B3011130F901FA019A311F
:10055000E822823108003A367C1D0318731B08001C
:10056000731626211929730E07390B0014321C3219
:1005700008000800163204320000491A5C160532E1
:10058000DC13750849061039C906D711102149082E
:1005900019214A082629DC1F0800103014215213A3
:1005A000F633D71DEE33D7117508C9007608CA0097
:1005B000761A491A08004916E02203195C16080049
:1005C00063309E23031908006330DC17232B731F4D
:1005D0000800D619ED2AF31E0800D61ACE0E7C119B
:1005E00005247C19FA2A10214E0E03392621641B9A
:1005F000760819215B1BD61E052B4E0E4E06031DD9
:10060000561B052B5616D6155617D6120800731F03
:1006100008001021033019212629731FDB1F080051
:100620005B137508143C0319DB16031C5B170800E9
:10063000731F08007C19D21F052C7508F31E0319BF
:100640000800E100740AC3005817DA110800731F8C
:100650007C1D0632DA1D043210301421630826296D
:10066000731FFF2B7C19E20A61086202031C5817F2
:100670000800731B08009E23FF3A80050800003025
:10068000F300F501F601D7080319682BA1015023E7
:100690009F23031D4E2B2109D705432B7208080009
:1006A0002117571B06342116571A3034A116D71AB2
:1006B0003134211457186B2AA114D7188C2AA1158C
:1006C000D71963342115571D00344808F500043448
:1006D000581F6F2BD7176208F50043080800D70191
:1006E0004208031D8E2B521A842B2030FB00D21A95
:1006F000BF0A3F081F39E03E863160268331031D63
:100700000800FB0B782B52167C117704F3002408A9
:10071000F5002508F6007808F40008001030F30012
:100720007430FB00F1010314962BFB0AF10D7108E4
:1007300042050319952BC2067B0808007408F200D5
:10074000720C090C1F39BA3E8400F21B00340330CE
:1007500072180C30F100F218F10E00097105F10E5B
:10076000710E080071080B00C334C1348F349F34FC
:100770000234003403340334C034203400340034F1
:1007800000340034F0340F340B00003404340734E8
:100790000C341234133413341534173419341A3416
:1007A0001A341A341A341A341E34740D031CF31A12
:1007B0000800F100710E0F39F10074080739FB00D1
:1007C000FB0AB2237106F1067106A1010318A10A02
:1007D000F10CFB0BE62B031C0800C423A107210D21
:1007E000203E8400850A75088000840A760880000F
:1007F00085010800D21B7C1D731F08000B2CD21B27
:100800007C1D731F08000A2C3923D21B7C1D731F0B
:100810000800A401A50174089B31DD238431031D68
:1008200008001021603F25042621703F2404192967
:100830000319262C5F3E84000014FE3000050319C6
:100840005434FF3A8D05F938DA0554345F3E84009C
:1008500000100008031942348D040639DA044234CA
:100860002100DE1A382CDE0120003B2D21005F150F
:10087000DF149F310027843122008D0121006A306E
:100880009900230007308C008D0122001E149D1753
:100890002100E7308C0007308D00961C16141609D5
:1008A000961B0530161B06300F3903195F0A031E0D
:1008B0000301090EFC00031EFC150F309600D53015
:1008C00095002000F9309B0000309C0096019701B4
:1008D0003130980095010B1164000B1D6C2C230026
:1008E0009D0119309B001E151E129E169D17220099
:1008F0008A309700C8309800171FFE33210010304F
:100900009E007D309D009216121791140000000089
:100910009D14FC1D912C2B308831092084315819ED
:10092000FC11003074250130742502307425033029
:1009300074259D18FE330630D126DB005630D126B3
:10094000DC009C30D126DD0001309D0000306026A7
:10095000E400220099000E306026E6009B316C23F3
:1009600084315E26B000031D57145E26B1005E265A
:10097000B200031DD7145E26B3002300FC1D1D1614
:100980002800F930960026309700220015098301CF
:10099000200092010339D300FF308D005318F7393E
:1009A000D318EF398C000B17FC1D8B17BF0978305B
:1009B000D7041430C4005030C5000A30C6005A3085
:1009C000C700B417CF17B817B617AF173230CC001F
:1009D0000D306026DB001030FB00F901D030A100A3
:1009E00021086026FA007908FA080319012DF90098
:1009F000FA36031CFF2C83319F2384318004790A4B
:100A0000F42C0730F904F90AA10AFB0BF02C15307D
:100A1000883109208531F101063060269831EA20BD
:100A20008531F10A073060269831EA208531F10AD4
:100A3000083060269831EA208531F10A09306026B5
:100A40009831EA208531F10A0A3060269831EA208F
:100A50008531F10A0B3060269831EA20853101306A
:100A60006026D0009E3188268531FC1D3B2D4D30FF
:100A700084311A2485316400C108031D4226FC1903
:100A80003B2D52189F25D51BCD250B19F12511188B
:100A90000F269318E225111B67269E31B02685315B
:100AA00051192D26601B362C911E3B2D23001D1D38
:100AB000053299080319302C20003B2D9D1C652D13
:100AC0001D121D162000D1163B2D8225D21D3B2D57
:100AD00098310020A601D21188310038031D002072
:100AE0000A208531C9253B2D093685000301090CF3
:100AF000203884008001840A04097039031D7A2D8E
:100B0000850108002000013087002608D03E8600BD
:100B1000230019082000D219080081000A3A03199D
:100B20000800073A0319992D2608013E831CA600E8
:100B30000800A608031908008101D21508008831B1
:100B400033208531521080310E2085317C18B12D33
:100B5000581DB32DD31674087806031DC92DCD0A70
:100B60004D12E001C92D0130D400D3155316583071
:100B700080311A24731F42301A240830731B10303E
:100B8000BD002230A800210091142000F9309A0005
:100B90001C1588314D2085310800D513551A551C78
:100BA000D72D21005A085D022000031C08005508BB
:100BB0005A06113903190800DA068931672109201C
:100BC000853108009310CC0B0800D119E00AD81722
:100BD0003230CC00650FE5000530650203188C113A
:100BE00008002100DE1EDE0A20001C1D0B269831A5
:100BF000FC18692388315E090319DE01DE08031D34
:100C000042208431DF08031DDF0B080045308431AA
:100C100026248631080021009D14200008001110B0
:100C2000CB1F1D26D619561908008030D60656054A
:100C30004F308431182486310800CB03CB1F0800C5
:100C40005D1CAF17DD1CB4175D1DB6179931073059
:100C50005D05031DC0218631080041083C3C031C92
:100C6000080088315F2086312230400203183D2E73
:100C70002C308831192086310800511188310A2022
:100C800086310800111E08002708203E84008514C4
:100C90000008850123009A002000A70A503027068B
:100CA0000319A701C10308002300951C08002000B8
:100CB000911E542EF20082257208542E2300110A30
:100CC00054269501910015141308200008001113F3
:100CD00021001C085A06DA065A065A02031C003C78
:100CE000FC39031DA52E5A085D02031C8C2E5A08E0
:100CF0005B020318892E5A085C022000581D080068
:100D0000031CA82E5811D8114E3088310920863185
:100D100008002000D8158E2E2000D8115819A82EB2
:100D2000581536308831092086311C118030D505A0
:100D30008C1553145B1EDB01D601AA01AB015030A8
:100D4000843126248631200008002000581D080028
:100D50007C1CD81F08000030F300F501F601F701F4
:100D6000D812BD26F400803113208031731AD523A8
:100D70007408F800D8138531B32D4D080B000034EA
:100D800019340134CF2E11341B341C340E34CF2EC1
:100D900000341934013438343934CF2E1234D81693
:100DA0000034F3000830FB001C089B1B013EF401DB
:100DB000F30C0318F407F40CF30CFB0BFA33733544
:100DC000740D731B013E0800031DF62E67081F39C2
:100DD000E70A0B00F92E5D2F052F0034F92E5B2F4B
:100DE000082FF92E5D2F152F172F1B2F03143227D5
:100DF00000348C1321008C13362721008C1720001F
:100E000039278C1BF62E3727013444305E270034F7
:100E10004A277108103A03190134E717383A0319C1
:100E200001340A3A03190134F62EBE305E2F4A27E8
:100E30007108E80001344A27E71B242F710C680C65
:100E4000F900FA01FA0C2E2F680EF039FA00710E33
:100E5000F039F100680E0F397104F900553A0319A1
:100E6000F62E03109931E321E70101343727E830EA
:100E70003A2F36302100911020001B020A3E9A00C2
:100E80001C15911C412F1C11911008004827482760
:100E9000000008004B274E274E274E278C132100B9
:100EA0008C1303108C17200047278C1B0314F10CA4
:100EB0002D303A27080033305E2FCC30F100602708
:100EC000632763276327F10C8C1321008C1303180D
:0E0ED0008C1732303A2721008C172000013495
:1010000086316026883103190800192086315E2652
:10101000F93300200D3019200A301928F200720E21
:10102000122072080F39F63E0318073E0A3ED11708
:10103000303EC1080319111E212823009A00200008
:101040000034840027084107B03E031C503E203E78
:101050000406840604068514800085014108503A80
:10106000031DC10A00345430731B4230521908006A
:10107000192073080E2074080E2075080E207608BB
:101080000E200A28D51B08008E3000205E080E2096
:101090000A2045305E1C3620DE013B08031908009B
:1010A00084003C08850000088501F1003C081220FE
:1010B0003B080E203D30192071080E200A284008F8
:1010C0004007203E8400850A0008F900840A0008D1
:1010D000FA0085014008C00A0B008F28A7288F2836
:1010E000A728A728A728B728A728A728A728A72878
:1010F000A728A728A728A728A528A728A728DD2844
:10110000B728B728A728A7288F28BB28BB28DF28FF
:10111000DF28DF28DF28DF28DF28DF28DF2879081D
:1011200094202F3019207A08F1000830FB00F10DCF
:101130009C20FB0B972808001E0D1728F909FA09B7
:10114000FA0A0319F90A2D301928F91B9E207A0F83
:10115000AB28F90AFA017908BC206430F1007A085A
:10116000AD21FA1BF90A7908F1002E30CA28790856
:10117000BC202F3019207A08F1007108D1139C3E51
:10118000031CCC28F1009C3E031CC928F10032301E
:10119000CA2831301920D117FB017108F100F63E41
:1011A000031CD428FB0ACE287B080319D11BD920A5
:1011B0007108D11717280F39DF33F91B9E20103023
:1011C000FB00A101A201A301EB282308FC20A3003E
:1011D0002208FC20A200FA0DF90DA30DA20DA10D0D
:1011E000FB0BE528D1132108032122080321230842
:1011F0000321D11B08001728333EF100F11DFD3EED
:10120000F11FD03E0800F100710E072171080F395F
:101210000319D11B172808002608043C031D663457
:10122000433F5A3C193C031C6C340B001334953477
:10123000A83495296C346C3487296C3481296C343A
:101240006C34043452296C343829662957296E29A4
:101250008A2979296C3434295F296C346C346C34D4
:10126000433F19203D30192830216436FA3E1228B8
:101270003021D6084E30031919282A082B046E3065
:10128000031919284E0E4E060F39D61ECE065430BD
:10129000CE1C4330561D203819202A08F9002B088F
:1012A000FA00A728302147307C184D30192830210A
:1012B0007C0E0F39B03E86316026893119283021E5
:1012C0003030E61A3130661E413019283021551E63
:1012D0008434783055187F300020873430214430F2
:1012E0005B1A5330DB1B5230DB1A43305B1B493037
:1012F00019283021640EF100F10CF10C9C20F10C46
:101300009C2830210C0D803E9C200C0D9C28302107
:10131000500E0E2830210230863160268931F900C6
:1013200086315E268931FA00A72830214F306619B0
:10133000523019282608043C031D6634433F313CD3
:10134000013C031C6C340319A929C0015115521525
:10135000AB295111521188311728F901FA01083AC5
:10136000FB00083AFB06FA35F90DF10D0318FA07F0
:0A1370000318F90AFB0BB32908006B
:10300000D11A3E28D030860004302602031C6634D4
:10301000423F3D3C031D6634010888311920413F81
:1030200019203A301920203019209831413F0106EB
:10303000F100E039031D2B2D71080B0040284E28AC
:1030400056285E2863286E2879287E28D028D02824
:10305000D02885286334D028D0288A288F289A2819
:10306000A2286334A72863346334AC286334633400
:10307000B128B628BE28C3286334CB28D1127534B2
:103080000108543A03194229153A03190D2B0C3A39
:1030900003198C2B1F3A03195C2D63340108523A33
:1030A00003193F2C013A03199F2B63340108503A4E
:1030B00003199B2B1B3A0319002C63340108503A67
:1030C00003199D2B63340108563A0319632A053A04
:1030D00003197E29073A0319A82A63340108443AE0
:1030E0000319242B123A0319C7291B3A03198A2AF8
:1030F00006290108433A0319782A062901084F3A9C
:103100000319382C1B3A812B63340108433A031905
:103110005C2A63340108433A03197F2AD028010846
:10312000533A03190D2A143A0319562B043A03197A
:10313000B22963340108433A0319CF2B103A03191B
:10314000762963340108463A03193E2B633401089B
:10315000443A0319F92963340108543A03193D2903
:10316000633401084D3A03199A2A633401084F3A2F
:103170000319D6291C3A0319982963340108553AD2
:103180000319EB2B63340108493A0319282C193A27
:103190000319692C63340108483A0319442A63343B
:1031A00001084C3A031D63342608043C031D6634B1
:1031B000433FF1005A3C193C031C6C34413FBF3E75
:1031C000063EF622433F883119209831413FBF3EE9
:1031D000F100433FF9000830F11840307119023016
:1031E000A1007118A135A03084001A30FB0021091C
:1031F0008005840AFB0BF82879085F3E84002108CB
:1032000080047908001C03158431182C0108473C00
:10321000031D63342608043C031D6634433FD03E3F
:10322000F100F839031D6634413F0936F0300318C8
:103230001F295005703A03195110F10E0F30500537
:103240007104D000F1000130F6225A17DA13C030B1
:10325000031CDA069E318D265008031C500E0739D8
:103260008831172803102608043A031D6634433FAB
:10327000313C013C031808006C34BB2403180800DF
:1032800001304629BB240318080003304821E129F6
:103290004E060F39CE0600305B1F53292A082B0437
:1032A000031D56161030D6057A08AB007908AA001F
:1032B000D6155617D616A901DB1AD2142B040319FA
:1032C0007229DB1E08002A0805257A08A9002B08A8
:1032D00005257908A907FA1BA90A2A08F9002B086D
:1032E000FA00080056164E10CE100800BB24031832
:1032F0000800031966340230E822E129BF240318CC
:10330000080003198D2944082625031C6C34450840
:103310002625031D031C8F296C345710912958183A
:1033200057147A08B1007908B0000F30E822E1297B
:10333000BF24031808000319A72946082625031CE3
:103340006C3447082625031D031CA9296C34D710AB
:10335000AB29D818D7147A08B3007908B200113015
:10336000E822E129AD2403180800B4007A08B5006A
:10337000790403190332DD14C021E129B417E129CE
:10338000CB1F0800F830DD057830CB000800792429
:103390000318D4298108031D6634643C031C72346D
:1033A000710DBA008831BD28BA01DD29BF24031888
:1033B0000332F91F791FE02951102D308831192867
:1033C000EA218831A5284030661DEA295816031CD9
:1033D0005812F1295114D114031CD1102C30F221B0
:1033E0003E30850A840079081A007A088000850139
:1033F000080076242608053C03190532090F6634B7
:103400009B2403180800BC00922403180800BB008A
:103410003C08883112203B080E2879240318080044
:10342000AE00173C031C723416003A3C031D663490
:103430007A2403186634AF003B3C031C7234160038
:103440002F3C031D663430300102031D031C6C3415
:10345000F100F839031D6C341400031D6634F10EBD
:103460007135AE045D14C0212E081F39F10088317A
:10347000CB202F08F1003A30CA202F3019202E0E11
:10348000F100710C073917282608043C031D663427
:10349000433F503C03190B326612E612E13E03191A
:1034A000E616FE3903196616E42289316029823155
:1034B000D9225030883119283221031C08005910B4
:1034C0000319591430292608043C031D6634433F70
:1034D000393C093C031C6C3409350D3E220099002F
:1034E000200064061F396406E400F422893135297E
:1034F0003221031C08005911031959153029AD2434
:103500008318882A03180800B8007A08B900E1294E
:10351000B817DD29792403180800F039031D723427
:1035200071084A060F39CA0698224A088831DB28F2
:103530008231E02A792403180800F039031D72341F
:10354000710849060F39C906982249088831DB28D5
:10355000792403180800C3005813DA110630FB0061
:103560007B08FB030B006C34033E103E033E4D3ED4
:10357000033E053E4302031DF33316003A3C031D90
:1035800066347A2403180800E200013EE1001600C8
:1035900003190C323D3C7B18031D66347A24031852
:1035A00008008108031D6634E300DA155817430844
:1035B0008831BC203A3019206208DA1DBC28BC20B2
:1035C0003D3019206308BC286608F1000E30F62A49
:1035D000863154269A3191007908FB22863154268F
:1035E0009A31910A7A080732F10000308631542668
:1035F0009A319100710823001514130603190A2B40
:10360000930615158B1355309600AA309600951425
:103610008B171511130820000800792403180800DF
:10362000031972348108031D66345212E03086316A
:1036300060269B310319212B2300110F172B20002B
:103640006934FA228831BC28792403180800031948
:1036500072348108031D66343123031D080088314C
:10366000BD28F100E030863160269B3171060319D8
:10367000FB2A2300110F332B20006F342608043C53
:10368000031D6634DB01433F433A0319DB160A3A54
:1036900003195B171A3A03195B16DB08031D5B1647
:1036A0005B08F1000D30F62289316F292608043CB1
:1036B000031D66343221031C7C2B6614E6067C064F
:1036C0000139031D672BFC146923FC18C33FE42256
:1036D000352C20001C1950347C10661CFC197C14FD
:1036E0002200D0309200D130940086307C18A63071
:1036F00091009300FC100800433F523C031D6C34C2
:103700000100433F4F3A031905321D3A031D6C3443
:103710006615672B6611672B79240318992B81088E
:10372000031D6634643C031C7234643CCF00883152
:10373000BC28CF17DD2989310C2989319A297924B0
:103740000318080003196C34F20016003A3A031DFE
:103750006634F9017A240318080081080319BB2B89
:10376000F90016002C3A031D66347A240318080069
:103770008108031D6634FA007208DD230319C42B87
:103780000301DD23031D69347A08E03F7908F03F27
:10379000720881008831BC203A301920B72879247A
:1037A0000318080003196C348108031D6634DD23F7
:1037B000031D6F3481018831BD28F100013087007D
:1037C000C030860001087106031908000130860721
:1037D000831CE22B0034792403180800031DF90030
:1037E000F91B6C348108031D663483319F239B31A0
:1037F0008004790814247104FB2279088831BC28DC
:10380000792403180800031DF900F91B6C348108A2
:10381000031D663483319F239C31FF3A800579086C
:103820001424F1097105FC2B1F24F100F20E720D16
:10383000720D1F39D03E863160269C310800F2009F
:103840000130F2180430721889357219090E080017
:103850003221031C0800433F093620300318E404DA
:10386000FF3A031CE4056408F422433F8831192819
:103870003221031C0800433F093640302E2C260815
:10388000063C031D66340130F100433F483A0319FA
:103890004E2C1F3A031D66340430F100443F711969
:1038A000123A423A0319582C123A031D6634F13584
:1038B000453F533A0319602C1B3A031D6634F10E41
:1038C0007108C204433F88311920443F1920453F05
:1038D00019287924031808008108031D6634C300E1
:1038E0005817DA11E101E2018831BC28D330860093
:1038F000080076240108393C093C031C032DF10023
:103900001400393C093C031C902CA1001A307102B0
:1039100003187234710810252107031C7F2C7234A0
:10392000710808009B2403180800F100F10E9B2485
:10393000031C710408001600D03E031C032DF63E44
:10394000031CAA2CDF39F93E031C032DFA3E031891
:103950006634063E0A3E03100800BB248314031895
:1039600008009C3E8310031CFC2C031D7234FA08D3
:10397000031D7234FC2C762401082D3C063276247B
:10398000511701082D3C0319C82C5113023C03198F
:10399000860A7A2403180800F90101080319E92CA2
:1039A0002E3C031D032D0730FB0014000319E92CE6
:1039B000393C093C031C032D7B191025FB18F90722
:1039C000FB36FB080319031CD52CFB3E0318F90A30
:1039D000D52C511FF22CF109F9080319012D790892
:1039E000643CF900FA0116250318F10AA208031D28
:1039F000013EFA007108F90079080319FA0803106A
:103A00000800F10AF22C03146634F901FA000D25BE
:103A10000D25FA070318F90A0800FA35F90D080010
:103A2000A200A207A20DA207220D08001030FB0081
:103A3000A101A201FA0DF90DA20D643022020318B2
:103A4000A200A10DFB0B1A2D210808007902031D0D
:103A50000800FA080800413F323A031D63340108A8
:103A6000433A03194E2D0B3A0319472D053A031D0E
:103A70006334792403180800F039031D7234710E81
:103A80004A06F039CA0698224A0E8831DB283221CC
:103A9000031C08005912031959163029AD240318C4
:103AA0000800B6007A08B7007904031903325D15DF
:103AB000C021E129B617E129792403180800C800BC
:103AC00057158831BC28550922001506200092128E
:103AD000121353060339D306581902390038031953
:103AE000080001390319D51D782DFF30DE000800CC
:103AF000031DD519802DD515A8080319531A9B2D20
:103B0000A8080319BD2D03305402031C602E533640
:103B1000D51D0936A80BA92D0318652ED31B692EB8
:103B200052148031523026245430262426249D31CC
:103B3000D5111C11BA2DA80153121830D518083010
:103B40000C0618398C0680315830262426249D31E5
:103B5000B32D80300318D306F60DF50DF40DF30DDB
:103B60000130F6065311D40170089A020630031C86
:103B70009A0291106430950008001C19CA2DDE08C5
:103B8000031DBA2D27309A001C15D4012100911471
:103B90002000BA2D0A3054020318E22D5336D51DE9
:103BA00009360318BA2DD4080319992D80315230E3
:103BB0001A24D51D42301A249D312130A800D31378
:103BC0005311B32D323054020318B32DD519551E9D
:103BD000B32D5518531CB32D0130D506D306B32D84
:103BE0009110D40A531A082EA808031D052E540854
:103BF000143C0319312E50305402031C08001C11D0
:103C0000D511551BD51755130800D419672E080078
:103C100054180800A8080319222E0301D31D1830D8
:103C2000551A103A0C063D058C06D4182E2ED311C9
:103C30000314F60DF50DF40DF30D0318D315D4018F
:103C4000A80308001C1153123D1AD31680315830B6
:103C500026245430262426249D3108000830D3061B
:103C600008005336D51D0936031C08000130D51D48
:103C70000230D506D306D51D532E55177C184F2E6E
:103C8000D51E0800550911390319080010308C069B
:103C9000D50655055030843118249E310800D511C1
:103CA000D31C0800B32D7C1C0800D5181030550615
:103CB000103903190800D5065517492E5315BA2D8A
:103CC0005319E41A5E2E01306A2E02306A2E033038
:103CD0006A2E0430DE080319DE005336D51D09367E
:103CE000031C1C11A801D401531280315830262422
:103CF000523026242624543026249E315E0903198E
:103D0000872E453084311A249E317A30DF00BA2D57
:103D10005A17DA138D265A13DA175008DA1B500E89
:103D200007390B009D2EA92EAC2EAC2EAC2E9D2E4D
:103D30009D2E9A2EF030DA1FD0055A08C039210086
:103D40008C04200008005A093F3821008C0520000F
:103D50000800A3268C050800A326FF3A8C0408005F
:103D60005A17DA13B5265A13DA175008DA1B500E11
:103D700007390B00080008000800C22EC92EDA2EF1
:103D8000DC2ED02E0C08DA180C095A05C0398C0626
:103D900008000C085A190C095A05C0398C0608008D
:103DA000D31E0800A8088631E4269E310038031986
:103DB000D31208000C09DD2E0C085A05C039031D6A
:103DC000E72EDA1E0800DA12F901FA01F12EDA1AEA
:103DD0000800DA16023086316026F9005E26FA0005
:0A3DE0000130993148219E3108009E
:103E0000031E08008B1321006A309900D7309500FB
:103E10002200FF308D0088309700C830980017309E
:103E200099001030920011309400A6309100930058
:103E30001E149D172100E7308C0007308D002300F1
:103E400007308C008D0119309B0026309E009D1795
:103E50001D168701113086000301C43F0130E127A0
:103E6000C7271030E127811E0800CC27031D08005A
:103E7000203085008401F001CC270319F9330B3A77
:103E800003190732013A0319CC2772081A00F00708
:103E9000F333F008031D413284019501023F910084
:103EA000033F9200013FF100043084073C3F083C8F
:103EB000083C031C32320B000D32123232324232D5
:103EC000493250320532293201000002001FE91F39
:103ED00015170632653091009F3092000230840041
:103EE000951715140000000013081A0014081A0092
:103EF000910A0319920AF10BF3330408F10015112A
:103F000084010F30C727F0011200F007BA27F10B28
:103F1000FB337009013EBA27C727CC270319A83302
:103F2000FC33A43095001200930012009400110994
:103F30001F3903190232710303199512D527F10BAA
:103F4000F033DC33943095001F309104D527F10B0A
:103F5000F933D4339501151413081A00910AF10BA3
:103F6000F933CB330430950012009300D527F10BC1
:103F7000F933C433F3000F3A031906320B3A03192D
:103F80000332013A031D02320530C727730864006B
:103F9000011EFE339A0004349D1801006400811E46
:103FA000FD331908F2000F3A0800640055309600FE
:103FB000AA30960095149518FE33910A0319920AB7
:103FC00001346400811A08000B1DFB330B11090B2F
:043FD000F83304348A
:020000040001F9
:02000E00FC0BE9
:02001000FF1AD5
:10E0000077000000100000004C003D004600580062
:10E010004F004D00500043000000000000000000D1
:10E0200000000000000041003D004F00700065004E
:10E030006E0054006800650072006D00200047000B
:10E0400061007400650077006100790020003600EF
:10E050002E003200000057004400540020007200DF
:10E060006500730065007400210000005400680022
:10E07000650072006D006F00730074006100740031
:10E08000200064006900730063006F006E006E0082
:10E0900065006300740065006400000054006800BF
:10E0A000650072006D006F00730074006100740001
:10E0B000200063006F006E006E0065006300740056
:10E0C0006500640000004E0047000000530045005A
:10E0D00000004E00530000004200560000004E00B9
:10E0E000460000004F00520000004F0045000000B5
:10E0F0004D0065006400690075006D000000480077
:10E1000069006700680000004C006F007700200085
:10E1100070006F007700650072000000450072001B
:10E1200072006F0072002000000042003D003100CC
:10E1300032003A00350030002000310032002D005E
:10E14000310030002D00320030003200320000007B
:10E1500043003D00340020004D0048007A000000DC
:10E16000570042005000530043004F0055004C0040
:02E17000450068
:10E1A000000000000000000000000000000000006F
:10E1B000000000000000000000000000000000005F
:10E1C0007400750076007700780079007A007B0093
:10E1D000000000000000000000000000000000003F
:10E1E000000000000000000000000000000000002F
:10E1F000000000000000000000000000000000001F
:00000001FF
