:020000040000FA
:100000009F3100278331BD2B20001A08F0009C315E
:1000100091181925921E121B89240900731B32287E
:10002000731A56237508A4007608A5007308F70014
:1000300074087806031DD701F8067C114C1783203D
:10004000DB01D21E1E23031929287C1D52196028AA
:1000500008007C154C13D7227C1D0800CC12F4003C
:1000600083206028CB15740840060319D113731E32
:1000700056231E23F31A731E4728031942285539A5
:1000800080074A2874089A31832280314A28FF3A2F
:10009000511F80055113CC17CC1878287C1955288E
:1000A00083207C195219080060288320CC1652192D
:1000B000080040304C1F70300523CC134C1F8320A8
:1000C000760875067406F3137306F100F10E7106D7
:1000D000F100F10CF10CF1060130F118F106711884
:1000E000F3177C1808005230731B413086316F2E95
:1000F00083205030F3000430F400AA30F5002908C2
:10010000F600CC106028F41B7B2B74080B0022290E
:100110005D297A29852B8F2998299E297B2BB12946
:10012000BE29BA2AC82ABA2AC82AD229862BDE2989
:10013000852B862B862B0E2A862B862B7B2B862BBC
:10014000852B862B172A212A862B862B862B862BFE
:10015000862B862B862B7B2B7B2B7B2B7B2B7B2B4E
:100160007B2B7B2B7B2B7B2B7B2B7B2B7B2B2D2AAE
:10017000372A862B862B862B862B862B862B412A8D
:10018000612A862B862B862B862B862B862B7B2B18
:100190007B2B7B2B7B2B7B2B7B2B802B812A862B1A
:1001A000862B862B862B862B862B862B862B862BC7
:1001B000862B862B862B862B862B862B862BBA2A84
:1001C000C82ABA2AC82A7B2B7B2B7B2B7B2B7B2B29
:1001D0007B2B7B2B7B2B892A802B862B862B862BBC
:1001E000BA2AC82ABA2AC82A7B2B7B2B7B2B7B2BCB
:1001F000862B862B862B862B862B862B862B862B77
:10020000862B862B862B7B2BA92AAF2A862B603048
:100210000D297708C038F31F7F397306031D7C153D
:10022000F30600347506031D7C15F5060034771EB1
:10023000072909212408122125087606031D7C15AB
:10024000F6060034731B3D29D1225309EE38DC1E1B
:10025000FD39F1000301B4080319B5080319D219D7
:1002600001385C1A0238B6080319B708031D1038A4
:10027000F105FF3A750571041229F31A0800760892
:10028000A500413903194B12031D4B1A4B294B167C
:100290000530C000D1174D30992376080839463013
:1002A0009923760804395730992376080239483063
:1002B0009923750802394330992B731B7529D12274
:1002C00034083504521D7C19672903190800731678
:1002D0000319D21D71293208031944081221330869
:1002E0001D293408122135081D29F31E0800B40108
:1002F000B5010800731F8229013024051221250849
:100300001D2109297518CF16541A080076080B3CD0
:100310000319D41B0800D417CF1A54170800731FF1
:100320000800AA307502031D0800092129081D29AB
:10033000731B862B501A501B0800FC29731F0800E2
:1003400051100301F31E731AA629760852060339C9
:10035000D2060921521CD110D21C51117508033844
:100360001229731B7B2B36080319B70803197C1954
:10037000BA2908007316122137081D29731F0800B7
:10038000D019C429F31E08000921501E2A08122181
:10039000501E2B081D215013D41AD01D0800501DCB
:1003A000CC140800731B0800D122521F7C19DA29D3
:1003B000521D08007316490812211D29731B0929B3
:1003C000D019501B0800501AFC292B087602F100A6
:1003D0002A08031C013E7502031CFF3A031D032A71
:1003E000031CF109E0307105031D032A50190800B0
:1003F0005015D0134F309B2B50122A082B04031991
:100400000B2A50170800501DD00A501D0800541B1D
:100410000B2AAA01AB01D0014F30A72B731F080094
:10042000AF1B172909212E0812212F081D29731B24
:100430004B1C0800CB18072909212C0812212D0874
:100440001D29731B5C1D0800521A0729092122006F
:1004500040081221410820001D29731F0800D110F7
:10046000F31A862B7508C2007608C100862B731F0D
:1004700008005111F31A862B7508C4007608C300D2
:10048000862B731B4F2AB008731ED119031908005D
:1004900010300D213008122131081D213834D111BE
:1004A000F31E0800731E5B2A092130080319420855
:1004B000122131081D29B00803190800B001B1014B
:1004C0000800731B6F2AB208731E511A0319080023
:1004D00010300D213208122133081D2139345112F8
:1004E000F31E0800731E7B2A0921320803194408F1
:1004F000122133081D29B20803190800B201B30103
:10050000080038367C1D0318731B080073161D2164
:100510001229731F0800D0198F2AF31E0800D01A61
:10052000C80E7C1186237C199C2A0921480E0339A8
:100530001D215A1B76081221541BD01EA72A480ED3
:100540004806031D501BA72A5016D0155017D0126D
:100550000800731F08000921033012211D29731F91
:10056000D41F080054137508143C0319D416031C37
:1005700054170800731F08007C19CC1F862B7508C0
:10058000F31E03190800D800740AC000D117080030
:10059000731B7C1D802BD90A58085902031CD117E4
:1005A0000800731B08001E23FF3A80050800003076
:1005B000F300F501F601D1080319F02A511751187B
:1005C0000634D118303451193134D119482A511A0E
:1005D000682AD11FEF2A5908F50040080800D10108
:1005E0003F08031D0E2B4C1A042B2030FB00CC1AA5
:1005F000BC0A3C081F39E03E8531B7258231031D16
:100600000800FB0BF82A4C167C117704F300240831
:10061000F5002508F6007808F40008001030F30013
:100620007430FB00F1010314162BFB0AF10D710865
:100630003F050319152BBF067B0808007408F2005C
:10064000720CF100710C1F39BA3E8400F21B0034A9
:10065000033072180C30F100F218F10E0009710528
:10066000F10E710E080071080B00C334C1348F34D1
:100670009F340234003403340334C0342034003453
:10068000003400340034F0340F340B0000340434F0
:1006900007340C341234133413341534173419342A
:1006A0001A341A341A341A341A341E34740D031CD2
:1006B000F31A0800F100710E0F39F10074080739C0
:1006C000FB00FB0A33237106F1067106A101031832
:1006D000A10AF10CFB0B672B031C08004523A107A3
:1006E000210D203E8400850A75088000840A760862
:1006F000800085010800CC1B7C1D731F08008C2B1B
:10070000CC1B7C1D731F08008B2BD122CC1B7C1DA6
:10071000731F0800A401A50174089B312F238331A6
:10072000031D08000921603F25041D21703F24049A
:1007300012290319A72B5F3E84000014FE30000528
:1007400003190800FF3A8D05F938D30500345F3EE0
:10075000840000100008031908008D040639D30432
:1007600000342100DE1AB92BDE012000A32C210069
:100770005F15DF149F310027833122008D01210096
:100780006A309900230007308C008D0122001E146E
:100790009D172100E7308C0007308D00961C161441
:1007A0001609961B0530161B06300F3903195F0A10
:1007B000031E0301090EFC00031EFC150F309600FA
:1007C000D53095002000F9309B0000309C00960148
:1007D000970131309800230019309B001E151E121E
:1007E0009E169D17FC1D1D1622008A309700C830EA
:1007F0009800210010309E007D309D009216121747
:1008000091149D140030DC240130DC240230DC24FF
:100810000330DC249D18FE3306302626DB005630DC
:100820002626DC009C302626DD0001309D000030AD
:10083000B725DA00220099000E30B725DC009A3186
:10084000BB2284312800F930960026309700220020
:1008500015098301200092010339CD00FF308D007E
:100860004D18F739CD18EF398C000B17FC1D8B177D
:10087000BC090730D1001430C1005030C2000A302A
:10088000C3005A30C40095010B1164000B1D452CA8
:10089000AF176430C9003230C6000D30B725D40020
:1008A0001030FB00F901D030A1002108B725FA0073
:1008B0007908FA080319662CF900FA36031C642C2F
:1008C00083311F2384318004790A592C0730F904BD
:1008D000F90AA10AFB0B552C1130863142268431CE
:1008E000F1010630B7259831D2208431F10A073062
:1008F000B7259831D2208431F10A0830B7259831D4
:10090000D2208431F10A0930B7259831D2208431C0
:10091000F10A0A30B7259831D2208431F10A0B3020
:10092000B7259831D22084310130B725CA009E31D5
:100930003E268431FC1DA32C4D3083319B23273070
:100940008631422684316400BE08031D9B25FC19B4
:10095000A32C4C180725CF1B36250B19542511182D
:10096000722593184525111BBE259E3166268431BC
:100970004B198625571BB72B911EA32C23001D1D39
:10098000053299080319B12B2000A32C9D1CCD2CF6
:100990001D121D162000CB16A32CEA24CC1DA32C5F
:1009A00098310020A601CC1186310038031D39266C
:1009B000432684313225A32C093685000301090C16
:1009C000203884008001840A04097039031DE22C58
:1009D000850108002000013087002608D03E8600EF
:1009E000230019082000CC19080081000A3A0319D5
:1009F0000800073A0319012D2608013E831CA600B2
:100A00000800A608031908008101CC1508008631EA
:100A10006C2685314C1080310E2085317C18192DC3
:100A2000521D1B2DCD1674087806031D322DC70AE2
:100A30004712D701322D0130CE00CD154D1658305A
:100A400080319B235430731F42309B230830731B2B
:100A50001030BA002230A800210091142000F93093
:100A60009A001C158631862685310800CF134F1A4F
:100A70004F1C402D21005A085D022000031C080075
:100A8000873199274226853108009310C60B08004C
:100A9000CB19D70AD2173230C6005B0FDB00053006
:100AA0005B0203188C1108002100DE1EDE0A200004
:100AB0001C1D6E259831FC18B82286315509031982
:100AC000D501D508031D7B268331D608031DD60B1F
:100AD000080045308331A7238531080021009D148B
:100AE000200008001110C51F8025D01950190800DA
:100AF0008030D00650054F3083319923853108006E
:100B0000C50B0800AF17B401B50108003E083C3C16
:100B1000031C080086319326853122303D020318DC
:100B2000962D2C3086315226853108004B118631A6
:100B3000432685310800111E08002708203E840046
:100B400085140008850123009A002000A70A503070
:100B500027060319A701BE0308002300951C0800FF
:100B60002000911EAD2DF200EA247208AD2DAD25B6
:100B7000950191001514130820000800111321009D
:100B80001C085A06DA065A065A02031C003CFC39B5
:100B9000031DFC2D5A085D02031CE32D5A085B025D
:100BA0000318E02D521D26325A085C022000031C57
:100BB000FF2D5211D2114A3086314226853108006C
:100BC0002000D215E52D2000D2115219FF2D52150B
:100BD00032308631422685311C118030CF058C158C
:100BE0004D14541ED401D001AA01AB015030833101
:100BF000A7238531200008002000521D08007C1C1E
:100C0000D21F08000030F300F501F601D2121226BF
:100C1000F40080311820731A56237408F800D21398
:100C200085311B2D47080B00003419340134242E64
:100C300011341B341C340E34242E00341934013486
:100C400038343934242E1234D2160034F3000830EC
:100C5000FB001C089B1B013EF401F30C0318F40776
:100C6000F40CF30CFB0BFA337335740D731B013E5C
:100C700008008531B7258631031908005226230064
:100C8000110A392E39260D3052260A30522EF20022
:100C9000720E4B2672080F39F63E0318073E0A3EC5
:100CA000CB17303EBE080319111E5A2E23009A009E
:100CB00020000034840027083E07B03E031C503E4D
:100CC000203E0406840604068514800085013E0843
:100CD000503A031DBE0A00345430731B42304C1985
:100CE00008005226730847267408472675084726C9
:100CF00076084726432ECF1B08008A303926550830
:100D0000472643264530551C6F26D501390803195F
:100D1000080084000008F100390847263D305226BB
:100D200071084726432E3D083D07203E8400850A72
:100D30000008F900840A0008FA0085013D08BD0A90
:100D40000B00C32EDB2EC32EDB2EDB2EDB2EEB2E79
:100D5000DB2EDB2EDB2EDB2EDB2EDB2EDB2EDB2E4B
:100D6000D92EDB2EDB2E0F2FEB2EEB2EDB2EDB2EE8
:100D7000C32EEF2EEF2E112F112F112F112F112F08
:100D8000112F112F112F7908C8262F3052267A08DB
:100D9000F1000830FB00F10DD026FB0BCB2E080034
:100DA0001E0D502EF909FA09FA0A0319F90A2D3015
:100DB000522EF91BD2267A0FDF2EF90AFA01790892
:100DC000F0266430F1007A08DE27FA1BF90A790868
:100DD000F1002E30FE2E7908F0262F3052267A08A8
:100DE000F1007108CB139C3E031C002FF1009C3EC8
:100DF000031CFD2EF1003230FE2E31305226CB176F
:100E0000FB017108F100F63E031C082FFB0A022FBC
:100E10007B080319CB1B0D277108CB17502EF91B2C
:100E2000D2261030FB00A101A201A3011D2F23082F
:100E30002E27A30022082E27A200FA0DF90DA30DDC
:100E4000A20DA10DFB0B172FCB132108352722086C
:100E5000352723083527CB1B0800502E333EF100E1
:100E6000F11DFD3EF11FD03E0800F100710E392743
:100E700071080F390319CB1B502E08002608043CBB
:100E8000031D6234433F5A3C193C031C68340B0079
:100E90000F349134A434C62F68346834B72F6834C3
:100EA000B12F683468340434842F68346A2F982F43
:100EB000892FA02FBA2FA92F6834662F912F68345D
:100EC00068346834433F52263D30522E62275A36EA
:100ED000FA3E4B2E6227D0084E300319522E2A08B4
:100EE0002B046E300319522E480E48060F39D01EBF
:100EF000C8065430C81C4330501D203852262A08DA
:100F0000F9002B08FA00DB2E622747307C184D30A1
:100F1000522E62277C0E0F39AC3E8531B7258731C2
:100F2000522E62273030DC1A31305C1E4130522E96
:100F300062274F1E803474304F187B30392683343B
:100F400062274430D41B5230D41A4330541B4930EA
:100F5000522E62275A0EF100F10CF10CD026F10C42
:100F6000D02E62270C0D803ED0260C0DD02E62278D
:100F70004A0E472E622702308531B7258731F900A6
:100F800003308531B7258731FA00DB2E62274F30D9
:100F90005C195230522E2608043C031D6234433F34
:100FA000313C013C031C68340319DA2FBD014B1599
:100FB0004C15DC2F4B114C118631502EF901FA01E2
:100FC000083AFB00083AFB06FA35F90DF10D031853
:0C0FD000FA070318F90AFB0BE42F0800D5
:10300000CB1A3E28D030860004302602031C6234DE
:10301000423F3D3C031D6234010886315226413F48
:1030200052263A305226203052269831413F01062E
:10303000F100E039031D702C71080B0040284B286B
:1030400053285B2860286828EE287028B828B828FC
:10305000B82877285F34B828B828B8287C2887286B
:103060008F285F3494285F345F3499285F345F344D
:103070005F349E28A628AB285F34B328CB12713466
:103080000108543A03192A29153A03195F2A0C3A00
:103090000319DB2A5F340108523A0319932B013AD2
:1030A0000319F12A5F340108503A0319ED2A1B3A3B
:1030B0000319562B5F340108503A0319EF2A5F3485
:1030C0000108563A03192D2A053A03196A295F3473
:1030D0000108443A0319762A123A0319A329EE2863
:1030E00001084F3A03198C2B1B3AD02A5F34010890
:1030F000433A0319262A5F340108533A0319DF299A
:10310000143A0319A52A043A03199A295F340108CD
:10311000433A0319212B103A03195E295F34010841
:10312000463A0319902A5F340108443A0319D52915
:103130005F340108543A031925295F3401084F3AD6
:103140000319B2291C3A031982295F340108553A40
:1031500003193D2B5F340108493A03197C2B193AB6
:103160000319BD2B5F340108483A0319162A5F344E
:1031700001084C3A031D5F342608043C031D6234E9
:10318000433FF1005A3C193C031C6834413FBF3EA9
:10319000063E4822433F863152269831413FBF3E8A
:1031A000F100433FF9000830F11840307119023046
:1031B000A1007118A135A03084001A30FB0021094C
:1031C0008005840AFB0BE02879085F3E8400210813
:1031D00080047908001C03158331992B0108473CB2
:1031E000031D5F342608043C031D6234433FD03E78
:1031F000F100F839031D6234413F0936F0300318FD
:1032000007294A05703A03194B10F10E0F304A0591
:103210007104CA00F100013048225317D313C030A3
:10322000031CD3069E3143264A08031C4A0E073965
:103230008631502E03102608043A031D6234433FA2
:10324000313C013C031808006834012403180800CD
:1032500001302E2901240318080003303021BD2934
:1032600048060F39C8060030541F3B292A082B0492
:10327000031D50161030D0057A08AB007908AA005B
:10328000D0155017D016A901D41ACC142B04031949
:103290005A29D41E08002A084A247A08A9002B08B3
:1032A0004A247908A907FA1BA90A2A08F9002B0859
:1032B000FA00080050164810C8100800012403182E
:1032C000080003196234023048227A08F100033002
:1032D0004822BD290524031808000319792941084B
:1032E0006B24031C683442086B24031D031C7B29D8
:1032F0006834D1117D295218D1157A08B1007908A6
:10330000B000BD29052403180800031991294308BA
:103310006B24031C683444086B24031D031C93298D
:10332000683451129529D21851167A08B3007908D9
:10333000B200BD29012403180800B4007A08B500C2
:103340007830C500BD29CC230318B0298008031D9F
:103350006234643C031C6E34710DB8008631F12E6A
:10336000B801B929052403180800F91F791FBC29E1
:103370004B102D308631522EC6218631D92E403049
:103380005C1DC6295216031C5212CD294B14CB14B6
:10339000031CCB102C30CE213E30850A84007908E6
:1033A0001A007A088000850108002608053C031DE4
:1033B0006234E52303180800B9008631472ECC2378
:1033C00003180800AE00173C031C6E3416003A3C8C
:1033D000031D6234CD2303186234AF003B3C031C51
:1033E0006E3416002F3C031D623430300102031D81
:1033F000031C6834F100F839031D68341400031D00
:103400006234F10E7135AE047830C5002E081F39D4
:10341000F1008631FF262F08F1003A30FE262F30CA
:1034200052262E0EF100710C0739502E2608043C4E
:10343000031D62345C12DC12433F313C0319DC167D
:10344000FE3903195C1642228731922F1A21031C80
:10345000080053100319531418292608043C031DAF
:103460006234433F393C093C031C683409350D3E46
:103470002200990020005A061F395A06DA00462217
:103480008731672F5C08F1000E30482AF1000030C8
:103490008531AD259A31910071082300151413066A
:1034A00003195C2A930615158B1355309600AA3024
:1034B000960095148B171511130820000800CC23D3
:1034C0000318080003196E348008031D62344C127F
:1034D000E0308531B7259A310319732A2300110F83
:1034E000692A200065344C228631F02ECC23031843
:1034F000080003196E348008031D62348322031D03
:1035000008008631F12EF100E0308531B7259A317F
:10351000710603194D2A2300110F852A20006B34F0
:103520002608043C031D6234D401433F433A031987
:10353000D4160A3A03195417D408031D5416540814
:10354000F1000D3048228731A12F2608043C031DCD
:1035500062341A21031CCB2A5C14DC067C06013978
:10356000031DB62AFC14B822FC18C33F4222892B43
:1035700020001C1950347C105C1CFC197C142200A7
:10358000D0309200D130940086307C18A630910063
:103590009300FC100800433F523C031D68340100B7
:1035A000433F4F3A031905321D3A031D68345C1539
:1035B000B62A5C11B62ACC230318E92A8008031D19
:1035C0006234643C031C6E345217643CC90086317B
:1035D000F02E52136430C900B92987313E2F87314C
:1035E000CB2FCC230318080003196834F20016000F
:1035F0003A3A031D6234F901CD230318080081080B
:1036000003190D2BF90016002C3A031D6234CD234B
:10361000031808008108031D6234FA0072082F2382
:103620000319162B03012F23031D65347A08E03F8D
:103630007908F03F720881008631F0263A30522630
:10364000EB2ECC2303180800031968348108031DEE
:1036500062342F23031D6B3481018631F12EF1007A
:1036600001308700C0308600010871060319080088
:1036700001308607831C342B0034CC230318080048
:10368000031DF900F91B68348108031D623483317E
:103690001F239B31800479086E23D03E8531B725E6
:1036A0009B3171044D2279088631F02ECC2303180A
:1036B0000800031DF900F91B68348108031D6234FA
:1036C00083311F239B31FF3A800579086E23D03E5A
:1036D0008531B7259B31F1097105522BF20001307C
:1036E000F2180430F1007218F1357219F10EF20E71
:1036F000720D720D1F3908001A21031C0800433F88
:10370000093620300318DA04FF3A031CDA055A0898
:103710004622433F8631522E1A21031C0800433FA4
:1037200009364030822B2608063C031D62340130E6
:10373000F100433F483A0319A22B1F3A031D62349C
:103740000430F100443F7119123A423A0319AC2B8C
:10375000123A031D6234F135453F533A0319B42B35
:103760001B3A031D6234F10E7108BF04433F8631DA
:103770005226443F5226453F522ECC2303180800C0
:103780008008031D6234C000D117D801D9018631E9
:10379000F02ED33086000800C9230108393C093CCB
:1037A000031C482CF1001400393C093C031CE32B9A
:1037B000A1001A30710203186E34710855242107D4
:1037C000031CD22B6E3471080800C923EF230318A1
:1037D0000800F100F10EEF23031C7104080016002D
:1037E000D03E031C482CF63E031CFE2BDF39F93E6D
:1037F000031C482CFA3E03186234063E0A3E0310AE
:103800000800C92301082D3C0632C9234B170108C3
:103810002D3C03190E2C4B13023C0319860ACD23B1
:1038200003180800F901010803192F2C2E3C031D71
:10383000482C0730FB00140003192F2C393C093C9D
:10384000031C482C7B195524FB18F907FB36FB0891
:103850000319031C1B2CFB3E0318F90A1B2C4B1FDE
:10386000382CF109F9080319462C7908643CF90051
:10387000FA015B240318F10AA208031D013EFA00B5
:103880007108F9000319FA0803100800F10A382C2E
:1038900003146234F901FA0052245224FA0703187F
:1038A000F90A0800FA35F90D0800A200A207A20DD6
:1038B000A207220D08001030FB00A101A201FA0DA1
:1038C000F90DA20D643022020318A200A10DFB0B1A
:1038D0005F2C210808007902031D0800FA0808007F
:1038E000413F323A031D5F340108433A0319822CE9
:1038F0000B3A031D5F341A21031C080053120319ED
:1039000053161829012403180800B6007A08B700D6
:10391000BD294F09220015062000921212134D06F0
:103920000339CD065219023900380319080001394C
:103930000319CF1D9E2CFF30D5000800031DCF19A1
:10394000A62CCF15A80803194D1AC22CA8080319D4
:10395000E52C03304E02031C8A2D4D36CF1D09364F
:10396000A80BD12C03188F2DCD1B932D4C14803117
:103970005230A7235430A7234230A7239C31CF11C4
:103980001C11E22CA8014D121830CF1808300C067B
:1039900018398C0680315830A7234230A7239C3138
:1039A000DB2C80300318CD06F60DF50DF40DF30D6C
:1039B0000130F6064D11CE0170089A020630031C44
:1039C0009A0291106430950008001C19F22CD50859
:1039D000031DE22C27309A001C15CE012100911402
:1039E0002000E22C0A304E0203180B2D4D36CF1D5D
:1039F00009360318E22CCE080319C02C803152304E
:103A00009B234230CF1954309B239C312130A80096
:103A1000CD134D11DB2C32304E020318DB2CCF19A5
:103A20004F1EDB2C4F184D1CDB2C0130CF06CD0672
:103A3000DB2C9110CE0A4D1A312DA808031D2E2D16
:103A40004E08143C03195B2D50304E02031C080035
:103A50001C11CF114F1BCF174F130800CE19912DFA
:103A600008004E180800A80803194B2D0301CD1DAE
:103A700018304F1A103A0C063A058C06CE18582DFD
:103A8000CD110314F60DF50DF40DF30D0318CD153E
:103A9000CE01A80308001C114D123A1ACD16803130
:103AA0005830A7235430A7234230A7239C31080065
:103AB0000830CD0608004D36CF1D0936031C08001E
:103AC0000130CF1D0230CF06CD06CF1D7D2D4F1703
:103AD0007C18792DCF1E08004F09113903190800F1
:103AE00010308C06CF064F055030833199239D311D
:103AF0000800CF11CD1C0800DB2C7C1C0800CF185F
:103B000010304F06103903190800CF064F17732DD8
:103B10004D15E22C4D19DA1A882D0130942D023002
:103B2000942D0330942D0430D5080319D5004D365B
:103B3000CF1D0936031C1C11A801CE014D12803186
:103B40005830A7235230A7234230A7235430A7234D
:103B50009D3155090319B22D453083319B239D3189
:103B60007A30D600E22C031DC52D5D081F39DD0A11
:103B70000B00C82D2C2ED42D0034C82D2A2ED72D65
:103B8000C82D2C2EE42DE62DEA2D03140126003439
:103B90008C1321008C13052621008C172000082689
:103BA0008C1BC52D0626013444302D2600341926E1
:103BB0007108103A03190134DD17383A031901343A
:103BC0000A3A03190134C52DBE302D2E192671086D
:103BD000DE0001341926DD1BF32D710C5E0CF9009B
:103BE000FA01FA0CFD2D5E0EF039FA00710EF03973
:103BF000F1005E0E0F397104F900553A0319C52D15
:103C000003109931BF21DD0101340626E830092E69
:103C100036302100911020001B020A3E9A001C152C
:103C2000911C102E1C119110080017261726000059
:103C300008001A261D261D261D268C1321008C1314
:103C400003108C17200016268C1B0314F10C2D304A
:103C50000926080033302D2ECC30F1002F263226D5
:103C600032263226F10C8C1321008C1303188C178A
:103C70003230092621008C17200001345317D3134A
:103C800043265313D3174A08D31B4A0E07390B0098
:103C9000532E5F2E622E622E622E532E532E502EE6
:103CA000F030D31FCA055308C03921008C0420000E
:103CB000080053093F3821008C05200008005926D0
:103CC0008C0508005926FF3A8C0408005317D313BB
:103CD0006B265313D3174A08D31B4A0E07390B0020
:103CE000080008000800782E7F2E902E922E862E37
:103CF0000C08D3180C095305C0398C0608000C08B1
:103D000053190C095305C0398C060800CD1E080054
:103D1000A8089D31B3259E3100380319CD12080043
:103D20000C09932E0C085305C039031D9D2ED31D7D
:103D30000800D311F901FA01A82ED3190800D315F0
:103D400002308531B725F9000330B725FA0001307C
:083D5000993130219E31080079
:103E0000031E08008B1321006A309900D7309500FB
:103E10002200FF308D0088309700C830980017309E
:103E200099001030920011309400A6309100930058
:103E30001E149D172100E7308C0007308D002300F1
:103E400007308C008D0119309B0026309E009D1795
:103E50001D168701113086000301C43F0130E127A0
:103E6000C7271030E127811E0800CC27031D08005A
:103E7000203085008401F001CC270319F9330B3A77
:103E800003190732013A0319CC2772081A00F00708
:103E9000F333F008031D413284019501023F910084
:103EA000033F9200013FF100043084073C3F083C8F
:103EB000083C031C32320B000D32123232324232D5
:103EC000493250320532293201000002001FE91F39
:103ED00015170632653091009F3092000230840041
:103EE000951715140000000013081A0014081A0092
:103EF000910A0319920AF10BF3330408F10015112A
:103F000084010F30C727F0011200F007BA27F10B28
:103F1000FB337009013EBA27C727CC270319A83302
:103F2000FC33A43095001200930012009400110994
:103F30001F3903190232710303199512D527F10BAA
:103F4000F033DC33943095001F309104D527F10B0A
:103F5000F933D4339501151413081A00910AF10BA3
:103F6000F933CB330430950012009300D527F10BC1
:103F7000F933C433F3000F3A031906320B3A03192D
:103F80000332013A031D02320530C727730864006B
:103F9000011EFE339A0004349D1801006400811E46
:103FA000FD331908F2000F3A0800640055309600FE
:103FB000AA30960095149518FE33910A0319920AB7
:103FC00001346400811A08000B1DFB330B11090B2F
:043FD000F83304348A
:020000040001F9
:02000E00FC0BE9
:02001000FF1AD5
:10E0000077000000100000004C003D004600580062
:10E010004F004D0050004300000000000000410090
:10E020003D004F00700065006E0054006800650000
:10E0300072006D00200047006100740065007700E9
:10E0400061007900200036002E00300000005700EB
:10E0500044005400200072006500730065007400E5
:10E060002100000054006800650072006D006F0020
:10E070007300740061007400200064006900730084
:10E0800063006F006E006E00650063007400650041
:10E090006400000054006800650072006D006F00AD
:10E0A0007300740061007400200063006F006E0054
:10E0B0006E006500630074006500640000004E009F
:10E0C000470000005300450000004E0053000000D0
:10E0D0004200560000004E00460000004F00520073
:10E0E00000004F00450000004D006500640069001D
:10E0F00075006D00000048006900670068000000BE
:10E100004C006F007700200070006F007700650002
:10E11000720000004500720072006F007200200063
:10E12000000042003D00310030003A003100300074
:10E130002000300039002D00300033002D00320067
:10E14000300032003200000043003D003400200067
:10E150004D0048007A000000570042005000530074
:0AE1600043004F0055004C0045003D
:10E1A000000000000000000000000000000000006F
:10E1B000000000000000000000000000000000005F
:10E1C0007400750076007700780079007A007B0093
:10E1D000000000000000000000000000000000003F
:10E1E000000000000000000000000000000000002F
:10E1F000000000000000000000000000000000001F
:00000001FF
