:020000040000FA
:100000009F3100278331BD2B20001A08F0009C315E
:1000100091182225921E121B92240900731B32286C
:10002000731A56237508A4007608A5007308F70014
:1000300074087806031DD801F8067C114D1783203B
:10004000DC01D31E1E23031929287C1D53196028A7
:1000500008007C154D13D7227C1DF833CD12F40017
:1000600083206028CC15740841060319D213731E2F
:1000700056231E23F31A731E4728031942285539A5
:1000800080074A2874089A318D2280314A28FF3A25
:10009000521F80055213CD17CD1878287C1955288A
:1000A00083207C195319080060288320CD1653192A
:1000B000080040304D1F70300523CD134D1F8320A5
:1000C000760875067406F3137306F100F10E7106D7
:1000D000F100F10CF10CF1060130F118F106711884
:1000E000F3177C1808005230731B413086317A2E8A
:1000F00083205030F3000430F400AA30F5002908C2
:10010000F600CD106028F41B7B2B74080B0022290D
:100110005D297A29852B8F2998299E297B2BB12946
:10012000BE29BA2AC82ABA2AC82AD229862BDE2989
:10013000852B862B862B0E2A862B862B7B2B862BBC
:10014000852B862B172A212A862B862B862B862BFE
:10015000862B862B862B7B2B7B2B7B2B7B2B7B2B4E
:100160007B2B7B2B7B2B7B2B7B2B7B2B7B2B2D2AAE
:10017000372A862B862B862B862B862B862B412A8D
:10018000612A862B862B862B862B862B862B7B2B18
:100190007B2B7B2B7B2B7B2B7B2B802B812A862B1A
:1001A000862B862B862B862B862B862B862B862BC7
:1001B000862B862B862B862B862B862B862BBA2A84
:1001C000C82ABA2AC82A7B2B7B2B7B2B7B2B7B2B29
:1001D0007B2B7B2B7B2B892A802B862B862B862BBC
:1001E000BA2AC82ABA2AC82A7B2B7B2B7B2B7B2BCB
:1001F000862B862B862B862B862B862B862B862B77
:10020000862B862B862B7B2BA92AAF2A862B603048
:100210000D297708C038F31F7F397306031D7C153D
:10022000F30600347506031D7C15F5060034771EB1
:10023000072909212408122125087606031D7C15AB
:10024000F6060034731B3D29D1225409EE38DD1E19
:10025000FD39F1000301B4080319B5080319D319D6
:1002600001385D1A0238B6080319B708031D1038A3
:10027000F105FF3A750571041229F31A0800760892
:10028000A500413903194C12031D4C1A4B294C1679
:100290000530C100D2174D30992376080839463011
:1002A0009923760804395730992376080239483063
:1002B0009923750802394330992B731B7529D12274
:1002C00034083504531D7C19672903190800731677
:1002D0000319D31D71293208031945081221330867
:1002E0001D293408122135081D29F31E0800B40108
:1002F000B5010800731F8229013024051221250849
:100300001D2109297518D016551A080076080B3CCE
:100310000319D51B0800D517D01A55170800731FED
:100320000800AA307502031D0800092129081D29AB
:10033000731B862B511A511B0800FC29731F0800E0
:1003400052100301F31E731AA629760853060339C7
:10035000D3060921531CD210D31C5211750803383F
:100360001229731B7B2B36080319B70803197C1954
:10037000BA2908007316122137081D29731F0800B7
:10038000D119C429F31E08000921511E2A0812217F
:10039000511E2B081D215113D51AD11D0800511DC6
:1003A000CD140800731B0800D122531F7C19DA29D1
:1003B000531D080073164A0812211D29731B0929B1
:1003C000D119511B0800511AFC292B087602F100A3
:1003D0002A08031C013E7502031CFF3A031D032A71
:1003E000031CF109E0307105031D032A51190800AF
:1003F0005115D1134F309B2B51122A082B0403198E
:100400000B2A51170800511DD10A511D0800551B18
:100410000B2AAA01AB01D1014F30A72B731F080093
:10042000AF1B172909212E0812212F081D29731B24
:100430004C1C0800CC18072909212C0812212D0872
:100440001D29731B5D1D0800531A0729092122006D
:1004500040081221410820001D29731F0800D210F6
:10046000F31A862B7508C3007608C200862B731F0B
:1004700008005211F31A862B7508C5007608C400CF
:10048000862B731B4F2AB008731ED219031908005C
:1004900010300D213008122131081D213834D211BD
:1004A000F31E0800731E5B2A092130080319430854
:1004B000122131081D29B00803190800B001B1014B
:1004C0000800731B6F2AB208731E521A0319080022
:1004D00010300D213208122133081D2139345212F7
:1004E000F31E0800731E7B2A0921320803194508F0
:1004F000122133081D29B20803190800B201B30103
:10050000080038367C1D0318731B080073161D2164
:100510001229731F0800D1198F2AF31E0800D11A5F
:10052000C90E7C1186237C199C2A0921490E0339A6
:100530001D215B1B76081221551BD11EA72A490ECF
:100540004906031D511BA72A5116D1155117D11267
:100550000800731F08000921033012211D29731F91
:10056000D51F080055137508143C0319D516031C34
:1005700055170800731F08007C19CD1F862B7508BE
:10058000F31E03190800D900740AC100D21708002D
:10059000731B7C1D802BDA0A59085A02031CD217E0
:1005A0000800731B08001E23FF3A80050800003076
:1005B000F300F501F601D2080319F02A5217521878
:1005C0000634D218303452193134D219482A521A0A
:1005D000682AD21FEF2A5A08F50041080800D20104
:1005E0004008031D0E2B4D1A042B2030FB00CD1AA2
:1005F000BD0A3D081F39E03E8531C1258231031D0A
:100600000800FB0BF82A4D167C117704F300240830
:10061000F5002508F6007808F40008001030F30013
:100620007430FB00F1010314162BFB0AF10D710865
:1006300040050319152BC0067B0808007408F2005A
:10064000720CF100710C1F39BA3E8400F21B0034A9
:10065000033072180C30F100F218F10E0009710528
:10066000F10E710E080071080B00C334C1348F34D1
:100670009F340234003403340334C0342034003453
:10068000003400340034F0340F340B0000340434F0
:1006900007340C341234133413341534173419342A
:1006A0001A341A341A341A341A341E34740D031CD2
:1006B000F31A0800F100710E0F39F10074080739C0
:1006C000FB00FB0A33237106F1067106A101031832
:1006D000A10AF10CFB0B672B031C08004523A107A3
:1006E000210D203E8400850A75088000840A760862
:1006F000800085010800CD1B7C1D731F08008C2B1A
:10070000CD1B7C1D731F08008B2BD122CD1B7C1DA4
:10071000731F0800A401A50174089B31392383319C
:10072000031D08000921603F25041D21703F24049A
:1007300012290319A72B5F3E84000014FE30000528
:1007400003190800FF3A8D05F938D40500345F3EDF
:10075000840000100008031908008D040639D40431
:1007600000342100DE1AB92BDE012000AD2C21005F
:100770005F15DF149F310027833122008D01210096
:100780006A309900230007308C008D0122001E146E
:100790009D172100E7308C0007308D00961C161441
:1007A0001609961B0530161B06300F3903195F0A10
:1007B000031E0301090EFC00031EFC150F309600FA
:1007C000D53095002000F9309B0000309C00960148
:1007D000970131309800230019309B001E151E121E
:1007E0009E169D1722008A309700C8309800171F68
:1007F000FE33210010309E007D309D0092161217AE
:100800009114000000009D14FC1D0C2C2730863133
:100810004D2684315319FC110030E6240130E624C2
:100820000230E6240330E6249D18FE3306303126DC
:10083000DB0056303126DC009C303126DD000130F3
:100840009D000030C125DB00220099000E30C1253B
:10085000DD009A31C52284312300FC1D1D162800BD
:10086000F9309600263097002200150983012000F8
:1008700092010339CE00FF308D004E18F739CE18A3
:10088000EF398C000B17FC1D8B17BD090730D20008
:100890001430C2005030C3000A30C4005A30C500C2
:1008A00095010B1164000B1D522CAF176430CA0068
:1008B0003230C7000D30C125D5001030FB00F901E2
:1008C000D030A1002108C125FA007908FA080319DF
:1008D000732CF900FA36031C712C83311F238431E9
:1008E0008004790A662C0730F904F90AA10AFB0B87
:1008F000622C113086314D268431F1010630C1253C
:100900009831D2208431F10A0730C1259831D220A4
:100910008431F10A0830C1259831D2208431F10A9E
:100920000930C1259831D2208431F10A0A30C1251D
:100930009831D2208431F10A0B30C1259831D22070
:1009400084310130C125CB009E3147268431FC1D06
:10095000AD2C4D3083319B2384316400BF08031DCF
:10096000A525FC19AD2C4D181125D01B40250B19C0
:100970005E2511187C2593184F25111BC8259E3123
:100980006F2684314C199025581BB72B911EAD2C26
:1009900023001D1D053299080319B12B2000AD2C31
:1009A0009D1CD72C1D121D162000CC16AD2CF42436
:1009B000CD1DAD2C98310020A601CD118631003817
:1009C000031D44264E2684313C25AD2C0936850076
:1009D0000301090C203884008001840A040970395D
:1009E000031DEC2C8501080020000130870026083B
:1009F000D03E8600230019082000CD190800810090
:100A00000A3A03190800073A03190B2D2608013E7C
:100A1000831CA6000800A608031908008101CD1553
:100A200008008631772685314D1080310E208531C2
:100A30007C18232D531D252DCE1674087806031D12
:100A40003C2DC80A4812D8013C2D0130CF00CE15EC
:100A50004E16583080319B235430731F42309B23F5
:100A60000830731B1030BB002230A8002100911405
:100A70002000F9309A001C15863191268531080036
:100A8000D013501A501C4A2D21005A085D02200034
:100A9000031C08008731A9274D26853108009310D3
:100AA000C70B0800CC19D80AD3173230C7005C0F27
:100AB000DC0005305C0203188C1108002100DE1EEA
:100AC000DE0A20001C1D78259831FC18C2228631D0
:100AD00056090319D601D608031D86268331D70887
:100AE000031DD70B080045308331A723853108004B
:100AF00021009D14200008001110C61F8A25D1195D
:100B0000511908008030D10651054F3083319923A7
:100B100085310800C60B0800AF17B401B501080005
:100B20003F083C3C031C08008631A3268531223057
:100B30003E020318A02D2C3086315D268531080039
:100B40004C1186314E2685310800111E08002708F9
:100B5000203E840085140008850123009A002000AF
:100B6000A70A503027060319A701BF030800230076
:100B7000951C08002000911EB72DF200F424720885
:100B8000B72DB72595019100151413082000080012
:100B9000111321001C085A06DA065A065A02031CD1
:100BA000003CFC39031D062E5A085D02031CED2D86
:100BB0005A085B020318EA2D5A085C022000531DF4
:100BC0000800031C092E5311D3114A3086314D26DB
:100BD000853108002000D315EF2D2000D3115319C3
:100BE000092E5315323086314D2685311C11803047
:100BF000D0058C154E14551ED501D101AA01AB01AB
:100C000050308331A7238631200008002000531D77
:100C100008007C1CD31F08000030F300F501F6012A
:100C2000F701D3121D26F40080311820731A5623C1
:100C30007408F800D3138531252D48080B000034C3
:100C4000193401342F2E11341B341C340E342F2E42
:100C5000003419340134383439342F2E1234D31679
:100C60000034F3000830FB001C089B1B013EF4011C
:100C7000F30C0318F407F40CF30CFB0BFA33733585
:100C8000740D731B013E08008531C125863103199F
:100C900008005D262300110A442E44260D305D26EF
:100CA0000A305D2EF200720E562672080F39F63E9B
:100CB0000318073E0A3ECC17303EBF080319111E29
:100CC000652E23009A0020000034840027083F0787
:100CD000B03E031C503E203E0406840604068514E4
:100CE000800085013F08503A031DBF0A003454308C
:100CF000731B42304D1908005D2673085226740894
:100D0000522675085226760852264E2ED01B080011
:100D10008A304426560852264E264530561C7A26DE
:100D2000D60139080319080084003A088500000834
:100D30008501F1003A085626390852263D305D26D5
:100D4000710852264E2E3E083E07203E8400850A3A
:100D50000008F900840A0008FA0085013E08BE0A6E
:100D60000B00D32EEB2ED32EEB2EEB2EEB2EFB2EE9
:100D7000EB2EEB2EEB2EEB2EEB2EEB2EEB2EEB2EAB
:100D8000E92EEB2EEB2E1F2FFB2EFB2EEB2EEB2E48
:100D9000D32EFF2EFF2E212F212F212F212F212F68
:100DA000212F212F212F7908D8262F305D267A0870
:100DB000F1000830FB00F10DE026FB0BDB2E0800F4
:100DC0001E0D5B2EF909FA09FA0A0319F90A2D30EA
:100DD0005D2EF91BE2267A0FEF2EF90AFA01790847
:100DE00000276430F1007A08EE27FA1BF90A790827
:100DF000F1002E300E2F790800272F305D267A085B
:100E0000F1007108CC139C3E031C102FF1009C3E96
:100E1000031C0D2FF10032300E2F31305D26CC1720
:100E2000FB017108F100F63E031C182FFB0A122F7C
:100E30007B080319CC1B1D277108CC175B2EF91BEF
:100E4000E2261030FB00A101A201A3012D2F2308EF
:100E50003E27A30022083E27A200FA0DF90DA30D9C
:100E6000A20DA10DFB0B272FCC132108452722082B
:100E7000452723084527CC1B08005B2E333EF10095
:100E8000F11DFD3EF11FD03E0800F100710E492713
:100E900071080F390319CC1B5B2E08002608043C8F
:100EA000031D6234433F5A3C193C031C68340B0059
:100EB0000F349134A434D62F68346834C72F683483
:100EC000C12F683468340434942F68347A2FA82FE3
:100ED000992FB02FCA2FB92F6834762FA12F6834DD
:100EE00068346834433F5D263D305D2E72275B36A3
:100EF000FA3E562E7227D1084E3003195D2E2A086D
:100F00002B046E3003195D2E490E49060F39D11E90
:100F1000C9065430C91C4330511D20385D262A08AB
:100F2000F9002B08FA00EB2E722747307C184D3061
:100F30005D2E72277C0E0F39AC3E8531C12587317D
:100F40005D2E72273030DD1A31305D1E41305D2E4E
:100F50007227501E8034743050187B3044268334FE
:100F600072274430D51B5230D51A4330551B4930B7
:100F70005D2E72275B0EF100F10CF10CE026F10CF6
:100F8000E02E72270C0D803EE0260C0DE02E72271D
:100F90004B0E522E722702308531C1258731F90060
:100FA00003308531C1258731FA00EB2E72274F308F
:100FB0005D1952305D2E2608043C031D6234433F08
:100FC000313C013C031C68340319EA2FBE014C1567
:100FD0004D15EC2F4C114D1186315B2EF901FA01A4
:100FE000083AFB00083AFB06FA35F90DF10D031833
:0C0FF000FA070318F90AFB0BF42F0800A5
:10300000CC1A3E28D030860004302602031C6234DD
:10301000423F3D3C031D6234010886315D26413F3D
:103020005D263A305D2620305D269831413F01060D
:10303000F100E039031D792C71080B0040284B2862
:1030400053285B2860286828EE287028B828B828FC
:10305000B82877285F34B828B828B8287C2887286B
:103060008F285F3494285F345F3499285F345F344D
:103070005F349E28A628AB285F34B328CC12713465
:103080000108543A03192A29153A0319692A0C3AF6
:103090000319E52A5F340108523A03199D2B013ABE
:1030A0000319FB2A5F340108503A0319F72A1B3A27
:1030B0000319602B5F340108503A0319F92A5F3471
:1030C0000108563A0319372A053A03196A295F3469
:1030D0000108443A0319802A123A0319A329EE2859
:1030E00001084F3A0319962B1B3ADA2A5F3401087C
:1030F000433A0319302A5F340108533A0319E92986
:10310000143A0319AF2A043A03199A295F340108C3
:10311000433A03192B2B103A03195E295F34010837
:10312000463A03199A2A5F340108443A0319D5290B
:103130005F340108543A031925295F3401084F3AD6
:103140000319B2291C3A031982295F340108553A40
:103150000319472B5F340108493A0319862B193AA2
:103160000319C72B5F340108483A0319202A5F343A
:1031700001084C3A031D5F342608043C031D6234E9
:10318000433FF1005A3C193C031C6834413FBF3EA9
:10319000063E5222433F86315D269831413FBF3E75
:1031A000F100433FF9000830F11840307119023046
:1031B000A1007118A135A03084001A30FB0021094C
:1031C0008005840AFB0BE02879085F3E8400210813
:1031D00080047908001C03158331992B0108473CB2
:1031E000031D5F342608043C031D6234433FD03E78
:1031F000F100F839031D6234413F0936F0300318FD
:1032000007294B05703A03194C10F10E0F304B058E
:103210007104CB00F100013052225417D413C03096
:10322000031CD4069E314C264B08031C4B0E073959
:1032300086315B2E03102608043A031D6234433F97
:10324000313C013C0318080068340A2403180800C4
:1032500001302E290A240318080003303021BD292B
:1032600049060F39C9060030551F3B292A082B048F
:10327000031D51161030D1057A08AB007908AA0059
:10328000D1155117D116A901D51ACD142B04031944
:103290005A29D51E08002A0853247A08A9002B08A9
:1032A00053247908A907FA1BA90A2A08F9002B0850
:1032B000FA00080051164910C91008000A24031822
:1032C000080003196234023052227A08F1000330F8
:1032D0005222BD290E240318080003197929420837
:1032E0007424031C683443087424031D031C7B29C5
:1032F0006834D2117D295318D2157A08B1007908A3
:10330000B000BD290E2403180800031991294408B0
:103310007424031C683445087424031D031C93297A
:10332000683452129529D31852167A08B3007908D6
:10333000B200BD290A2403180800B4007A08B500B9
:103340007830C600BD29D6230318B0298108031D93
:103350006234643C031C6E34710DB8008731012F58
:10336000B801B9290E2403180800F91F791FBC29D8
:103370004C102D3086315D2EC6218631E92E40302D
:103380005D1DC6295316031C5312CD294C14CC14B1
:10339000031CCC102C30CE213E30850A84007908E5
:1033A0001A007A08800085010800D3232608053C0E
:1033B00003190532090F6234F82303180800BA0014
:1033C000EF2303180800B9003A0886315626390859
:1033D000522ED62303180800AE00173C031C6E348F
:1033E00016003A3C031D6234D72303186234AF0041
:1033F0003B3C031C6E3416002F3C031D62343030FE
:103400000102031D031C6834F100F839031D683400
:103410001400031D6234F10E7135AE047830C6001D
:103420002E081F39F10087310F272F08F1003A309D
:103430000E272F305D262E0EF100710C07395B2E02
:103440002608043C031D62345D12DD12433F313C0B
:103450000319DD16FE3903195D164C228731A22FA0
:103460001A21031C080054100319541418292608A3
:10347000043C031D6234433F393C093C031C68345F
:1034800009350D3E2200990020005B061F395B06BE
:10349000DB0050228731772F5D08F1000E30522A71
:1034A000F10000308531B7259A3191007108230071
:1034B000151413060319662A930615158B13553038
:1034C0009600AA30960095148B171511130820004A
:1034D0000800D6230318080003196E348108031D61
:1034E00062344D12E0308531C1259A3103197D2AAD
:1034F0002300110F732A2000653456228731002FD4
:10350000D6230318080003196E348108031D6234A2
:103510008D22031D08008731012FF100E030853135
:10352000C1259A3171060319572A2300110F8F2ADA
:1035300020006B342608043C031D6234D501433F50
:10354000433A0319D5160A3A03195517D508031D2E
:1035500055165508F1000D3052228731B12F26083B
:10356000043C031D62341A21031CD52A5D14DD06B8
:103570007C060139031DC02AFC14C222FC18C33F7B
:103580004C22932B20001C1950347C105D1CFC191C
:103590007C142200D0309200D130940086307C1808
:1035A000A63091009300FC100800433F523C031DDD
:1035B00068340100433F4F3A031905321D3A031D99
:1035C00068345D15C02A5D11C02AD6230318F32A7A
:1035D0008108031D6234643C031C6E345317643C41
:1035E000CA008731002F53136430CA00B9298731CC
:1035F0004E2F8731DB2FD6230318080003196834B8
:10360000F20016003A3A031D6234F901D723031879
:10361000080081080319172BF90016002C3A031D26
:103620006234D723031808008108031D6234FA00AE
:10363000720839230319202B03013923031D653434
:103640007A08E03F7908F03F72088100873100274F
:103650003A305D26FB2ED623031808000319683480
:103660008108031D62343923031D6B3481018731C6
:10367000012FF10001308700C0308600010871067B
:103680000319080001308607831C3E2B0034D62323
:1036900003180800031DF900F91B68348108031D95
:1036A000623483311F239B31800479087823D03E14
:1036B0008531C1259B317104572279088731002F4C
:1036C000D62303180800031DF900F91B683481088C
:1036D000031D623483311F239B31FF3A8005790833
:1036E0007823D03E8531C1259B31F10971055C2BD2
:1036F000F2000130F2180430F1007218F13572193D
:10370000F10EF20E720D720D1F3908001A21031C02
:103710000800433F093620300318DB04FF3A031C3E
:10372000DB055B085022433F86315D2E1A21031CC6
:103730000800433F093640308C2B2608063C031D09
:1037400062340130F100433F483A0319AC2B1F3A71
:10375000031D62340430F100443F7119123A423AB9
:103760000319B62B123A031D6234F135453F533A23
:103770000319BE2B1B3A031D6234F10E7108C004FD
:10378000433F86315D26443F5D26453F5D2ED6236F
:10379000031808008108031D6234C100D217D90143
:1037A000DA018731002FD33086000800D3230108C7
:1037B000393C093C031C512CF1001400393C093CF4
:1037C000031CED2BA1001A30710203186E3471082E
:1037D0005E242107031CDC2B6E3471080800F823DB
:1037E00003180800F100F10EF823031C710408000F
:1037F0001600D03E031C512CF63E031C072CDF396B
:10380000F93E031C512CFA3E03186234063E0A3E70
:1038100003100800D32301082D3C0632D3234C1794
:1038200001082D3C0319172C4C13023C0319860A7E
:10383000D72303180800F90101080319382C2E3C7E
:10384000031D512C0730FB0014000319382C393CA0
:10385000093C031C512C7B195E24FB18F907FB362D
:10386000FB080319031C242CFB3E0318F90A242C23
:103870004C1F412CF109F90803194F2C7908643CBD
:10388000F900FA0164240318F10AA208031D013E9D
:10389000FA007108F9000319FA0803100800F10A88
:1038A000412C03146234F901FA005B245B24FA070B
:1038B0000318F90A0800FA35F90D0800A200A2075A
:1038C000A20DA207220D08001030FB00A101A201E9
:1038D000FA0DF90DA20D643022020318A200A10D09
:1038E000FB0B682C210808007902031D0800FA0868
:1038F0000800413F323A031D5F340108433A03197F
:103900008B2C0B3A031D5F341A21031C0800541240
:103910000319541618290A2403180800B6007A0857
:10392000B700BD295009220015062000921212137B
:103930004E060339CE065319023900380319080020
:1039400001390319D01DA72CFF30D6000800031D34
:10395000D019AF2CD015A80803194E1ACB2CA808E3
:103960000319EE2C03304F02031C932D4E36D01D4D
:103970000936A80BDA2C0318982DCE1B9C2D4D145C
:1039800080315230A7235430A7234230A7239C31E3
:10399000D0111C11EB2CA8014E121830D018083091
:1039A0000C0618398C0680315830A7234230A723E3
:1039B0009C31E42C80300318CE06F60DF50DF40D85
:1039C000F30D0130F6064E11CF0170089A02063051
:1039D000031C9A0291106430950008001C19FB2CFE
:1039E000D608031DEB2C27309A001C15CF012100AF
:1039F00091142000EB2C0A304F020318142D4E3680
:103A0000D01D09360318EB2CCF080319C92C8031BF
:103A100052309B234230D01954309B239C312130AB
:103A2000A800CE134E11E42C32304F020318E42CC0
:103A3000D019501EE42C50184E1CE42C0130D00636
:103A4000CE06E42C9110CF0A4E1A3A2DA808031D79
:103A5000372D4F08143C0319642D50304F02031CBE
:103A600008001C11D011501BD01750130800CF199B
:103A70009A2D08004F180800A8080319542D0301B7
:103A8000CE1D1830501A103A0C063B058C06CF1884
:103A9000612DCE110314F60DF50DF40DF30D031881
:103AA000CE15CF01A80308001C114E123B1ACE16EA
:103AB00080315830A7235430A7234230A7239C31AC
:103AC00008000830CE0608004E36D01D0936031C0B
:103AD00008000130D01D0230D006CE06D01D862D44
:103AE00050177C18822DD01E080050091139031977
:103AF000080010308C06D0065005503083319923D1
:103B00009D310800D011CE1C0800E42C7C1C08005C
:103B1000D01810305006103903190800D00650177D
:103B20007C2D4E15EB2C4E19DB1A912D01309D2D5D
:103B300002309D2D03309D2D0430D6080319D60088
:103B40004E36D01D0936031C1C11A801CF014E12A0
:103B500080315830A7235230A7234230A723543056
:103B6000A7239D3156090319BB2D453083319B2373
:103B70009D317A30D700EB2C031DCE2D5E081F3906
:103B8000DE0A0B00D12D352EDD2D0034D12D332E44
:103B9000E02DD12D352EED2DEF2DF32D03140A261A
:103BA00000348C1321008C130E2621008C1720006A
:103BB00011268C1BCE2D0F260134443036260034BE
:103BC00022267108103A03190134DE17383A031916
:103BD00001340A3A03190134CE2DBE30362E222686
:103BE0007108DF0001342226DE1BFC2D710C5F0CF6
:103BF000F900FA01FA0C062E5F0EF039FA00710E88
:103C0000F039F1005F0E0F397104F900553A0319CC
:103C1000CE2D03109931BF21DE0101340F26E8308B
:103C2000122E36302100911020001B020A3E9A000D
:103C30001C15911C192E1C119110080020262026FD
:103C40000000080023262626262626268C1321007F
:103C50008C1303108C1720001F268C1B0314F10CEF
:103C60002D30122608003330362ECC30F1003826A5
:103C70003B263B263B26F10C8C1321008C130318AA
:103C80008C173230122621008C1720000134541773
:103C9000D4134C265413D4174B08D41B4B0E07399E
:103CA0000B005C2E682E6B2E6B2E6B2E5C2E5C2E0A
:103CB000592EF030D41FCB055408C03921008C0494
:103CC0002000080054093F3821008C05200008001E
:103CD00062268C0508006226FF3A8C0408005417FF
:103CE000D41374265413D4174B08D41B4B0E073926
:103CF0000B00080008000800812E882E992E9B2EAC
:103D00008F2E0C08D4180C095405C0398C060800F5
:103D10000C0854190C095405C0398C060800CE1E35
:103D20000800A8089D31BC259E3100380319CE1229
:103D300008000C099C2E0C085405C039031DA62E42
:103D4000D41D0800D411F901FA01B12ED4190800CC
:103D5000D41502308531C125F9000330C125FA00A0
:0A3D60000130993130219E31080036
:103E0000031E08008B1321006A309900D7309500FB
:103E10002200FF308D0088309700C830980017309E
:103E200099001030920011309400A6309100930058
:103E30001E149D172100E7308C0007308D002300F1
:103E400007308C008D0119309B0026309E009D1795
:103E50001D168701113086000301C43F0130E127A0
:103E6000C7271030E127811E0800CC27031D08005A
:103E7000203085008401F001CC270319F9330B3A77
:103E800003190732013A0319CC2772081A00F00708
:103E9000F333F008031D413284019501023F910084
:103EA000033F9200013FF100043084073C3F083C8F
:103EB000083C031C32320B000D32123232324232D5
:103EC000493250320532293201000002001FE91F39
:103ED00015170632653091009F3092000230840041
:103EE000951715140000000013081A0014081A0092
:103EF000910A0319920AF10BF3330408F10015112A
:103F000084010F30C727F0011200F007BA27F10B28
:103F1000FB337009013EBA27C727CC270319A83302
:103F2000FC33A43095001200930012009400110994
:103F30001F3903190232710303199512D527F10BAA
:103F4000F033DC33943095001F309104D527F10B0A
:103F5000F933D4339501151413081A00910AF10BA3
:103F6000F933CB330430950012009300D527F10BC1
:103F7000F933C433F3000F3A031906320B3A03192D
:103F80000332013A031D02320530C727730864006B
:103F9000011EFE339A0004349D1801006400811E46
:103FA000FD331908F2000F3A0800640055309600FE
:103FB000AA30960095149518FE33910A0319920AB7
:103FC00001346400811A08000B1DFB330B11090B2F
:043FD000F83304348A
:020000040001F9
:02000E00FC0BE9
:02001000FF1AD5
:10E0000077000000100000004C003D004600580062
:10E010004F004D0050004300000000000000410090
:10E020003D004F00700065006E0054006800650000
:10E0300072006D00200047006100740065007700E9
:10E0400061007900200036002E00310000005700EA
:10E0500044005400200072006500730065007400E5
:10E060002100000054006800650072006D006F0020
:10E070007300740061007400200064006900730084
:10E0800063006F006E006E00650063007400650041
:10E090006400000054006800650072006D006F00AD
:10E0A0007300740061007400200063006F006E0054
:10E0B0006E006500630074006500640000004E009F
:10E0C000470000005300450000004E0053000000D0
:10E0D0004200560000004E00460000004F00520073
:10E0E00000004F00450000004D006500640069001D
:10E0F00075006D00000048006900670068000000BE
:10E100004C006F007700200070006F007700650002
:10E11000720000004500720072006F007200200063
:10E12000000042003D00310032003A003500370067
:10E130002000330031002D00300035002D0032006A
:10E14000300032003200000043003D003400200067
:10E150004D0048007A000000570042005000530074
:0AE1600043004F0055004C0045003D
:10E1A000000000000000000000000000000000006F
:10E1B000000000000000000000000000000000005F
:10E1C0007400750076007700780079007A007B0093
:10E1D000000000000000000000000000000000003F
:10E1E000000000000000000000000000000000002F
:10E1F000000000000000000000000000000000001F
:00000001FF
