:020000040000FA
:100000009F3100278431562C20001A08F0009D31C2
:1000100091182226921A9F25121B90250900731B06
:100020003A28731AF423332074087806031DE2017A
:10003000F8067C1154178B20E701DA1EBD23031943
:1000400025287C1D5A1968280800DA1A33207C15E7
:1000500054135E237C1DF633D412F4008B206828E1
:10006000541B033208007308F7007508A4007608D3
:10007000A5000800D3157408430603195A13731E0C
:10008000F423BD23F31A731E0A32031903325539C0
:100090008007083274089B315D2380310332FF3AB8
:1000A000D91F8005D913D417D41880287C1905329C
:1000B0008B207C195A1908000B328B20D4165A1940
:1000C00008004030541F7030A423D413541F8B20D9
:1000D000760875067406F3137306F100F10E7106C7
:1000E000F100F10CF10CF1060130F118F106711874
:1000F000F3177C1808005230731B413088313628C2
:100100008B205030F3000430F400AA30F5002908A9
:10011000F600D4106828F41B1F2C74080B002C293F
:100120007A2997291E2CAC29BA29C029D229DA2983
:10013000E429372B462B372B4F2BF8291F2C062A67
:100140001E2C1F2C1F2C3D2A1F2C1F2C1F2C1F2C3C
:100150001E2C1F2C462A502A1F2C1F2C1F2C1F2CF4
:100160001F2C1F2C1F2C1F2C1F2C1F2C1F2C1F2C37
:100170001F2C1F2C1F2C1F2C1F2C1F2C1F2C5C2AEC
:10018000662A1F2C1F2C1F2C1F2C1F2C1F2C702A83
:10019000912A1F2C1F2C1F2C1F2C1F2C1F2C1F2C97
:1001A0001F2C1F2C1F2C1F2C1F2C192CB72A1F2C67
:1001B0001F2C1F2C1F2C1F2C1F2C1F2C1F2C1F2CE7
:1001C0001F2C1F2C1F2C1F2C1F2C1F2C1F2C372BC0
:1001D000462B372B4F2B1F2C1F2C1F2C1F2C1F2C5B
:1001E0001F2C1F2CBF2A012B192C1F2C1F2C1F2C3E
:1001F000372B462B372B4F2B1F2C1F2C1F2C1F2C24
:100200001F2C1F2C1F2C1F2C1F2C1F2C1F2C1F2C96
:100210001F2C1F2C1F2C1F2C212B2C2B1F2C603034
:1002200004327708C038F31F7F397306031D7C152D
:10023000F30600347506031D7C15F5060034F31E25
:100240000800771E0F29112124081A212508760697
:10025000031D7C15F6060034731B4E2958235B09D9
:10026000EA38FD39E81E5E1A0238F1000301B41BBA
:10027000DA190138681E5E1A0238B81F0438B61F32
:100280001038E81920385B1B4038F105FF3A750536
:1002900071041A21750802394330322CF31A080010
:1002A0005E1A6B217608A500413903195312031D0C
:1002B000531A5D295316053042234D3032247608F7
:1002C000083946303224760804395730322476080B
:1002D00002394830322CDE190932F61D0332761904
:1002E000DE150800DE0ADE1D08000132761DDE0183
:1002F00049120800731B932958235A1D7C1982291F
:10030000B41B08007316B41BDA1D8C2932080319BC
:1003100047081A21330827290301B41F34081A217A
:10032000B41F35082729F31E0800B4170800731FEF
:100330009F29013024051A21250827211129751824
:10034000D7165D1A080076080B3C0319DD1B080060
:10035000DD17D71A5D170800731F0800C800750263
:10036000031DF31A5911AA307502031D080011214B
:1003700029082729731B1F2C581A581B0800252AE7
:10038000731F08000301F31E731ACA297608FC388C
:10039000591BD9055A060339DA0611215913750874
:1003A00003381A29731FB81B0800731638081A215E
:1003B00039082729731B1F2CB61B7C19E02908005C
:1003C00073161A2137082729731F0800D819EA293C
:1003D000F31E08001121581E2A081A21581E2B0846
:1003E00027215813DD1AD81D0800581DD414080001
:1003F000731B08005823D11B7C19002A5A1D0800C2
:1004000073165108D11B64301A212729731B212927
:10041000D819581B2032581A18322B087602F100CE
:100420002A08031C013E7502031CFF3A031D193202
:10043000031CF109E0307105031D13322B225819FA
:1004400008005815D8134F30342C58122A082B04A2
:1004500003190F325817CC1B08004C081A214D08FD
:100460002729581DD80A581DF6335D1B0232AA01F0
:10047000AB012B22D8014F30402C731F0800AF1B5B
:100480001F2911212E081A212F082729731B531CFD
:100490000800D3180F2911212C081A212D0827290B
:1004A000731B681D08005A1A0F29112122004008E9
:1004B0001A21410820002729731F08005912F31A36
:1004C0001F2C7508C5007608C4001F2C731F080078
:1004D000D912F31A1F2C7508C7007608C6001F2C06
:1004E000731B7E2AB008731E5918031908001030B8
:1004F000152130081A213108272138345910F31EEC
:100500003028731E8A2A11213008031945081A2140
:1005100031082729B00803190800B001B1010F30D4
:100520002032731B9F2AB208731ED91803190800C2
:100530001030152132081A21330827213934D910F7
:10054000F31E3028731EAB2A112132080319470805
:100550001A2133082729B20803190800B201B30190
:100560001130F901FA019B311423823108003A3627
:100570007C1D0318731B0800731627211A29730E9C
:1005800007390B001B322932080008001D320432E3
:100590000000491A5E160C32DE1A751A03325E1616
:1005A00075167C15DE13DE12750849061039C9066A
:1005B000D911112149081A214A082729DE1F0800EC
:1005C000103015215413F633D9190632751E5E1EEC
:1005D000EB3375167C15EC33D9117508C900760814
:1005E000CA00751A491A08004916F92203195E163D
:1005F00008006330BD23031908006330DE16DE17E0
:10060000422B731F0800D819072BF31E0800D81AB5
:10061000D00E7C111F247C19142B1121500E03398C
:100620002721661B76081A215D1BD81E1F2B500E32
:100630005006031D581B1F2B5816D8155817D812D3
:100640000800731F08007508F31A1121FD3E0318F6
:10065000080003301A212729731FDD1F08005D13CE
:100660007508143C0319DD16031C5D170800731F81
:1006700008007C19D41F1F2C7508F31E03190800ED
:10068000E300740AC3005A17DC110800731F7C1DB5
:100690000632DC1D04321030152165082729731F2E
:1006A000192C7C19E40A63086402031C5A17080019
:1006B000731B0800BD23FF3A800508000030F300DB
:1006C000F501F601D9080319872BA1016F23BE2379
:1006D000031D6D2B2109D905622B72080800211713
:1006E000591B06342116591A3034A116D91A31343F
:1006F00021145918772AA114D918982AA115D919A3
:1007000063342115591D00344808F50004345A1F7C
:100710008E2BD9176408F50043080800D901420858
:10072000031DAD2B541AA32B2030FB00D41ABF0A93
:100730003F081F39E03E863184268331031D0800BF
:10074000FB0B972B54167C117704F3002408F5005B
:100750002508F6007808F40008001030F300743023
:10076000FB00F1010314B52BFB0AF10D71084205E2
:100770000319B42BC2067B0808007408F200720C3F
:10078000090C1F39BA3E8400F21B00340330721882
:100790000C30F100F218F10E00097105F10E710E26
:1007A000080071080B00C334C1348F349F34023405
:1007B000003403340334C0342034003400340034B3
:1007C0000034F0340F340B000034043407340C349C
:1007D0001234133413341534173419341A341A34C8
:1007E0001A341A341A341E34740D031CF31A080018
:1007F000F100710E0F39F10074080739FB00FB0A94
:10080000D1237106F1067106A1010318A10AF10CAA
:10081000FB0B052C031C0800E323A107210D203E40
:100820008400850A75088000840A760880008501A6
:100830000800D41B7C1D731F080006325823D41BEC
:100840007C1D731F0800A401A50174089C310A24B3
:100850008431031D08001121603F25042721703FCA
:1008600024041A290319402C5F3E84000014FE3032
:10087000000503195434FF3A8D05F938DC0554346A
:100880005F3E840000100008031942348D040639CD
:10089000DC0442342100DE1A522CDE012000562DE9
:1008A00021005F15DF149F310027843122008D0164
:1008B00021006A309900230007308C008D0122004E
:1008C0001E149D172100E7308C0007308D00961C08
:1008D00016141609961B0530161B06300F3903191E
:1008E0005F0A031E0301090EFC00031EFC150F30F6
:1008F0009600D53095002000F9309B0000309C0018
:10090000960197013130980095010B1164000B1D81
:10091000862C23009D0119309B001E151E129E1669
:100920009D1722008A309700C8309800171FFE33A9
:10093000210010309E007D309D00921612179114F8
:10094000000000009D14FC1DAB2C2B3088310920C9
:1009500084315A19FC1100308F2501308F25023067
:100960008F2503308F259D18FE330630F526DB00DA
:100970005630F526DC009C30F526DD0001309D0068
:1009800000308426E600220099000E308426E8001C
:100990009B31982384318226B000031D591482268E
:1009A000B1008226B200031DD9148226B3002300B1
:1009B000FC1D1D162800F9309600263097002200F5
:1009C00015098301200092010339D500FF308D0005
:1009D0005518F739D518EF398C000B17FC1D8B17FC
:1009E000BF097830D9041430C4005030C5000A3033
:1009F000C6005A30C700B417D117B817B617CC17AE
:100A0000AF173230CE000D308426DD001030FB00F1
:100A1000F901D030A10021088426FA007908FA08EB
:100A200003191C2DF900FA36031C1A2D8331BE233D
:100A300085318004790A0F2D0730F904F90AA10ADB
:100A4000FB0B0B2D1530883109208531F101063063
:100A500084269831F7208531F10A073084269831B1
:100A6000F7208531F10A083084269831F720853146
:100A7000F10A093084269831F7208531F10A0A30CD
:100A800084269831F7208531F10A0B30842698317D
:100A9000F720853101308426D2008931BD2185318E
:100AA000FC1D562D4D308431342485316400C1083D
:100AB000031D6626FC19562D5418BA25D71BE825A8
:100AC0000B190C2611182B269318FD25111B8B26AC
:100AD0008931F521853153195126621B502C911E05
:100AE000562D23001D1D0532990803194A2C20009C
:100AF000562D9D1C802D1D121D162000D316562D1F
:100B00009D25D41D562D98310020A601D411883181
:100B10000038031D00200A208531E425562D0936B2
:100B200085000301090C203884008001840A04092F
:100B30007039031D952D85010800200001308700C4
:100B40002608D03E8600230019082000D41908008A
:100B500081000A3A03190800073A0319B42D260840
:100B6000013E831CA6000800A608031908008101A5
:100B7000D4150800883133208531541080310F207E
:100B800085317C18CC2D5A1DCE2DD51674087806CB
:100B9000031DE42DCF0A4F12E201E42D0130D600EF
:100BA000D5155516583080313424731F4230342403
:100BB0000830731B1030BD002230A80021009114B2
:100BC0002000F9309A001C1588314D20853108002D
:100BD000D713571A571CF22D21005A085D02200026
:100BE000031C080057085C06113903190800DC06CD
:100BF000893167210920853108009310CE0B080048
:100C0000D319E20ADA173230CE00670FE700053059
:100C1000670203188C1108000B112100DE1EDE0A8A
:100C200020001C1D27269831FC1895238831600967
:100C30000319E001E008031D42208431E108031D8F
:100C4000E10B080045308431402486310800210042
:100C50009D14200008001110CB1F3926D8195819EF
:100C600008008030D80658054F3084313224863150
:100C70000800CB03CB1F08005F1CAF173408F839FE
:100C8000DF1C03190132B4173608F8395F1D031948
:100C90000132B617993107305F05031DD021863127
:100CA000080041083C3C031C080088315F20863165
:100CB000223040020318612E2C30883119208631F1
:100CC0000800531188310A2086310800111E0800DF
:100CD0002708203E840085140008850123009A001F
:100CE0002000A70A503027060319A701C1030800F6
:100CF0002300951C08002000911E782EF2009D25EF
:100D00007208782E2300110A782695019100151497
:100D1000130820000800111321001C085A06DA06E7
:100D20005A065A02031C003CFC39031DC92E5A08FE
:100D30005D02031CB02E5A085B020318AD2E5A0840
:100D40005C0220005A1D0800031CCC2ED330DA05AB
:100D50004E3088310920863108002000DA15B22E85
:100D60002000DA115A19CC2E5A1536308831092054
:100D700086311C118030D7058C1555145D1EDD01A0
:100D8000D801AA01AB0150308431402486312000C3
:100D9000080020005A1D08007C1CDA1F08000030E3
:100DA000F300F501F601F701DA12E126F4008031D3
:100DB00014208031731AF4237408F800DA13853193
:100DC000CE2D4F080B00003419340134F32E1134AA
:100DD0001B341C340E34F32E0034193401343834EF
:100DE0003934F32E1234DA160034F3000830FB00E5
:100DF0001C089B1B013EF401F30C0318F407F40CD0
:100E0000F30CFB0BFA337335740D731B013E0800B2
:100E1000031D212F69081F39E90A0B00242F9A2F7F
:100E2000302F0034242F982F332F242F9A2F402F28
:100E3000422F472F802F802F802F802F802F802FB1
:100E4000652F0314612700348C1321008C136C2749
:100E500021008C1720006F278C1B212F6D27013458
:100E600044309B27003480277108103A031901345D
:100E7000E917383A031901340A3A03190134212FCA
:100E8000BE309B2FEC0180277108EA0001348027D7
:100E90007108EB000134E91B532F710C6A0CF90047
:100EA000FA01FA0C5D2F6A0EF039FA00710EF03972
:100EB000F1006A0E0F397104F900553A0319212F18
:100EC00003109931F321E90101348027EC08031D57
:100ED000212F6B08F1004B2F6D27E830702F363033
:100EE0002100911020001B020A3E9A001C15911C43
:100EF000772F1C11911008007E277E270000080024
:100F000081278427842784278C1321008C130310C6
:100F10008C1720007D278C1B0314F10C710D1E0D06
:100F2000EC066C0C03188C3AEC002D307027013461
:100F300033309B2FCC30F1009D27A027A027A0277E
:100F4000F10C8C1321008C1303188C17323070278E
:080F500021008C172000013480
:10100000863184268831031908001920863182260A
:10101000F93300200D3019200A301928F200720E21
:10102000122072080F39F63E0318073E0A3ED31706
:10103000303EC1080319111E212823009A00200008
:101040000034840027084107B03E031C503E203E78
:101050000406840604068514800085014108503A80
:10106000031DC10A00345430731B42305419080068
:10107000192073080E2074080E2075080E207608BB
:101080000E200A28D71B08008E30002060080E2092
:101090000A204530601C3620E0013B080319080097
:1010A00084003C08850000088501F1003C081220FE
:1010B0003B080E203D30192071080E200A284008F8
:1010C0004007203E8400850A0008F900840A0008D1
:1010D000FA0085014008C00A0B008F28A7288F2836
:1010E000A728A728A728B728A728A728A728A72878
:1010F000A728A728A728A728A528A728A728DD2844
:10110000B728B728A728A7288F28BB28BB28DF28FF
:10111000DF28DF28DF28DF28DF28DF28DF2879081D
:1011200094202F3019207A08F1000830FB00F10DCF
:101130009C20FB0B972808001E0D1728F909FA09B7
:10114000FA0A0319F90A2D301928F91B9E207A0F83
:10115000AB28F90AFA017908BC206430F1007A085A
:10116000AD21FA1BF90A7908F1002E30CA28790856
:10117000BC202F3019207A08F1007108D3139C3E4F
:10118000031CCC28F1009C3E031CC928F10032301E
:10119000CA2831301920D317FB017108F100F63E3F
:1011A000031CD428FB0ACE287B080319D31BD920A3
:1011B0007108D31717280F39DF33F91B9E20103021
:1011C000FB00A101A201A301EB282308FC20A3003E
:1011D0002208FC20A200FA0DF90DA30DA20DA10D0D
:1011E000FB0BE528D3132108032122080321230840
:1011F0000321D31B08001728333EF100F11DFD3EEB
:10120000F11FD03E0800F100710E072171080F395F
:101210000319D31B172808002608043C031D663455
:10122000433F5A3C193C031C6C340B001334953477
:10123000A83495296C346C3487296C3481296C343A
:101240006C34043452296C343829662957296E29A4
:101250008A2979296C3434295F296C346C346C34D4
:10126000433F19203D30192830216636FA3E1228B6
:101270003021D8084E30031919282A082B046E3063
:1012800003191928500E50060F39D81ED0065430B5
:10129000D01C4330581D203819202A08F9002B088B
:1012A000FA00A728302147307C184D30192830210A
:1012B0007C0E0F39B03E86318426893119283021C1
:1012C0003030E81A3130681E413019283021571E5D
:1012D0008434783057187F300020873430214430F0
:1012E0005D1A5330DD1B5230DD1A43305D1B49302F
:1012F00019283021660EF100F10CF10C9C20F10C44
:101300009C2830210C0D803E9C200C0D9C28302107
:10131000520E0E2830210230863184268931F900A0
:10132000863182268931FA00A72830214F3068198A
:10133000523019282608043C031D6634433F313CD3
:10134000013C031C6C340319A929C0015315541521
:10135000AB295311541188311728F901FA01083AC1
:10136000FB00083AFB06FA35F90DF10D0318FA07F0
:101370000318F90AFB0BB32908005C17DC13C22120
:101380005C13DC1703105208DC1B520E0F390B00E4
:10139000E229EE29F129F129F129E229E229DF29BF
:1013A000E229053204320332023201320032F030D7
:1013B0005C1BD2050F30DC1BD20503146C34F030FB
:1013C000DC1FD2055C08C03921008C042000080015
:1013D0005C093F3821008C0520000800E8218C05BD
:1013E0000800E821FF3A8C0408005C17DC13FA219E
:1013F0005C13DC175208DC1B520E0F390B0008007F
:1014000008000800082A0F2A202A222A162A3B2A26
:101410000C08DC180C095C05C0398C0608000C08A7
:101420005C190C095C05C0398C060800D51E080043
:10143000A808873108278A3100380319D512080017
:101440000C09232A0C085C05C039031D2D2ADC1E5B
:101450000800DC12F901FA01372ADC1A0800DC1650
:10146000023086318426F9008226FA000130993153
:1014700058218A3108000C095C05C039031DFF3072
:081480005B064039DB060800A1
:10300000D31A3E28D030860004302602031C6634D2
:10301000423F3D3C031D6634010888311920413F81
:1030200019203A301920203019209831413F0106EB
:10303000F100E039031D582D71080B0040284E287F
:1030400056285E2863286E2879287E28DD28DD280A
:10305000DD2885286334DD28DD288A288F289A28F2
:10306000A5286334AA28AF286334B42863346334B2
:10307000B928BE28C628CB28D328D828D31275341F
:103080000108543A03195229153A0319392B0C3AFD
:103090000319B92B1F3A0319892D63340108523AD9
:1030A00003196C2C013A0319CC2B63340108503AF4
:1030B0000319C82B1B3A03192D2C63340108503A0D
:1030C0000319CA2B63340108563A0319812A053AB9
:1030D00003198E29073A0319C62A63340108443AB2
:1030E0000319502B123A0319D7291B3A0319A82A9E
:1030F00014290108433A0319962A142901084F3A62
:103100000319652C1B3AAE2B63340108433A0319AB
:103110007A2A63340108433A03199D2ADD280108FD
:10312000533A0319292A143A0319822B043A031932
:10313000C22963340108433A0319FC2B103A0319DE
:103140008629113A03190B2A63340108463A0319F8
:103150006A2B63340108443A0319152A63340108C1
:10316000423A0319092B63340108543A03194D29D3
:10317000633401084D3A0319B82A633401084F3A01
:103180000319E6291C3A0319A82963340108553AA2
:103190000319182C63340108493A0319552C193ABC
:1031A0000319962C63340108533A0319022B633434
:1031B0000108483A0319602A633401084C3A031D98
:1031C00063342608043C031D6634433FF1005A3C37
:1031D000193C031C6C34413FBF3E063E2223433F53
:1031E000883119209831413FBF3EF100433FF9003B
:1031F0000830F118403071190230A1007118A13562
:10320000A03084001A30FB0021098005840AFB0BE2
:10321000052979085F3E8400210880047908001C94
:1032200003158431322400340108473C031D633404
:10323000A624031808008108031D6634F100083C29
:10324000031C6C34D1308600F03001182D29520552
:10325000703A03195310F10E0F3052057104D20069
:10326000F100013022235C17DC13C030011CDC06A6
:103270008931C221031808005208011C520E0F396F
:103280008831BC2803102608043A031D6634433FE6
:10329000313C013C031808006C34E8240318080092
:1032A00001305629E8240318080003305821F12979
:1032B00050060F39D00600305D1F63292A082B0401
:1032C000031D58161030D8057A08AB007908AA00FB
:1032D000D8155817D816A901DD1AD4142B040319D0
:1032E0008229DD1E08002A0832257A08A9002B0849
:1032F00032257908A907FA1BA90A2A08F9002B0820
:10330000FA00080058165010D0100800E8240318DE
:1033100008000319663402301423F129EC24031841
:10332000080003199D2944085325031C6C344508E3
:103330005325031D031C9F296C345910A1295A18C9
:1033400059147A08B1007908B0000F301423F1291C
:10335000EC24031808000319B72946085325031C59
:103360006C3447085325031D031CB9296C34D9104C
:10337000BB29DA18D9147A08B3007908B2001130E1
:103380001423F129DA2403180800B4007A08B500E0
:10339000790403190332DF14D021F129B417F1297C
:1033A000CB1F0800F830DF057830CB000800A624DA
:1033B0000318E4298108031D6634643C031C72343D
:1033C000710DBA008831BD28BA01ED29EC2403182B
:1033D0000332F91F791FF02953102D308831192835
:1033E000FB218831A528681DFB295A1603180800FF
:1033F0005A124030032A5314D31403180800D31070
:103400002C3004223E30850A840079081A007A089C
:10341000800085010800DA2403180800CC007A082F
:10342000CD0079040319CC17F129A3242608053C03
:1034300003190532090F6634C82403180800BC00BC
:10344000BF2403180800BB003C08883112203B0849
:103450000E28A62403180800AE00173C031C723483
:1034600016003A3C031D6634A72403186634AF00E7
:103470003B3C031C723416002F3C031D6634303075
:103480000102031D031C6C34F100F839031D6C3478
:103490001400031D6634F10E7135AE045F14D021A3
:1034A0002E081F39F1008831CB202F08F1003A3067
:1034B000CA202F3019202E0EF100710C0739172861
:1034C0002608043C031D6634433F503C03190D326B
:1034D000DE0149126812E812E13E0319E816FE39CE
:1034E000031968161023893160298231F222503085
:1034F000883119284221031C08005B1003195B1452
:1035000040292608043C031D6634433F393C093CEE
:10351000031C6C3409350D3E22009900200066061C
:103520001F396606E6002023893135294221031C14
:1035300008005B1103195B154029DA248318A62AB9
:1035400003180800B8007A08B900F129B817ED2966
:10355000A62403180800F039031D723471084A06C6
:103560000F39CA06B6224A088831DB288231F92A87
:10357000A62403180800F039031D723471084906A7
:103580000F39C906B62249088831DB28A62403185A
:103590000800C3005A13DC110630FB007B08FB0354
:1035A0000B006C34033E103E033E4D3E033E053E91
:1035B0004302031DF33316003A3C031D6634A7246F
:1035C00003180800E400013EE300160003190C3262
:1035D0003D3C7B18031D6634A724031808008108AE
:1035E000031D6634E500DC155A1743088831BC20FA
:1035F0003A3019206408DC1DBC28BC203D3019205D
:103600006508BC284221031C0800E811031DE815C9
:10361000932B4221031C08005B13031D5B174029F9
:103620006808F1000E30222B863178269B319100FC
:1036300079082723863178269B31910A7A08073248
:10364000F1000030863178269B319100710823000B
:10365000151413060319362B930615158B135530C5
:103660009600AA30960095148B17151113082000A8
:103670000800A62403180800031972348108031DEA
:1036800066345412E030863184269B3103194D2B69
:103690002300110F432B2000693426238831BC28D6
:1036A000A62403180800031972348108031D663428
:1036B0005D23031D08008831BD28F100E03086310C
:1036C00084269B3171060319272B2300110F5F2BD2
:1036D00020006F342608043C031D6634DD01433F9F
:1036E000433A0319DD160A3A03195D171A3A03190A
:1036F0005D16DD08031D5D165D08F1000D30222307
:1037000089316F292608043C031D66344221031CBD
:10371000A92B6814E8067C060139031D932BFC14C1
:103720009523FC18C33F1023622C20001C19503431
:103730007C10681CFC197C142200D0309200D1301F
:10374000940086307C18A63091009300FC10200075
:103750000800433F523C031D6C340100433F4F3A85
:10376000031905321D3A031D6C346815932B68113B
:10377000932BA6240318C62B8108031D6634643CD2
:10378000031C7234643CD1008831BC28D117ED2968
:1037900089310C2989319A29A624031808000319B4
:1037A0006C34F20016003A3A031D6634F901A7247E
:1037B0000318080081080319E82BF90016002C3AB9
:1037C000031D6634A724031808008108031D66340E
:1037D000FA0072080A240319F12B03010A24031DBD
:1037E00069347A08E03F7908F03F72088100883137
:1037F000BC203A301920B728A62403180800031962
:103800006C348108031D66340A24031D6F34810162
:103810008831BD28F10001308700C03086000108E2
:1038200071060319080001308607831C0F2C003431
:10383000A62403180800031DF900F91B6C34810845
:10384000031D66348331BE239C31800479084124F2
:103850007104272379088831BC28A624031808009E
:10386000031DF900F91B6C348108031D6634833194
:10387000BE239C31FF3A800579084124F109710586
:10388000292C4C24F100F20E720D720D1F39D03E1E
:10389000863184269C310800F2000130F218043091
:1038A000721889357219090E08004221031C08009C
:1038B000433F093620300318E604FF3A031CE605AF
:1038C00066082023433F883119284221031C080041
:1038D000433F093640305B2C2608063C031D663406
:1038E0000130F100433F483A03197B2C1F3A031D76
:1038F00066340430F100443F7119123A423A031918
:10390000852C123A031D6634F135453F533A0319AD
:103910008D2C1B3A031D6634F10E7108C204433F1F
:1039200088311920443F1920453F1928A62403183F
:1039300008008108031D6634C3005A17DC11E30137
:10394000E4018831BC28D33086000800A324010894
:10395000393C093C031C302DF1001400393C093C72
:10396000031CBD2CA1001A307102031872347108B7
:103970003D252107031CAC2C723471080800C824B3
:1039800003180800F100F10EC824031C710408009C
:103990001600D03E031C302DF63E031CD72CDF3919
:1039A000F93E031C302DFA3E03186634063E0A3EEB
:1039B00003100800E8248314031808009C3E8310B9
:1039C000031C292D031D7234FA08031D7234292D9E
:1039D000A32401082D3C0632A324531701082D3CD3
:1039E0000319F52C5313023C0319860AA724031864
:1039F0000800F90101080319162D2E3C031D302D76
:103A00000730FB0014000319162D393C093C031C38
:103A1000302D7B193D25FB18F907FB36FB080319F0
:103A2000031C022DFB3E0318F90A022D531F1F2D04
:103A3000F109F90803192E2D7908643CF900FA01FF
:103A400043250318F10AA208031D013EFA0071087C
:103A5000F90079080319FA0803100800F10A1F2D6C
:103A600003146634F901FA003A253A25FA070318D7
:103A7000F90A0800FA35F90D0800A200A207A20D04
:103A8000A207220D08001030FB00A101A201FA0DCF
:103A9000F90DA20D643022020318A200A10DFB0B48
:103AA000472D210808007902031D0800FA080800C4
:103AB000413F323A031D63340108433A03197B2D19
:103AC0000B3A0319742D053A031D6334A624031819
:103AD0000800F039031D7234710E4A06F039CA0627
:103AE000B6224A0E8831DB284221031C08005B12F3
:103AF00003195B164029DA2403180800B6007A0877
:103B0000B7007904031903325F15D021F129B617E4
:103B1000F129A62403180800C80059158831BC28CB
:103B20005709220015062000121355060239031901
:103B30000800D506D71D1632FF30E00008005709EF
:103B400022001506200092125506013903190800BB
:103B5000D5065A190800D7190532D715A808031930
:103B6000551ACD2DA8080319EF2D03305602031C5A
:103B70008F2E5536D71D0936A80BDB2D0318942E32
:103B8000D51B982E54148031523040245430402498
:103B900040249D31D7111C11EC2DA801551218306D
:103BA000D71808300C0618398C068031583040245C
:103BB00040249D31E52D80300318D506F60DF50D16
:103BC000F40DF30D0130F6065511D60170089A0276
:103BD0000630031C9A0291106430950008001C19ED
:103BE000FC2DE008031DEC2D27309A001C15D60192
:103BF000210091142000EC2D0A3056020318142ED7
:103C00005536D71D09360318EC2DD6080319CB2DD0
:103C1000803152303424D71D423034249D3121303C
:103C2000A800D5135511E52D323056020318E52DA5
:103C3000D719571EE52D5718551CE52D0130D7060D
:103C4000D506E52D9110D60A551A3A2EA808031D5F
:103C5000372E5608143C0319602E50305602031CB0
:103C600008001C11D711571BD71757130800D61976
:103C7000962E0800561808000301D51D1830571A53
:103C8000103A0C063D058C06D6185D2ED51103148E
:103C9000F60DF50DF40DF30D0318D515D601A80B8F
:103CA00008001C1155123D1AD51680315830402499
:103CB0005430402440249D3108000830D5060800C7
:103CC0005536D71D0936031C08000130D71D0230B8
:103CD000D706D506D71D822E57177C187E2ED71EE5
:103CE0000800570911390319080010308C06D7064F
:103CF00057055030843132249E310800D711D51C2D
:103D00000800E52D7C1C0800D71810305706103924
:103D100003190800D7065717782E5515EC2D55199D
:103D2000E61A8D2E0130992E0230992E0330992EED
:103D30000430E0080319E0005536D71D0936031C8E
:103D40001C11A801D6015512803158304024523040
:103D500040244024543040249E3160090319B62E7B
:0E3D60004530843134249E317A30E100EC2D60
:103E0000031E08008B1321006A309900D7309500FB
:103E10002200FF308D0088309700C830980017309E
:103E200099001030920011309400A6309100930058
:103E30001E149D172100E7308C0007308D002300F1
:103E400007308C008D0119309B0026309E009D1795
:103E50001D168701113086000301C43F0130E127A0
:103E6000C7271030E127811E0800CC27031D08005A
:103E7000203085008401F001CC270319F9330B3A77
:103E800003190732013A0319CC2772081A00F00708
:103E9000F333F008031D413284019501023F910084
:103EA000033F9200013FF100043084073C3F083C8F
:103EB000083C031C32320B000D32123232324232D5
:103EC000493250320532293201000002001FE91F39
:103ED00015170632653091009F3092000230840041
:103EE000951715140000000013081A0014081A0092
:103EF000910A0319920AF10BF3330408F10015112A
:103F000084010F30C727F0011200F007BA27F10B28
:103F1000FB337009013EBA27C727CC270319A83302
:103F2000FC33A43095001200930012009400110994
:103F30001F3903190232710303199512D527F10BAA
:103F4000F033DC33943095001F309104D527F10B0A
:103F5000F933D4339501151413081A00910AF10BA3
:103F6000F933CB330430950012009300D527F10BC1
:103F7000F933C433F3000F3A031906320B3A03192D
:103F80000332013A031D02320530C727730864006B
:103F9000011EFE339A0004349D1801006400811E46
:103FA000FD331908F2000F3A0800640055309600FE
:103FB000AA30960095149518FE33910A0319920AB7
:103FC00001346400811A08000B1DFB330B11090B2F
:043FD000F83304348A
:020000040001F9
:02000E00FC0BE9
:02001000FF1AD5
:10E0000077000000100000004C003D004600580062
:10E010004F004D00500043000000000000000000D1
:10E0200000000000000041003D004F00700065004E
:10E030006E0054006800650072006D00200047000B
:10E0400061007400650077006100790020003600EF
:10E050002E003500000057004400540020007200DC
:10E060006500730065007400210000005400680022
:10E07000650072006D006F00730074006100740031
:10E08000200064006900730063006F006E006E0082
:10E0900065006300740065006400000054006800BF
:10E0A000650072006D006F00730074006100740001
:10E0B000200063006F006E006E0065006300740056
:10E0C0006500640000004E0047000000530045005A
:10E0D00000004E00530000004200560000004E00B9
:10E0E000460000004F00520000004F0045000000B5
:10E0F0004D0065006400690075006D000000480077
:10E1000069006700680000004C006F007700200085
:10E1100070006F007700650072000000450072001B
:10E1200072006F0072002000000042003D003100CC
:10E1300037003A00350032002000310032002D0057
:10E14000300033002D003200300032003300000078
:10E1500043003D00340020004D0048007A000000DC
:10E16000570042005000530043004F0055004C0040
:02E17000450068
:10E1A000000000000000000000000000000000006F
:10E1B000000000000000000000000000000000005F
:10E1C0007400750076007700780079007A007B0093
:10E1D000000000000000000000000000000000003F
:10E1E000000000000000000000000000000000002F
:10E1F000000000000000000000000000000000001F
:00000001FF
