:020000040000FA
:100000009F3100278431492C20001A08F0009D31CF
:1000100091180E26921E121B81250900731B392888
:10002000731AE723322074087806031DE001F806EE
:100030007C1152178A20E501D81EB0230319242809
:100040007C1D581967280800D81A32207C155213D5
:1000500051237C1DF633D212F4008A206728521BEC
:10006000033208007308F7007508A4007608A5009D
:100070000800D1157408430603195813731EE723AB
:10008000B023F31A731E0A3203190332553980075D
:10009000083274089B314E2380310332FF3AD71F58
:1000A0008005D713D217D2187F287C1905328A20F1
:1000B0007C19581908000B328A20D21658190800EA
:1000C0004030521F70309723D213521F8A20760877
:1000D00075067406F3137306F100F10E7106F10054
:1000E000F10CF10CF1060130F118F1067118F3175B
:1000F0007C1808005230731B4130883136288A2022
:100100005030F3000430F400AA30F5002908F6005E
:10011000D2106728F41B122C74080B002B297929A4
:100120009629112CAB29B929BF29D129D929E3292D
:100130002A2B392B2A2B422BF729122C052A112C7A
:10014000122C122C352A122C122C122C122C112C9F
:10015000122C3E2A482A122C122C122C122C122C51
:10016000122C122C122C122C122C122C122C122C9F
:10017000122C122C122C122C122C122C542A5E2A05
:10018000122C122C122C122C122C122C682A892AB6
:10019000122C122C122C122C122C122C122C122C6F
:1001A000122C122C122C122C0C2CAF2A122C122CCA
:1001B000122C122C122C122C122C122C122C122C4F
:1001C000122C122C122C122C122C122C2A2B392B02
:1001D0002A2B422B122C122C122C122C122C122CE9
:1001E000122CB72AF92A0C2C122C122C122C2A2B86
:1001F000392B2A2B422B122C122C122C122C122CA3
:10020000122C122C122C122C122C122C122C122CFE
:10021000122C122C122C192B1F2B122C6030043292
:100220007708C038F31F7F397306031D7C15F3066A
:1002300000347506031D7C15F5060034F31E080016
:10024000771E0E2910212408192125087606031D82
:100250007C15F6060034731B4D294B235909EA38E7
:10026000FD39E61E5C1A0238F1000301B41BD819EF
:100270000138661E5C1A0238B81F0438B61F1038E1
:10028000E6192038591B4038F105FF3A750571040D
:100290001921750802394330252CF31A08005C1A1D
:1002A0006A217608A500413903195112031D511A1C
:1002B0005C295116053035234D3025247608083940
:1002C000463025247608043957302524760802392B
:1002D0004830252CDC190932F61D03327619DC155D
:1002E0000800DC0ADC1D08000132761DDC01491221
:1002F0000800731B92294B23581D7C198129B41BBC
:1003000008007316B41BD81D8B293208031947083F
:100310001921330826290301B41F34081921B41FF9
:1003200035082629F31E0800B4170800731F9E29FC
:100330000130240519212508262110297518D51604
:100340005B1A080076080B3C0319DB1B0800DB175F
:10035000D51A5B170800731F0800C8007502031D3B
:10036000F31A5711AA307502031D0800102129083D
:100370002629731B122C561A561B0800232A731F9A
:1003800008000301F31E731AC9297608FC38571BAD
:10039000D70558060339D8061021571375080338B6
:1003A0001929731FB81B080073163808192139085A
:1003B0002629731B122CB61B7C19DF290800731623
:1003C000192137082629731F0800D619E929F31EB9
:1003D00008001021561E2A081921561E2B08262116
:1003E0005613DB1AD61D0800561DD2140800731BC5
:1003F00008004B23CF1B7C19FF29581D08007316DA
:100400004F08CF1B643019212629731B2029D619C8
:10041000561B0800561A232A2B087602F1002A08D8
:10042000031C013E7502031CFF3A031D2A2A031C0C
:10043000F109E0307105031D2A2A561908005615E6
:10044000D6134F30272C56122A082B040319322AB0
:1004500056170800561DD60A561D08005B1B322A87
:10046000AA01AB01D6014F30332C731F0800AF1B1C
:100470001E2910212E0819212F082629731B511C13
:100480000800D1180E2910212C0819212D08262921
:10049000731B661D0800581A0E29102122004008FF
:1004A0001921410820002629731F08005712F31A4A
:1004B000122C7508C5007608C400122C731F0800A2
:1004C000D712F31A122C7508C7007608C600122C32
:1004D000731B762AB008731E5718031908001030D2
:1004E0001421300819213108262138345710F31E01
:1004F0002F28731E822A102130080319450819215C
:1005000031082629B00803190800B001B1010F30E5
:100510002032731B972AB208731ED71803190800DC
:100520001030142132081921330826213934D7100C
:10053000F31E2F28731EA32A10213208031947081F
:10054000192133082629B20803190800B201B301A2
:100550001130F901FA019B310523823108003A3646
:100560007C1D0318731B0800731626211929730EAE
:1005700007390B001B322932080008001D320432F3
:100580000000491A5C160C32DC1A751A03325C162C
:1005900075167C15DC13DC12750849061039C9067E
:1005A000D7111021490819214A082629DC1F080003
:1005B000103014215213F633D7190632751E5C1E03
:1005C000EB3375167C15EC33D7117508C900760826
:1005D000CA00751A491A08004916F12203195C1657
:1005E00008006330B023031908006330DC16DC1701
:1005F000352B731F0800D619FF2AF31E0800D61AE0
:10060000CE0E7C1112247C190C2B10214E0E0339B6
:100610002621641B760819215B1BD61E172B4E0E54
:100620004E06031D561B172B5616D6155617D612F7
:100630000800731F08001021033019212629731F99
:10064000DB1F08005B137508143C0319DB16031C41
:100650005B170800731F08007C19D21F122C750845
:10066000F31E03190800E100740AC3005817DA11D9
:100670000800731F7C1D0632DA1D0432103014216D
:1006800063082629731F0C2C7C19E20A6108620298
:10069000031C58170800731B0800B023FF3A80059D
:1006A00008000030F300F501F601D70803197A2B92
:1006B000A1016223B123031D602B2109D705552B0E
:1006C000720808002117571B06342116571A3034B8
:1006D000A116D71A3134211457186F2AA114D7182C
:1006E000902AA115D71963342115571D00344808E5
:1006F000F5000434581F812BD7176208F500430812
:100700000800D7014208031DA02B521A962B203057
:10071000FB00D21ABF0A3F081F39E03E86316D2622
:100720008331031D0800FB0B8A2B52167C117704C2
:10073000F3002408F5002508F6007808F400080006
:100740001030F3007430FB00F1010314A82BFB0AF6
:10075000F10D710842050319A72BC2067B0808009A
:100760007408F200720C090C1F39BA3E8400F21BA7
:100770000034033072180C30F100F218F10E000949
:100780007105F10E710E080071080B00C334C134FD
:100790008F349F340234003403340334C0342034A3
:1007A0000034003400340034F0340F340B000034D3
:1007B000043407340C34123413341334153417341E
:1007C00019341A341A341A341A341A341E34740D83
:1007D000031CF31A0800F100710E0F39F1007408C0
:1007E0000739FB00FB0AC4237106F1067106A1015B
:1007F0000318A10AF10CFB0BF82B031C0800D623ED
:10080000A107210D203E8400850A75088000840A16
:100810007608800085010800D21B7C1D731F08002C
:1008200006324B23D21B7C1D731F0800A401A501B7
:1008300074089B31FB238431031D08001021603FA5
:1008400025042621703F240419290319332C5F3E07
:1008500084000014FE30000503195434FF3A8D055E
:10086000F938DA0554345F3E84000010000803199B
:1008700042348D040639DA0442342100DE1A452C54
:10088000DE012000482D21005F15DF149F31002775
:10089000843122008D0121006A3099002300073045
:1008A0008C008D0122001E149D172100E7308C0062
:1008B00007308D00961C16141609961B0530161B62
:1008C00006300F3903195F0A031E0301090EFC00ED
:1008D000031EFC150F309600D53095002000F9302E
:1008E0009B0000309C0096019701313098009501E3
:1008F0000B1164000B1D792C23009D0119309B0006
:100900001E151E129E169D1722008A309700C830B1
:100910009800171FFE33210010309E007D309D008F
:10092000921612179114000000009D14FC1D9E2CBD
:100930002B308831092084315819FC110030812571
:100940000130812502308125033081259D18FE3339
:100950000630DE26DB005630DE26DC009C30DE264C
:10096000DD0001309D0000306D26E400220099007A
:100970000E306D26E6009B31892384316B26B00052
:10098000031D57146B26B1006B26B200031DD7144C
:100990006B26B3002300FC1D1D162800F9309600BD
:1009A00026309700220015098301200092010339A7
:1009B000D300FF308D005318F739D318EF398C006E
:1009C0000B17FC1D8B17BF097830D7041430C400F7
:1009D0005030C5000A30C6005A30C700B417CF17D0
:1009E000B817B617AF173230CC000D306D26DB00CC
:1009F0001030FB00F901D030A10021086D26FA006B
:100A00007908FA0803190E2DF900FA36031C0C2D8B
:100A10008331B12385318004790A012D0730F9042F
:100A2000F90AA10AFB0BFD2C15308831092085310C
:100A3000F10106306D269831F4208531F10A073036
:100A40006D269831F4208531F10A08306D269831F1
:100A5000F4208531F10A09306D269831F420853172
:100A6000F10A0A306D269831F4208531F10A0B30F5
:100A70006D269831F420853101306D26D000893102
:100A8000BD218531FC1D482D4D3084312724853111
:100A90006400C108031D4F26FC19482D5218AC25CF
:100AA000D51BDA250B19FE2511181C269318EF25E6
:100AB000111B74268931F521853151193A26601BA5
:100AC000432C911E482D23001D1D05329908031942
:100AD0003D2C2000482D9D1C722D1D121D1620003E
:100AE000D116482D8F25D21D482D98310020A60102
:100AF000D21188310038031D00200A208531D62507
:100B0000482D093685000301090C20388400800136
:100B1000840A04097039031D872D8501080020000F
:100B2000013087002608D03E8600230019082000E7
:100B3000D219080081000A3A03190800073A03197C
:100B4000A62D2608013E831CA6000800A60803194E
:100B500008008101D21508008831332085315210F8
:100B600080310E2085317C18BE2D581DC02DD31626
:100B700074087806031DD62DCD0A4D12E001D62D3E
:100B80000130D400D3155316583080312724731FF9
:100B9000423027240830731B1030BD002230A800DB
:100BA000210091142000F9309A001C1588314D2045
:100BB00085310800D513551A551CE42D21005A081B
:100BC0005D022000031C080055085A06113903195C
:100BD0000800DA0689316721092085310800931061
:100BE000CC0B0800D119E00AD8173230CC00650FC1
:100BF000E5000530650203188C1108002100DE1E97
:100C0000DE0A20001C1D18269831FC188623883126
:100C10005E090319DE01DE08031D42208431DF086E
:100C2000031DDF0B08004530843133248631080072
:100C300021009D14200008001110CB1F2A26D61970
:100C4000561908008030D60656054F3084312524C9
:100C500086310800CB03CB1F08005D1CAF17DD1CDD
:100C6000B4175D1DB617993107305D05031DCD2101
:100C70008631080041083C3C031C080088315F2095
:100C800086312230400203184A2E2C308831192038
:100C900086310800511188310A2086310800111E62
:100CA00008002708203E84008514000885012300E1
:100CB0009A002000A70A503027060319A701C10394
:100CC00008002300951C08002000911E612EF200F0
:100CD0008F257208612E2300110A6126950191006B
:100CE0001514130820000800111321001C085A06CF
:100CF000DA065A065A02031C003CFC39031DB22EC8
:100D00005A085D02031C992E5A085B020318962E9E
:100D10005A085C022000581D0800031CB52E58110B
:100D2000D8114E3088310920863108002000D815AE
:100D30009B2E2000D8115819B52E58153630883101
:100D4000092086311C118030D5058C1553145B1E8B
:100D5000DB01D601AA01AB01503084313324863146
:100D6000200008002000581D08007C1CD81F080027
:100D70000030F300F501F601F701D812CA26F4009D
:100D8000803113208031731AE7237408F800D813D8
:100D90008531C02D4D080B00003419340134DC2E90
:100DA00011341B341C340E34DC2E0034193401345D
:100DB00038343934DC2E1234D8160034F3000830BD
:100DC000FB001C089B1B013EF401F30C0318F40705
:100DD000F40CF30CFB0BFA337335740D731B013EEB
:100DE0000800031D032F67081F39E70A0B00062FB1
:100DF0006A2F122F0034062F682F152F062F6A2F07
:100E0000222F242F282F03143F2700348C13210076
:100E10008C13432721008C17200046278C1B032F9F
:100E20004427013444306B27003457277108103AA7
:100E300003190134E717383A031901340A3A031940
:100E40000134032FBE306B2F57277108E80001349F
:100E50005727E71B312F710C680CF900FA01FA0CC7
:100E60003B2F680EF039FA00710EF039F100680E70
:100E70000F397104F900553A0319032F0310993102
:100E8000F021E70101344427E830472F36302100B4
:100E9000911020001B020A3E9A001C15911C4E2F37
:100EA0001C119110080055275527000008005827ED
:100EB0005B275B275B278C1321008C1303108C1797
:100EC000200054278C1B0314F10C2D3047270800F9
:100ED00033306B2FCC30F1006D27702770277027CF
:100EE000F10C8C1321008C1303188C173230472718
:080EF00021008C1720000134E1
:1010000086316D26883103190800192086316B2638
:10101000F93300200D3019200A301928F200720E21
:10102000122072080F39F63E0318073E0A3ED11708
:10103000303EC1080319111E212823009A00200008
:101040000034840027084107B03E031C503E203E78
:101050000406840604068514800085014108503A80
:10106000031DC10A00345430731B4230521908006A
:10107000192073080E2074080E2075080E207608BB
:101080000E200A28D51B08008E3000205E080E2096
:101090000A2045305E1C3620DE013B08031908009B
:1010A00084003C08850000088501F1003C081220FE
:1010B0003B080E203D30192071080E200A284008F8
:1010C0004007203E8400850A0008F900840A0008D1
:1010D000FA0085014008C00A0B008F28A7288F2836
:1010E000A728A728A728B728A728A728A728A72878
:1010F000A728A728A728A728A528A728A728DD2844
:10110000B728B728A728A7288F28BB28BB28DF28FF
:10111000DF28DF28DF28DF28DF28DF28DF2879081D
:1011200094202F3019207A08F1000830FB00F10DCF
:101130009C20FB0B972808001E0D1728F909FA09B7
:10114000FA0A0319F90A2D301928F91B9E207A0F83
:10115000AB28F90AFA017908BC206430F1007A085A
:10116000AD21FA1BF90A7908F1002E30CA28790856
:10117000BC202F3019207A08F1007108D1139C3E51
:10118000031CCC28F1009C3E031CC928F10032301E
:10119000CA2831301920D117FB017108F100F63E41
:1011A000031CD428FB0ACE287B080319D11BD920A5
:1011B0007108D11717280F39DF33F91B9E20103023
:1011C000FB00A101A201A301EB282308FC20A3003E
:1011D0002208FC20A200FA0DF90DA30DA20DA10D0D
:1011E000FB0BE528D1132108032122080321230842
:1011F0000321D11B08001728333EF100F11DFD3EED
:10120000F11FD03E0800F100710E072171080F395F
:101210000319D11B172808002608043C031D663457
:10122000433F5A3C193C031C6C340B001334953477
:10123000A83495296C346C3487296C3481296C343A
:101240006C34043452296C343829662957296E29A4
:101250008A2979296C3434295F296C346C346C34D4
:10126000433F19203D30192830216436FA3E1228B8
:101270003021D6084E30031919282A082B046E3065
:10128000031919284E0E4E060F39D61ECE065430BD
:10129000CE1C4330561D203819202A08F9002B088F
:1012A000FA00A728302147307C184D30192830210A
:1012B0007C0E0F39B03E86316D26893119283021D8
:1012C0003030E61A3130661E413019283021551E63
:1012D0008434783055187F300020873430214430F2
:1012E0005B1A5330DB1B5230DB1A43305B1B493037
:1012F00019283021640EF100F10CF10C9C20F10C46
:101300009C2830210C0D803E9C200C0D9C28302107
:10131000500E0E283021023086316D268931F900B9
:1013200086316B268931FA00A72830214F306619A3
:10133000523019282608043C031D6634433F313CD3
:10134000013C031C6C340319A929C0015115521525
:10135000AB295111521188311728F901FA01083AC5
:10136000FB00083AFB06FA35F90DF10D0318FA07F0
:101370000318F90AFB0BB32908005A17DA13C22124
:101380005A13DA1703105008DA1B500E0F390B00EE
:10139000E229EE29F129F129F129E229E229DF29BF
:1013A000E229053204320332023201320032F030D7
:1013B0005A1BD0050F30DA1BD00503146C34F03003
:1013C000DA1FD0055A08C03921008C04200008001B
:1013D0005A093F3821008C0520000800E8218C05BF
:1013E0000800E821FF3A8C0408005A17DA13FA21A2
:1013F0005A13DA175008DA1B500E0F390B00080089
:1014000008000800082A0F2A202A222A162A3B2A26
:101410000C08DA180C095A05C0398C0608000C08AB
:101420005A190C095A05C0398C060800D31E080049
:10143000A8088631F1268A3100380319D312080032
:101440000C09232A0C085A05C039031D2D2ADA1E5F
:101450000800DA12F901FA01372ADA1A0800DA1656
:10146000023086316D26F9006B26FA000130993181
:1014700055218A3108000C095A05C039031DFF3077
:0814800059064039D9060800A5
:10300000D11A3E28D030860004302602031C6634D4
:10301000423F3D3C031D6634010888311920413F81
:1030200019203A301920203019209831413F0106EB
:10303000F100E039031D492D71080B0040284E288E
:1030400056285E2863286E2879287E28DA28DA2810
:10305000DA2885286334DA28DA288A288F289A28FB
:10306000A2286334A728AC286334B12863346334BE
:10307000B628BB28C328C828D028D528D112753433
:103080000108543A03194F29153A03192A2B0C3A0F
:103090000319AA2B1F3A03197A2D63340108523AF7
:1030A00003195D2C013A0319BD2B63340108503A12
:1030B0000319B92B1B3A03191E2C63340108503A2B
:1030C0000319BB2B63340108563A0319722A053AD7
:1030D00003198B29073A0319B72A63340108443AC4
:1030E0000319412B123A0319D4291B3A0319992ABF
:1030F00011290108433A0319872A112901084F3A77
:103100000319562C1B3A9F2B63340108433A0319C9
:103110006B2A63340108433A03198E2ADA2801081E
:10312000533A03191A2A143A0319732B043A031950
:10313000BF2963340108433A0319ED2B103A0319F0
:10314000832963340108463A03195B2B6334010871
:10315000443A0319062A63340108423A0319FA2A49
:1031600063340108543A03194A29633401084D3A7B
:103170000319A92A633401084F3A0319E3291C3AB9
:103180000319A52963340108553A0319092C63343E
:103190000108493A0319462C193A0319872C63345C
:1031A0000108533A0319F32A63340108483A031912
:1031B000512A633401084C3A031D63342608043C49
:1031C000031D6634433FF1005A3C193C031C6C3428
:1031D000413FBF3E063E1323433F883119209831BB
:1031E000413FBF3EF100433FF9000830F118403045
:1031F00071190230A1007118A135A03084001A3075
:10320000FB0021098005840AFB0B022979085F3E37
:103210008400210880047908001C031584312524CA
:1032200000340108473C031D633497240318080049
:103230008108031D6634F100083C031C6C34D13056
:103240008600F03001182A295005703A03195110F0
:10325000F10E0F3050057104D000F100013013233E
:103260005A17DA13C030011CDA068931C22103185B
:1032700008005008011C500E0F398831BC2803107B
:103280002608043A031D6634433F313C013C0318D1
:1032900008006C34D9240318080001305329D924BC
:1032A0000318080003305521EE294E060F39CE06CB
:1032B00000305B1F60292A082B04031D56161030AE
:1032C000D6057A08AB007908AA00D6155617D61687
:1032D000A901DB1AD2142B0403197F29DB1E080075
:1032E0002A0823257A08A9002B0823257908A9078D
:1032F000FA1BA90A2A08F9002B08FA00080056163A
:103300004E10CE100800D9240318080003196634A3
:1033100002300523EE29DD240318080003199A2939
:1033200044084425031C6C3445084425031D031C34
:103330009C296C3457109E29581857147A08B100EC
:103340007908B0000F300523EE29DD2403180800AA
:103350000319B42946084425031C6C344708442546
:10336000031D031CB6296C34D710B829D818D714FC
:103370007A08B3007908B20011300523EE29CB2476
:1033800003180800B4007A08B50079040319033261
:10339000DD14CD21EE29B417EE29CB1F0800F8303B
:1033A000DD057830CB00080097240318E129810857
:1033B000031D6634643C031C7234710DBA008831FD
:1033C000BD28BA01EA29DD2403180332F91F791F49
:1033D000ED2951102D3088311928F7218831A52881
:1033E0004030661DF7295816031C5812FE29511447
:1033F000D114031CD1102C30FF213E30850A8400EB
:1034000079081A007A0880008501080094242608AB
:10341000053C03190532090F6634B9240318080066
:10342000BC00B02403180800BB003C0888311220FF
:103430003B080E28972403180800AE00173C031C15
:10344000723416003A3C031D66349824031866341F
:10345000AF003B3C031C723416002F3C031D663446
:1034600030300102031D031C6C34F100F839031DD8
:103470006C341400031D6634F10E7135AE045D1416
:10348000CD212E081F39F1008831CB202F08F10003
:103490003A30CA202F3019202E0EF100710C073956
:1034A00017282608043C031D6634433F503C03198B
:1034B0000D32DC0149126612E612E13E0319E616EE
:1034C000FE39031966160123893160298231EA2207
:1034D0005030883119283F21031C08005910031966
:1034E00059143D292608043C031D6634433F393CEA
:1034F000093C031C6C3409350D3E22009900200064
:1035000064061F396406E4001123893135293F21FF
:10351000031C08005911031959153D29CB248318A0
:10352000972A03180800B8007A08B900EE29B817DE
:10353000EA29972403180800F039031D7234710832
:103540004A060F39CA06A7224A088831DB28823189
:10355000F12A972403180800F039031D723471080A
:1035600049060F39C906A72249088831DB28972464
:1035700003180800C3005813DA110630FB007B085B
:10358000FB030B006C34033E103E033E4D3E033EF6
:10359000053E4302031DF33316003A3C031D663417
:1035A000982403180800E200013EE1001600031908
:1035B0000C323D3C7B18031D663498240318080028
:1035C0008108031D6634E300DA1558174308883173
:1035D000BC203A3019206208DA1DBC28BC203D30DE
:1035E00019206308BC283F21031C0800E611031DB5
:1035F000E615842B3F21031C08005913031D59179E
:103600003D296608F1000E30132B863161269B316F
:10361000910079081823863161269B31910A7A0836
:103620000732F1000030863161269B31910071082C
:103630002300151413060319272B930615158B1356
:1036400055309600AA30960095148B171511130863
:103650002000080097240318080003197234810819
:10366000031D66345212E03086316D269B310319FA
:103670003E2B2300110F342B20006934172388318F
:10368000BC28972403180800031972348108031D0D
:1036900066344E23031D08008831BD28F100E03058
:1036A00086316D269B3171060319182B2300110FEB
:1036B000502B20006F342608043C031D6634DB01C8
:1036C000433F433A0319DB160A3A03195B171A3AC8
:1036D00003195B16DB08031D5B165B08F1000D3058
:1036E000132389316F292608043C031D66343F21CA
:1036F000031C9A2B6614E6067C060139031D842BF5
:10370000FC148623FC18C33F0123532C20001C19F2
:1037100050347C10661CFC197C142200D0309200BE
:10372000D130940086307C18A63091009300FC10B4
:1037300020000800433F523C031D6C340100433F0E
:103740004F3A031905321D3A031D6C346615842B5C
:103750006611842B97240318B72B8108031D663448
:10376000643C031C7234643CCF008831BC28CF1702
:10377000EA2989310C2989319A29972403180800EC
:1037800003196C34F20016003A3A031D6634F9014D
:1037900098240318080081080319D92BF900160092
:1037A0002C3A031D66349824031808008108031D71
:1037B0006634FA007208FB230319E22B0301FB2392
:1037C000031D69347A08E03F7908F03F72088100F0
:1037D0008831BC203A301920B728972403180800F4
:1037E00003196C348108031D6634FB23031D6F34F9
:1037F00081018831BD28F10001308700C03086008A
:10380000010871060319080001308607831C002C8B
:103810000034972403180800031DF900F91B6C34C9
:103820008108031D66348331B1239C3180047908FB
:1038300032247104182379088831BC28972403188E
:103840000800031DF900F91B6C348108031D663460
:103850008331B1239C31FF3A800579083224F10984
:1038600071051A2C3D24F100F20E720D720D1F39F4
:10387000D03E86316D269C310800F2000130F218EE
:103880000430721889357219090E08003F21031C93
:103890000800433F093620300318E404FF3A031CB4
:1038A000E40564081123433F883119283F21031C94
:1038B0000800433F093640304C2C2608063C031DC7
:1038C00066340130F100433F483A03196C2C1F3A2B
:1038D000031D66340430F100443F7119123A423A34
:1038E0000319762C123A031D6634F135453F533ADD
:1038F00003197E2C1B3A031D6634F10E7108C204B5
:10390000433F88311920443F1920453F1928972407
:10391000031808008108031D6634C3005817DA1124
:10392000E101E2018831BC28D330860008009424EC
:103930000108393C093C031C212DF1001400393CDD
:10394000093C031CAE2CA1001A307102031872341A
:1039500071082E252107031C9D2C72347108080064
:10396000B92403180800F100F10EB924031C7104F6
:1039700008001600D03E031C212DF63E031CC82C67
:10398000DF39F93E031C212DFA3E03186634063E4A
:103990000A3E03100800D9248314031808009C3E33
:1039A0008310031C1A2D031D7234FA08031D723490
:1039B0001A2D942401082D3C063294245117010835
:1039C0002D3C0319E62C5113023C0319860A982456
:1039D00003180800F90101080319072D2E3C031DE7
:1039E000212D0730FB0014000319072D393C093C39
:1039F000031C212D7B192E25FB18F907FB36FB082C
:103A00000319031CF32CFB3E0318F90AF32C511F76
:103A1000102DF109F90803191F2D7908643CF900EC
:103A2000FA0134250318F10AA208031D013EFA0029
:103A30007108F90079080319FA0803100800F10A5F
:103A4000102D03146634F901FA002B252B25FA07F3
:103A50000318F90A0800FA35F90D0800A200A207B8
:103A6000A20DA207220D08001030FB00A101A20147
:103A7000FA0DF90DA20D643022020318A200A10D67
:103A8000FB0B382D210808007902031D0800FA08F5
:103A90000800413F323A031D63340108433A0319D9
:103AA0006C2D0B3A0319652D053A031D63349724D9
:103AB00003180800F039031D7234710E4A06F039FC
:103AC000CA06A7224A0E8831DB283F21031C0800C2
:103AD0005912031959163D29CB2403180800B600C2
:103AE0007A08B7007904031903325D15CD21EE2958
:103AF000B617EE29972403180800C8005715883117
:103B0000BC285509220015062000921212135306F4
:103B10000339D3065819023900380319080001394E
:103B20000319D51D962DFF30DE000800031DD519A1
:103B30009E2DD515A8080319531AB92DA8080319E5
:103B4000DB2D03305402031C7E2E5336D51D09365F
:103B5000A80BC72D0318832ED31B872E5214803138
:103B6000523033245430332433249D31D5111C1169
:103B7000D82DA80153121830D51808300C06183962
:103B80008C0680315830332433249D31D12D803040
:103B90000318D306F60DF50DF40DF30D0130F606FE
:103BA0005311D40170089A020630031C9A02911036
:103BB0006430950008001C19E82DDE08031DD82D7F
:103BC00027309A001C15D401210091142000D82D13
:103BD0000A3054020318002E5336D51D0936031837
:103BE000D82DD4080319B72D803152302724D51D84
:103BF000423027249D312130A800D3135311D12DF9
:103C0000323054020318D12DD519551ED12D551817
:103C1000531CD12D0130D506D306D12D9110D40AD5
:103C2000531A262EA808031D232E5408143C0319EA
:103C30004F2E50305402031C08001C11D511551B87
:103C4000D51755130800D419852E080054180800FC
:103C5000A8080319402E0301D31D1830551A103A35
:103C60000C063D058C06D4184C2ED3110314F60D0A
:103C7000F50DF40DF30D0318D315D401A8030800B6
:103C80001C1153123D1AD31680315830332454304E
:103C9000332433249D3108000830D30608005336FE
:103CA000D51D0936031C08000130D51D0230D5068C
:103CB000D306D51D712E55177C186D2ED51E080004
:103CC000550911390319080010308C06D506550521
:103CD0005030843125249E310800D511D31C0800B2
:103CE000D12D7C1C0800D518103055061039031949
:103CF0000800D5065517672E5315D82D5319E41A09
:103D00007C2E0130882E0230882E0330882E04301D
:103D1000DE080319DE005336D51D0936031C1C11BD
:103D2000A801D40153128031583033245230332447
:103D30003324543033249E315E090319A52E4530B7
:0C3D4000843127249E317A30DF00D82D1A
:103E0000031E08008B1321006A309900D7309500FB
:103E10002200FF308D0088309700C830980017309E
:103E200099001030920011309400A6309100930058
:103E30001E149D172100E7308C0007308D002300F1
:103E400007308C008D0119309B0026309E009D1795
:103E50001D168701113086000301C43F0130E127A0
:103E6000C7271030E127811E0800CC27031D08005A
:103E7000203085008401F001CC270319F9330B3A77
:103E800003190732013A0319CC2772081A00F00708
:103E9000F333F008031D413284019501023F910084
:103EA000033F9200013FF100043084073C3F083C8F
:103EB000083C031C32320B000D32123232324232D5
:103EC000493250320532293201000002001FE91F39
:103ED00015170632653091009F3092000230840041
:103EE000951715140000000013081A0014081A0092
:103EF000910A0319920AF10BF3330408F10015112A
:103F000084010F30C727F0011200F007BA27F10B28
:103F1000FB337009013EBA27C727CC270319A83302
:103F2000FC33A43095001200930012009400110994
:103F30001F3903190232710303199512D527F10BAA
:103F4000F033DC33943095001F309104D527F10B0A
:103F5000F933D4339501151413081A00910AF10BA3
:103F6000F933CB330430950012009300D527F10BC1
:103F7000F933C433F3000F3A031906320B3A03192D
:103F80000332013A031D02320530C727730864006B
:103F9000011EFE339A0004349D1801006400811E46
:103FA000FD331908F2000F3A0800640055309600FE
:103FB000AA30960095149518FE33910A0319920AB7
:103FC00001346400811A08000B1DFB330B11090B2F
:043FD000F83304348A
:020000040001F9
:02000E00FC0BE9
:02001000FF1AD5
:10E0000077000000100000004C003D004600580062
:10E010004F004D00500043000000000000000000D1
:10E0200000000000000041003D004F00700065004E
:10E030006E0054006800650072006D00200047000B
:10E0400061007400650077006100790020003600EF
:10E050002E003400000057004400540020007200DD
:10E060006500730065007400210000005400680022
:10E07000650072006D006F00730074006100740031
:10E08000200064006900730063006F006E006E0082
:10E0900065006300740065006400000054006800BF
:10E0A000650072006D006F00730074006100740001
:10E0B000200063006F006E006E0065006300740056
:10E0C0006500640000004E0047000000530045005A
:10E0D00000004E00530000004200560000004E00B9
:10E0E000460000004F00520000004F0045000000B5
:10E0F0004D0065006400690075006D000000480077
:10E1000069006700680000004C006F007700200085
:10E1100070006F007700650072000000450072001B
:10E1200072006F0072002000000042003D003100CC
:10E1300032003A00320034002000320038002D0056
:10E14000310032002D003200300032003200000079
:10E1500043003D00340020004D0048007A000000DC
:10E16000570042005000530043004F0055004C0040
:02E17000450068
:10E1A000000000000000000000000000000000006F
:10E1B000000000000000000000000000000000005F
:10E1C0007400750076007700780079007A007B0093
:10E1D000000000000000000000000000000000003F
:10E1E000000000000000000000000000000000002F
:10E1F000000000000000000000000000000000001F
:00000001FF
