:020000040000FA
:100000009F310027893196298031200020080B007C
:100010000900090004320632090006320900131AE9
:1000200017200900931A2F20911838200900131265
:1000300026001108F5001208F60001309306200092
:1000400095012330850044358400F03C031D031CDA
:100050000800C40A75081A0076081A0008009312EE
:1000600026001808F5001908F60001309A06E73353
:100070009110BD0803190800BD0303191C113D1898
:10008000080074080C0608398C060830F406BD1800
:100090000800F4110314F30DF20DF10DF00D031C23
:0400A000F41508004B
:101000001E08370889089008A808AE08B608BC086A
:10101000C008C608D008DA08E408EE08F108030999
:1010200005090C09130917091B0920092C093A099C
:1010300048095509620972097D0986098A06F0275F
:10104000EE32683AF232A036E133653AE13BA03C39
:101050006932E7306F37F439E334A039A016652BD5
:101060007339EF3420372E1900198A061A05AE1885
:101070004C10C4227410F3320D3A00052E194210A0
:10108000F4347410ED34EE34A033683AF232EF36B3
:10109000F439F4308A06AE194210F4347410ED3489
:1010A000EE34A0336F31EC34F2328A062E1A44103B
:1010B000EC32F9307310ED3CE536723A8D3C0005A8
:1010C000AE1A5610EC37613AE5336C10F632EC325A
:1010D0008D3900052E1B49106C32A032693AE53675
:1010E0008D390005AE1B5410ED3265386139753A03
:1010F00065397310EE32EF390D3900054505743747
:10110000F2327410F332203A7537E236F232201D93
:10111000000DEE24613B69362032653AF439000D4A
:10112000A311A011F2226F393A3949107437F23203
:101130006133E531A0396F322737203AF030653816
:10114000F2307410A03765316C10EF3765381A3201
:10115000A311A011F2226F390D391A056F28E53B52
:101160002039F53970387936201D000D682AF232A1
:10117000EF36F439F430000D6F21EC34F232000D0B
:101180006529653365396337BA321A10CB27C11820
:101190006810E7342D346F3AEC16F737201D000D38
:1011A000CB27C1186C10F737F416AD376934E83324
:1011B000201D000DCB27C2186810E7342D346F3A7C
:1011C000EC16F737201D000DCB27C2186C10F7372F
:1011D000F416AD376934E833201D000DF33A8A0662
:1011E000000D6529653365396337A0326F3B74366E
:1011F000E730A032E539743AEE34A03330142E17BC
:10120000A91C5B10000DBA2E1A10EE24613B693642
:101210002032613B75369A32E5297337F237741004
:10122000F03CBA321A105322B818B2291A185322B5
:10123000B81832211A184F29A026EF3165321A1D2D
:10124000E526F330F23AE4327410ED326538613954
:10125000753A6539201D000DE829F237203AE93149
:101260006339E93A203AEE377010F737F2326C10F2
:10127000EE349A32E829F237203AE9316339E93A13
:10128000203AEE376410F430A03069366537000D2F
:10129000E926F339EE34A03375386C3675102038F2
:1012A0006539E939F439F237000D6F273110F71637
:1012B000F234A0326532693BE5316410F432E33236
:1012C000653A1A32EE2AF5397038F237653A20322B
:1012D000AD18E93B65396410F632E334A032793A4F
:1012E0006538000DEE24613B693620324F29A02677
:1012F000EF31653243104329000DEE24613B69361E
:1013000020326132613A43104329000DE5297337D9
:10131000F2377210E132693267376610E9306536AC
:101320002032F4307310653A2038000D21006A3005
:1013300099002100E7308C0027308D002300073012
:101340008C008D0122008A30970088309800173079
:101350009900F4018122210010309E007D309D0013
:10136000230019309B001E151E129E169D171D1678
:1013700021009D149D18FE3306305422A1005630E2
:101380005422A2009C305422A30020009801A30103
:10139000A4018B132100D530950091019201920197
:1013A00010309E0001309D00812298019C0174182C
:1013B0008D11BC018C110030C5250130C5252300DD
:1013C0009D18F2212000F62103180732A000073CE7
:1013D000073C031CED29AB22C9291D19092A02303B
:1013E000C525C92919081D121D16080001308500E0
:1013F0002030840064004B22111B67220B194F22FE
:10140000911EF83323001D1D083219082000031D0A
:10141000F13364000D1DFD33010019088000200028
:10142000E039031907326F3004020318E333120066
:101430006826E03300080D3A03190F32053A031904
:101440000132FA29203004020319D433840308300E
:101450006826682608306826CD33C12580012030F3
:101460008400A60103142608800803190800E63E3C
:1014700003180D322608A607A60DA607A60D120012
:10148000393C093C031C0532A607031CEC3303114D
:10149000013403140234A119111E0800832E0B110C
:1014A00021009D1420000800F0000830A5001C0851
:1014B0009B1B013EF101F00C0318F107F10CF00C3D
:1014C000A50BFA337035710D701B013E0800111326
:1014D00021001C082006A00620062002031C003C58
:1014E000FC39031D183220082302031C0732200890
:1014F00022020318741C0F327410033274180B325A
:10150000741422001030920011309400A630930021
:10151000741886309100200008008C15F9309B006B
:1015200021009114200091100230BC0008007418B2
:101530000B1D08000B11BC08031DBC0B08000F306D
:10154000BC008030F0001930F100F201F301883066
:10155000BD001C1508000B000100B42A042B0B2B46
:10156000552BAC2BBC2C2C2DA1012100D730950084
:1015700020009501A5016400A11808002508A50A0E
:101580000B00053208320B320E32133216328D1137
:10159000E2228D15F0330D12E2220D16EC330D13FD
:1015A000E2220D17E8338D13E2228D17211CA501CD
:1015B000E2330C13E2220C17DE338C13E2228C1779
:1015C000A501D9330230C2002425031909320D3A8E
:1015D000031DF6220B1DF8330B11C20BF533080067
:1015E000A11421000C178C1720000800343A0319AD
:1015F0002110023A031D080021140C178C1721003A
:101600000C138C13200008004623930020001312B3
:1016100021001316083246239A00200093127418F2
:101620008D2221009316233085002100D7309500AC
:1016300020000B178B17B601C401840164004B22F4
:101640009722242503192A3244350319F7338408D5
:10165000031912320B19163204020319EF3304086E
:10166000023A2C30031D682637080002B400013FFF
:10167000B5003808B53BF3250B111200B700120076
:10168000B800DC332E306826C125D63301309800EF
:10169000C4012100D530150826000434210093012F
:1016A000260093019A012000080022009112931253
:1016B00020008C110C12980196019701111018143A
:1016C000640011181832220095082000031DF83319
:1016D0000930C52502307E230A30C52542307E23DD
:1016E0000B30C52503307E230C30C52543307E23C7
:1016F0009801990108000330C525FA339801960135
:10170000970180389900403098000830191810303F
:10171000111018148C0664001118A82B19198B2BA2
:101720001736B500160CB400B536B40CB601F32567
:101730002E30682616080339093596180138303ED0
:10174000682630301618353068260D30C52508005B
:1017500018100430C525080074188D220B178B173C
:10176000210090309E007C30F1232030B200B10186
:10177000B001F623B8260530C5253408BA0035086F
:10178000BB00F225C1257830F1230830C525F623AA
:101790009E26B526F225C1250630C5250030F12349
:1017A000A03003240730C5250430F123B0300324D2
:1017B0000E30C5256024C40066260F30C525F621ED
:1017C000031D0C3203184408093C093C031C063273
:1017D00009350D3E220099002000C9291030C52589
:1017E000C929210001389D002000080021009D1416
:1017F0009D18F82B1B082000B70021001C082000B2
:10180000B800B90108008400013085001030A5003F
:10181000FF301A00A50B092C30314030C3002100E5
:101820009E13A601F62364004B2297223808C200BB
:10183000F62338084202031C003C023C031CA601AC
:10184000A60AA61D2D2C380E0F398407380EF03944
:101850008000370E8004F03084059722A50B132CEE
:10186000C30B132C3A30A6001030C3000018482CCC
:1018700026086826682604080F390936B800000CC7
:10188000B700B836B70C9E26B526F2252C30A60038
:10189000840AC30B362CC1250800B100A03E840089
:1018A0000008B0004508A03E840000080008B0020F
:1018B0004508B13B08004B08B0024A08B13B08009C
:1018C000A501FF30C600C700C500CA01CB0125082D
:1018D000A03E840000187D2CC51B772C25084D24C4
:1018E0005B24031C7B2C3008CB073108CA3D45081C
:1018F000C6002508C7002508C5000130A507831CC0
:10190000672C460A47020319C617A51A8C2C4608ED
:10191000C8004708C900612CC61F952CC81B053498
:101920004808C6004908C700A32CC81BA32C4608BA
:1019300048028318C60747084902831CC70747089F
:101940004602031805344608B8003812A03E840049
:101950000008B7004708A03E84000008B707470802
:101960000F39B83DB836B70C9E26B52635360F3C34
:10197000093C031808000534013098002100D530D7
:101980009500033085002600043093009A00200063
:1019900093019501C20164004B22242503194E32A4
:1019A0003030130503190432C200930695010B1160
:1019B000C208031D0B1DEF331230421E1930840084
:1019C00001301110971F801F0301B600031D111075
:1019D0003F3FB400003FB5002600013093069A0651
:1019E0002000930164004B22242503192732303054
:1019F0001305031D0732111CF533B60A1110031D20
:101A0000F133C933C2001130421E1830840034084B
:101A10000002B400840A3508003BB500031CB6037D
:101A2000B60A801B111CB6035430421E4230682691
:101A30003A3068266826F225C125A53318102600FD
:101A400093019A01200008000311911E0D34230018
:101A5000190820000D3A080022000C178C172100ED
:101A60000C138C1320000C1F3F328C1F3F328C1341
:101A70008C1B3C3221008C1720008C1F3932A4258E
:101A8000A101BE01A501832521191D321130C525F3
:101A90001230A61B1330C525C125A4308400850152
:101AA0000830A5001430C525682612004626A50B6F
:101AB000FB33C1251530C5253626C12521000C175D
:101AC0008C172000080026087F39FF3E03191232C8
:101AD000FA3E03191132F43E031910321D30C525A8
:101AE00026087F395026E93316300B321730093279
:101AF00018300732193005321A3003321B30A11862
:101B00001C30C525DA3303158E31DF268D312118BF
:101B1000080000380319A425A508031D0E323E084D
:101B20001F39073A031DEF333E08C700053EBE00CC
:101B3000A430840085010830A50026081A00A50BF2
:101B4000E2334708BE00DF3338309800DC309600BF
:101B50000B309700181464001110111CFE33181478
:101B6000080003180432A1180432A114080021153A
:101B700004324508B1004608B0003E08A600211412
:101B800008000D3068260A30682E230091000830C6
:101B9000920095019517151400000000130891009C
:101BA00014089200230095019517151400000000F9
:101BB000130D140DE92503190A3223001308E92532
:101BC000031905322300910A0319920AEB3320000E
:101BD00020347F391A3A031920341A3A031D682633
:101BE00003112034211618302000A500AB01AC01F0
:101BF000AD01AE010030870006322B3086001C2676
:101C00001C261C261C26B435B50DB60DAB0DAC0D2F
:101C1000AD0DAE0DA50BF13321152E082D262D0887
:101C20002D262C08211E2D26211A24262B082D2690
:101C3000303021196826080033300107891DFD3E28
:101C4000891FD03E1E00080021122111A600260E79
:101C500031262E30682626080432A600260E3126AC
:101C600026080F390319211D31320800460F0232B0
:101C7000C50AC601450850266430A60046088E26CF
:101C8000C61BC50A4508A6002E30572EA600260EF4
:101C90004A2626080F39F63E0318073E3A3E183208
:101CA0002115A6009C3E031C592EA6003130682643
:101CB0002111A5012608A600F63E031C612EA50AE7
:101CC0005B2E25080319211D662626082111303EAA
:101CD0002000A11D111E043223009A002000203490
:101CE000A200230A2402031D04326400111EFD33E6
:101CF0008326223087002308860022088100A30A59
:101D0000A115111E20342230870024088600A40A61
:101D1000240823020319A1110108DE33C501C601FD
:101D2000083AA500083AA506C635C50DA60D031844
:101D3000C6070318C50AA50B942E08003A08B4007C
:101D40003B08B5001030A500B301B201B50CB40CCE
:101D5000031C04323708B2073808B33DB30CB20C89
:101D6000B10CB00CA50BF23308000430B800B70179
:101D7000B601B501B401AF01AF0AB91B0432B735E2
:101D8000B80DB90DF933B435B50DB60D37083002BD
:101D90003808313B3908323B031C0B323708B0029C
:101DA0003808B13B3908B23BB40A0319B50A031924
:101DB000B60AB936B80CB70CAF0BE5330800031DF3
:101DC000F82E3E081F39BE0A0B00FB2E712F0A2F7A
:101DD0000034FB2E6F2F0D2FFB2E712F1A2F1C2F6F
:101DE000202F572F572F572F572F572F572F3E2F13
:101DF00003143A2700348C1321008C13432721004D
:101E00008C17200046278C1BF82E4427B430472718
:101E1000C101013444307227003457272608103A94
:101E200003190134BE17383A031901340A3A031969
:101E30000134F82EBE30722F57272608BF00013418
:101E400057272608C0000134BE1B2C2F400C3F0C26
:101E5000C500C601C60C362F3F0EF039C600400E35
:101E6000F039C0003F0E0F394004C500553A031940
:101E7000F82E03108D31B125BE0101345727C1085A
:101E8000031DF82E242F4427E830472F3630210039
:101E9000911020001B020A3E9A001C15911C4E2F27
:101EA0001C119110080055275527000008005827DD
:101EB0005B275B275B278C1321008C1303108C1787
:101EC000200054278C1B0314A60C260D1E0DC106E2
:101ED000410C03188C3AC1002D30472701343330B0
:101EE000722FCC30A6007427772777277727A60C88
:101EF0008C1321008C1303188C17323047272100D4
:061F00008C1720000134E3
:103E0000031E08008B1321006A309900D7309500FB
:103E10002200FF308D0088309700C830980017309E
:103E200099001030920011309400A6309100930058
:103E30001E149D172100E7308C0007308D002300F1
:103E400007308C008D0119309B0026309E009D1795
:103E50001D168701113086000301C43F0130E127A0
:103E6000C7271030E127811E0800CC27031D08005A
:103E7000203085008401F001CC270319F9330B3A77
:103E800003190732013A0319CC2772081A00F00708
:103E9000F333F008031D413284019501023F910084
:103EA000033F9200013FF100043084073C3F083C8F
:103EB000083C031C32320B000D32123232324232D5
:103EC000493250320532293201000002001FE91F39
:103ED00015170632653091009F3092000230840041
:103EE000951715140000000013081A0014081A0092
:103EF000910A0319920AF10BF3330408F10015112A
:103F000084010F30C727F0011200F007BA27F10B28
:103F1000FB337009013EBA27C727CC270319A83302
:103F2000FC33A43095001200930012009400110994
:103F30001F3903190232710303199512D527F10BAA
:103F4000F033DC33943095001F309104D527F10B0A
:103F5000F933D4339501151413081A00910AF10BA3
:103F6000F933CB330430950012009300D527F10BC1
:103F7000F933C433F3000F3A031906320B3A03192D
:103F80000332013A031D02320530C727730864006B
:103F9000011EFE339A0004349D1801006400811E46
:103FA000FD331908F2000F3A0800640055309600FE
:103FB000AA30960095149518FE33910A0319920AB7
:103FC00001346400811A08000B1DFB330B11090B2F
:043FD000F83304348A
:020000040001F9
:02000E00FC0BE9
:02001000FF3AB5
:00000001FF
