:020000040000FA
:100000009F310027983100288031200020080B0004
:100010000900090004320632090006320900131AE9
:1000200017200900931A2620911835200900950100
:1000300013122330850040358400C00A26000130A9
:10004000930611081A0012081A000800950193126D
:100050002330850040358400C00A260001309A060E
:1000600018081A0019081A0008009110BD08031991
:100070000800BD0303191C113D18080074080C0684
:1000800008398C060830F406BD180800F411031472
:0E009000F30DF20DF10DF00D031CF415080038
:1030000021006A3099002100E7308C0027308D00C4
:10301000230007308C008D0122008A309700883011
:10302000980017309900F401EB20210010309E0029
:103030007D309D00230019309B001E151E129E1628
:103040009D171D1621009D149D18FE330630BE20CD
:10305000A1005630BE20A2009C30BE20A30020005C
:103060009801A301A4018B132100D5309500910193
:103070009201920110309E0001309D00EB209801DA
:103080009C0174188D11BC018C1100306A23193019
:103090006A2323009D185C2020006020031807325B
:1030A000A000063C063C031C5728152133281D1997
:1030B00073285E306A23332819081D121D16080074
:1030C00001308500203084006400B520111BD12020
:1030D0000B19B920911EF83323001D1D0832190861
:1030E0002000031DF13364000D1DFD33010019089C
:1030F00080002000E039031907326F300402031802
:10310000E3331200F523E03300080D3A03190F32C0
:10311000053A031901326428203004020319D4331C
:1031200084030830F523F5230830F523CD336623D7
:10313000800120308400A6010314260880080319AA
:103140000800E63E03180D322608A607A60DA607BE
:10315000A60D1200393C093C031C0532A607031CCE
:10316000EC330311013403140234A119111E0800B9
:103170000F2C0B1121009D1420000800F0000830D6
:10318000A5001C089B1B013EF101F00C0318F10780
:10319000F10CF00CA50BFA337035710D701B013E6C
:1031A0000800111321001C082006A006200620029A
:1031B000031C003CFC39031D183220082302031CA9
:1031C0000732200822020318741C0F3274100332D5
:1031D00074180B32741422001030920011309400D5
:1031E000A6309300741886309100200008008C15DA
:1031F000F9309B0021009114200091100230BC0096
:10320000080074180B1D08000B11BC08031DBC0B33
:1032100008000F30BC008030F0001930F100F201DE
:10322000F3018830BD001C1508000B0001001D29AA
:103230003E2945298F29E629F62ABF010130BE0023
:103240002100D7309500200064005E2303193B293C
:103250000B1D24290B11BE0B24290130BE000310C5
:10326000BF0DBF080319BF15BF1ABF0DD8308D049D
:103270003F098D052429D8308D0408008021930052
:103280002000131221001316083280219A0020001A
:1032900093127418F7202100931623308500210023
:1032A000D730950020000B178B17B601C0018401A1
:1032B0006400B52001215E2303192A324035031929
:1032C000F7338408031912320B191632040203195A
:1032D000EF330408023A2C30031DF52337080002AF
:1032E000B400013FB5003808B53B8F230B11120025
:1032F000B7001200B800DC332E30F5236623D63336
:1033000001309800C0012100D53015082600043492
:1033100021009301260093019A0120000800220059
:103320009112931220008C110C12980196019701B2
:10333000111018146400111818322200950820008A
:10334000031DF8339B306A230230B821A5306A236D
:103350004230B821AF306A230330B821B9306A2334
:103360004330B82198019901080065306A23FA3387
:1033700098019601970180389900403098000830F4
:1033800019181030111018148C0664001118E22955
:103390001919C5291736B500160CB400B536B40C8A
:1033A000B6018F232E30F5231608033909359618F8
:1033B0000138303EF523303016183530F523C33050
:1033C0006A23080018107D306A2308007418F7205B
:1033D0000B178B17210090309E007C302B22203061
:1033E000B200B101B0013022342483306A233408A2
:1033F000BA003508BB008E23662378302B22953027
:103400006A2330221A2431248E2366238B306A23C8
:1034100000302B22A0303D2291306A2304302B2231
:10342000B0303D22C6306A239A22C000F323D83040
:103430006A236020031D0C3203184008093C093C34
:10344000031C063209350D3E220099002000332866
:10345000DA306A233328210001389D00200008005B
:1034600021009D149D18322A1B082000B70021005E
:103470001C082000B800B901080084000130850054
:103480001030A500FF301A00A50B432A3031403020
:10349000BF0021009E13A60130226400B520012147
:1034A0003808BE00302238083E02031C003C023CB3
:1034B000031CA601A60AA61D672A380E0F39840729
:1034C000380EF0398000370E8004F0308405012179
:1034D000A50B4D2ABF0B4D2A3A30A6001030BF0075
:1034E0000018822A2608F523F52304080F39093627
:1034F000B800000CB700B836B70C1A2431248E235C
:103500002C30A600840ABF0B702A66230800B10085
:10351000A03E84000008B0004108A03E84000008DE
:103520000008B0024108B13B08004708B002460855
:10353000B13B0800A501FF30C200C300C100C601B5
:10354000C7012508A03E84000018B72AC11BB12A74
:10355000250887229522031CB52A3008C7073108A1
:10356000C63D4108C2002508C3002508C10001303E
:10357000A507831CA12A420A43020319C217A51AF0
:10358000C62A4208C4004308C5009B2AC21FCF2A8E
:10359000C41B05344408C2004508C300DD2AC41B0F
:1035A000DD2A420844028318C20743084502831CEF
:1035B000C30743084202031805344208B800381212
:1035C000A03E84000008B7004308A03E8400000825
:1035D000B70743080F39B83DB836B70C1A24312461
:1035E00035360F3C093C03180800053401309800BB
:1035F0002100D5309500033085002600043093006B
:103600009A00200093019501BE016400B5205E235D
:1036100003194E323030130503190432BE009306ED
:1036200095010B11BE08031D0B1DEF3312303E1E1A
:103630001930840001301110971F801F0301B6005C
:10364000031D11103F3FB400003FB50026000130BC
:1036500093069A06200093016400B5205E230319A7
:10366000273230301305031D0732111CF533B60A1B
:103670001110031DF133C933BE0011303E1E183046
:10368000840034080002B400840A3508003BB50009
:10369000031CB603B60A801B111CB60354303E1E31
:1036A0004230F5233A30F523F5238E236623A533E4
:1036B0001810260093019A01200008000311911EA2
:1036C00008002300190820000D3C08000D30F523E8
:1036D0000A30F52B230091001E3092002300950143
:1036E0009517151400000000130D140D8523031900
:1036F0000A32230013088523031905322300910A97
:103700000319920AEB33200008007F391A3A031993
:1037100008001A3A031DF52303110800211618307A
:103720002000A500AB01AC01AD01AE010030870067
:1037300006322B308600B823B823B823B823B4351B
:10374000B50DB60DAB0DAC0DAD0DAE0DA50BF1333A
:1037500021152E08C9232D08C9232C08211EC92391
:10376000211AC0232B08C92330302119F523080062
:1037700033300107891DFD3E891FD03E1E00080021
:1037800021122111A600260ECD232E30F523260866
:103790000432A600260ECD2326080F390319211D59
:1037A000223208003108DD236430A6003008B01B47
:1037B000B10A3108A6002E30E42B2115A6009C3E4C
:1037C000031CE62BA6003130F5232111A5012608A4
:1037D000A600F63E031CEE2BA50AE82B25080319CC
:1037E000211DF32326082111303E2000A11D111EAA
:1037F000043223009A0020002034A200230A24026D
:10380000031D0332111EFE330F24223087002308CC
:10381000860022088100A30AA115111E203422303F
:10382000870024088600A40A240823020319A11192
:103830000108DF333A08B4003B08B5001030A5009A
:10384000B301B201B50CB40C031C04323708B20743
:103850003808B33DB30CB20CB10CB00CA50BF2336D
:1038600008000430B800B701B601B501B401AF01DA
:10387000AF0AB91B0432B735B80DB90DF933B435F9
:10388000B50DB60D370830023808313B3908323BE8
:10389000031C0B323708B0023808B13B3908B23B81
:1038A000B40A0319B50A0319B60AB936B80CB70C2D
:0638B000AF0BE533080038
:103C00008A06F027EE32683AF232A036E133653A9E
:103C1000E13BA03C6932E7306F37F439E334A03937
:103C2000A016652B7339EF3420372E1980188A06B9
:103C30001A05AE184C10C4227410F3320D3A000568
:103C40002E194210F4347410ED34EE34A033683A77
:103C5000F232EF36F439F4308A06AE194210F434F9
:103C60007410ED34EE34A0336F31EC34F2328A0646
:103C70002E1A4410EC32F9307310ED3CE536723AEE
:103C80008D3C0005AE1A5610EC37613AE5336C10E6
:103C9000F632EC328D3900052E1B49106C32A03201
:103CA000693AE5368D390A05EE22653A2039653ADA
:103CB000F4396E10ED3A65313A391A10EE24613B51
:103CC00069362032653AF439000DA311A011F222B1
:103CD0006F393A3949107437F2326133E531A0391E
:103CE0006F322737203AF0306538F2307410A03741
:103CF00065316C10EF3765381A32A311A011F2222A
:103D00006F390D391A056F28E53B2039F5397038C0
:103D10007936201D000D682AF232EF36F439F4307E
:103D2000000D6F21EC34F232000D652965336539E1
:103D30006337BA321A10CB27C1186810E7342D3414
:103D40006F3AEC16F737201D000DCB27C1186C1009
:103D5000F737F416AD376934E833201D000DCB2753
:103D6000C2186810E7342D346F3AEC16F737201D6F
:103D7000000DCB27C2186C10F737F416AD37693435
:103D8000E833201D000DF33A8A06000D65296533DE
:103D900065396337A0326F3B7436E730A032E539BE
:103DA000743AEE34A03330142E17A91C5B10000DAA
:103DB000BA2E1A10EE24613B69362032613B75360B
:023DC0009A3235
:103E0000031E08008B1321006A309900D7309500FB
:103E10002200FF308D0088309700C830980017309E
:103E200099001030920011309400A6309100930058
:103E30001E149D172100E7308C0007308D002300F1
:103E400007308C008D0119309B0026309E009D1795
:103E50001D168701113086000301C43F0130E127A0
:103E6000C7271030E127811E0800CC27031D08005A
:103E7000203085008401F001CC270319F9330B3A77
:103E800003190732013A0319CC2772081A00F00708
:103E9000F333F008031D413284019501023F910084
:103EA000033F9200013FF100043084073C3F083C8F
:103EB000083C031C32320B000D32123232324232D5
:103EC000493250320532293201000002001FE91F39
:103ED00015170632653091009F3092000230840041
:103EE000951715140000000013081A0014081A0092
:103EF000910A0319920AF10BF3330408F10015112A
:103F000084010F30C727F0011200F007BA27F10B28
:103F1000FB337009013EBA27C727CC270319A83302
:103F2000FC33A43095001200930012009400110994
:103F30001F3903190232710303199512D527F10BAA
:103F4000F033DC33943095001F309104D527F10B0A
:103F5000F933D4339501151413081A00910AF10BA3
:103F6000F933CB330430950012009300D527F10BC1
:103F7000F933C433F3000F3A031906320B3A03192D
:103F80000332013A031D02320530C727730864006B
:103F9000011EFE339A0004349D1801006400811E46
:103FA000FD331908F2000F3A0800640055309600FE
:103FB000AA30960095149518FE33910A0319920AB7
:103FC00001346400811A08000B1DFB330B11090B2F
:043FD000F83304348A
:020000040001F9
:02000E00FC0BE9
:02001000FF1AD5
:00000001FF
