:020000040000FA
:100000009F3100278431912C20001A08F0009D3187
:1000100091186A26921AE725121BD8250900731B2E
:100020003A28731A2A24332074087806031DE40141
:10003000F8067C1156179320E901DC1EF3230319FF
:1000400025287C1D5C1969280800DC1A33207C15E2
:10005000561393237C1DF633D612F400932069289F
:10006000561B033208007308F7007508A4007608D1
:10007000A5000800D5158C207408430603195C13ED
:10008000731E2A24F323F31A731E0A320319033250
:1000900055398007083274089B319D238031033223
:1000A000FF3ADB1F8005DB13D617D61881287C1991
:1000B000053293207C195C1908000B329320D61668
:1000C0005C1908004030561F7030DA23D613561FD3
:1000D0009320760875067406F3137306F100F10E8B
:1000E0007106F100F10CF10CF1060130F118F10686
:1000F0007118F3177C1808005230731B4130883197
:10010000362893205030F3000430F400AA30F50074
:100110002908F600D610692828002008A1009C01B3
:100120001E1520000800F41B552C74080B003A29FA
:100130008829A529542CBA29C829CE29E029E829DB
:10014000F229632B722B632B7B2B082A552C162A42
:10015000542C552C552C4D2A552C552C552C562AA3
:10016000542C552C5E2A742A552C552C552C552C64
:10017000552C552C552C552C552C552C552C552C77
:10018000552C552C552C552C552C552C552C822A3C
:100190008C2A552C552C552C552C552C552C962AE3
:1001A000B72A552C552C552C552C552C552C552CE7
:1001B000552C552C552C552C552C4F2CDD2A552CB7
:1001C000552C552C552C552C552C552C552C552C27
:1001D000552C552C552C552C552C552C552C632B0A
:1001E000722B632B7B2B552C842B842B842B552C2F
:1001F000552C552CE52A262B4F2C552C552C552C9F
:10020000632B722B632B7B2B552C552C552C552C8B
:10021000552C552C552C552C552C552C552C552CD6
:10022000552C552C552C552C462B582B552C7C1DBC
:10023000003410300632603004327708C038F31FC3
:100240007F397306031900347C155613F306003406
:100250007506031D7C15F5060034F31E0800771E95
:100260001B291D212408282125087606031D7C153D
:10027000F6060034731B5C298D235D09EA38FD39CD
:10028000EA1E601A0238F1000301B41BDC190138C0
:100290006A1E601A0238B81F0438B61F1038EA19EF
:1002A00020385D1B4038F105FF3A7505710428219F
:1002B000750802394330682CF31A0800601A792156
:1002C0007608A500413903195512031D551A6B29EB
:1002D000551605306E234D306824760808394630AF
:1002E0006824760804395730682476080239483083
:1002F000682CE0190932F61D03327619E015080062
:10030000E00AE01D08000132761DE00149120800F4
:10031000731BA1298D235C1D7C199029B41B080037
:100320007316B41BDC1D9A293208031947082821CB
:10033000330835290301B41F34082821B41F3508B8
:100340003529F31E0800B4170800731FAD290130CA
:1003500024052821250835211D297518D9165F1A6D
:10036000080076080B3C0319DF1B0800DF17D91AB9
:100370005F170800731F080048087502031DF31A71
:100380005B11AA307502031D08001D2129083529BB
:10039000731B552C5A1A5A1B0800342A731F080065
:1003A0000301F31E731AD8297608FC385B1BDB05A2
:1003B0005C060339DC061D215B1375080338282908
:1003C000731FB81B0800731638082821390835290F
:1003D000731B552CB61B7C19EE29080073162821B7
:1003E00037083529731F0800DA19F829F31E0800A9
:1003F0001D215A1E2A0828215A1E2B0835215A1B56
:10040000DA175A13DF1ADA1D08005A1DD61408002D
:10041000731B08008D23D31B7C19102A5C1D080058
:1004200073165308D31B643028213529731B2F29D9
:10043000DA195A1B1F325A1A17322B087602F100AA
:100440002A08031C013E7502031CFF3A031D1932E2
:10045000031CF109E0307105031D13323A225A19C9
:1004600008005A154F306A2C5A122A082B04031917
:1004700010325A17CC1B08004C0828214D08352192
:1004800017295A1DDA0A5A1DF5335F1B0232AA01D9
:10049000AB013A22DA014F30762C731F0800AF1BF4
:1004A0002D291D212E0828212F083529731FCE1B29
:1004B000552C4E0828214F08352117295C1A6A1936
:1004C00004327C198D23D5180B32551C080077088F
:1004D0004038731F103021212C0828212D08352980
:1004E000731B1B2920302129731F08005C1A6A1D09
:1004F0000800D5181B291D21220040082821410889
:1005000020003529731F08005B12F31A552C75085B
:10051000C5007608C400552C731F0800DB12F31ABF
:10052000552C7508C7007608C600552C731BA42AE5
:10053000B008731E5B180319080010302121300821
:1005400028213108352138345B10F31E3028731E02
:10055000B02A1D2130080319450828213108352902
:10056000B00803190800B001B1010F302032731B2D
:10057000C52AB208731EDB180319080010302121A8
:1005800032082821330835213934DB10F31E302896
:10059000731ED12A1D213208031947082821330868
:1005A0003529B20803190800B201B3011130F9016D
:1005B000FA019B315423823108003A367C1D03181E
:1005C000731B0800731635212829730E07390B0099
:1005D0001B322832080008001C3204320000491A7D
:1005E00060160C32E01A751A0332601675167C1507
:1005F000E013E012750849061039C906DB111D2108
:10060000490828214A083529E01F08001030212117
:10061000F733DB190632751E601EEC3375167C1538
:10062000ED33DB117508C9007608CA00751A491A3E
:10063000080049161E230319601608006330F323CF
:10064000031908006330E016E0176E2B731F0800D3
:10065000DA192C2BF31E0800DA1AD20E7C1155245D
:100660007C19392B1D21520E03393521681B760860
:1006700028215F1BDA1E442B520E5206031D5A1B03
:10068000442B5A16DA155A17DA120800731F08009D
:100690007508F31A1D21FD3E031C0732FE3E031CA4
:1006A000080004302821333035290330282135292A
:1006B000731FDF1F08005F137508143C0319DF1652
:1006C000031C5F170800731F08007C19D61F552CE8
:1006D0007508F31E03190800E500740AC3005C17CF
:1006E000DE110800731F7C1D0632DE1D043210303F
:1006F000212167083529731F08007C19E60A65085F
:100700006602031C5C170800731F08007C19E60AC8
:1007100075086602031C5C170800731B0800F323AE
:10072000FF3A800508000030F300F501F601DB0810
:100730000319BD2BA101A423F423031DA22B21091E
:10074000DB05972B7208080021175B1B0634211666
:100750005B1A3034A116DB1A313421145B189D2A40
:10076000A114DB18BE2AA115DB19633421155B1D0A
:1007700000344808F500731604345C1FC42BDB17E3
:100780006608F50043080800DB014208031DE32B5F
:10079000561AD92B2030FB00D61ABF0A3F081F3942
:1007A000E03E8631CF268331031D0800FB0BCD2BA5
:1007B00056167C117704F3002408F5002508F6008E
:1007C0007808F40008001030F3007430FB00F101E9
:1007D0000314EB2BFB0AF10D710842050319EA2BF8
:1007E000C2067B0808007408F200720C090C1F395D
:1007F000BA3E8400F21B0034033072180C30F10052
:10080000F218F10E00097105F10E710E0800710861
:100810000B00C334C1348F349F34023400340334AA
:100820000334C03420340034003400340034F03455
:100830000F340B000034043407340C3412341334F6
:1008400013341534173419341A341A341A341A3448
:100850001A341E34740D031CF31A0800F100710ED3
:100860000F39F10074080739FB00FB0A07247106F1
:10087000F1067106A1010318A10AF10CFB0B3B2C38
:10088000031C08001924A107210D203E8400850ABD
:1008900075088000840A7608800085010800D61B50
:1008A0007C1D731F080006328D23D61B7C1D731F11
:1008B0000800A401A50174089C314A248431031D59
:1008C00008001D21603F25043521703F240428299C
:1008D00003190C325F3E84000014FE30000503193A
:1008E0005434FF3A8D05F938DE0554345F3E8400F8
:1008F00000100008031942348D040639DE04423426
:100900005F3E8400001CE833F3332100DE1A8D2C97
:10091000DE0120009B2D21005F15DF149F31002791
:10092000843122008D0121006A30990023000730B4
:100930008C008D0122001E149D172100E7308C00D1
:1009400007308D00961C16141609961B0530161BD1
:1009500006300F3903195F0A031E0301090EFC005C
:10096000FC15031E6A1FFC110F309600D530950050
:100970002000F9309B0000309C0096019701313037
:10098000980095010B1164000B1DC32C23009D01E1
:1009900019309B001E151E129E169D1722008A30CC
:1009A0009700C8309800171FFE33210010309E00BA
:1009B0007D309D00921612179114000000009D14C6
:1009C000FC1DE82C2C308831092084315C19FC1185
:1009D0000030D6250130D6250230D6250330D62565
:1009E0009D18FE3306304327DB0056304327DC00DA
:1009F0009C304327DD0001309D000030CF26E80009
:100A0000220099000E30CF26EA009B31D823853191
:100A1000CD26B000031D5B14CD26B100CD26B2005B
:100A2000031DDB14CD26B3002300FC1D1D1613305F
:100A3000CF262800A000F9309D0021309E00F9301B
:100A400096002630970022001509830120009201AC
:100A50000339D700FF308D005718F739D718EF3911
:100A60008C000B17FC1D8B17BF097830DB0414308A
:100A7000C4005030C5000A30C6005A30C700B41751
:100A8000D317B817B617CC17CE17AF173230D00020
:100A90000D30CF26DF001030FB00F901D030A1006F
:100AA0002108CF26FA007908FA080319612DF90008
:100AB000FA36031C5F2D8331F42385318004790AD3
:100AC000542D0730F904F90AA10AFB0B502D1630FA
:100AD000883109208531F1010630CF269931012175
:100AE0008531F10A0730CF26993101218531F10A8C
:100AF0000830CF26993101218531F10A0930CF26FE
:100B0000993101218531F10A0A30CF26993101212D
:100B10008531F10A0B30CF26993101218531013021
:100B2000CF26D4008931E4218531FC1D9B2D4D3029
:100B300084316A2485316400C108031DB126FC1983
:100B40009B2D56180126D91B2F260B195A26111832
:100B500079269318442693195326111BD6268A31D9
:100B60001E22853155199C26641B8B2C911E9B2DB2
:100B700023001D1D053299080319852C20009B2D8B
:100B80009D1CC72D1D121D162000D5169B2DE4257A
:100B9000D61D9B2D98310020A601D6118831003832
:100BA000031D00200A2085312B269B2D0936850048
:100BB0000301090C203884008001840A040970397B
:100BC000031DDC2D85010800200001308700260868
:100BD000D03E8600230019082000D61908008100A5
:100BE0000A3A03190800073A0319FB2D2608013EAB
:100BF000831CA6000800A608031908008101D61569
:100C00000800883133208631561080310F2086311C
:100C10007C18132E5C1D152ED71674087806031D3C
:100C20002B2ED10A5112E4012B2E0130D800D715FA
:100C30005716583080316A24731F42306A240830B6
:100C4000731B1030BD002230A80021009114200039
:100C5000F9309A001C1588314D2086310800D913CF
:100C6000591A591C392E21005A085D022000031C14
:100C7000080059085E06113903190800DE0689319B
:100C800073210920863108009310D00B0800D51974
:100C9000E40A690FE9000530690203188C11DC17BA
:100CA0003230D000080093112800A103200003195E
:100CB000F63308000B112100DE1EDE0A20001C1D89
:100CC00075269831FC18D523883162090319E20191
:100CD000E208031D42208431E308031DE30B0800F2
:100CE0004530843176248631080021009D1420008F
:100CF00008001110CB1F8426DA195A1908004F304A
:100D00008431802486310800CB03CB1F0800611C8E
:100D1000AF173408F839E11C03190132B41736084B
:100D2000F839611D03190132B61799310730610591
:100D3000031DE3218631080041083C3C031C0800E8
:100D4000883160208631223040020318AC2E2C30CE
:100D50008831192086310800551188310A208631E2
:100D60000800111E08002708203E84008514000892
:100D7000850123009A002000A70A50302706031996
:100D8000A701C10308002300951C08002000911E44
:100D9000C32EF200E4257208C32E2300110AC326D5
:100DA000950191001514130820000800111321006B
:100DB0001C085A06DA065A065A02031C003CFC3983
:100DC000031D142F5A085D02031CFB2E5A085B02F8
:100DD0000318F82E5A085C0220005C1D0800031C52
:100DE000172FD330DC054F308831092086310800B9
:100DF0002000DC15FD2E2000DC115C19172F5C157E
:100E000037308831092087311C118030D9058C1585
:100E100057145F1EDF01DA01AA01AB0150308431A3
:100E2000762487312000080020005C1D08007C1C0F
:100E3000DC1F08000030F300F501F601F701DC12B9
:100E40002F27F400803114208031731A2A2474086B
:100E5000F80028001E112000DC138631152E5108E1
:100E60000B00003419340134412F11341B341C346D
:100E70000E34412F00341934013438343934412FC1
:100E80001234DC160034F3000830FB001C089B1BF6
:100E9000013EF401F30C0318F407F40CF30CFB0B04
:100EA000FA337335740D731B013E0800031D6F2F59
:100EB0006B081F39EB0A0B00722FE82F7E2F0034CE
:100EC000722FE62F812F722FE82F8E2F902F952FC4
:100ED000CE2FCE2FCE2FCE2FCE2FCE2FB32F03142B
:100EE000AF2700348C1321008C13BA2721008C17F4
:100EF0002000BD278C1B6F2FBB2701344430E9270E
:100F00000034CE277108103A03190134EB17383A30
:100F1000031901340A3A031901346F2FBE30E92F47
:100F2000EE01CE277108EC000134CE277108ED00E8
:100F30000134EB1BA12F710C6C0CF900FA01FA0CB7
:100F4000AB2F6C0EF039FA00710EF039F1006C0E17
:100F50000F397104F900553A03196F2F03109A31B4
:100F60000622EB010134CE27EE08031D6F2F6D081A
:100F7000F100992FBB27E830BE2F363021009110A9
:100F800020001B020A3E9A001C15911CC52F1C1143
:100F900091100800CC27CC2700000800CF27D227CB
:100FA000D227D2278C1321008C1303108C1720001A
:100FB000CB278C1B0314F10C710D1E0DEE066E0C6D
:100FC00003188C3AEE002D30BE2701343330E92F60
:100FD000CC30F100EB27EE27EE27EE27F10C8C1337
:100FE00021008C1303188C173230BE2721008C1778
:040FF00020000134A8
:101000008631CF2688310319080019208631CD2674
:10101000F93300200D3019200A301928F200720E21
:10102000122072080F39F63E0318073E0A3ED51704
:10103000303EC1080319111E212823009A00200008
:101040000034840027084107B03E031C503E203E78
:101050000406840604068514800085014108503A80
:10106000031DC10A00345430731B42305619080066
:10107000192073080E2074080E2075080E207608BB
:101080000E200A28D91B08008F30002062080E208D
:101090000A204530621C3620E2013B080319080093
:1010A00084003C08850000088501F1003C081220FE
:1010B0003B080E203D30192071080E200A28C00080
:1010C00040084007203E8400850A0008F900840A91
:1010D0000008FA0085014008C00A0B009028A828E3
:1010E0009028A828A828A828B828A828A828A82888
:1010F000A828A828A828A828A828A628A828A82872
:10110000DE28B828B828A828A8289028BC28BC28F9
:10111000E028E028E028E028E028E028E028E0288F
:10112000790895202F3019207A08F1000830FB004B
:10113000F10D9D20FB0B982808001E0D1728F909BA
:10114000FA09FA0A0319F90A2D301928F91B9F2008
:101150007A0FAC28F90AFA017908BD206430F10051
:101160007A08D421FA1BF90A7908F1002E30CB282D
:101170007908BD202F3019207A08F1007108D513A5
:101180009C3E031CCD28F1009C3E031CCA28F100A4
:101190003230CB2831301920D517FB017108F1000E
:1011A000F63E031CD528FB0ACF287B080319D51B64
:1011B000DA207108D51717280F39DF33F91B9F2064
:1011C0001030FB00A101A201A301EC282308FD209F
:1011D000A3002208FD20A200FA0DF90DA30DA20D17
:1011E000A10DFB0BE628D5132108042122080421B8
:1011F00023080421D51B08001728333EF100F11DF8
:10120000FD3EF11FD03E0800F100710E082171086B
:101210000F390319D51B172808002608043C031DA5
:101220006734433F5A3C193C031C6D340B001434A3
:101230009634A934A129A629AF2993296D348D2983
:101240006D346D340434532958293929722963299E
:101250007A29962985296D3435296B296D346D34A9
:101260006D34433F19203D30192831216836FA3E4C
:1012700012283121DA084E30031919282A082B04C4
:101280006E3003191928520E52060F39DA1ED20693
:101290005430D21C43305A1D203819202A08F90036
:1012A0002B08FA00A828312147307C184D30192826
:1012B0003121280020082000F2007236BD20303095
:1012C00072183530192831217C0E0F39B13E863124
:1012D000CF268931192831213030EA1A31306A1E7F
:1012E000413019283121591E853479305918803000
:1012F00000208834312144305F1A5330DF1B5230D4
:10130000DF1A43305F1B493019283121680EF10084
:10131000F10CF10C9D20F10C9D2831210C0D803E2B
:101320009D200C0D9D283121540E0E2831210230B4
:101330008631CF268931F9008631CD268931FA00F0
:10134000A82831214F306A195230192831212D3007
:101350005C1AD51819280F306A1910305F2831210E
:10136000230008309100920115178B13151400000B
:1013700000008B171408151320002039031D0130BD
:1013800017282608043C031D6734433F313C013CC9
:10139000031C6D340319D029C00155155615D229E7
:1013A0005511561188311728F901FA01083AFB0046
:1013B000083AFB06FA35F90DF10D0318FA07031880
:1013C000F90AFB0BDA2908005E17DE13E9215E1328
:1013D000DE1703105408DE1F0232540E5C120F3960
:1013E0000B000B2A172A1A2A1A2A1A2A0B2A0B2A46
:1013F000082A0B2A0532043203320232013200324B
:10140000F0305E1BD4050F30DE1BD40503146D34A1
:10141000DE1FF6335C165E08C03921008C04200004
:1014200008005E093F3821008C05200008001122C9
:101430008C0508001122FF3A8C0408005E17DE13A9
:1014400023225E13DE175408DE1B540E0F390B00E7
:10145000080008000800312A382A492A4B2A3F2A66
:10146000642A0C08DE180C095E05C0398C060800D9
:101470000C085E190C095E05C0398C060800D71EE1
:101480000800A808873156278A3100380319D71277
:1014900008000C094C2A0C085E05C039031D562AA9
:1014A000DE1E0800DE12F901FA01602ADE1A0800C9
:1014B000DE1602308631CF26F900CD26FA00013043
:1014C000993162218A3108000C095E05C039031D7B
:0A14D000FF305D064039DD0608001C
:10300000D51A3E28D030860004302602031C6734CF
:10301000423F3D3C031D6734010888311920413F80
:1030200019203A301920203019209831413F0106EB
:10303000F100E039031D982D71080B0040284E283F
:1030400056285E28632871287C288428E728E728EA
:10305000E7288C286434E728E72891289628A128B7
:10306000AC286434B128B6286434BE28643464348F
:10307000C328C828D028D528DD28E228D5127634E0
:103080000108543A03195C29153A0319792B0C3AB3
:103090000319F92B1F3A0319C92D64340108523A58
:1030A0000319AC2C013A03190C2C64340108503A72
:1030B0000319082C1B3A03196D2C64340108503A8B
:1030C00003190A2C64340108563A0319992A053A5F
:1030D0000319A129073A0319DE2A193A0319282BE3
:1030E00064340108443A0319902B123A0319EA296F
:1030F0001B3A0319C02A1E290108433A0319AE2AB4
:10310000113A0319232A1E2901084F3A0319A52C45
:103110001B3A0319EE2B64340108433A0319922A2F
:1031200064340108433A0319B52AE7280108533AE1
:103130000319412A143A0319C22B043A0319D52959
:1031400064340108433A03193C2C103A03199929B5
:10315000113A0319192A64340108463A0319AA2BB3
:1031600064340108443A03192D2A64340108423AB0
:103170000319212B043A0319D02D64340108543A61
:1031800003195729643401084D3A0319D02A6434CD
:1031900001084F3A0319F9291C3A0319BB29643471
:1031A0000108553A0319582C64340108493A0319A7
:1031B000952C193A0319D62C64340108533A031993
:1031C0001A2B64340108483A0319782A6434010838
:1031D0004C3A031D64342608043C031D6734433F06
:1031E000F1005A3C193C031C6D34413FBF3E063E82
:1031F0006223433F883119209831413FBF3EF1009F
:10320000433FF9000830F118403071190230A10035
:103210007118A135A03084001A30FB002109800507
:10322000840AFB0B0F2979085F3E84002108800483
:103230007908001C03158431682400340108473CD8
:10324000031D6434E624031808008108031D673455
:10325000F100083C031C6D34D1308600F0300118B9
:103260000632F10E0F305C1A6A1D013255105405FA
:103270007104D400F100013062235E17DE13C03008
:10328000011CDE068931E921031808005408011CDD
:10329000540E0F398831BD2803102608043A031D47
:1032A0006734433F313C013C031808006D34282546
:1032B000031808000130602928250318080003308E
:1032C0006221042A52060F39D20600305F1F6D2991
:1032D0002A082B04031D5A1610308038DA057A08A4
:1032E000AB007908AA00DA155A17DA16A901DF1A15
:1032F000D6142B0403198D29DF1E08002A08722515
:103300007A08A9002B0872257908A907FA1BA90ACF
:103310002A08F9002B08FA000800DA1F04325A16AE
:103320005210D2100800DA014F30843176249931DE
:1033300008002825031808000319673402305423B5
:10334000042A2C25031808000319B02944089325E2
:10335000031C6D3445089325031D031CB2296D34ED
:103360005B10B4295C185B147A08B1007908B000CE
:103370000F305423042A2C25031808000319CA29E6
:1033800046089325031C6D3447089325031D031C31
:10339000CC296D34DB10CE29DC18DB147A08B3009D
:1033A0007908B20011305423042A1A2503180800A2
:1033B000B4007A08B500790403190332E114E3215B
:1033C000042AB417042ACB1F0800F830E10578302E
:1033D000CB000800E6240318F7298108031D673491
:1033E000643C031C7334710DBA008831BE28BA01E5
:1033F000002A2C2503180332F91F791F032A5510C0
:103400002D30883119280D228831A628D5140318AB
:103410000800D51040306A19043255142C3012229D
:103420003E30850A840079081A007A0880008501F8
:1034300008001A2503180800CC007A08CD0079048A
:103440000319CC17042A1A2503180800CE007A089D
:10345000CF0079040319CE17042AE3242608053C7B
:1034600003190532090F6734082503180800BC004A
:10347000FF2403180800BB003C08883112203B08D9
:103480000E28E62403180800AE00173C031C733412
:1034900016003A3C031D6734E72403186734AF0075
:1034A0003B3C031C733416002F3C031D6734303043
:1034B0000102031D031C6D34F100F839031D6D3446
:1034C0001400031D6734F10E7135AE046114E3215D
:1034D0002E081F39F1008831CC202F08F1003A3036
:1034E000CB202F3019202E0EF100710C0739172830
:1034F0002608043C031D6734433F503C03190D323A
:10350000E00149126A12EA12E13E0319EA16FE3995
:1035100003196A16502389316C29833117235030DF
:10352000883119284C21031C08005D1003195D1413
:103530004A292608043C031D6734433F393C093CB3
:10354000031C6D3409350D3E2200990020006806E9
:103550001F396806E8006023893136294C21031C95
:1035600008005D1103195D154A291A258318BE2A22
:1035700003180800B8007A08B900042AB817002A0E
:10358000E62403180800F039031D733471084A0655
:103590000F39CA06CE224A088831DC2883311E2B17
:1035A000E62403180800F039031D73347108490636
:1035B0000F39C906CE2249088831DC28E6240318D1
:1035C0000800C3005C13DE110630FB007B08FB0320
:1035D0000B006D34033E103E033E4D3E033E053E60
:1035E0004302031DF33316003A3C031D6734E724FE
:1035F00003180800E600013EE500160003190C322E
:103600003D3C7B18031D6734E7240318080081083C
:10361000031D6734E700DE155C1743088831BD20C1
:103620003A3019206608DE1DBD28BD203D30192026
:103630006708BD284C21031C0800EA11031DEA1588
:10364000D32B4C21031C08005D13031D5D174A2971
:10365000260386070108393C093C031C6734A30094
:103660008101E324810803197334E7240318080057
:103670008108031D6734F100F10703187334A3199F
:10368000F10A2308023C031CF10A14307102031CE6
:103690007334133062232800A000200089315C2994
:1036A0006A08F1000E30622B8631C3269B319100EF
:1036B000790867238631C3269B31910A7A0807323D
:1036C000F10000308631C3269B3191007108230040
:1036D000151413060319762B930615158B13553005
:1036E0009600AA30960095148B1715111308200028
:1036F0000800E62403180800031973348108031D29
:1037000067345612E0308631CF269B3103198D2B5A
:103710002300110F832B20006A3466238831BD28D3
:10372000E62403180800031973348108031D673465
:103730009D23031D08008831BE28F100E03086314A
:10374000CF269B3171060319672B2300110F9F2B86
:10375000200070342608043C031D6734DF01433F1A
:10376000433A0319DF160A3A03195F171A3A031985
:103770005F16DF08031D5F165F08F1000D3062233E
:1037800089317B292608043C031D67344C21031C26
:10379000E92B6A14EA067C060139031DD32BFC14BD
:1037A000D523FC18C33F5023A22C20001C195034F1
:1037B0007C106A1CFC197C142200D0309200D1309D
:1037C000940086307C18A63091009300FC102000F5
:1037D0000800433F523C031D6D340100433F4F3A04
:1037E000031905321D3A031D6D346A15D32B6A1176
:1037F000D32BE6240318062C8108031D6734643C90
:10380000031C7334643CD3008831BD28D317002ACD
:1038100089310D298931C129E624031808000319CB
:103820006D34F20016003A3A031D6734F901E724BB
:103830000318080081080319282CF90016002C3AF7
:10384000031D6734E724031808008108031D67344B
:10385000FA0072084A240319312C03014A24031D7B
:103860006A347A08E03F7908F03F720881008831B5
:10387000BD203A301920B828E6240318080003199F
:103880006D348108031D67344A24031D703481019F
:103890008831BE28F10001308700C0308600010861
:1038A00071060319080001308607831C4F2C003471
:1038B000E62403180800031DF900F91B6D34810884
:1038C000031D67348331F4239C31800479088124FB
:1038D0007104672379088831BD28E624031808009D
:1038E000031DF900F91B6D348108031D6734833112
:1038F000F4239C31FF3A800579088124F109710590
:10390000692C8C24F100F20E720D720D1F39D03E1D
:103910008631CF269C310800F2000130F2180430C5
:10392000721889357219090E08004C21031C080011
:10393000433F093620300318E804FF3A031CE8052A
:1039400068086023433F883119284C21031C080074
:10395000433F093640309B2C2608063C031D673444
:103960000130F100433F483A0319BB2C1F3A031DB5
:1039700067340430F100443F7119123A423A031996
:10398000C52C123A031D6734F135453F533A0319EC
:10399000CD2C1B3A031D6734F10E7108C204433F5E
:1039A00088311920443F1920453F1928E62403187F
:1039B00008008108031D6734C3005C17DE11E501B0
:1039C000E6018831BD28D33086000800E3240108D1
:1039D000393C093C031C702DF1001400393C093CB2
:1039E000031CFD2CA1001A307102031873347108F6
:1039F0007D252107031CEC2C733471080800082571
:103A000003180800F100F10E0825031C71040800DA
:103A10001600D03E031C702DF63E031C172DDF3917
:103A2000F93E031C702DFA3E03186734063E0A3E29
:103A30000310080028258314031808009C3E8310F7
:103A4000031C692D031D7334FA08031D7334692D9B
:103A5000E32401082D3C0632E324551701082D3CD0
:103A60000319352D5513023C0319860AE724031860
:103A70000800F90101080319562D2E3C031D702D75
:103A80000730FB0014000319562D393C093C031C78
:103A9000702D7B197D25FB18F907FB36FB080319F0
:103AA000031C422DFB3E0318F90A422D551F5F2DC2
:103AB000F109F90803196E2D7908643CF900FA013F
:103AC00083250318F10AA208031D013EFA007108BC
:103AD000F90079080319FA0803100800F10A5F2DAC
:103AE00003146734F901FA007A257A25FA070318D6
:103AF000F90A0800FA35F90D0800A200A207A20D84
:103B0000A207220D08001030FB00A101A201FA0D4E
:103B1000F90DA20D643022020318A200A10DFB0BC7
:103B2000872D210808007902031D0800FA08080003
:103B3000413F323A031D64340108433A0319BB2D57
:103B40000B3A0319B42D053A031D6434E624031817
:103B50000800F039031D7334710E4A06F039CA06A5
:103B6000CE224A0E8831DC284C21031C08005D124D
:103B700003195D164A291A2503180800B6007A08A9
:103B8000B7007904031903326115E321042AB6173B
:103B9000042AE62403180800C8005B158831BD28F4
:103BA0004C21031C08006A1303196A175023A22C26
:103BB000590922001506200012135706023903196D
:103BC0000800D706D91D1632FF30E2000800590957
:103BD0002200150620009212570601390319080029
:103BE000D7065C190800D9190532D915A808031998
:103BF000571A152EA8080319372E03305802031C34
:103C0000D72E5736D91D0936A80B232E0318DC2EC4
:103C1000D71BE02E5614803152307624543076244F
:103C200076249D31D9111C11342EA8015712183059
:103C3000D91808300C0618398C0680315830762493
:103C400076249D312D2E80300318D706F60DF50D04
:103C5000F40DF30D0130F6065711D80170089A02E1
:103C60000630031C9A0291106430950008001C195C
:103C7000442EE208031D342E27309A001C15D8016B
:103C8000210091142000342E0A30580203185C2EB3
:103C90005736D91D09360318342ED8080319132EA8
:103CA000803152306A24D91D42306A249D3121303E
:103CB000A800D71357112D2E3230580203182D2E7D
:103CC000D919591E2D2E5918571C2D2E0130D906E1
:103CD000D7062D2E9110D80A571A822EA808031D38
:103CE0007F2E5808143C0319A82E50305802031C8C
:103CF00008001C11D911591BD91759130800D819DC
:103D0000DE2E0800581808000301D71D1830591A74
:103D1000103A0C063D058C06D818A52ED7110314B1
:103D2000F60DF50DF40DF30D0318D715D801A80BFA
:103D300008001C1157123D1AD716803158307624CE
:103D40005430762476249D3108000830D7060800C8
:103D50005736D91D0936031C08000130D91D023021
:103D6000D906D706D91DCA2E59177C18C62ED91EBA
:103D70000800590911390319080010308C06D906BA
:103D800059055030843168249E310800D911D71C60
:103D900008002D2E7C1C0800D91810305906103947
:103DA00003190800D9065917C02E5715342E571974
:103DB000E81AD52E0130E12E0230E12E0330E12E3B
:103DC0000430E2080319E2005736D91D0936031CF6
:103DD0001C11A801D8015712803158307624523076
:103DE00076247624543076249E3162090319FE2EFF
:0E3DF000453084316A249E317A30E300342E4F
:103E0000031E08008B1321006A309900D7309500FB
:103E10002200FF308D0088309700C830980017309E
:103E200099001030920011309400A6309100930058
:103E30001E149D172100E7308C0007308D002300F1
:103E400007308C008D0119309B0026309E009D1795
:103E50001D168701113086000301C43F0130E127A0
:103E6000C7271030E127811E0800CC27031D08005A
:103E7000203085008401F001CC270319F9330B3A77
:103E800003190732013A0319CC2772081A00F00708
:103E9000F333F008031D413284019501023F910084
:103EA000033F9200013FF100043084073C3F083C8F
:103EB000083C031C32320B000D32123232324232D5
:103EC000493250320532293201000002001FE91F39
:103ED00015170632653091009F3092000230840041
:103EE000951715140000000013081A0014081A0092
:103EF000910A0319920AF10BF3330408F10015112A
:103F000084010F30C727F0011200F007BA27F10B28
:103F1000FB337009013EBA27C727CC270319A83302
:103F2000FC33A43095001200930012009400110994
:103F30001F3903190232710303199512D527F10BAA
:103F4000F033DC33943095001F309104D527F10B0A
:103F5000F933D4339501151413081A00910AF10BA3
:103F6000F933CB330430950012009300D527F10BC1
:103F7000F933C433F3000F3A031906320B3A03192D
:103F80000332013A031D02320530C727730864006B
:103F9000011EFE339A0004349D1801006400811E46
:103FA000FD331908F2000F3A0800640055309600FE
:103FB000AA30960095149518FE33910A0319920AB7
:103FC00001346400811A08000B1DFB330B11090B2F
:043FD000F83304348A
:020000040001F9
:02000E00FC0BE9
:02001000FF3AB5
:10E0000077000000100000004C003D004600580062
:10E010004F004D00500043000000000000000000D1
:10E02000000000000000C80041003D004F007000EB
:10E0300065006E0054006800650072006D002000ED
:10E0400047006100740065007700610079002000DE
:10E0500036002E0038000000570044005400200015
:10E060007200650073006500740021000000540018
:10E070006800650072006D006F007300740061003D
:10E080007400200064006900730063006F006E007C
:10E090006E006500630074006500640000005400B9
:10E0A0006800650072006D006F007300740061000D
:10E0B0007400200063006F006E006E006500630056
:10E0C00074006500640000004E004700000053002B
:10E0D000450000004E0053000000420056000000C2
:10E0E0004E00460000004F00520000004F00450067
:10E0F00000004D0065006400690075006D000000BF
:10E10000480069006700680000004C006F0077005D
:10E11000200070006F00770065007200000045006D
:10E12000720072006F0072002000000042003D008B
:10E13000310031003A003500350020003200350052
:10E140002D00300038002D00320030003200360043
:10E15000000043003D00340020004D0048007A00DC
:10E160000000570042005000530043004F0055008C
:04E170004C0045001A
:10E1A000000000000000000000000000000000006F
:10E1B000000000000000000000000000000000005F
:10E1C0007400750076007700780079007A007B0093
:10E1D000000000000000000000000000000000003F
:10E1E000000000000000000000000000000000002F
:10E1F000000000000000000000000000000000001F
:00000001FF
