:020000040000FA
:100000009F31002784317D2C20001A08F0009D319B
:1000100091185D26921ADA25121BCB250900731B55
:100020003A28731A1624332074087806031DE20157
:10003000F8067C1154179320E701DA1EDF23031919
:1000400025287C1D5A1969280800DA1A33207C15E6
:1000500054137F237C1DF633D412F40093206928B7
:10006000541B033208007308F7007508A4007608D3
:10007000A5000800D3158C207408430603195A13F1
:10008000731E1624DF23F31A731E0A320319033278
:1000900055398007083274089B3190238031033230
:1000A000FF3AD91F8005D913D417D41881287C1999
:1000B000053293207C195A1908000B329320D4166C
:1000C0005A1908004030541F7030C623D413541FEF
:1000D0009320760875067406F3137306F100F10E8B
:1000E0007106F100F10CF10CF1060130F118F10686
:1000F0007118F3177C1808005230731B4130883197
:10010000362893205030F3000430F400AA30F50074
:100110002908F600D410692828002008A1009C01B5
:100120001E1520000800F41B412C74080B00362912
:100130008429A129402CB629C429CA29DC29E4290B
:10014000EE294F2B5E2B4F2B672B042A412C122AB2
:10015000402C412C412C482A412C412C412C412C33
:10016000402C412C512A672A412C412C412C412CF6
:10017000412C412C412C412C412C412C412C412C17
:10018000412C412C412C412C412C412C412C752AD5
:100190007F2A412C412C412C412C412C412C892A75
:1001A000AA2A412C412C412C412C412C412C412C80
:1001B000412C412C412C412C412C3B2CD02A412C50
:1001C000412C412C412C412C412C412C412C412CC7
:1001D000412C412C412C412C412C412C412C4F2BAA
:1001E0005E2B4F2B672B412C702B702B702B412CCF
:1001F000412C412CD82A192B3B2C412C412C412C31
:100200004F2B5E2B4F2B672B412C412C412C412C2B
:10021000412C412C412C412C412C412C412C412C76
:10022000412C412C412C412C392B442B412C60304A
:1002300004327708C038F31F7F397306031900347E
:100240007C155413F30600347506031D7C15F50662
:100250000034F31E0800771E1729192124082421D1
:1002600025087606031D7C15F6060034731B5829F5
:1002700079235B09EA38FD39E81E5E1A0238F1007D
:100280000301B41BDA190138681E5E1A0238B81F60
:100290000438B61F1038E81920385B1B4038F105C8
:1002A000FF3A750571042421750802394330542C36
:1002B000F31A08005E1A75217608A5004139031962
:1002C0005312031D531A6729531605305A234D3014
:1002D00054247608083946305424760804395730B7
:1002E0005424760802394830542CDE190932F61DA0
:1002F00003327619DE150800DE0ADE1D0800013221
:10030000761DDE0149120800731B9D2979235A1DB1
:100310007C198C29B41B08007316B41BDA1D9629AE
:100320003208031947082421330831290301B41F77
:1003300034082421B41F35083129F31E0800B417EE
:100340000800731FA9290130240524212508312123
:1003500019297518D7165D1A080076080B3C031981
:10036000DD1B0800DD17D71A5D170800731F080092
:1003700048087502031DF31A5911AA307502031DAE
:100380000800192129083129731B412C581A581BC0
:100390000800302A731F08000301F31E731AD429C2
:1003A0007608FC38591BD9055A060339DA06192193
:1003B0005913750803382429731FB81B08007316D6
:1003C0003808242139083129731B412CB61B7C19AC
:1003D000EA2908007316242137083129731F080001
:1003E000D819F429F31E08001921581E2A082421BF
:1003F000581E2B083121581BD8175813DD1AD81D49
:100400000800581DD4140800731B08007923D11B61
:100410007C190C2A5A1D080073165108D11B643030
:1004200024213129731B2B29D819581B1F32581A24
:1004300017322B087602F1002A08031C013E7502D0
:10044000031CFF3A031D1832031CF109E03071054B
:10045000031D123236225819080058154F30562CF9
:1004600058122A082B0403190F325817CC1B080006
:100470004C0824214D083129581DD80A581DF6333F
:100480005D1B0232AA01AB013622D8014F30622C2B
:10049000731F0800AF1B292919212E0824212F08BA
:1004A00031295A1A681904327C197923D3180B326E
:1004B000531C080077084038731F10301D212C088A
:1004C00024212D083129731B172920301D29731F62
:1004D00008005A1A681D0800D3181729192122008C
:1004E00040082421410820003129731F08005912B7
:1004F000F31A412C7508C5007608C400412C731FFF
:100500000800D912F31A412C7508C7007608C600F6
:10051000412C731B972AB008731E59180319080041
:1005200010301D2130082421310831213834591070
:10053000F31E3028731EA32A192130080319450819
:10054000242131083129B00803190800B001B10194
:100550000F302032731BB82AB208731ED918031942
:10056000080010301D21320824213308312139348C
:10057000D910F31E3028731EC42A1921320803191A
:100580004708242133083129B20803190800B201B1
:10059000B3011130F901FA019B3147238231080080
:1005A0003A367C1D0318731B080073163121242969
:1005B000730E07390B001B322832080008001C326A
:1005C00004320000491A5E160C32DE1A751A033224
:1005D0005E1675167C15DE13DE1275084906103995
:1005E000C906D9111921490824214A083129DE1FD9
:1005F000080010301D21F733D9190632751E5E1E12
:10060000EC3375167C15ED33D9117508C9007608E1
:10061000CA00751A491A08004916112303195E16F3
:1006200008006330DF23031908006330DE16DE178D
:100630005A2B731F0800D8191F2BF31E0800D81A55
:10064000D00E7C1141247C192C2B1921500E03391A
:100650003121661B760824215D1BD81E372B500ED6
:100660005006031D581B372B5816D8155817D8128B
:100670000800731F08007508F31A1921FD3E0318BE
:100680000800033024213129731FDD1F08005D138A
:100690007508143C0319DD16031C5D170800731F51
:1006A00008007C19D41F412C7508F31E031908009B
:1006B000E300740AC3005A17DC110800731F7C1D85
:1006C0000632DC1D043210301D2165083129731FEC
:1006D00008007C19E40A63086402031C5A17080026
:1006E000731F08007C19E40A75086402031C5A177A
:1006F0000800731B0800DF23FF3A80050800003064
:10070000F300F501F601D9080319A92BA1019023E3
:10071000E023031D8E2B2109D905832B72080800C5
:100720002117591B06342116591A3034A116D91A2B
:10073000313421145918902AA114D918B12AA115BD
:10074000D91963342115591D00344808F500731672
:1007500004345A1FB02BD9176408F5004308080069
:10076000D9014208031DCF2B541AC52B2030FB00A2
:10077000D41ABF0A3F081F39E03E8631BA268331BA
:10078000031D0800FB0BB92B54167C117704F300F2
:100790002408F5002508F6007808F4000800103059
:1007A000F3007430FB00F1010314D72BFB0AF10DA9
:1007B000710842050319D62BC2067B08080074088D
:1007C000F200720C090C1F39BA3E8400F21B00348F
:1007D000033072180C30F100F218F10E00097105A7
:1007E000F10E710E080071080B00C334C1348F3450
:1007F0009F340234003403340334C03420340034D2
:10080000003400340034F0340F340B00003404346E
:1008100007340C34123413341334153417341934A8
:100820001A341A341A341A341A341E34740D031C50
:10083000F31A0800F100710E0F39F100740807393E
:10084000FB00FB0AF3237106F1067106A1010318F0
:10085000A10AF10CFB0B272C031C08000524A1079F
:10086000210D203E8400850A75088000840A7608E0
:10087000800085010800D41B7C1D731F0800063210
:100880007923D41B7C1D731F0800A401A5017408E3
:100890009C313D248431031D08001921603F25044B
:1008A0003121703F2404242903190C325F3E840057
:1008B0000014FE30000503195434FF3A8D05F93851
:1008C000DC0554345F3E84000010000803194234F4
:1008D0008D040639DC0442345F3E8400001CE8339A
:1008E000F3332100DE1A792CDE012000862D210051
:1008F0005F15DF149F310027843122008D01210014
:100900006A309900230007308C008D0122001E14EC
:100910009D172100E7308C0007308D00961C1614BF
:100920001609961B0530161B06300F3903195F0A8E
:10093000031E0301090EFC00FC15031E681FFC11B9
:100940000F309600D53095002000F9309B00003024
:100950009C00960197013130980095010B116400BD
:100960000B1DAF2C23009D0119309B001E151E127C
:100970009E169D1722008A309700C8309800171FD6
:10098000FE33210010309E007D309D00921612171C
:100990009114000000009D14FC1DD42C2C308831D3
:1009A000092084315A19FC110030C1250130C125BC
:1009B0000230C1250330C1259D18FE3306302E2795
:1009C000DB0056302E27DC009C302E27DD00013066
:1009D0009D000030BA26E600220099000E30BA26AB
:1009E000E8009B31CB238431B826B000031D591495
:1009F000B826B100B826B200031DD914B826B3003A
:100A00002300FC1D1D161330BA262800A000F93063
:100A10009D0021309E00F93096002630970022007C
:100A200015098301200092010339D500FF308D00A4
:100A30005518F739D518EF398C000B17FC1D8B179B
:100A4000BF097830D9041430C4005030C5000A30D2
:100A5000C6005A30C700B417D117B817B617CC174D
:100A6000AF173230CE000D30BA26DD001030FB005B
:100A7000F901D030A1002108BA26FA007908FA0855
:100A800003194C2DF900FA36031C4A2D8331E0235B
:100A900085318004790A3F2D0730F904F90AA10A4B
:100AA000FB0B3B2D1630883109208531F1010630D2
:100AB000BA269831FE208531F10A0730BA269831DE
:100AC000FE208531F10A0830BA269831FE208531A2
:100AD000F10A0930BA269831FE208531F10A0A3030
:100AE000BA269831FE208531F10A0B30BA269831AA
:100AF000FE2085310130BA26D2008931E4218531CA
:100B0000FC1D862D4D308431562485316400C1088A
:100B1000031D9C26FC19862D5418EC25D71B1A267C
:100B20000B1945261118642693182F2693193E2673
:100B3000111BC1268A311E22853153198726621B5B
:100B4000772C911E862D23001D1D0532990803194F
:100B5000712C2000862D9D1CB22D1D121D1620000B
:100B6000D316862DCF25D41D862D98310020A601C1
:100B7000D41188310038031D00200A208531162643
:100B8000862D093685000301090C20388400800178
:100B9000840A04097039031DC72D8501080020004F
:100BA000013087002608D03E860023001908200067
:100BB000D419080081000A3A03190800073A0319FA
:100BC000E62D2608013E831CA6000800A60803198E
:100BD00008008101D4150800883133208531541074
:100BE00080310F2085317C18FE2D5A1D002ED51620
:100BF00074087806031D162ECF0A4F12E201162E36
:100C00000130D600D5155516583080315624731F43
:100C1000423056240830731B1030BD002230A8002B
:100C2000210091142000F9309A001C1588314D20C4
:100C300086310800D713571A571C242E21005A0852
:100C40005D022000031C080057085C0611390319D7
:100C50000800DC06893173210920863108009310D1
:100C6000CE0B0800D319E20A670FE70005306702D0
:100C700003188C11DA173230CE00080093112800C7
:100C8000A10320000319F63308000B112100DE1E1A
:100C9000DE0A20001C1D60269831FC18C82388310C
:100CA00060090319E001E008031D42208431E108D6
:100CB000031DE10B080045308431622486310800B1
:100CC00021009D14200008001110CB1F6F26D81999
:100CD000581908004F3084316C2486310800CB034A
:100CE000CB1F08005F1CAF173408F839DF1C03194D
:100CF0000132B4173608F8395F1D03190132B617EF
:100D0000993107305F05031DE02186310800410855
:100D10003C3C031C080088316020863122304002B0
:100D20000318972E2C308831192086310800531172
:100D300088310A2086310800111E08002708203E4D
:100D4000840085140008850123009A002000A70A6A
:100D5000503027060319A701C10308002300951C82
:100D600008002000911EAE2EF200CF257208AE2E94
:100D70002300110AAE2695019100151413082000D6
:100D80000800111321001C085A06DA065A065A02F6
:100D9000031C003CFC39031DFF2E5A085D02031C96
:100DA000E62E5A085B020318E32E5A085C02200064
:100DB0005A1D0800031C022FD330DA054F3088314A
:100DC0000920863108002000DA15E82E2000DA110B
:100DD0005A19022F5A1537308831092086311C11D3
:100DE0008030D7058C1555145D1EDD01D801AA0190
:100DF000AB0150308431622486312000080020008D
:100E00005A1D08007C1CDA1F08000030F300F501B1
:100E1000F601F701DA121A27F4008031142080312C
:100E2000731A16247408F80028001E112000DA1323
:100E30008631002E4F080B000034193401342C2F5A
:100E400011341B341C340E342C2F0034193401346B
:100E5000383439342C2F1234DA160034F3000830C9
:100E6000FB001C089B1B013EF401F30C0318F40764
:100E7000F40CF30CFB0BFA337335740D731B013E4A
:100E80000800031D5A2F69081F39E90A0B005D2F5E
:100E9000D32F692F00345D2FD12F6C2F5D2FD32FCF
:100EA000792F7B2F802FB92FB92FB92FB92FB92FB9
:100EB000B92F9E2F03149A2700348C1321008C1312
:100EC000A52721008C172000A8278C1B5A2FA627A6
:100ED00001344430D4270034B9277108103A03197B
:100EE0000134E917383A031901340A3A0319013475
:100EF0005A2FBE30D42FEC01B9277108EA00013413
:100F0000B9277108EB000134E91B8C2F710C6A0CB6
:100F1000F900FA01FA0C962F6A0EF039FA00710EF8
:100F2000F039F1006A0E0F397104F900553A0319CE
:100F30005A2F03109A310322E9010134B927EC0832
:100F4000031D5A2F6B08F100842FA627E830A92F24
:100F500036302100911020001B020A3E9A001C1519
:100F6000911CB02F1C1191100800B727B727000063
:100F70000800BA27BD27BD27BD278C1321008C137D
:100F800003108C172000B6278C1B0314F10C710D75
:100F90001E0DEC066C0C03188C3AEC002D30A927C2
:100FA00001343330D42FCC30F100D627D927D927BC
:100FB000D927F10C8C1321008C1303188C173230B5
:0A0FC000A92721008C17200001343E
:101000008631BA2688310319080019208631B8269E
:10101000F93300200D3019200A301928F200720E21
:10102000122072080F39F63E0318073E0A3ED31706
:10103000303EC1080319111E212823009A00200008
:101040000034840027084107B03E031C503E203E78
:101050000406840604068514800085014108503A80
:10106000031DC10A00345430731B42305419080068
:10107000192073080E2074080E2075080E207608BB
:101080000E200A28D71B08008F30002060080E2091
:101090000A204530601C3620E0013B080319080097
:1010A00084003C08850000088501F1003C081220FE
:1010B0003B080E203D30192071080E200A28C00080
:1010C00040084007203E8400850A0008F900840A91
:1010D0000008FA0085014008C00A0B009028A828E3
:1010E0009028A828A828A828B828A828A828A82888
:1010F000A828A828A828A828A828A628A828A82872
:10110000DE28B828B828A828A8289028BC28BC28F9
:10111000E028E028E028E028E028E028E028E0288F
:10112000790895202F3019207A08F1000830FB004B
:10113000F10D9D20FB0B982808001E0D1728F909BA
:10114000FA09FA0A0319F90A2D301928F91B9F2008
:101150007A0FAC28F90AFA017908BD206430F10051
:101160007A08D421FA1BF90A7908F1002E30CB282D
:101170007908BD202F3019207A08F1007108D313A7
:101180009C3E031CCD28F1009C3E031CCA28F100A4
:101190003230CB2831301920D317FB017108F10010
:1011A000F63E031CD528FB0ACF287B080319D31B66
:1011B000DA207108D31717280F39DF33F91B9F2066
:1011C0001030FB00A101A201A301EC282308FD209F
:1011D000A3002208FD20A200FA0DF90DA30DA20D17
:1011E000A10DFB0BE628D3132108042122080421BA
:1011F00023080421D31B08001728333EF100F11DFA
:10120000FD3EF11FD03E0800F100710E082171086B
:101210000F390319D31B172808002608043C031DA7
:101220006734433F5A3C193C031C6D340B001434A3
:101230009634A934A129A629AF2993296D348D2983
:101240006D346D340434532958293929722963299E
:101250007A29962985296D3435296B296D346D34A9
:101260006D34433F19203D30192831216636FA3E4E
:1012700012283121D8084E30031919282A082B04C6
:101280006E3003191928500E50060F39D81ED0069B
:101290005430D01C4330581D203819202A08F9003A
:1012A0002B08FA00A828312147307C184D30192826
:1012B0003121280020082000F2007236BD20303095
:1012C00072183530192831217C0E0F39B13E863124
:1012D000BA268931192831213030E81A3130681E98
:1012E000413019283121571E853479305718803004
:1012F00000208834312144305D1A5330DD1B5230D8
:10130000DD1A43305D1B493019283121660EF1008A
:10131000F10CF10C9D20F10C9D2831210C0D803E2B
:101320009D200C0D9D283121520E0E2831210230B6
:101330008631BA268931F9008631B8268931FA001A
:10134000A82831214F3068195230192831212D3009
:101350005A1AD31819280F30681910305F28312114
:10136000230008309100920115178B13151400000B
:1013700000008B171408151320002039031D0130BD
:1013800017282608043C031D6734433F313C013CC9
:10139000031C6D340319D029C00153155415D229EB
:1013A0005311541188311728F901FA01083AFB004A
:1013B000083AFB06FA35F90DF10D0318FA07031880
:1013C000F90AFB0BDA2908005C17DC13E9215C132E
:1013D000DC1703105208DC1F0232520E5A120F396A
:1013E0000B000B2A172A1A2A1A2A1A2A0B2A0B2A46
:1013F000082A0B2A0532043203320232013200324B
:10140000F0305C1BD2050F30DC1BD20503146D34A9
:10141000DC1FF6335A165C08C03921008C0420000A
:1014200008005C093F3821008C05200008001122CB
:101430008C0508001122FF3A8C0408005C17DC13AD
:1014400023225C13DC175208DC1B520E0F390B00F1
:10145000080008000800312A382A492A4B2A3F2A66
:10146000642A0C08DC180C095C05C0398C060800DD
:101470000C085C190C095C05C0398C060800D51EE7
:101480000800A808873141278A3100380319D5128E
:1014900008000C094C2A0C085C05C039031D562AAB
:1014A000DC1E0800DC12F901FA01602ADC1A0800CF
:1014B000DC1602308631BA26F900B826FA0001306F
:1014C00099315F218A3108000C095C05C039031D80
:0A14D000FF305B064039DB06080020
:10300000D31A3E28D030860004302602031C6734D1
:10301000423F3D3C031D6734010888311920413F80
:1030200019203A301920203019209831413F0106EB
:10303000F100E039031D8B2D71080B0040284E284C
:1030400056285E28632871287C288128E428E428F3
:10305000E42889286434E428E4288E2893289E28CC
:10306000A9286434AE28B3286434BB28643464349B
:10307000C028C528CD28D228DA28DF28D3127634F4
:103080000108543A03195929153A03196C2B0C3AC3
:103090000319EC2B1F3A0319BC2D64340108523A72
:1030A00003199F2C013A0319FF2B64340108503A8D
:1030B0000319FB2B1B3A0319602C64340108503AA6
:1030C0000319FD2B64340108563A03198C2A053A7A
:1030D00003199E29073A0319D12A193A03191B2B00
:1030E00064340108443A0319832B123A0319E7297F
:1030F0001B3A0319B32A1B290108433A0319A12AD1
:103100001B2901084F3A0319982C1B3A0319E12B8C
:1031100064340108433A0319852A64340108433AA8
:103120000319A82AE4280108533A0319342A143A47
:103130000319B52B043A0319D22964340108433A20
:1031400003192F2C103A03199629113A0319162A3C
:1031500064340108463A03199D2B64340108443A4B
:103160000319202A64340108423A0319142B043A43
:103170000319C32D64340108543A031954296434E3
:1031800001084D3A0319C32A643401084F3A031960
:10319000F6291C3A0319B82964340108553A031971
:1031A0004B2C64340108493A0319882C193A031945
:1031B000C92C64340108533A03190D2B64340108F7
:1031C000483A03196B2A643401084C3A031D6434ED
:1031D0002608043C031D6734433FF1005A3C193C68
:1031E000031C6D34413FBF3E063E5523433F8831AB
:1031F00019209831413FBF3EF100433FF9000830AC
:10320000F118403071190230A1007118A135A030B9
:1032100084001A30FB0021098005840AFB0B0C296D
:1032200079085F3E8400210880047908001C03159A
:103230008431542400340108473C031D6434D924EC
:10324000031808008108031D6734F100083C031CC3
:103250006D34D1308600F03001180632F10E0F3097
:103260005A1A681D0132531052057104D200F10040
:10327000013055235C17DC13C030011CDC0689319A
:10328000E921031808005208011C520E0F39883139
:10329000BD2803102608043A031D6734433F313C20
:1032A000013C031808006D341B2503180800013089
:1032B0005D291B250318080003305F21012A5006F1
:1032C0000F39D00600305D1F6A292A082B04031D20
:1032D000581610308038D8057A08AB007908AA0053
:1032E000D8155817D816A901DD1AD4142B040319C0
:1032F0008A29DD1E08002A0865257A08A9002B08FE
:1033000065257908A907FA1BA90A2A08F9002B08DC
:10331000FA000800D81F043258165010D0100800C8
:10332000D8014F3084316224993108001B250318DD
:1033300008000319673402304723012A1F250318A8
:1033400008000319AD2944088625031C6D3445087F
:103350008625031D031CAF296D345910B1295A1855
:1033600059147A08B1007908B0000F304723012AB8
:103370001F25031808000319C72946088625031CC2
:103380006D3447088625031D031CC9296D34D910E7
:10339000CB29DA18D9147A08B3007908B2001130B1
:1033A0004723012A0D2503180800B4007A08B50048
:1033B000790403190332DF14E021012AB417012A2A
:1033C000CB1F0800F830DF057830CB000800D92487
:1033D0000318F4298108031D6734643C031C73340B
:1033E000710DBA008831BE28BA01FD291F250318C6
:1033F0000332F91F791F002A53102D308831192804
:103400000A228831A628D31403180800D3104030AC
:103410006819043253142C300F223E30850A840080
:1034200079081A007A088000850108000D25031824
:103430000800CC007A08CD0079040319CC17012AC2
:10344000D6242608053C03190532090F6734FB24EE
:1034500003180800BC00F22403180800BB003C0855
:10346000883112203B080E28D92403180800AE002A
:10347000173C031C733416003A3C031D6734DA24EE
:1034800003186734AF003B3C031C733416002F3C19
:10349000031D673430300102031D031C6D34F1003D
:1034A000F839031D6D341400031D6734F10E7135B6
:1034B000AE045F14E0212E081F39F1008831CC20C2
:1034C0002F08F1003A30CB202F3019202E0EF100BA
:1034D000710C073917282608043C031D6734433F45
:1034E000503C03190D32DE0149126812E812E13E28
:1034F0000319E816FE3903196816432389316C292C
:1035000083310A235030883119284921031C0800CF
:103510005B1003195B1447292608043C031D67341C
:10352000433F393C093C031C6D3409350D3E2200F4
:103530009900200066061F396606E600532389318C
:1035400036294921031C08005B1103195B15472923
:103550000D258318B12A03180800B8007A08B900AD
:10356000012AB817FD29D92403180800F039031DD2
:10357000733471084A060F39CA06C1224A088831D5
:10358000DC288331112BD92403180800F039031DDE
:103590007334710849060F39C906C12249088831B8
:1035A000DC28D92403180800C3005A13DC110630A4
:1035B000FB007B08FB030B006D34033E103E033E13
:1035C0004D3E033E053E4302031DF33316003A3CD5
:1035D000031D6734DA2403180800E400013EE30009
:1035E000160003190C323D3C7B18031D6734DA24A6
:1035F000031808008108031D6734E500DC155A171D
:1036000043088831BD203A3019206408DC1DBD28EC
:10361000BD203D3019206508BD284921031C080044
:10362000E811031DE815C62B4921031C08005B1394
:10363000031D5B174729260386070108393C093C0F
:10364000031C6734A3008101D62481080319733455
:10365000DA24031808008108031D6734F100F1071C
:1036600003187334A319F10A2308023C031CF10A5E
:1036700014307102031C7334133055232800A0004A
:10368000200089315C296808F1000E30552B863105
:10369000AE269B31910079085A238631AE269B31A4
:1036A000910A7A080732F10000308631AE269B314C
:1036B000910071082300151413060319692B930652
:1036C00015158B1355309600AA30960095148B175C
:1036D0001511130820000800D92403180800031945
:1036E00073348108031D67345412E0308631BA26E2
:1036F0009B310319802B2300110F762B20006A3495
:1037000059238831BD28D9240318080003197334BC
:103710008108031D67349023031D08008831BE28EB
:10372000F100E0308631BA269B31710603195A2B1D
:103730002300110F922B200070342608043C031D37
:103740006734DD01433F433A0319DD160A3A031992
:103750005D171A3A03195D16DD08031D5D165D0835
:10376000F1000D30552389317B292608043C031DC7
:1037700067344921031CDC2B6814E8067C060139F8
:10378000031DC62BFC14C823FC18C33F4323952CF0
:1037900020001C1950347C10681CFC197C14220079
:1037A000D0309200D130940086307C18A630910041
:1037B0009300FC1020000800433F523C031D6D3471
:1037C0000100433F4F3A031905321D3A031D6D3482
:1037D0006815C62B6811C62BD9240318F92B81084C
:1037E000031D6734643C031C7334643CD10088318E
:1037F000BD28D117FD2989310D298931C129D92445
:103800000318080003196D34F20016003A3A031D3C
:103810006734F901DA2403180800810803191B2C06
:10382000F90016002C3A031D6734DA240318080047
:103830008108031D6734FA0072083D240319242C03
:1038400003013D24031D6A347A08E03F7908F03F04
:10385000720881008831BD203A301920B828D92457
:103860000318080003196D348108031D67343D24D3
:10387000031D703481018831BE28F10001308700BA
:10388000C030860001087106031908000130860760
:10389000831C422C0034D92403180800031DF900AE
:1038A000F91B6D348108031D67348331E0239C319B
:1038B00080047908742471045A2379088831BD285A
:1038C000D92403180800031DF900F91B6D34810881
:1038D000031D67348331E0239C31FF3A800579086A
:1038E0007424F10971055C2C7F24F100F20E720D35
:1038F000720D1F39D03E8631BA269C310800F20085
:103900000130F2180430721889357219090E080056
:103910004921031C0800433F093620300318E60400
:10392000FF3A031CE60566085323433F88311928F4
:103930004921031C0800433F093640308E2C2608DD
:10394000063C031D67340130F100433F483A031938
:10395000AE2C1F3A031D67340430F100443F711947
:10396000123A423A0319B82C123A031D6734F13562
:10397000453F533A0319C02C1B3A031D6734F10E1F
:103980007108C204433F88311920443F1920453F44
:103990001928D924031808008108031D6734C300BF
:1039A0005A17DC11E301E4018831BD28D3308600C9
:1039B0000800D6240108393C093C031C632DF100A2
:1039C0001400393C093C031CF02CA1001A30710290
:1039D00003187334710870252107031CDF2C73341E
:1039E00071080800FB2403180800F100F10EFB2405
:1039F000031C710408001600D03E031C632DF63E24
:103A0000031C0A2DDF39F93E031C632DFA3E03180F
:103A10006734063E0A3E031008001B258314031872
:103A200008009C3E8310031C5C2D031D7334FA08B0
:103A3000031D73345C2DD62401082D3C0632D62498
:103A4000531701082D3C0319282D5313023C031969
:103A5000860ADA2403180800F90101080319492D20
:103A60002E3C031D632D0730FB0014000319492D64
:103A7000393C093C031C632D7B197025FB18F907A1
:103A8000FB36FB080319031C352DFB3E0318F90A0E
:103A9000352D531F522DF109F9080319612D7908AD
:103AA000643CF900FA0176250318F10AA208031D07
:103AB000013EFA007108F90079080319FA080310A9
:103AC0000800F10A522D03146734F901FA006D253C
:103AD0006D25FA070318F90A0800FA35F90D0800F0
:103AE000A200A207A20DA207220D08001030FB00C1
:103AF000A101A201FA0DF90DA20D643022020318F2
:103B0000A200A10DFB0B7A2D210808007902031DEC
:103B10000800FA080800413F323A031D64340108E6
:103B2000433A0319AE2D0B3A0319A72D053A031D8D
:103B30006434D92403180800F039031D7334710E5E
:103B40004A06F039CA06C1224A0E8831DC284921CA
:103B5000031C08005B1203195B1647290D25031887
:103B60000800B6007A08B7007904031903325F151C
:103B7000E021012AB617012AD92403180800C80039
:103B800059158831BD284921031C08006813031901
:103B900068174323952C570922001506200012139D
:103BA0005506023903190800D506D71D1632FF3015
:103BB000E000080057092200150620009212550661
:103BC000013903190800D5065A190800D71905321A
:103BD000D715A8080319551A082EA80803192A2E64
:103BE00003305602031CCA2E5536D71D0936A80BC2
:103BF000162E0318CF2ED51BD32E541480315230DD
:103C000062245430622462249D31D7111C11272E66
:103C1000A80155121830D71808300C0618398C0630
:103C200080315830622462249D31202E8030031868
:103C3000D506F60DF50DF40DF30D0130F606551110
:103C4000D60170089A020630031C9A029110643063
:103C5000950008001C19372EE008031D272E273079
:103C60009A001C15D601210091142000272E0A303D
:103C7000560203184F2E5536D71D09360318272E26
:103C8000D6080319062E803152305624D71D4230F3
:103C900056249D312130A800D5135511202E3230E5
:103CA00056020318202ED719571E202E5718551CC0
:103CB000202E0130D706D506202E9110D60A551A8F
:103CC000752EA808031D722E5608143C03199B2E4E
:103CD00050305602031C08001C11D711571BD71770
:103CE00057130800D619D12E0800561808000301F2
:103CF000D51D1830571A103A0C063D058C06D618FB
:103D0000982ED5110314F60DF50DF40DF30D0318CF
:103D1000D515D601A80B08001C1155123D1AD51651
:103D20008031583062245430622462249D3108006E
:103D30000830D50608005536D71D0936031C080083
:103D40000130D71D0230D706D506D71DBD2E571717
:103D50007C18B92ED71E080057091139031908001D
:103D600010308C06D70657055030843154249E31CC
:103D70000800D711D51C0800202E7C1C0800D7187D
:103D800010305706103903190800D7065717B32EFD
:103D90005515272E5519E61AC82E0130D42E02309B
:103DA000D42E0330D42E0430E0080319E000553639
:103DB000D71D0936031C1C11A801D60155128031EC
:103DC00058306224523062246224543062249E317E
:103DD00060090319F12E4530843156249E317A3022
:043DE000E100272EA9
:103E0000031E08008B1321006A309900D7309500FB
:103E10002200FF308D0088309700C830980017309E
:103E200099001030920011309400A6309100930058
:103E30001E149D172100E7308C0007308D002300F1
:103E400007308C008D0119309B0026309E009D1795
:103E50001D168701113086000301C43F0130E127A0
:103E6000C7271030E127811E0800CC27031D08005A
:103E7000203085008401F001CC270319F9330B3A77
:103E800003190732013A0319CC2772081A00F00708
:103E9000F333F008031D413284019501023F910084
:103EA000033F9200013FF100043084073C3F083C8F
:103EB000083C031C32320B000D32123232324232D5
:103EC000493250320532293201000002001FE91F39
:103ED00015170632653091009F3092000230840041
:103EE000951715140000000013081A0014081A0092
:103EF000910A0319920AF10BF3330408F10015112A
:103F000084010F30C727F0011200F007BA27F10B28
:103F1000FB337009013EBA27C727CC270319A83302
:103F2000FC33A43095001200930012009400110994
:103F30001F3903190232710303199512D527F10BAA
:103F4000F033DC33943095001F309104D527F10B0A
:103F5000F933D4339501151413081A00910AF10BA3
:103F6000F933CB330430950012009300D527F10BC1
:103F7000F933C433F3000F3A031906320B3A03192D
:103F80000332013A031D02320530C727730864006B
:103F9000011EFE339A0004349D1801006400811E46
:103FA000FD331908F2000F3A0800640055309600FE
:103FB000AA30960095149518FE33910A0319920AB7
:103FC00001346400811A08000B1DFB330B11090B2F
:043FD000F83304348A
:020000040001F9
:02000E00FC0BE9
:02001000FF3AB5
:10E0000077000000100000004C003D004600580062
:10E010004F004D00500043000000000000000000D1
:10E02000000000000000C80041003D004F007000EB
:10E0300065006E0054006800650072006D002000ED
:10E0400047006100740065007700610079002000DE
:10E0500036002E0036000000570044005400200017
:10E060007200650073006500740021000000540018
:10E070006800650072006D006F007300740061003D
:10E080007400200064006900730063006F006E007C
:10E090006E006500630074006500640000005400B9
:10E0A0006800650072006D006F007300740061000D
:10E0B0007400200063006F006E006E006500630056
:10E0C00074006500640000004E004700000053002B
:10E0D000450000004E0053000000420056000000C2
:10E0E0004E00460000004F00520000004F00450067
:10E0F00000004D0065006400690075006D000000BF
:10E10000480069006700680000004C006F0077005D
:10E11000200070006F00770065007200000045006D
:10E12000720072006F0072002000000042003D008B
:10E13000310036003A00300032002000310031005A
:10E140002D00310030002D0032003000320034004C
:10E15000000043003D00340020004D0048007A00DC
:10E160000000570042005000530043004F0055008C
:04E170004C0045001A
:10E1A000000000000000000000000000000000006F
:10E1B000000000000000000000000000000000005F
:10E1C0007400750076007700780079007A007B0093
:10E1D000000000000000000000000000000000003F
:10E1E000000000000000000000000000000000002F
:10E1F000000000000000000000000000000000001F
:00000001FF
