:020000040000FA
:100000009F3100279831092828001508F9001C089D
:10001000FA009B3120009318D12493191F25921ABE
:0C002000AF23121B122491187824090051
:1030000023009908200064000D1D03289F3100272C
:10301000983122008D010C1621006A30990023009E
:1030200007308C008D0122001E149D172100E7300F
:103030008C0027308D00F801D53095002300073033
:103040008C008D012800F93096009D0097019E01AB
:1030500022008A30970023009D0119309B001E1525
:103060001E129E169D171D16210010309E007D30E9
:103070009D00921612179114931493159D142030ED
:1030800084005030F7008030800184068001840A7B
:10309000F70B44289D18FE330830F421EA0056301F
:1030A000F421EB009C30F421EC0001309D00C8308D
:1030B000980000305521C90022009900D0309200BC
:1030C000D1309400863091009300200095010B11BF
:1030D00064000B1D682831309800F9309B009C017A
:1030E0009201FF308C008D000B178B173D30B9001B
:1030F0000530BB000A309D315B2598310230AB00B2
:10310000053055219A3196229831AB35063055213C
:103110009A3196229831AB35013055219A31962259
:103120009831AB35023055219A3196229831AB3522
:10313000AB35033055219A3196229831AB350430A6
:1031400055219A31962298316400B808031D3B211D
:10315000BE1EBF1AF220C41BFF20BD1AFB200B1994
:103160001221111B5C21911EA42823001D1D053274
:103170009908031900282000A4289D1CC4281D12AA
:103180001D1620007816A4282000D6203D1EA42855
:103190009A310722B6013D129D31FF3A0319D42816
:1031A000FF3A031D52255C259831A4280130870081
:1031B0003608A03E86002300190820003D1A0800AA
:1031C00081000A3A03190800073A0319EC28360867
:1031D000013E831CB6000800B608031908008101EF
:1031E0003D1608009D31BE1A8225BE12BF1A8D25DC
:1031F000BF1298310800BD128521C41F08006A3033
:10320000441E0D295E303E1F0A293A089C3C031CCF
:10321000080065309D3152256D309D315B25993117
:10322000C41308000B11B90B1D293D30B900BB0BAD
:1032300008008C11C4118030BF001C19033221001A
:103240009D142000C41E2C29C4123E30441D3F3062
:103250008400801F2C29C0309D3147090319C70104
:10326000C708031DA4259831C808031DC80B080012
:103270004530E6210800111E08003708A03E8400F2
:10328000000823009A002000B70A303037060319DF
:10329000B701B80308002300951C08002000911E08
:1032A0004B29F200D62072084B294B219501910041
:1032B000151413082000080011131C083A06BA065A
:1032C0003A063A02031C003CFC39031D08003A0888
:1032D0009C3C031C76293A08943C0318BD1C08004A
:1032E000BD103A309D315B2599310800BD180800AA
:1032F000BD1422309D315B25993128001711200023
:103300008030BE000A30C4050800C508031D003423
:103310004618B129C61F00341C1D94293D0E76069F
:103320004039031900341C11C517C6130130C300FE
:10333000C01540165830E3215430761F4230E32147
:103340000830761B1030B5002230B400F9309A00F6
:103350001C150530761FBB009D3198255C259931E1
:1033600000341C19003446081F39C606C5001E3932
:103370000319D229C518CC294519C629451ACA29C5
:10338000C51D0034C5013D151030D6293F1FD42975
:10339000C419DC29C501D4293F1FD429C41DDC2947
:1033A000C606C5103F1FDC293D1108309A011C15C7
:1033B0008C06C406C3010034C5018A298F3E8400EF
:1033C00008000319E629DE210014E829DE21001097
:1033D000E4300406D8300018003003194B090D06FC
:1033E0000005D8398D060800F6000830F7001C08E3
:1033F0009B1B013EF501F60C0318F507F50CF60CC6
:10340000F70BFA337635750D761B013E0800781AF6
:10341000462A04303602031C523401308700A030A3
:103420008600423F3D3C031D552B413F0106F10004
:10343000E039031D4F3401089D316A25413F6A255B
:103440003A306A2520306A2571080B004F344F341A
:10345000482A4D2A522A4F344F344F346B2A4F3466
:103460004F344F344F346B2A6B2A6B2A572A4F3410
:103470004F344F345C2A612A4F344F344F344F3429
:103480004F344F344F34662A4F344F3478125B3404
:103490000108503C0319B62A4F340108533C031964
:1034A0002A2B4F340108563C0319D12A4F34010806
:1034B000473C03194C2B4F340108443C0319B82AEC
:1034C0004F340108453C0319202B4F340108493C77
:1034D0000319112B4F3401084C3C031D4F3436089F
:1034E000043C031D5234413FBF3EB0000830B018C9
:1034F0004030AB003018AB07AB2203189C2A433F87
:10350000F1005A3C193C031C55343008013EE822B6
:10351000433F9D316A259A31D03084001A30F7003C
:103520002B098005840AF70B912A433F8F3E8400C4
:103530002B0880049931E829433101089D316A251F
:103540009A312B084B06011C2B062B05CB06E430C9
:1035500084009931E82903103608043A031D5234D7
:10356000433F313C013C0318080055349D31B22DD6
:103570006F233608053C03190532090F5234962390
:1035800003180800F2008D23031808008600720853
:1035900087009D316425060860253D306A250108B5
:1035A000602D3608043C031D5234433F393C093C2E
:1035B000031C553409350D3E2200990020004906B0
:1035C0001F394906C900E6229D31CC2DF10000309B
:1035D00099314B219A312300910071082300151471
:1035E000230013060319FF2A9306230015158B13D6
:1035F00055309600AA30960095148B1715112000AF
:10360000710808000310F2000130F2180430F100D4
:103610007218F10D7219F10EF20E720D720D1F3942
:103620000800AB22031C0800203043310118C904F4
:10363000FF3A011CC9054908E62201089D316A2D9F
:10364000AB22031C0800031D441703194413433F16
:103650009D316A2D3608043C031D5234433F4C3AD9
:103660000319452B013A0319442B053A0319422B40
:103670001C3A0319402B163A031D553410300532FD
:1036800008300332043001320230C6044614433F8E
:103690009D316A25993185293608043C031D523431
:1036A000433F523C031D553401003608083A031DC0
:1036B0005234A03086008D2303180800F6008D23B5
:1036C00003180800F5008D2303180800F4008D236B
:1036D00003180800F300C61799318521FF34A33081
:1036E000860008000108393C093C031C8A2BF100C4
:1036F0001400393C093C031C882BA9001A307102C4
:10370000031858347108A9232907031C772B583450
:1037100071080800031452346F239623031808001D
:10372000F100F10E9623031C7104080030300102F1
:10373000031C8A2BF63E031CA52BDF39F93E031C24
:103740008A2BFA3E03185234063E0A3E860A0310BC
:103750000800AA00AA07AA0DAA072A0D08003E0918
:103760002200110620009212090D3E06803903192D
:103770000800BE062800171906321E3095001715DE
:103780002000C10108002000B2080319DF2B03301C
:103790004102031C10323E0DB20B3032C101BE1B80
:1037A000FE2C3E18032DBE1698315230E6215430BF
:1037B000E6219B3108003E19C91A3E1508000A305F
:1037C000410203180F32BE1B0800C1080319123250
:1037D0005230E3215430E3219B312130B2003E10BE
:1037E0003E11082C323041020318082CC030BE1B99
:1037F000BE06080028001711200008003E350130E1
:10380000031CBE06A00DA10DA20DA30DA0063E1126
:10381000C1017908280095020630031C950220009A
:10382000931008003F092200130620001213090D0F
:103830003F06803903190800BF0628001E1906320A
:103840001E309C001E152000C20108002000B30895
:103850000319422C03304202031C10323F0DB30BFC
:103860003432C201BF1B322D3F18372DBF1698319D
:103870005230E6214230E6219C3108003F19C91A36
:103880003F1508000A30420203181032BF1B08001F
:10389000C2080319163298315230E3214230E32135
:1038A0009C312130B3003F103F116E2C45180800A9
:1038B0003230420203186E2CBF1F0800C030BF0612
:1038C000080028001E11200008000130031CBF065C
:1038D000A40DA50DA60DA70DA4063F11C2017A08DF
:1038E00028009C020630031C9C0220009311080053
:1038F0009110C30A43180800B408031914320301D5
:10390000C01D183044060C0635058C06C318CE2C95
:10391000C0110314F30DF40DF50DF60D0318C015C9
:10392000C301B4030800C51B043245180E321C1134
:103930000800C51340121C1198315830E62154304C
:10394000E6214230E6219C310800C51C451912329F
:10395000C419083228304302031C0800CA24891CF9
:10396000BF0115323C304302031C08008C15C41102
:10397000C301080028304302031C0800CA24891C24
:1039800004323F17BF13C51C02328C15C411C50188
:103990001C11080022001509200008000830C0068C
:1039A00008009310C10A320803190332C119002D0F
:1039B00008001430410203190B3250304102031C3D
:1039C00008003E1AC4173E122800171120000800F4
:1039D000BE1F0800C030BE06441F08003E163E1B36
:1039E000441E0132080010308C06C40644055030D5
:1039F0009931E1219C310800013006320230043255
:103A0000CA00033001320430C7080319C7003E0959
:103A1000220011062800091F17112000B201C10160
:103A2000401298315230E6215430E62147090319FB
:103A300004324530E3217A30C8009D3108009311EB
:103A4000C20A330803190332C219342D0800420890
:103A5000B03E031C080028001E112000C50108000C
:103A60000130063202300432CA0003300132043021
:103A7000C7080319C700220013092800091F1E11D7
:103A80002000B301C201401298315230E621423089
:103A9000E6214709031904324530E3217A30C80092
:103AA0009D310800993155219D31031908006A257F
:103AB0002300110A522D52250D306A250A306A2D35
:103AC000F200720E642572080F39F63E0318073EA5
:103AD0000A3E303EB8080319111E722D23009A00C9
:103AE00020000034840038083707D03E031C303EE5
:103AF000A03E04068406040680003808303A031D00
:103B0000B80A003454306A2523086025220860254D
:103B100021086025200860255C2D42306A25270891
:103B200060252608602525086025240860255C2D71
:103B30005230761B41306A2576086025750860256D
:103B4000740860257308602DC41B0800743052256A
:103B5000470860255C254530471C8325C7010800C0
:103B60001E0D692D3608043A031D5234433F413A75
:103B700003190834153A0319C52D023A0319CB2D40
:103B80005534433F6A253D306A2DC125490EF10069
:0E3B9000F10CF10CB02DC1254936FA3E642D22
:103E0000031E08008B1321006A309900D7309500FB
:103E10002200FF308D0088309700C830980017309E
:103E200099001030920011309400A6309100930058
:103E30001E149D172100E7308C0007308D002300F1
:103E400007308C008D0119309B0026309E009D1795
:103E50001D168701113086000301C43F0130E127A0
:103E6000C7271030E127811E0800CC27031D08005A
:103E7000203085008401F001CC270319F9330B3A77
:103E800003190732013A0319CC2772081A00F00708
:103E9000F333F008031D413284019501023F910084
:103EA000033F9200013FF100043084073C3F083C8F
:103EB000083C031C32320B000D32123232324232D5
:103EC000493250320532293201000002001FE91F39
:103ED00015170632653091009F3092000230840041
:103EE000951715140000000013081A0014081A0092
:103EF000910A0319920AF10BF3330408F10015112A
:103F000084010F30C727F0011200F007BA27F10B28
:103F1000FB337009013EBA27C727CC270319A83302
:103F2000FC33A43095001200930012009400110994
:103F30001F3903190232710303199512D527F10BAA
:103F4000F033DC33943095001F309104D527F10B0A
:103F5000F933D4339501151413081A00910AF10BA3
:103F6000F933CB330430950012009300D527F10BC1
:103F7000F933C433F3000F3A031906320B3A03192D
:103F80000332013A031D02320530C727730864006B
:103F9000011EFE339A0004349D1801006400811E46
:103FA000FD331908F2000F3A0800640055309600FE
:103FB000AA30960095149518FE33910A0319920AB7
:103FC00001346400811A08000B1DFB330B11090B2F
:043FD000F83304348A
:020000040001F9
:02000E00FC0BE9
:02001000FF1AD5
:10E0000037005500550055005500550055000000DB
:10E0100041003D004F00700065006E005400680034
:10E02000650072006D00200049006E0074006500FC
:10E0300072006600610063006500200032002E005F
:10E040003000000054006800650072006D006F0031
:10E0500073007400610074002000640069007300A4
:10E0600063006F006E006E00650063007400650061
:10E070006400000054006800650072006D006F00CD
:10E080007300740061007400200063006F006E0074
:10E090006E006500630074006500640000004E00BF
:10E0A00047000000530045000000420056000000F9
:10E0B0004F00520000004F00450000004D00650079
:10E0C0006400690075006D00000048006900670089
:10E0D000680000004C006F007700200070006F00A7
:10E0E00077006500720000004500720072006F004A
:10E0F000720020000000310032003A003100300090
:10E100002000320033002D00310030002D0032009D
:10E110003000320032000000340020004D00480082
:04E120007A00000081
:00000001FF
