:020000040000FA
:080000008A1500278A11F72B75
:08000800F000030E8301F1007A
:100010000408F2000A08B0008A111108F3008C18D5
:10002000D1260D1B462630088A0072088400710E06
:080030008300F00E700E0900C0
:08003800761B4728761A842389
:10004000402077087B06031DE601FB067F115A1747
:100050009820EC01E11E4F23031932287F1D6119FE
:1000600075280800E11A40207F155A13F8227F1DD9
:100070002F28DA12F700982075285A1B422808000A
:100080007608FA007808B4007908B5000800D91598
:1000900077084D0603196113761E84234F23F61A41
:1000A000761E5C2803195728553980075F28770882
:1000B0008A15AA228A115F28FF3AE01F8005E01303
:1000C000DA17DA188D287F196A2898207F196119A4
:1000D000080075289820DA166119080040305A1F68
:1000E00070303623DA135A1F98207908780677067D
:1000F000F6137606F400F40E7406F400F40CF40C17
:10010000F4060130F418F4067418F6177F18080086
:100110005230761B41308A15FC2C98205030F60066
:100120000430F700AA30F8003908F900DA10752811
:10013000F71BBF2B00308A007708A13E03188A0AFC
:1001400082003E2975299229BE2BA729B029B629FC
:10015000BF2BC829D529DB2AE92ADB2AE92AE92984
:10016000BF2BF729BE2BBF2BBF2B272ABF2BBF2BA3
:10017000BF2BBF2BBE2BBF2B302A3A2ABF2BBF2B46
:10018000BF2BBF2BBF2BBF2BBF2BBF2BBF2BBF2B1F
:10019000BF2BBF2BBF2BBF2BBF2BBF2BBF2BBF2B0F
:1001A000BF2B462A502ABF2BBF2BBF2BBF2BBF2BE9
:1001B000BF2B5A2A7B2ABF2BBF2BBF2BBF2BBF2B9A
:1001C000BF2BBF2BBF2BBF2BBF2BBF2BBF2BB92BE5
:1001D000A12ABF2BBF2BBF2BBF2BBF2BBF2BBF2BEE
:1001E000BF2BBF2BBF2BBF2BBF2BBF2BBF2BBF2BBF
:1001F000BF2BDB2AE92ADB2AE92ABF2BBF2BBF2B27
:10020000BF2BBF2BBF2BBF2BBF2BAA2AB92BBF2BBA
:10021000BF2BBF2BDB2AE92ADB2AE92ABF2BBF2B06
:10022000BF2BBF2BBF2BBF2BBF2BBF2BBF2BBF2B7E
:10023000BF2BBF2BBF2BBF2BBF2BBF2BCA2AD02A54
:10024000BF2B603027297A08C038F61F7F39760621
:10025000031D7F15F60600347806031D7F15F8068A
:100260000034F61E08007A1E2129232134082C218F
:1002700035087906031D7F15F9060034761B5929C8
:10028000F2226209EE38ED1EFD39F4000301C41BB1
:10029000E11901386D1A02388316DA1F10388312FB
:1002A000F405FF3A780574042C21780802394330AC
:1002B000D52BF61A08007908B500413903195912EF
:1002C000031D591A672959160530CD0061174D30A5
:1002D000D523790808394630D523790804395730B1
:1002E000D523790802394830D52B761B8E29F22286
:1002F000611D7F197D29C41B08007616C41BE11DF2
:1003000087294208031951082C2143083929030180
:10031000C41F44082C21C41F45083929F61E0800B3
:10032000C4170800761F9A29013034052C2135089E
:10033000392123297818DD16631A080079080B3C47
:100340000319E31B0800E317DD1A63170800761F83
:100350000800AA307802031D080023213908392932
:10036000761BBF2B5F1A5F1B0800152A761F08003B
:100370000301F61E761AC0297908FC38601BE005D7
:1003800061060339E10623216013780803382C291C
:10039000761BBF2B8316DA1B7F19CF29D32976163C
:1003A0002C215B08392183120800761F0800DF1911
:1003B000DB29F61E080023215F1E3A082C215F1E50
:1003C0003B0839215F13E31ADF1D08005F1DDA14B3
:1003D0000800761B0800F222D71B7F19F129611D46
:1003E000080076165708D71B64302C213929761B54
:1003F0003329DF195F1B08005F1A152A3B087902B1
:10040000F4003A08031C013E7802031CFF3A031D66
:100410001C2A031CF409E0307405031D1C2A5F1913
:1004200008005F15DF134F30D72B5F123A083B04EB
:100430000319242A5F1708005F1DDF0A5F1D0800EB
:10044000631B242ABA01BB01DF014F30E32B761F67
:100450000800BF1B312923213E082C213F083929E0
:10046000761B591C0800D918212923213C082C216E
:100470003D083929761B6D1D0800611A21292321A9
:10048000031730082C21310803133929761F08007F
:100490006012F61ABF2B7808CF007908CE00BF2B68
:1004A000761F0800E012F61ABF2B7808D1007908F1
:1004B000D000BF2B761B682AC008761E601803196F
:1004C00008001030272140082C21410839213834F8
:1004D0006010F61E3D28761E742A23214008031959
:1004E0004F082C2141083929C00803190800C00110
:1004F000C1010F309B2A761B892AC208761EE0189C
:10050000031908001030272142082C214308392103
:100510003934E010F61E3D28761E952A2321420824
:10052000031951082C2143083929C208031908006E
:10053000C201C3011130FC01FD018A1564228A1138
:1005400008000310460C7F1D0318761B0800761662
:1005500039212C29761F0800DF19B02AF61E080061
:10056000DF1AD50E7F11BF237F19BD2A2321550E17
:10057000033939216A1B79082C21631BDF1EC82A25
:10058000550E5506031D5F1BC82A5F16DF155F1742
:10059000DF120800761F0800232103302C2139299F
:1005A000761FE31F080063137808143C0319E31651
:1005B000031C63170800761F08007F19DA1FBF2B82
:1005C0007808F61E03190800E700770ACD006117C6
:1005D0000800761FB92B7F19E80A67086802031C18
:1005E00061170800761B08004F23FF3A80050800BA
:1005F0000030F600F801F901E0080319192BB101E8
:1006000009235023031D072B3109E005FC2A750837
:1006100008003117601B06343116601A3034B116E9
:10062000E01A313431146018612AB114E018822ABA
:100630000034611F202BE0176808F8004D080800FF
:10064000E0014C08031D3F2B5A1A352B2030FE00C9
:10065000DA1AC90A49081F39E03E8A11D6258A11DB
:10066000031D0800FE0B292B5A167F117A04F60091
:100670003408F8003508F9007B08F700080010304E
:10068000F6007430FE00F4010314472BFE0AF40D4B
:1006900074084C050319462BCC067E080800770821
:1006A000F500750CF400740C1F39BA3E8400F51B7C
:1006B0000034033075180C30F400F518F40E0009FE
:1006C0007405F40E740E0800C334C1348F349F34A3
:1006D0000234003403340334C03420340034003492
:1006E00000340034F0340F340034043407340C3454
:1006F0001234133413341534173419341A341A34A9
:100700001A341A341A341E34770D031CF61A0800F2
:10071000F400740E0F39F40077080739FE00FE0A62
:10072000AA237406F4067406B10103100318B10A73
:10073000F40CFE0B962B031C0800B123B107310DFE
:10074000103E8400831778088000840A79088000AE
:100750008313080003308A007408643E03188A0A71
:100760008200F40003308A007408743E03188A0A79
:100770008200DA1B7F1D761F0800C42BF222DA1BD1
:100780007F1D761F0800B401B50177088A1559232B
:100790008A11031D0800232183170008350439211D
:1007A00084130008831334042C290319E32B5F3EC0
:1007B00084000014FE30000503195434FF3A860506
:1007C000F938E20554345F3E840000100008031934
:0A07D000423486040639E204423484
:0607DA009A08E91AF32B56
:1007E000E901CC2C6B14EB148A1500278A11031332
:1007F00083128601831660308F0007309B00E7303C
:1008000085002730860003300E0640308E185030A9
:10081000831203196B0E031E6030FF00031EFF15C9
:10082000831603308E001930990018151812981687
:10083000D5308100F93092008312003092008E0191
:100840008F013130900098019817FF1D2D2C2B300F
:100850008A15D1248A116119FF112030FB24A030A0
:10086000FB2483171030FB24BF17C417D71781014F
:100870000B1164000B1D392CFF1D181641309F0011
:100880000030D625EA00E03883169D00DA170E30D6
:10089000D625ED008A15E4228A11D425C000031D57
:1008A0006014D425C100D425C200031DE014D42552
:1008B000C30083160D178C141C0983010D13C03956
:1008C000DB00FF3086005B1BF739DB1BEF3985004F
:1008D0000B17FF1D8B17C9097030E0041430CE00D0
:1008E0005030CF000A30D0005A30D1003D30D30014
:1008F0000D30D625E3001030FE00FC01D030B100F1
:100900003108D625FD007C08FD080319922CFC0057
:100910000310FD0C031C902C8A1150238A118004B3
:100920007C0A842C0730FC04FC0AB10AFE0B802CE4
:1009300015308A15D1248A11F4010630D6258A157E
:10094000D4208A11F40A0730D6258A15D4208A11BA
:10095000F40A0830D6258A15D4208A11F40A093001
:10096000D6258A15D4208A11F40A0A30D6258A158C
:10097000D4208A11F40A0B30D6258A15D4208A1186
:100980000130D625D8008A1587268A11FF1DCC2C68
:100990004D308A11D7238A116400CB08031DB82576
:1009A000FF19CC2C5A181B25DD1848250B195B257F
:1009B0000C1881250C1BE0258A15B4268A115919BB
:1009C000A325661BF22B8C1ECC2C1819ED2B981C22
:1009D000EC2C18121816D9160325DA1DCC2C8A1502
:1009E0000020B601DA118A150038031DC824D2246C
:1009F0008A114425CC2C84008001840A04097039B2
:100A0000031DFC2C08003608203E84001A08DA1961
:100A1000080080000A3A03190800073A0319152D47
:100A20003608013E831CB6000800B608031908000A
:100A30008001DA1508008A15F9248A115A108A11E2
:100A40001C208A117F182D2D611D2F2DDB16770894
:100A50007B06031D442DD40A5412E601442D0130B7
:100A6000DC00DB155B1658308A11D723761F423025
:100A7000D723DD11761BDD152230B80083168C14C8
:100A80008312F930910012158A1513258A11080076
:100A9000DD105D1A5D1F502D5608803C031C0800B8
:100AA0005D085E06503903190800DE068A153026F7
:100AB000D1248A1108000B11D30B692DD919E60A2C
:100AC000E1173D30D3006C0FEC0005306C020318C9
:100AD0008511E91EE90A121D1F158A15FF18E22269
:100AE0008A1564090319E401E408031D08258A1125
:100AF000E508031DE50B080045308A11E3238A1140
:100B000008000C10D21F8F25DF195F1908008030F4
:100B1000DF065F054F308A11D5238A110800D20302
:100B2000D21F0800DC308400001CBF17801CC417D3
:100B30008316001DDA1783128A1507308005031DFE
:100B4000AB218A1108004B083C3C031C08008A15A5
:100B500020258A1122304A020318B32D2C308A1521
:100B6000E1248A11080059118A15D2248A1108003B
:100B70000C1E08003708903E84008317000883137A
:100B80009900B70A503037060319B701CB030800A4
:100B9000031783168C1C0800831203138C1EC82DA8
:100BA000F50003257508C82D03170D0AC8258C010B
:100BB00083128D0083160C1483120C080313080093
:100BC0000C131E085606D60656065602031C003C99
:100BD000FC39031D162E5608803C031C002E7A3C5F
:100BE000031CFE2D611D0800343C031C182E6111EE
:100BF000E1114E308A15D1248A110800E115012E29
:100C0000E1116119182E611536308A15D1248A1127
:100C100012118030DD055B17631EE301DF01BA01AD
:100C2000BB0150308A11E3238A110800611D0800BE
:100C30007F1CE11F08000030F600F801F901FA01FD
:100C4000E1122D26F7008A1121208A11761A8423B9
:100C50007708FB00E1138A112F2D06308A00540813
:100C6000343E03188A0A8200003419340134442EB9
:100C700011341B341C340E34442E00341934013426
:0C0C800038343934442E1234E1160034AC
:040C8C005D09831665
:100C90001C0683120D135B06C039DB06611980390F
:100CA000003803190800403903195D1D5A2EFF3022
:100CB000E4000800031D5D19622E5D15B8080319D4
:100CC0005B1A7D2EB80803199E2E03305C02031CAC
:100CD000422F5B0D5D19803EB80B8B2E0318472FFA
:100CE0005B184B2F5A148A115230E3235430E323FC
:100CF000E3238A115D1112119B2EB8015B1218308B
:100D0000DD1B08300506183985068A115830E323A3
:100D1000E3238A11942E01300318DB06F90DF80D38
:100D2000F70DF60DF9065B11DC0173089102063030
:100D3000031C91028C106430810008001219AB2E44
:100D4000E408031D9B2E273091001215DC01831649
:100D50008C1483129B2E0A305C020318C32E5B0D89
:100D60005D19803E03189B2EDC0803197B2E8A1127
:100D70005230D7235D1D4230D7238A112130B8006D
:100D80005B105B11942E32305C020318942E5D19B7
:100D90005D1E942E5D1B5B1F942E4030DD06DB062E
:100DA000942E8C10DC0A5B1AE92EB808031DE62E7F
:100DB0005C08143C0319132F50305C02031C08001C
:100DC00012115D115D18DD145D100800DC19492F4A
:100DD00008005C180800B8080319042F5D09DB1926
:100DE000183A0506DD1D0839DD1910398506DC18AD
:100DF000102FDB110314F90DF80DF70DF60D031884
:100E0000DB15DC01B803080012115B12DD19DB16DB
:100E10008A115830E3235430E323E3238A11080076
:100E20000830DB0608005B0D5D19803E031C0800DE
:100E300040305D1D8030DD06DB065D1D352F5D1405
:100E40007F18312FDD1E08005D0950390319080095
:100E500010308506DD065D0550308A11D5238A11D4
:100E600008005D11DB1F0800942E7F1C0800DD1BAD
:100E700010305D06103903190800DD065D142B2FB4
:100E80005B159B2E5B19EA1A402F01304C2F023064
:100E90004C2F03304C2F0430E4080319E4005B0DA1
:100EA0005D19803E031C1211B801DC015B128A112E
:100EB0005830E3235230E323E3235430E3238A11F1
:100EC00064090319692F45308A11D7238A117A30B2
:040ED000E5009B2E70
:0C0ED400031D812F07308A006E081F39B3
:100EE000753E03188A0AEE0A8200842FE82F902F9D
:100EF0000034842FE62F932F842FE82FA02FA22FCA
:100F0000A62F0314BD270034851383168513C1272C
:100F1000831685178312C427851B812FC2270134AE
:100F20004430E9270034D5277408103A03190134F6
:100F3000EE17383A031901340A3A03190134812FA4
:100F4000BE30E92FD5277408EF000134D527EE1BFA
:100F5000AF2F740C6F0CFC00FD01FD0CB92F6F0E50
:100F6000F039FD00740EF039F4006F0E0F3974047F
:100F7000FC00553A0319812F03108A15D121EE0187
:100F80000134C227E830C52F363083168C10120288
:100F900083120A3E910012158C1CCC2F12118C105A
:100FA0000800D327D32700000800D627D927D92740
:100FB000D927851383168513031085178312D2272B
:100FC000851B0314F40C2D30C52708003330E92F9E
:100FD000CC30F400EB27EE27EE27EE27F40C851338
:100FE00083168513031885173230C5278316851796
:040FF0008312013433
:10100000D91A402804303602031C663422083D3CBD
:10101000031D663420088A15E1242108E1243A30B2
:10102000E1242030E12408308A0020082106F40061
:10103000E039031DA52C7408203E03188A0A82009B
:1010400042284D2855285D2862286A28F2287228EF
:10105000BA28BA28BA2879286334BA28BA28BA280C
:101060007E288928912863349628633463349B282A
:10107000633463346334A028A828AD286334B528CA
:10108000D91275342008543A03192C29153A03193A
:10109000872A0C3A0319042B63342008523A0319A7
:1010A000B52B013A0319162B63342008503A031963
:1010B000122B1B3A0319792B63342008503A031979
:1010C000142B63342008563A0319452A053A0319AC
:1010D000682963342008443A03199E2A123A0319F6
:1010E000B529F22820084F3A0319B02B1B3AFA2AE7
:1010F00063342008433A03193E2A63342008533AE4
:101100000319F229143A0319CF2A043A03199C2926
:1011100063342008433A03194C2B103A0319602911
:1011200063342008463A0319B72A63342008443A46
:101130000319E82963342008543A03192729633432
:1011400020084F3A0319C4291C3A03198229633431
:101150002008553A0319652B63342008493A0319CE
:10116000A32B193A0319DF2B63342008483A0319DB
:101170002E2A633420084C3A031D63343608043C9D
:10118000031D66342308F4005A3C193C031C6C34DC
:1011900041302102063E6E2223088A15E1248A1579
:1011A00041302102F4002308FC000830F4184030DC
:1011B00074190230B10003107418B10DA03084000E
:1011C0001A30FE0031098005840AFE0BE3287C08F2
:1011D0005F3E8400310880047C08001C03158A11DE
:1011E000D52300342008473C031D63343608043CF3
:1011F000031D663430302302F400F839031D6634D1
:10120000F030211809295805703C03195910F40EC3
:101210000F3058057404D800F40001306E226217B4
:10122000E213C030211CE2068A158C265808211CC6
:10123000580E07398A15DF2C03103608043A031DAF
:1012400066342308313C013C031808006C34322416
:101250000318080001303029322403180800033035
:101260003221CF2955060F39D5060030631F3D299D
:101270003A083B04031D5F161030DF057D08BB00F4
:101280007C08BA00DF155F17DF16B901E31ADA141C
:101290003B0403195C29E31E08003A087E247D08FC
:1012A000B9003B087E247C08B907FD1BB90A3A083F
:1012B000FC003B08FD0008005F165510D510080023
:1012C0003224031808000319663402306422CF293F
:1012D000362403180800031977294E08A024031C9C
:1012E0006C344F08A024031D031C79296C34601052
:1012F0007B29611860147D08C1007C08C0000F3094
:101300006422CF29362403180800031991295008B4
:10131000A024031C6C345108A024031D031C932932
:101320006C34E0109529E118E0147D08C3007C08B6
:10133000C20011306422CF29242403180800C400FD
:101340007D08C5007C040319A929AB21031C801466
:10135000CF29C417CF29DC308400520DD21F0800DA
:10136000F83080057830D2000800ED230318C22938
:101370008008031D6634643C031C7234740DC6007F
:101380008A15832DC601CB2936240318CA29FC1FD0
:101390007C1FCE2959102D308A15E12CD8218A15B1
:1013A0006B2D30306D1DD8296116031C6112DF29A9
:1013B0005914D914031CD9103C30E0212E30831766
:1013C00084007C088000840A7D0880008313080064
:1013D0003608053C031D6634072403180800C700BF
:1013E0008A15D62CED2303180800BE00173C031CF9
:1013F000723400083A3C031D6634840AEE23031855
:101400006634BF003B3C031C723400082F3C031DB4
:101410006634840A30300002031D031C6C34F4006F
:10142000F839031D6C34840A8008031D6634F40EF9
:101430000310740DBE04AB21031C00143E081F39B9
:10144000F4008A1591253F08F4003A3090252F309A
:10145000E1243E0EF400740C0739DF2C3608043CFE
:10146000031D66346D12ED122308313C0319ED168D
:10147000FE3903196D165B228A15292E1C21031CC7
:1014800008006210031962141A293608043C031D6F
:1014900066342308393C093C031C6C34033EF400D9
:1014A000E03883169D008312E0306A057404EA0078
:1014B0006C228A15FE2D6D08F4000E306E2A8A11FA
:1014C000C8258A15831208005F228D007C087122CE
:1014D0005F228D0A7D08712AF40000305F228D00A2
:1014E0007408031783160C1483120C060319842A3C
:1014F0008C0683160C158B1355308D00AA308D0089
:101500008C148B170C1183120C0803130800ED23A5
:1015100003180800031972348008031D66345A1238
:10152000E0308A11D6258A1503199B2A03170D0F5F
:10153000912A0313693470228A15822DED23031832
:101540000800031972348008031D6634AA22031DA3
:101550000800C029F400E0308A11D6258A157406E7
:101560000319712A03170D0FAC2A03136F343608C1
:10157000043C031D6634E3012308433A0319E316D0
:101580000A3A031963171A3A03196316E308031D8D
:1015900063166308F4000D306E228A15382E360863
:1015A000043C031D66341C21031CF02A6D14ED0657
:1015B0007F060139031DE02AFF14E222FF18A30071
:1015C0005B22AE2B121950347F106D1CFF197F1453
:1015D00003307F18063083169C008312FF1008002A
:1015E0002308523C031D6C346B148610831686103E
:1015F0008A11002823084F3A031D1D3A031D6C343D
:101600006D11231C6D15E02AED230318102B8008A3
:10161000031D6634643C031C7234643CD7009C2A6E
:10162000D717CB298A15D02D8A15632EED230318E1
:10163000080003196C34F5003A300002031D6634CB
:10164000840AFC01EE230318080080080319342BD8
:10165000FC002C300002031D6634840AEE230318BC
:1016600008008008031D6634FD007508592303191E
:101670003D2B03015923031D693483177D08800026
:1016800084137C08800083138417750880008A15F2
:1016900082253A30E1247D2DED230318080003193B
:1016A0006C348008031D66345923031D6F34800198
:1016B000C029F400E0308400000874060319080013
:1016C00001308407831C5C2B0034ED2303180800D1
:1016D000031DFC00FC1B6C348008031D66348A115A
:1016E00050238A1580047C088D23740471227C08A1
:1016F0009C2AED2303180800031DFC00FC1B6C341E
:101700008008031D66348A1150238A15FF3A80052C
:101710007C088D23F4097405762B9723F50E750D3F
:10172000750D1F39D03E8A11D6258A150800031081
:10173000F5000130F5180430F4007518F40D751932
:10174000F40E740808001C21031C08002030231824
:10175000EA04FF3A231CEA056A086C222308CC2914
:101760001C21031C08004030A72B3608063C031D33
:1017700066340130F4002308483A0319C52B1F3A98
:10178000031D66340430F40012302406423A031973
:10179000CE2B123A031D66340310F40D2508533A7C
:1017A0000319D62B1B3A031D6634F40E7408CC04BF
:1017B00023088A15E1242408E1242508E12CED23DF
:1017C000031808008008031D6634CD006117E70187
:1017D000E8019C2A233084000800EA230008393CF1
:1017E000093C031C7C2CF400840A0008393C093CA9
:1017F000031C052CB1001A307402031872347408EB
:101800008A243107031CF32B723474080800EA237E
:10181000112403180800F400F40E1124031C7404AE
:10182000080030300002031C7C2CF63E031C202CE8
:10183000DF39F93E031C7C2CFA3E03186634063E61
:101840000A3E840A03100800322483140318080097
:101850009C3E8310031C752C031D7234FD08031D70
:101860007234752CEA2300082D3C3C2CEA235917CE
:1018700000082D3C03193F2C5913023C0319840A1C
:10188000EE2303180800FC0100080319622C2E3C0B
:10189000031D7C2C0730FE00840A00080319622C0B
:1018A000393C093C031C7C2C7E198A24FE18FC0759
:1018B0000310FE0CFE080319031C4C2CFB3E0318FE
:1018C000FC0A4C2C591F6B2CF409FC0803197A2CC8
:1018D0007C08643CFC00FD0190240318F40AB20863
:1018E000031D013EFD007408FC007C080319FD087F
:1018F00003100800F40A6B2C03146634FC01FD008D
:1019000086248624FD070318FC0A08000310FD0D39
:10191000FC0D0800B200B207B20DB207320D08008C
:101920001030FE00B101B201FD0DFC0DB20D6430AE
:1019300032020318B200B10DFE0B942C31080800DE
:101940007C02031D0800FD0808002108323A031D2F
:1019500063342008433A0319B72C0B3A031D633450
:101960001C21031C08006212031962161A29242480
:10197000031808008316DA007D08DB007C040319D5
:10198000C52C5C158312AB21CF29DA178312CF291E
:101990008A11D6258A1503190800E12403170D0AB8
:1019A000C82CC8240D30E1240A30E12CF500750E56
:1019B000DA2475080F39F63E0318073E0A3ED91798
:1019C000303ECB0803190C1EE72C9900003484002C
:1019D00037084B07B03E031C503E903E0406840679
:1019E00004068317800083134B08503A031DCB0A6B
:1019F00000345430761B42305A190800E12476082E
:101A0000D6247708D6247808D6247908D624D22C70
:101A1000DD1808008E30C8246408D624D22445304E
:101A2000641CFC24E4014708031908008400000832
:101A3000F4004708D6243D30E1247408D624D22C83
:101A40004A084A07103E840083170008FC00840AF5
:101A50000008FD0083130D308A004A08CA0A333E8D
:101A600003188A0A8200552D6D2D552D6D2D6D2D73
:101A70006D2D7D2D6D2D6D2D6D2D6D2D6D2D6D2D86
:101A80006D2D6D2D6B2D6D2D6D2DA12D7D2D7D2D34
:101A90006D2D6D2D552D812D812DA32DA32DA32DC4
:101AA000A32DA32DA32DA32DA32D7C085A252F30C4
:101AB000E1247D08F4000830FE00F40D6225FE0BE1
:101AC0005D2D0800140DDF2CFC09FD09FD0A03192A
:101AD000FC0A2D30E12CFC1B64257D0F712DFC0AC6
:101AE000FD017C0882256430F4007D087626FD1B0C
:101AF000FC0A7C08F4002E30902D7C0882252F30C3
:101B0000E1247D08F4007408D9139C3E031C922D37
:101B1000F4009C3E031C8F2DF4003230902D3130A8
:101B2000E124D917FE017408F400F63E031C9A2D37
:101B3000FE0A942D7E080319D91B9F257408D91716
:101B4000DF2CFC1B64251030FE00B101B201B30193
:101B5000AF2D3308C025B3003208C025B200FD0DFB
:101B6000FC0DB30DB20DB10DFE0BA92DD91331082B
:101B7000C7253208C7253308C725D91B0800DF2C25
:101B8000333EF400F41DFD3EF41FD03E0800F40087
:101B9000740ECB2574080F390319D91BDF2C0800EC
:101BA0003608043C031D66340D308A0023085A3C75
:101BB000193C031C6C34DF3E03188A0A820013347C
:101BC0009534A8345E2E6C346C34502E6C344A2E0E
:101BD0006C346C3404341B2E6C34012E2F2E202ECA
:101BE000372E532E422E6C34FD2D282E6C346C343F
:101BF0006C342308E1243D30E12CF9256A08FD3ED0
:101C0000DA2CF925DF084E300319E12C3A083B04A1
:101C10006E300319E12C550E55060F39DF1ED5061F
:101C20005430D51C43305F1D2038E1243A08FC00B5
:101C30003B08FD006D2DF92547307F184D30E12C14
:101C4000F9257F0E0739B03E8A11D6258A15E12C79
:101C5000F9253030ED1A31306D1E4130E12CF92577
:101C60005D1E843478305D1B7F30C8248734F925AD
:101C70004430631A5330E31B5230E31A4330631B82
:101C80004930E12CF9256A0EF400F40CF40C6225BD
:101C9000F40C622DF925050D803E6225050D622D9F
:101CA000F925580ED62CF92502308A11D6258A1529
:101CB000FC008A11D4258A15FD006D2DF9254F30C1
:101CC0006D195230E12C3608043C031D663423089C
:101CD000313C013C031C6C340319722ECA015915A6
:101CE0005A15742E59115A118A15DF2CFC01FD0169
:101CF000083AFE00083AFE060310FD0DFC0DF40D37
:0E1D00000318FD070318FC0AFE0B7C2E0800DA
:021D0E0062175A
:101D1000E2138C266213E2170E308A005808E21B89
:101D2000580E0739963E03188A0A8200A12EAD2E5E
:101D3000B02EB02EB02EA12EA12E9E2EF030E21F7E
:101D4000D8056208C0398316850483120800620929
:101D50003F388316850583120800A72685050800ED
:101D6000A726FF3A850408006217E213B92662131A
:101D7000E2170E308A005808E21B580E0739C33E9E
:101D800003188A0A8200080008000800CB2ED22E11
:101D9000E32EE52ED92E0508E21805096205C039A3
:101DA000850608000508621905096205C03985061F
:101DB0000800DB1E0800B8088A116A278A15003857
:101DC0000319DB1208000509E62E05086205C03973
:101DD000031DF02EE21D0800E211FC01FD01FA2EA8
:101DE000E2190800E21502308A11D625FC00D4253C
:0C1DF000FD0001308A1532218A15080020
:101E0000031E08008B138316031360308F002730E6
:101E10008600E730850007309B00E6309D000630E5
:101E20009C00D73081001930990026309800831229
:101E300098171816FF30860081010130E327C2276A
:101E40001030E3278C1E0800C827031D08008317E5
:101E500010308400F001C8270319282F0B3A03190A
:101E6000392F013A0319C82772088000F007840A45
:101E70002B2FF008031D822F031712088D00130863
:101E80008F00143084001108F1000F308A00100810
:101E9000083C083C031C822F8207592F5F2F872F95
:101EA000992FA12FAC2F822F822FED2F0101000F30
:101EB000FF0F56308D000F308F00123084008316D4
:101EC0008C170C140000000083120C088000840A98
:101ED0000E088000840A8D0A03198F0AF10B5F2F08
:101EE00010300402F1000F30C227F00110308400DE
:101EF0000008F007840AB527F10B782F7009013E1E
:101F0000B527C2270313C8270319282F822F84302F
:101F1000D127FC308D050430F40000088C00840AC1
:101F200000088E00840AD527F40B8D2FF10B872F24
:101F3000722F9430D1271F308D04D527F10B992FA4
:101F4000722F83168C010C1483120C088000840AF3
:101F50008D0AF10BA12F702F0430D12700088C00BF
:101F6000840AD527F10BAC2F722FF3000F3A031917
:101F7000BF2F0B3A0319BF2F013A031DC12F0530A4
:101F8000C2277308640003130C1EC42F9900043485
:101F90009818ED2F64008C1ECA2F1A08F2000F3A11
:101FA000080083168C0083120800640083165530E5
:101FB0008D00AA308D008C148C18DC2F83128D0AB2
:101FC00003198F0A013464008C1A08000B1DE32FDB
:101FD0000B11FF3E031DE32F0434031386108316F9
:101FE0008610FF308500860081009B0007309C0032
:101FF00098019901830198018B018A0164000028EE
:02400E00742F0D
:02401000FF3F70
:1042000067000000100000004C003D004600580010
:104210004F004D005000430000000000000000006F
:1042200000000000000041003D004F0070006500EC
:104230006E0054006800650072006D0020004700A9
:10424000610074006500770061007900200035008E
:104250002E00370000005700440054002000720078
:1042600065007300650074002100000054006800C0
:10427000650072006D006F007300740061007400CF
:10428000200064006900730063006F006E006E0020
:10429000650063007400650064000000540068005D
:1042A000650072006D006F0073007400610074009F
:1042B000200063006F006E006E00650063007400F4
:1042C0006500640000004E004700000053004500F8
:1042D00000004E00530000004200560000004E0057
:1042E000460000004F00520000004F004500000053
:1042F0004D0065006400690075006D000000480015
:1043000069006700680000004C006F007700200023
:1043100070006F00770065007200000045007200B9
:1043200072006F0072002000000042003D0031006A
:1043300032003A00320034002000320038002D00F4
:10434000310032002D003200300032003200000017
:1043500043003D00340020004D0048007A0000007A
:0E4360004500430053004C005000420057003F
:1043A000000000000000000000000000000000000D
:1043B00000000000000000000000000000000000FD
:1043C0007400750076007700780079007A007B0031
:1043D00000000000000000000000000000000000DD
:1043E00000000000000000000000000000000000CD
:1043F00000000000000000000000000000000000BD
:046000000034003434
:00000001FF
