:020000040000FA
:080000008A1500278A11FC2B70
:08000800F000030E8301F1007A
:100010000408F2000A08B0008A111108F3008C18D5
:10002000D6260D1B4B2630088A0072088400710EFC
:080030008300F00E700E0900C0
:08003800761B4728761A842389
:10004000402077087B06031DE601FB067F115A1747
:100050009820EC01E11E4F23031932287F1D6119FE
:1000600075280800E11A40207F155A13F8227F1DD9
:100070002F28DA12F700982075285A1B422808000A
:100080007608FA007808B4007908B5000800D91598
:1000900077084D0603196113761E84234F23F61A41
:1000A000761E5C2803195728553980075F28770882
:1000B0008A15AB228A115F28FF3AE01F8005E01302
:1000C000DA17DA188D287F196A2898207F196119A4
:1000D000080075289820DA166119080040305A1F68
:1000E00070303623DA135A1F98207908780677067D
:1000F000F6137606F400F40E7406F400F40CF40C17
:10010000F4060130F418F4067418F6177F18080086
:100110005230761B41308A15FD2C98205030F60065
:100120000430F700AA30F8003908F900DA10752811
:10013000F71BB92B00308A007708A13E03188A0A02
:1001400082003E2975299229C32BA729B029B629F7
:10015000B92BC829D529DB2AE92ADB2AE92AE9298A
:10016000C42BF729C32BC42BC42B272AC42BC42B85
:10017000B92BC42BC32BC42B302A3A2AC42BC42B33
:10018000C42BC42BC42BC42BC42BB92BB92BB92B18
:10019000B92BB92BB92BB92BB92BB92BB92BB92B3F
:1001A000B92B462A502AC42BC42BC42BC42BC42BD6
:1001B000C42B5A2A7B2AC42BC42BC42BC42BC42B7C
:1001C000C42BB92BB92BB92BB92BB92BB92BBE2BFF
:1001D000A12AC42BC42BC42BC42BC42BC42BC42BCB
:1001E000C42BC42BC42BC42BC42BC42BC42BC42B97
:1001F000C42BDB2AE92ADB2AE92AB92BB92BB92B34
:10020000B92BB92BB92BB92BB92BAA2ABE2BC42BCE
:10021000C42BC42BDB2AE92ADB2AE92AB92BB92B08
:10022000B92BB92BC42BC42BC42BC42BC42BC42B6C
:10023000C42BC42BC42BC42BC42BB92BCA2AD02A41
:10024000C42B603027297A08C038F61F7F3976061C
:10025000031D7F15F60600347806031D7F15F8068A
:100260000034F61E08007A1E2129232134082C218F
:1002700035087906031D7F15F9060034761B5529CC
:10028000F2226209EE38ED1EFD39F4000301C41BB1
:10029000E11901386D1A02388316DA1F10388312FB
:1002A000F405FF3A780574042C29F61A0800790839
:1002B000B500413903195912031D591A63295916FA
:1002C0000530CD0061174D30DA2379080839463002
:1002D000DA23790804395730DA23790802394830AB
:1002E000DA23780802394330DA2B761B8E29F22282
:1002F000611D7F197D29C41B08007616C41BE11DF2
:1003000087294208031951082C2143083929030180
:10031000C41F44082C21C41F45083929F61E0800B3
:10032000C4170800761F9A29013034052C2135089E
:10033000392123297818DD16631A080079080B3C47
:100340000319E31B0800E317DD1A63170800761F83
:100350000800AA307802031D080023213908392932
:10036000761BC42B5F1A5F1B0800152A761F080036
:100370000301F61E761AC0297908FC38601BE005D7
:1003800061060339E10623216013780803382C291C
:10039000761BB92B8316DA1B7F19CF29D329761642
:1003A0002C215B08392183120800761F0800DF1911
:1003B000DB29F61E080023215F1E3A082C215F1E50
:1003C0003B0839215F13E31ADF1D08005F1DDA14B3
:1003D0000800761B0800F222D71B7F19F129611D46
:1003E000080076165708D71B64302C213929761B54
:1003F0002329DF195F1B08005F1A152A3B087902C1
:10040000F4003A08031C013E7802031CFF3A031D66
:100410001C2A031CF409E0307405031D1C2A5F1913
:1004200008005F15DF134F30DC2B5F123A083B04E6
:100430000319242A5F1708005F1DDF0A5F1D0800EB
:10044000631B242ABA01BB01DF014F30E82B761F62
:100450000800BF1B312923213E082C213F083929E0
:10046000761B591C0800D918212923213C082C216E
:100470003D083929761B6D1D0800611A21292321A9
:10048000031730082C21310803133929761F08007F
:100490006012F61AC42B7808CF007908CE00C42B5E
:1004A000761F0800E012F61AC42B7808D1007908EC
:1004B000D000C42B761B682AC008761E601803196A
:1004C00008001030272140082C21410839213834F8
:1004D0006010F61E3D28761E742A23214008031959
:1004E0004F082C2141083929C00803190800C00110
:1004F000C1010F309B2A761B892AC208761EE0189C
:10050000031908001030272142082C214308392103
:100510003934E010F61E3D28761E952A2321420824
:10052000031951082C2143083929C208031908006E
:10053000C201C3011130FC01FD018A1565228A1137
:1005400008000310460C7F1D0318761B0800761662
:1005500039212C29761F0800DF19B02AF61E080061
:10056000DF1AD50E7F11C4237F19BD2A2321550E12
:10057000033939216A1B79082C21631BDF1EC82A25
:10058000550E5506031D5F1BC82A5F16DF155F1742
:10059000DF120800761F0800232103302C2139299F
:1005A000761FE31F080063137808143C0319E31651
:1005B000031C63170800761F08007F19DA1FC42B7D
:1005C0007808F61E03190800E700770ACD006117C6
:1005D0000800761FBE2B7F19E80A67086802031C13
:1005E00061170800761B08004F23FF3A80050800BA
:1005F0000030F600F801F901E0080319192BB101E8
:1006000009235023031D072B3109E005FC2A750837
:1006100008003117601B06343116601A3034B116E9
:10062000E01A313431146018612AB114E018822ABA
:100630000034611F202BE0176808F8004D080800FF
:10064000E0014C08031D3F2B5A1A352B2030FE00C9
:10065000DA1AC90A49081F39E03E8A11DB258A11D6
:10066000031D0800FE0B292B5A167F117A04F60091
:100670003408F8003508F9007B08F700080010304E
:10068000F6007430FE00F4010314472BFE0AF40D4B
:1006900074084C050319462BCC067E080800770821
:1006A000F500750CF400740C1F39BA3E8400F51B7C
:1006B0000034033075180C30F400F518F40E0009FE
:1006C0007405F40E740E0800C334C1348F349F34A3
:1006D0000234003403340334C03420340034003492
:1006E00000340034F0340F340034043407340C3454
:1006F0001234133413341534173419341A341A34A9
:100700001A341A341A341E34770D031CF61A0800F2
:10071000F400740E0F39F40077080739FE00FE0A62
:10072000AA237406F4067406B10103100318B10A73
:10073000F40CFE0B962B031C0800B123B107310DFE
:10074000103E8400831778088000840A79088000AE
:100750008313080003308A007408643E03188A0A71
:100760008200F40003308A007408743E03188A0A79
:100770008200DA1B7F1D761F0800CA2BDA1B7F1D43
:10078000761F0800C92BF222DA1B7F1D761F080096
:10079000B401B50177088A155A238A11031D080090
:1007A000232183170008350439218413000883139B
:1007B00034042C290319E82B5F3E84000014FE301A
:1007C000000503195434FF3A8605F938E20554341C
:1007D0005F3E840000100008031942348604063985
:0407E000E2044234B9
:0C07E4009A08E91AF82BE901D12C6B14DB
:1007F000EB148A1500278A110313831286018316CE
:1008000060308F0007309B00E7308500273086007E
:1008100003300E0640308E185030831203196B0ED1
:10082000031E6030FF00031EFF15831603308E0089
:1008300019309900181518129816D5308100F93022
:1008400092008312003092008E018F0131309000AF
:1008500098019817FF1D322C2B308A15D2248A114B
:100860006119FF1120300025A030002583171030BA
:100870000025BF17C417D71781010B1164000B1D8A
:100880003E2CFF1D181641309F000030DB25EA008A
:10089000E03883169D00DA170E30DB25ED008A154F
:1008A000E5228A11D925C000031D6014D925C10095
:1008B000D925C200031DE014D925C30083160D17E6
:1008C0008C141C0983010D13C039DB00FF30860036
:1008D0005B1BF739DB1BEF3985000B17FF1D8B17EF
:1008E000C9097030E0041430CE005030CF000A3017
:1008F000D0005A30D1003D30D3000D30DB25E3006D
:100900001030FE00FC01D030B1003108DB25FD00C5
:100910007C08FD080319972CFC000310FD0C031C38
:10092000952C8A1150238A1180047C0A892C073067
:10093000FC04FC0AB10AFE0B852C15308A15D22462
:100940008A11F4010630DB258A15D4208A11F40AB5
:100950000730DB258A15D4208A11F40A0830DB25FC
:100960008A15D4208A11F40A0930DB258A15D4208F
:100970008A11F40A0A30DB258A15D4208A11F40A78
:100980000B30DB258A15D4208A110130DB25D800F5
:100990008A1588268A11FF1DD12C4D308A11DC233F
:1009A0008A116400CB08031DBD25FF19D12C5A18EC
:1009B0002025DD184D250B1960250C1886250C1BEC
:1009C000E5258A15B5268A115919A825661BF72B26
:1009D0008C1ED12C1819F22B981CF12C18121816F9
:1009E000D9160825DA1DD12C8A150020B601DA1196
:1009F0008A150038031DC924D3248A114925D12C16
:100A000084008001840A04097039031D012D080047
:100A10003608203E84001A08DA19080080000A3AD5
:100A200003190800073A03191A2D3608013E831CE2
:100A3000B6000800B608031908008001DA1508009E
:100A40008A15FA248A115A108A111C208A117F18DB
:100A5000322D611D342DDB1677087B06031D492DD1
:100A6000D40A5412E601492D0130DC00DB155B1677
:100A700058308A11DC23761F4230DC23DD11761BCF
:100A8000DD152230B80083168C148312F9309100E2
:100A900012158A1514258A110800DD105D1A5D1FD4
:100AA000552D5608803C031C08005D085E06503931
:100AB00003190800DE068A153126D2248A1108009F
:100AC0000B11D30B6E2DD919E60AE1173D30D30077
:100AD0006C0FEC0005306C0203188511E91EE90A61
:100AE000121D1F158A15FF18E3228A1564090319C0
:100AF000E401E408031D09258A11E508031DE50B3F
:100B0000080045308A11E8238A1108000C10D21F12
:100B10009425DF195F1908008030DF065F054F302C
:100B20008A11DA238A110800D203D21F0800DC30B0
:100B30008400001CBF17801CC4178316001DDA1721
:100B400083128A1507308005031DAA218A11080027
:100B50004B083C3C031C08008A1521258A112230D1
:100B60004A020318B82D2C308A15E2248A11080095
:100B700059118A15D3248A1108000C1E0800370861
:100B8000903E84008317000883139900B70A503001
:100B900037060319B701CB030800031783168C1C13
:100BA0000800831203138C1ECD2DF500082575084F
:100BB000CD2D03170D0ACD258C0183128D008316D0
:100BC0000C1483120C08031308000C131E0856069D
:100BD000D60656065602031C003CFC39031D1B2E8C
:100BE0005608803C031C052E7A3C031C032E611D15
:100BF0000800343C031C1D2E6111E1114E308A1592
:100C0000D2248A110800E115062EE11161191D2E6A
:100C1000611536308A15D2248A1112118030DD0513
:100C20005B17631EE301DF01BA01BB0150308A117B
:100C3000E8238A110800611D08007F1CE11F0800DD
:100C40000030F600F801F901FA01E1123226F7004E
:100C50008A1121208A11761A84237708FB00E11378
:100C60008A11342D06308A005408393E03188A0A46
:100C70008200003419340134492E11341B341C34E1
:100C80000E34492E00341934013438343934492EA5
:060C90001234E1160034ED
:0A0C96005D0983161C0683120D137E
:100CA0005B06C039DB06611980390038031908007A
:100CB000403903195D1D5F2EFF30E4000800031D5D
:100CC0005D19672E5D15B80803195B1A822EB808E6
:100CD0000319A32E03305C02031C472F5B0D5D1923
:100CE000803EB80B902E03184C2F5B18502F5A14CF
:100CF0008A115230E8235430E823E8238A115D1129
:100D00001211A02EB8015B121830DD1B0830050649
:100D1000183985068A115830E823E8238A11992E5C
:100D200001300318DB06F90DF80DF70DF60DF90685
:100D30005B11DC01730891020630031C91028C10D8
:100D40006430810008001219B02EE408031DA02EA3
:100D5000273091001215DC0183168C148312A02E0B
:100D60000A305C020318C82E5B0D5D19803E031823
:100D7000A02EDC080319802E8A115230DC235D1D61
:100D80004230DC238A112130B8005B105B11992EB0
:100D900032305C020318992E5D195D1E992E5D1B81
:100DA0005B1F992E4030DD06DB06992E8C10DC0A85
:100DB0005B1AEE2EB808031DEB2E5C08143C0319D9
:100DC000182F50305C02031C080012115D115D18D1
:100DD000DD145D100800DC194E2F08005C180800B7
:100DE000B8080319092F5D09DB19183A0506DD1D3E
:100DF0000839DD1910398506DC18152FDB110314AD
:100E0000F90DF80DF70DF60D0318DB15DC01B8032D
:100E1000080012115B12DD19DB168A115830E82325
:100E20005430E823E8238A1108000830DB06080064
:100E30005B0D5D19803E031C080040305D1D803055
:100E4000DD06DB065D1D3A2F5D147F18362FDD1E93
:100E500008005D0950390319080010308506DD06C9
:100E60005D0550308A11DA238A1108005D11DB1FFD
:100E70000800992E7F1C0800DD1B10305D0610391C
:100E800003190800DD065D14302F5B15A02E5B19D9
:100E9000EA1A452F0130512F0230512F0330512FC4
:100EA0000430E4080319E4005B0D5D19803E031C67
:100EB0001211B801DC015B128A115830E82352305C
:100EC000E823E8235430E8238A11640903196E2FBC
:0E0ED00045308A11DC238A117A30E500A02E0D
:020EDE00031DF2
:100EE000862F07308A006E081F397A3E03188A0A57
:100EF000EE0A8200892FED2F952F0034892FEB2FDA
:100F0000982F892FED2FA52FA72FAB2F0314C227C2
:100F10000034851383168513C6278316851783121D
:100F2000C927851B862FC72701344430EE2700349C
:100F3000DA277408103A03190134EE17383A031906
:100F400001340A3A03190134862FBE30EE2FDA2716
:100F50007408EF000134DA27EE1BB42F740C6F0C09
:100F6000FC00FD01FD0CBE2F6F0EF039FD00740E6C
:100F7000F039F4006F0E0F397404FC00553A031970
:100F8000862F03108A15D021EE010134C727E830DF
:100F9000CA2F363083168C10120283120A3E91003B
:100FA00012158C1CD12F12118C100800D827D827AD
:100FB00000000800DB27DE27DE27DE2785138316E7
:100FC0008513031085178312D727851B0314F40C90
:100FD0002D30CA2708003330EE2FCC30F400F02734
:100FE000F327F327F327F40C8513831685130318CF
:0E0FF00085173230CA27831685178312013405
:10100000D91A402804303602031C663422083D3CBD
:10101000031D663420088A15E2242108E2243A30B0
:10102000E2242030E22408308A0020082106F4005F
:10103000E039031DA62C7408203E03188A0A82009A
:1010400042284D2855285D2862286A28F1287228F0
:10105000BA28BA28BA2879286334BA28BA28BA280C
:101060007E288928912863349628633463349B282A
:10107000633463346334A028A828AD286334B528CA
:10108000D91275342008543A03192B29153A03193B
:10109000882A0C3A0319052B63342008523A0319A5
:1010A000B62B013A0319172B63342008503A031961
:1010B000132B1B3A03197A2B63342008503A031977
:1010C000152B63342008563A0319462A053A0319AA
:1010D000672963342008443A03199F2A123A0319F6
:1010E000B429F12820084F3A0319B12B1B3AFB2AE7
:1010F00063342008433A03193F2A63342008533AE3
:101100000319F129143A0319D02A043A03199B2927
:1011100063342008433A03194D2B103A03195F2911
:1011200063342008463A0319B82A63342008443A45
:101130000319E72963342008543A03192629633434
:1011400020084F3A0319C3291C3A03198129633433
:101150002008553A0319662B63342008493A0319CD
:10116000A42B193A0319E02B63342008483A0319D9
:101170002F2A633420084C3A031D63343608043C9C
:10118000031D66342308F4005A3C193C031C6C34DC
:1011900041302102063E6F2223088A15E2248A1577
:1011A00041302102F4002308FC000830F4184030DC
:1011B00074190230B10003107418B10DA03084000E
:1011C0001A30FE0031098005840AFE0BE3287C08F2
:1011D0005F3E8400310880047C08001C03158A11DE
:1011E000DA2B2008473C031D63343608043C031DFA
:1011F000663430302302F400F839031D6634F030D1
:10120000211808295805703C03195910F40E0F30A5
:1012100058057404D800F40001306F226217E213FD
:10122000C030211CE2068A158D265808211C580E54
:1012300007398A15E02C03103608043A031D66347A
:101240002308313C013C031808006C343324031894
:10125000080001302F2933240318080003303121FE
:10126000CE2955060F39D5060030631F3C293A08B0
:101270003B04031D5F161030DF057D08BB007C08B2
:10128000BA00DF155F17DF16B901E31ADA143B0461
:1012900003195B29E31E08003A087F247D08B90082
:1012A0003B087F247C08B907FD1BB90A3A08FC00FB
:1012B0003B08FD0008005F165510D51008003324C8
:1012C000031808000319663402306522CE2937243A
:1012D00003180800031976294E08A124031C6C3456
:1012E0004F08A124031D031C78296C3460107A294F
:1012F000611860147D08C1007C08C0000F306522B1
:10130000CE29372403180800031990295008A12476
:10131000031C6C345108A124031D031C92296C3456
:10132000E0109429E118E0147D08C3007C08C20095
:1013300011306522CE29252403180800C4007D0839
:10134000C5007C040319A829AA21031C8014CE29F6
:10135000C417CE29520DD21F0800DC308400FE30A5
:1013600080057830D2000800EE230318C1298008D8
:10137000031D6634643C031C7234740DC6008A1568
:10138000842DC601CA2937240318C929FC1F7C1FD4
:10139000CD2959102D308A15E22CD7218A156C2DB4
:1013A00030306D1DD7296116031C6112DE295914D6
:1013B000D914031CD9103C30DF212E308317840050
:1013C0007C088000840A7D088000831308003608AA
:1013D000053C031D6634082403180800C7008A155D
:1013E000D72CEE2303180800BE00173C031C7234F0
:1013F00000083A3C031D6634840AEF230318663460
:10140000BF003B3C031C723400082F3C031D6634B4
:10141000840A30300002031D031C6C34F400F839D8
:10142000031D6C34840A8008031D6634F40E031017
:10143000740DBE04AA21031C00147830D2003E08AB
:101440001F39F4008A1592253F08F4003A3091259F
:101450002F30E2243E0EF400740C0739E02C3608DD
:10146000043C031D66346D12ED122308313C031950
:10147000ED16FE3903196D165C228A152A2E1B21E2
:10148000031C080062100319621419293608043C71
:10149000031D66342308393C093C031C6C34033EAD
:1014A000F400E03883169D008312E0306A0574046E
:1014B000EA006D228A15FF2D6D08F4000E306F2AA8
:1014C0008A11CD258A158312080060228D007C08C0
:1014D000722260228D0A7D08722AF4000030602298
:1014E0008D007408031783160C1483120C0603195D
:1014F000852A8C0683160C158B1355308D00AA3067
:101500008D008C148B170C1183120C080313080028
:10151000EE2303180800031972348008031D663493
:101520005A12E0308A11DB258A1503199C2A031709
:101530000D0F922A0313693471228A15832DEE232D
:1015400003180800031972348008031D6634AB22A7
:10155000031D0800BF29F400E0308A11DB258A153D
:1015600074060319722A03170D0FAD2A03136F3483
:101570003608043C031D6634E3012308433A03198B
:10158000E3160A3A031963171A3A03196316E308B4
:10159000031D63166308F4000D306F228A15392E7F
:1015A0003608043C031D66341B21031CF12A6D140C
:1015B000ED067F060139031DE12AFF14E322FF181F
:1015C000A3005C22AF2B121950347F106D1CFF1941
:1015D0007F1403307F18063083169C008312FF109F
:1015E00008002308523C031D6C346B1486108316CC
:1015F00086108A11002823084F3A031D1D3A031D47
:101600006C346D11231C6D15E12AEE230318112B88
:101610008008031D6634643C031C7234643CD700AC
:101620009D2AD717CA298A15D12D8A15642EEE2333
:101630000318080003196C34F5003A300002031D4A
:101640006634840AFC01EF2303180800800803199C
:10165000352BFC002C300002031D6634840AEF2376
:10166000031808008008031D6634FD0075085A231E
:1016700003193E2B03015A23031D693483177D0888
:10168000800084137C088000831384177508800011
:101690008A1583253A30E2247E2DEE2303180800B4
:1016A00003196C348008031D66345A23031D6F34FC
:1016B0008001BF29F400E03084000008740603199B
:1016C000080001308407831C5D2B0034EE230318CF
:1016D0000800031DFC00FC1B6C348008031D6634ED
:1016E0008A1150238A1580047C088E237404722288
:1016F0007C089D2AEE2303180800031DFC00FC1B38
:101700006C348008031D66348A1150238A15FF3A11
:1017100080057C088E23F4097405772B9823F50E39
:10172000750D750D1F39D03E8A11DB258A1508000D
:101730000310F5000130F5180430F4007518F40DAD
:101740007519F40E740808001B21031C08002030D2
:101750002318EA04FF3A231CEA056A086D222308CD
:10176000CB291B21031C08004030A82B3608063C5F
:10177000031D66340130F4002308483A0319C62BD0
:101780001F3A031D66340430F40012302406423A36
:101790000319CF2B123A031D66340310F40D2508EC
:1017A000533A0319D72B1B3A031D6634F40E740801
:1017B000CC0423088A15E2242408E2242508E22C1C
:1017C000EE23031808008008031D6634CD0061175E
:1017D000E701E8019D2A233084000800EB2300087C
:1017E000393C093C031C7D2CF400840A0008393C78
:1017F000093C031C062CB1001A3074020318723421
:1018000074088B243107031CF42B7234740808000D
:10181000EB23122403180800F400F40E1224031C16
:101820007404080030300002031C7D2CF63E031CBB
:10183000212CDF39F93E031C7D2CFA3E0318663457
:10184000063E0A3E840A031008003324831403185A
:1018500008009C3E8310031C762C031D7234FD0887
:10186000031D7234762CEB2300082D3C3D2CEB231A
:10187000591700082D3C0319402C5913023C031939
:10188000840AEF2303180800FC0100080319632CE5
:101890002E3C031D7D2C0730FE00840A000803192E
:1018A000632C393C093C031C7D2C7E198B24FE18CB
:1018B000FC070310FE0CFE080319031C4D2CFB3E15
:1018C0000318FC0A4D2C591F6C2CF409FC08031951
:1018D0007B2C7C08643CFC00FD0191240318F40A75
:1018E000B208031D013EFD007408FC007C080319CA
:1018F000FD0803100800F40A6C2C03146634FC0184
:10190000FD0087248724FD070318FC0A0800031044
:10191000FD0DFC0D0800B200B207B20DB207320D8A
:1019200008001030FE00B101B201FD0DFC0DB20D3A
:10193000643032020318B200B10DFE0B952C310851
:1019400008007C02031D0800FD0808002108323A47
:10195000031D63342008433A0319B82C0B3A031DC6
:1019600063341B21031C0800621203196216192933
:101970002524031808008316DA007D08DB007C04A8
:101980000319C62C5C158312AA21CE29DA178312FB
:02199000CE295E
:0E1992008A11DB258A1503190800E2240317C9
:1019A0000D0AC92CC9240D30E2240A30E22CF500BE
:1019B000750EDB2475080F39F63E0318073E0A3E04
:1019C000D917303ECB0803190C1EE82C99000034BF
:1019D000840037084B07B03E031C503E903E04067F
:1019E000840604068317800083134B08503A031DB6
:1019F000CB0A00345430761B42305A190800E224D6
:101A00007608D7247708D7247808D7247908D724EC
:101A1000D32CDD1808008E30C9246408D724D324C1
:101A20004530641CFD24E4014708031908008400C4
:101A30000008F4004708D7243D30E2247408D72476
:101A4000D32C4A084A07103E840083170008FC0084
:101A5000840A0008FD0083130D308A004A08CA0A70
:101A6000343E03188A0A8200562D6E2D562D6E2D97
:101A70006E2D6E2D7E2D6E2D6E2D6E2D6E2D6E2D7E
:101A80006E2D6E2D6E2D6C2D6E2D6E2DA22D7E2D3C
:101A90007E2D6E2D6E2D562D822D822DA42DA42DE2
:101AA000A42DA42DA42DA42DA42DA42D7C085B254C
:101AB0002F30E2247D08F4000830FE00F40D632589
:101AC000FE0B5E2D0800140DE02CFC09FD09FD0A3B
:101AD0000319FC0A2D30E22CFC1B65257D0F722DAD
:101AE000FC0AFD017C0883256430F4007D0877261C
:101AF000FD1BFC0A7C08F4002E30912D7C08832508
:101B00002F30E2247D08F4007408D9139C3E031C96
:101B1000932DF4009C3E031C902DF4003230912D47
:101B20003130E224D917FE017408F400F63E031C9C
:101B30009B2DFE0A952D7E080319D91BA02574083C
:101B4000D917E02CFC1B65251030FE00B101B20155
:101B5000B301B02D3308C125B3003208C125B2004E
:101B6000FD0DFC0DB30DB20DB10DFE0BAA2DD91359
:101B70003108C8253208C8253308C825D91B0800F4
:101B8000E02C333EF400F41DFD3EF41FD03E08006F
:101B9000F400740ECC2574080F390319D91BE02CFE
:101BA00008003608043C031D66340D308A00230803
:101BB0005A3C193C031C6C34E03E03188A0A82002C
:101BC00013349534A8345F2E6C346C34512E6C343D
:101BD0004B2E6C346C3404341C2E6C34022E302E9C
:101BE000212E382E542E432E6C34FE2D292E6C348B
:101BF0006C346C342308E2243D30E22CFA256A0868
:101C0000FD3EDB2CFA25DF084E300319E22C3A08A2
:101C10003B046E300319E22C550E55060F39DF1EBA
:101C2000D5065430D51C43305F1D2038E2243A08D5
:101C3000FC003B08FD006E2DFA2547307F184D3023
:101C4000E22CFA257F0E0739B03E8A11DB258A1572
:101C5000E22CFA253030ED1A31306D1E4130E22C85
:101C6000FA255D1E843478305D1B7F30C9248734AB
:101C7000FA254430631A5330E31B5230E31A4330E1
:101C8000631B4930E22CFA256A0EF400F40CF40CC4
:101C90006325F40C632DFA25050D803E6325050DA3
:101CA000632DFA25580ED72CFA2502308A11DB2530
:101CB0008A15FC008A11D9258A15FD006E2DFA259A
:101CC0004F306D195230E22C3608043C031D663447
:101CD0002308313C013C031C6C340319732ECA01E8
:101CE00059155A15752E59115A118A15E02CFC01F7
:101CF000FD01083AFE00083AFE060310FD0DFC0D3A
:101D0000F40D0318FD070318FC0AFE0B7D2E0800D6
:101D10006217E2138D266213E2170E308A0058080C
:101D2000E21B580E0739973E03188A0A8200A22E3A
:101D3000AE2EB12EB12EB12EA22EA22E9F2EF0309D
:101D4000E21FD8056208C039831685048312080093
:101D500062093F388316850583120800A826850589
:101D60000800A826FF3A850408006217E213BA2685
:101D70006213E2170E308A005808E21B580E07392A
:101D8000C43E03188A0A8200080008000800CC2E0E
:101D9000D32EE42EE62EDA2E0508E2180509620598
:101DA000C039850608000508621905096205C039B1
:101DB00085060800DB1E0800B8088A116F278A15FF
:101DC00000380319DB1208000509E72E0508620533
:101DD000C039031DF12EE21D0800E211FC01FD01D6
:101DE000FB2EE2190800E21502308A11DB25FC0007
:0E1DF000D925FD0001308A1531218A15080021
:101E0000031E08008B138316031360308F002730E6
:101E10008600E730850007309B00E6309D000630E5
:101E20009C00D73081001930990026309800831229
:101E300098171816FF30860081010130E327C2276A
:101E40001030E3278C1E0800C827031D08008317E5
:101E500010308400F001C8270319282F0B3A03190A
:101E6000392F013A0319C82772088000F007840A45
:101E70002B2FF008031D822F031712088D00130863
:101E80008F00143084001108F1000F308A00100810
:101E9000083C083C031C822F8207592F5F2F872F95
:101EA000992FA12FAC2F822F822FED2F0101000F30
:101EB000FF0F56308D000F308F00123084008316D4
:101EC0008C170C140000000083120C088000840A98
:101ED0000E088000840A8D0A03198F0AF10B5F2F08
:101EE00010300402F1000F30C227F00110308400DE
:101EF0000008F007840AB527F10B782F7009013E1E
:101F0000B527C2270313C8270319282F822F84302F
:101F1000D127FC308D050430F40000088C00840AC1
:101F200000088E00840AD527F40B8D2FF10B872F24
:101F3000722F9430D1271F308D04D527F10B992FA4
:101F4000722F83168C010C1483120C088000840AF3
:101F50008D0AF10BA12F702F0430D12700088C00BF
:101F6000840AD527F10BAC2F722FF3000F3A031917
:101F7000BF2F0B3A0319BF2F013A031DC12F0530A4
:101F8000C2277308640003130C1EC42F9900043485
:101F90009818ED2F64008C1ECA2F1A08F2000F3A11
:101FA000080083168C0083120800640083165530E5
:101FB0008D00AA308D008C148C18DC2F83128D0AB2
:101FC00003198F0A013464008C1A08000B1DE32FDB
:101FD0000B11FF3E031DE32F0434031386108316F9
:101FE0008610FF308500860081009B0007309C0032
:101FF00098019901830198018B018A0164000028EE
:02400E00742F0D
:02401000FF3F70
:1042000067000000100000004C003D004600580010
:104210004F004D005000430000000000000000006F
:1042200000000000000041003D004F0070006500EC
:104230006E0054006800650072006D0020004700A9
:10424000610074006500770061007900200035008E
:104250002E0035000000570044005400200072007A
:1042600065007300650074002100000054006800C0
:10427000650072006D006F007300740061007400CF
:10428000200064006900730063006F006E006E0020
:10429000650063007400650064000000540068005D
:1042A000650072006D006F0073007400610074009F
:1042B000200063006F006E006E00650063007400F4
:1042C0006500640000004E004700000053004500F8
:1042D00000004E00530000004200560000004E0057
:1042E000460000004F00520000004F004500000053
:1042F0004D0065006400690075006D000000480015
:1043000069006700680000004C006F007700200023
:1043100070006F00770065007200000045007200B9
:1043200072006F0072002000000042003D00320069
:1043300031003A00320033002000310032002D00FD
:10434000310030002D003200300032003200000019
:1043500043003D00340020004D0048007A0000007A
:0E4360004500430053004C005000420057003F
:1043A000000000000000000000000000000000000D
:1043B00000000000000000000000000000000000FD
:1043C0007400750076007700780079007A007B0031
:1043D00000000000000000000000000000000000DD
:1043E00000000000000000000000000000000000CD
:1043F00000000000000000000000000000000000BD
:046000000034003434
:00000001FF
