:020000040000FA
:080000008A1500278A150A2861
:08000800F100030E8301F20078
:100010000408F3000A08B0008A151108CA008C18F9
:10002000F5230D1B6A2330088A0073088400720EC2
:080030008300F10E710E0900BE
:041000000034003484
:0C1004006400061D022898011A088A15D5
:1010100000278A1503138312860105168316603094
:101020008F00E730850027308600FF01D530810032
:10103000F93092008312003092003130900081012B
:101040000B1164000B1D2128033083169C00073010
:101050009B001930990018151812981683129817CA
:10106000181641309F00203084005030FE00803040
:10107000800184068001840AFE0B382800301A2182
:10108000CD00E03883169D000D178C148301831664
:101090001C0983120D13C039C700FF30850086007C
:1010A0000B178B173D30C0000A308A15B5248A15FE
:1010B0000230B40005301A218A1555228A15B40D64
:1010C00006301A218A1555228A15B40D01301A21CD
:1010D0008A1555228A15B40D02301A218A15552217
:1010E0008A15B40DB40D03301A218A1555228A15BC
:1010F000B40D04301A218A1555228A156400BF08E0
:10110000031DFD204418BD20C41AC2200B19D9208C
:101110000C1B2821181902288C1AA7207E283B08AE
:10112000203E84001A08441A080080000A3A031975
:101130000800073A0319A1283B08013E831CBB00A5
:101140000800BB0803190800800144160800981C19
:10115000AC28181218167F168F20441E08008A1516
:10116000C321BB0144128A15FF3A0319BB28FF3A79
:10117000031D9F24B6248A1508008A15DA248A15CF
:1011800044100800C4125421C71E08006A30471ECC
:10119000D4285E30471FD1284108803C031C08003A
:1011A00065308A159F246D308A15B5248A15C712BB
:1011B00008000B11C00BE1283D30C000C20B080035
:1011C0008511121D1F15C71CEE28C7104030471D82
:1011D000803045050319EE28C706C5068A154B0958
:1011E0000319CB01CB08031DF3248A15CC08031D7A
:1011F000CC0B08004530B52108000C1E08003C0847
:10120000A03E840000089900040880008013BC0AF6
:1012100030303C060319BC01BF03080083160317D6
:101220008C1C0800831203138C1E0E29F5008F20DE
:1012300075080E290E218C01831203178D00831669
:1012400003170C14831203170C08831203130800EE
:101250000C131E084106C10641064102031C003C56
:10126000FC39031D08004108803C031C4229410849
:101270007A3C0318C41C0800C4103A308A15B524FF
:101280008A150800C4180800C41422308A15B52431
:101290008A151211C71283161C0E83124506C03917
:1012A000C5068830C7050800C808031D0034491862
:1012B0008029C91F0034121D6329440E7D06403960
:1012C000031900341211C817C9130130C600C5151F
:1012D00045165830B22154307D1F4230B2210830BB
:1012E0007D1B1030BE002230BD00F9309100121578
:1012F00005307D1FC2008A15E724B6248A15003404
:101300001219003449081F39C906C8001E390319CB
:10131000A129C8189B2948199529481A9929C81D37
:101320000034C80144151030A529C71FA329C719C7
:10133000AB29C801A329C71FA329C71DAB29C9060B
:10134000C810C71FAB29441108309101121585063A
:10135000C706C6010034C80159298F3E8400080021
:101360000319B529AD210014B729AD210010E430CF
:101370000406D8300018003003194F09060600058E
:06138000D83986060800C2
:0A1386007F1A052A04303B02031C05
:10139000523422083D3C031D0F2B09308A002008DF
:1013A0002106F400E039031D4F3420088A15C424B7
:1013B0002108C4243A30C4242030C42409308A00CF
:1013C0007408E53E03188A0A82004F344F34072A16
:1013D0000C2A112A4F344F344F342A2A4F344F34B9
:1013E0004F344F342A2A2A2A2A2A162A4F344F34B5
:1013F0004F341B2A202A4F344F344F344F344F344C
:101400004F344F34252A4F344F347F125B34200839
:10141000503C0319742A4F342008533C0319DF2A27
:101420004F342008563C0319812A4F342008473C8A
:101430000319012B4F342008443C0319762A4F34FA
:101440002008453C0319D52A4F342008493C03198C
:10145000C72A4F3420084C3C031D4F343B08043C42
:10146000031D523441302102B9000830B918403010
:10147000B4003918B407692203185B2A2308F40062
:101480005A3C193C031C55343908013E9922230863
:101490008A15C4248A15D03084001A30FE0034091D
:1014A0008005840AFE0B502A23088F3E84003408EE
:1014B00080048A15B72923088A15C4248A1534089C
:1014C0004F06231C34063405CF06E43084008A1509
:1014D000B72903103B08043A031D52342308313C5A
:1014E000013C0318080055348A15012D3B08053CC2
:1014F000031D5234472303180800840000088A158E
:10150000BA2C3B08043C031D52342308393C093CE7
:10151000031C5534033EF400E03883169D0083120B
:10152000E0304D057404CD0097228A151B2DF40080
:1015300000308A150E218A15831203178D00740856
:10154000831603170C14831203170C060319B42A0D
:101550008C06831603170C158B1355308D00AA309B
:101560008D008C148B170C11831203137408080060
:101570000310F5000130F5180430F4007518F40D6F
:101580007519F40EF50E750D750D1F3908006922D9
:10159000031C080020302318CD04FF3A231CCD057E
:1015A0004D08972223088A15C42C6922031C0800C1
:1015B000031D47140319471023088A15C42C3B0840
:1015C000043C031D523423084C3A0319FA2A013A09
:1015D0000319F92A053A0319F72A1C3A0319F52ABF
:1015E000163A031D55341030FA2A0830FA2A04300E
:1015F000FA2A0230C904491423088A15C4248A151A
:1016000054293B08043C031D52342308523C031D5B
:10161000553403138610831686108A1100283B0860
:10162000083A031D52342030840048230318080070
:10163000FD00482303180800FC0048230318080095
:10164000FB00482303180800FA00C9178A15542123
:10165000FF342330840008000008393C093C031C97
:10166000452BF400840A0008393C093C031C432B39
:10167000B2001A3074020318583474086423320715
:10168000031C312B583474080800031452342923E6
:10169000512303180800F400F40E5123031C7404B2
:1016A000080030300002031C452BF63E031C602B63
:1016B000DF39F93E031C452BFA3E03185234063E2F
:1016C0000A3E840A03100800B300B307B30DB30742
:0416D000330D0800CE
:0C16D400470983161C0683120D134506FF
:1016E000C03903190800C506C03A031D4419C03AA1
:1016F0004413C413C4041219872BC430441FC406F6
:10170000C7101E3091001215C601C415BC2B441B16
:10171000902BC8080319C419BC2BC430C406C710C9
:10172000BD080319C52B03304602031C752C450D5B
:101730004419803EBD0BAC2BC411C60103187A2C92
:1017400045187F2C44148A155230B5215430B521E8
:101750004230B5218A15BC2B01300318C506F60DA1
:10176000F70DF80DF90DF6064511C6014A0891026C
:101770000630031C91028C10C41F0800B230810097
:10178000C7144711441D471508000A3046020318C4
:10179000DE2B450D4419803E0318BC2BC6080319E7
:1017A000F22B8A155230B221423044195430B22102
:1017B0008A152130BD0045104511B52B4818080089
:1017C000323046020318B52B450D4419803E031CE8
:1017D00008004030441D8030C706C5060800C71AFF
:1017E000B52BBC2B1211C411BC2B8C10C60A451A88
:1017F000FF2B3D080319262CC6197C2C080046181F
:101800000800BD080319182C0301C51D1830470630
:1018100005063E058506C618232CC5110314FA0DCE
:10182000FB0DFC0DFD0D0318C515C601BD03080019
:10183000C81345128A155830B5215430B5214230AD
:10184000B5218A1508000830C50608004608EC3E98
:1018500003193A2CEC3E0319552CEC3E0319692C64
:101860004608B03E031C08001211C4164411C801FA
:10187000C4110800450D4419803E031C0800403087
:10188000441D8030C706C5064419471C0800C7160A
:10189000470950390319080010308506C706470567
:1018A00050308A15B0218A150800481C0800C51F51
:1018B000662C8030C706C506C81C632C0830C706D6
:1018C0008506C601C810481148100800C71F5E2CC5
:1018D0000800481C0800481DC81808000830C70642
:1018E0008506C6010800451508004519CD1A732C58
:1018F0000130802C0230802CCE000330802C04304C
:10190000CB080319CB00450D4419803E031C12116E
:10191000BD01C60145128A155830B5215230B52196
:101920004230B5215430B5218A154B0903190800FE
:0E19300045308A15B2218A157A30CC000800A5
:02193E008A1508
:101940000E218A15831203178D00AA2CC42483123A
:1019500003178D0A831603170C14831203170C0840
:1019600083120313031DA62C08009F240D30C424EA
:101970000A30C42CF500750EBE2475080F39F63EEA
:101980000318073E0A3E303EBF0803190C1ECA2C3E
:101990009900003484003C083F07D03E031C303ED1
:1019A000A03E04068406040680003F08303A031D6A
:1019B000BF0A00345430791B4230C4247908BA2459
:1019C0007808BA247708BA247608BA24B62C52309C
:1019D0007D1B4130C4247D08BA247C08BA247B08CE
:1019E000BA247A08BA2CC71A080074309F244B080E
:1019F000BA24B62445304B1CDD24CB010800070D6A
:101A0000C32C3B08043A031D52342308413A0319FE
:101A10000834153A0319142D023A03191A2D5534B6
:101A20002308C4243D30C42C10254D0EF400F40CC2
:0C1A3000F40CFF2C10254D08FD3EBE2CD0
:101E0000031E08008B138316031360308F002730E6
:101E10008600E730850007309B00E6309D000630E5
:101E20009C00D73081001930990026309800831229
:101E300098171816FF30860081010130E327C2276A
:101E40001030E3278C1E0800C827031D08008317E5
:101E500010308400F001C8270319282F0B3A03190A
:101E6000392F013A0319C82772088000F007840A45
:101E70002B2FF008031D822F031712088D00130863
:101E80008F00143084001108F1000F308A00100810
:101E9000083C083C031C822F8207592F5F2F872F95
:101EA000992FA12FAC2F822F822FED2F0101000F30
:101EB000FF0F56308D000F308F00123084008316D4
:101EC0008C170C140000000083120C088000840A98
:101ED0000E088000840A8D0A03198F0AF10B5F2F08
:101EE00010300402F1000F30C227F00110308400DE
:101EF0000008F007840AB527F10B782F7009013E1E
:101F0000B527C2270313C8270319282F822F84302F
:101F1000D127FC308D050430F40000088C00840AC1
:101F200000088E00840AD527F40B8D2FF10B872F24
:101F3000722F9430D1271F308D04D527F10B992FA4
:101F4000722F83168C010C1483120C088000840AF3
:101F50008D0AF10BA12F702F0430D12700088C00BF
:101F6000840AD527F10BAC2F722FF3000F3A031917
:101F7000BF2F0B3A0319BF2F013A031DC12F0530A4
:101F8000C2277308640003130C1EC42F9900043485
:101F90009818ED2F64008C1ECA2F1A08F2000F3A11
:101FA000080083168C0083120800640083165530E5
:101FB0008D00AA308D008C148C18DC2F83128D0AB2
:101FC00003198F0A013464008C1A08000B1DE32FDB
:101FD0000B11FF3E031DE32F0434031386108316F9
:101FE0008610FF308500860081009B0007309C0032
:101FF00098019901830198018B018A0164000028EE
:02400E00742F0D
:02401000FF3F70
:104200002700550055005500550055005500000089
:1042100041003D004F00700065006E0054006800D2
:10422000650072006D00200049006E00740065009A
:1042300072006600610063006500200031002E00FE
:104240003200000054006800650072006D006F00CD
:104250007300740061007400200064006900730042
:1042600063006F006E006E006500630074006500FF
:104270006400000054006800650072006D006F006B
:104280007300740061007400200063006F006E0012
:104290006E006500630074006500640000004E005D
:1042A0004700000053004500000042005600000097
:1042B0004F00520000004F00450000004D00650017
:1042C0006400690075006D00000048006900670027
:1042D000680000004C006F007700200070006F0045
:1042E00077006500720000004500720072006F00E8
:1042F000720020000000320031003A003300330029
:104300002000320038002D00310032002D00320034
:104310003000320031000000340020004D00480021
:044320007A0000001F
:00000001FF
