:020000040000FA
:080000008A1500278A150A2861
:08000800F000030E8301A000CB
:100010000408A1000A08A2008A01230882073728E1
:1000200037284028402832283728162883161C1BDA
:100030009C1F2228831281019101B201B3018C100F
:100040000D1337281C0D83121211B11F803E0318A7
:100050003028010831060339B10631170B13202867
:1000600012152028101083161C0883120D13220865
:100070008A0021088400200E8300F00E700E090013
:100080008A1583161C0883123106B1063205031D3A
:0800900097230D138A11372894
:041000000034003484
:0C1004006400061D022898011A088A15D5
:1010100000278A1583018316E73085002730860074
:1010200007309B00E6309D00193099001815181202
:101030009816831298171816900183018B13831644
:10104000D730810006309C000D17831203170A3039
:101050008F00D8308D00482203170A308F00F130FE
:101060008D004822831710308400981C3A281A08F3
:101070001812181664008C1E3A28181902281A082B
:101080008000E03903194C286F30040203183A2815
:1010900000088D22840A3A2808308A000008533E4E
:1010A00003188A0A82003A283A283A283A283A2825
:1010B0003A283A283A2872283A283A283A283A28E8
:1010C0007D283A283A283A283A283A283A283A28CD
:1010D0003A283A283A283A283A283A283A283A2800
:1010E0003A283A281030040203193A2884030830B9
:1010F0008D228D2208308D223A2880011030840004
:10110000A301800803199D281A302302031896288A
:101110002308A307A30DA307A30D0008840A393CE5
:10112000093C031C9628A307031C812803170B30D6
:101130008F0036308D0048221D2807302302031807
:101140009628442208308A00A930230703188A0A07
:101150008200B028B928DA28DA28F1285A29DB29B0
:101160001030040203191D288610831686108A1178
:101170000028B2010130B1008316D73081008312FC
:10118000640019220319D7280B1DC0280B11B10BBD
:10119000C0280130B1000310B20DB2080319B21516
:1011A000B21AB20DD830860432098605C028D8306C
:1011B00086041D2883161C088312B10040302318B2
:1011C0008030B200A501A030B300B4000D130B179E
:1011D0008B1710146400192203191D2825181F22CB
:1011E000EA28831603309C008312851105129001B2
:1011F0008E018F010C10101464000C18282983161E
:101200001C088312C039031DFC280B178B1703170A
:101210000B308F006C308D00482208302F210317CF
:101220000B308F0076308D00482208302F210317B5
:101230000B308F0080308D00482210302F21031793
:101240000B308F008A308D00482210302F211D284E
:1012500003170B308F003E308D0048221D2890016F
:101260008E018F010C101014850664000C18522991
:1012700010183529EE300E07AC000F08031C0F03C1
:10128000AB0083161C0E8312A700050C27060C3931
:10129000031D5329A62203170B308F0094308D00B5
:1012A00048220800101003170B308F0056308D00B5
:1012B00048220800831600309F00D030810083123E
:1012C00003170B308F005C308D00482200308A21DC
:1012D00003170B308F0062308D00482208308A21BE
:1012E00050309F00392283161E088312AB002B0D4D
:1012F0001E08AC00AC0DAB0DAC0DAB0DAC0703186C
:10130000AB0A03170B308F0066308D00482269222C
:1013100044221D28403A9F001030A600333084003C
:101320008313FF308000840AA60B92294030B2005C
:10133000A701392264001E08B10039221E083102BB
:10134000031C003C023C031CA701A70AA71DB329EC
:101350001E0E0F39333E84001E0EF03980008316B6
:101360001E0E80048312A60B9A29B20B9A293A30DA
:10137000A700333084000018D42927088D228D223D
:1013800033300402A700AB000310AB0C000CAC0020
:10139000AB0CAC0C000E0F39A70E2707AC070318D7
:1013A000AB0A69222C30A700840A43300402031CD4
:1013B000BB2944220800B10164008316D8308100A3
:1013C000F93092009C088312053092000D130B1720
:1013D0008B176400192203191D28311BF6298C1C58
:1013E000E929B30A0319B20A8C10E929B11E122A9D
:1013F0003208AB003308AC005430B11B42308D22B0
:101400003A308D228D22A622AB010310110DAC00C3
:10141000AB0DAC0DAB0D31080339AC042E308D2271
:10142000B22244228030B1063113B11612150B17C7
:10143000E92903118C1E08001A080D3C0800340825
:10144000840083170008AB0083130008AC00B40AC3
:10145000A622340833020319302A2C308D220800CA
:10146000A510A030B300B40025102E308D224422E8
:1014700008001F14FA3081000B110B1D3D2A1F15A7
:101480001F19402A1F1008000D308D220A308D2AA6
:1014900083168C018C170C140000000083120C0DB5
:1014A0000E0D031360220319080003170C08031321
:1014B00060220319080003178D0A03198F0A482AAE
:1014C0007F391A3A031908001A3A031D8D2A0311AD
:1014D00008002B0875226430A7002C08C722AC1B1B
:1014E000AB0A2B08A7002E307C2A2511A7009C3EB2
:1014F000031C7E2AA70031308D222515A60127085E
:10150000A700F63E031C862AA60A802A260803198D
:1015100025198B2227082515303E64000C1E8D2AC4
:10152000990020341030A600A801A901AA019E2A22
:101530002A08C022AA002908C022A900AC0DAB0DC0
:10154000AA0DA90DA80DA60B982A08009222251114
:101550002808B7222908B7222A08B7222519080027
:1015600030308D2A922225152908BB222A08A7008F
:10157000270EBB2227080F39031925198B2A0800CB
:10158000333EA700A71DFD3EA71FD03E0800AB01BC
:10159000AC01083AA600083AA6060310AC0DAB0D44
:1015A000A70D0318AC070318AB0AA60BCD2A080039
:1015B0008A06F027EE32683AF232A036E133653A15
:1015C000E13BA03C6932E7306F37F439E334A039AE
:1015D000A016652B7339EF342037AE1800198A0630
:1015E0001A05AE184C10C4227410F3320D3A0005DF
:1015F0002E194210F4347410ED34EE34A033683AEE
:10160000F232EF36F439F4308A06AE194210F4346F
:101610007410ED34EE34A0336F31EC34F2328A06BC
:101620002E1A4410EC32F9307310ED3CE536723A64
:101630008D3C0005AE1A5610EC37613AE5336C105C
:10164000F632EC328D3900052E1B49106C32A03277
:10165000693AE5368D390A05EE22653A2039653A50
:10166000F4396E10ED3A65313A391A108A06EE24D3
:10167000613B69362032653AF439000DA311A0119F
:10168000F2226F393A3949107437F2326133E53159
:10169000A0396F322737203AF0306538F2307410B5
:1016A000A03765316C10EF3765381A32A311A011DD
:1016B000F2226F390D391A05682AF232EF36F43901
:1016C000F430000D6F21EC34F232000D65296533E2
:1016D00065396337BA321A10CB27C1186810E7345E
:1016E0002D346F3AEC16F737201D000DCB27C118AB
:1016F0006C10F737F416AD376934E833201D000D50
:10170000CB27C2186810E7342D346F3AEC16F73740
:10171000201D000DCB27C2186C10F737F416AD371B
:0E1720006934E833201D000DF33A8A06000DEF
:02172E000F08A2
:10173000AF000E08B0000F082F060319A62BAF0646
:101740000E08B000F930B007031CAF03A51CB92B7D
:101750003309F03903190800330884002E083002D9
:10176000800083172D08031C013E2F028000B30A5E
:0E17700025143008AE002F08AD00A5140800A7
:101E0000031E08008B138316031360308F002730E6
:101E10008600E730850007309B00E6309D000630E5
:101E20009C00D73081001930990026309800831229
:101E300098171816FF30860081010130E327C2276A
:101E40001030E3278C1E0800C827031D08008317E5
:101E500010308400F001C8270319282F0B3A03190A
:101E6000392F013A0319C82772088000F007840A45
:101E70002B2FF008031D822F031712088D00130863
:101E80008F00143084001108F1000F308A00100810
:101E9000083C083C031C822F8207592F5F2F872F95
:101EA000992FA12FAC2F822F822FED2F0101000F30
:101EB000FF0F56308D000F308F00123084008316D4
:101EC0008C170C140000000083120C088000840A98
:101ED0000E088000840A8D0A03198F0AF10B5F2F08
:101EE00010300402F1000F30C227F00110308400DE
:101EF0000008F007840AB527F10B782F7009013E1E
:101F0000B527C2270313C8270319282F822F84302F
:101F1000D127FC308D050430F40000088C00840AC1
:101F200000088E00840AD527F40B8D2FF10B872F24
:101F3000722F9430D1271F308D04D527F10B992FA4
:101F4000722F83168C010C1483120C088000840AF3
:101F50008D0AF10BA12F702F0430D12700088C00BF
:101F6000840AD527F10BAC2F722FF3000F3A031917
:101F7000BF2F0B3A0319BF2F013A031DC12F0530A4
:101F8000C2277308640003130C1EC42F9900043485
:101F90009818ED2F64008C1ECA2F1A08F2000F3A11
:101FA000080083168C0083120800640083165530E5
:101FB0008D00AA308D008C148C18DC2F83128D0AB2
:101FC00003198F0A013464008C1A08000B1DE32FDB
:101FD0000B11FF3E031DE32F0434031386108316F9
:101FE0008610FF308500860081009B0007309C0032
:101FF00098019901830198018B018A0164000028EE
:02400E007C3FF5
:02401000FF3F70
:00000001FF
