:020000040000FA
:080000008A1500278A15872CE0
:08000800F000030E8301F1007A
:100010000408F2000A08B0008A111108E4008C18E4
:10002000D3250D1B4B2530088A0072088400710E01
:080030008300F00E700E0900C0
:08003800751B3C28751A082312
:100040007508F90076087A06031DE701FA067708B5
:10005000FB007808FC00DB125B178820ED01F3221F
:1000600003193528DB1E08006728DB165B13A62260
:10007000DB1E0800F6006728DA1576084E0603191D
:10008000E013751E0823F322F51A751E5128031973
:100090004C2855398007542876088A1596228A11EB
:1000A0005428FF3A601F80056013DB17DB187D289A
:1000B000DB1A5F288820DB1A61190800672888206E
:1000C00040305B1F7030DA22DB135B1F882078081A
:1000D00077067606F5137506F300F30E7306F30044
:1000E000F30CF30CF3060130F318F3067318F5174D
:1000F0005230751B41308A11D22B88205030F500C8
:100100000430F600AA30F7003908F800DB10672841
:10011000F61B5D2B00308A007608913E03188A0A90
:100120008200292959296F29672B84298D29932930
:100130005D2B5D2BA629892A972A892A972AB62919
:10014000682BBE29672B682B682BEE29682B682B40
:100150005D2B682B672B682BF729682B682B682B86
:10016000682B682B682B682B682B5D2B5D2B5D2B18
:100170005D2B5D2B5D2B5D2B5D2B5D2B5D2B5D2B3F
:100180005D2B012A0B2A682B682B682B682B682BA8
:10019000682B152A352A682B682B682B682B682B4F
:1001A000682B5D2B5D2B5D2B5D2B5D2B5D2B622BFF
:1001B000552A682B682B682B682B682B682B682BBB
:1001C000682B682B682B682B682B682B682B682B97
:1001D000682B892A972A892A972A5D2B5D2B5D2B0C
:1001E0005D2B5D2B5D2B5D2B5D2B5C2A622B682BC1
:1001F000682B682B892A972A892A972A5D2B5D2BE1
:100200005D2B5D2B682B682B682B682B682B682B6C
:10021000682B682B682B682B682B5D2B782A7E2A2D
:10022000682B603017297908C038F51F7F397506AB
:10023000031DDB16F50600347706031DDB16F706F3
:1002400000347B081C217C087806031DDB16F806A9
:100250000034751B3929A0227708C40803193329F3
:100260000138E11BFE396E1E1C29FD39EE1A0238D9
:100270001C29F51A08007808FC00413903195A12A4
:10028000031D5A1A47295A160530CE00E0174D3083
:100290007E237808083946307E23780804395730A1
:1002A0007E237808023948307E23770802394330AC
:1002B0007E2B751B6529A02244084506031D751E6B
:1002C000080044081C2145082429F51E0800751A59
:1002D0000800C40803190800C401C5010800751FFF
:1002E000772901307B051C217C08242113297718EC
:1002F000DE17631A080078080B3C0319E31B08009B
:10030000E317DE1B63170800751F0800AA30770289
:10031000031D0800132139082429751B682B5F1A57
:100320005F1B0800DC29751F080060100301F51E23
:10033000751A9B29780861060339E1061321611CAF
:10034000E010E11C6011770803381C29751F0800B4
:1003500013215F1E3A081C215F1E3B0824215F13F6
:10036000E31ADF1D08005F1DDB140800751B080081
:10037000A022611F080058081C212429751B13297D
:10038000DF195F1B08005F1ADC293B087802F300C5
:100390003A08031C013E7702031CFF3A031DE329C0
:1003A000031CF309E0307305031DE3295F190800FE
:1003B0005F15DF134F30802B5F123A083B0403199F
:1003C000EB295F1708005F1DDF0A5F1D0800631B34
:1003D000EB29BA01BB01DF014F308C2B751F0800E0
:1003E0001321D31F21293E081C213F082429751BF6
:1003F0005A1C0800DA18112913213C081C213D0859
:100400002429751F0800E010F51A682B7708D00022
:100410007808CF00682B751F08006011F51A682B4B
:100420007708D2007808D100682B751B232AC008F2
:10043000751EE019031908001030172140081C210F
:10044000410824213834E011F51E0800751E2F2ABA
:1004500013214008031950081C2141082429C00811
:1004600003190800C001C1010800751B432AC20816
:10047000751E601A031908001030172142081C214C
:100480004308242139346012F51E0800751E4F2AD6
:1004900013214208031952081C2143082429C208C9
:1004A00003190800C201C30108000310460C031819
:1004B000751B080024211C29751F0800DF1AD60EA1
:1004C000DB126823DB1A6B2A1321560E0339242111
:1004D0006B1B78081C21631BDF1E762A560E5606FE
:1004E000031D5F1B762A5F16DF155F17DF120800FA
:1004F000751F0800132103301C212429751FE31FD9
:10050000080063137708143C0319E316031C6317F0
:100510000800751F0800DB1ADB1F682B7708F51E23
:1005200003190800E800760ACE00E0170800751BE2
:10053000DB1E622BE90A68086902031CE017080049
:10054000751B0800F322FF3A800508000030F50013
:10055000F701F801E0080319BF2A60176018063494
:10056000E018303460193134E0191C2A601A3C2A32
:10057000E01FBE2A6908F7004E080800E0014D0898
:10058000031DE32A5B1AD92A2030FD004A0A1F39CD
:10059000CA00E03E8A152F268A1183128D00831629
:1005A0000C1483120C080313031D0800FD0BC62A4C
:1005B0005B16DB127904F5007B08F7007C08F80075
:1005C0007A08F60008001030F5007430FD00F301E1
:1005D0000314EB2AFD0AF30D73084D050319EA2AEB
:1005E000CD067D0808007608F400740CF300730C47
:1005F0001F39BA3E8400F41B0034033074180C30E9
:10060000F300F418F30E00097305F30E730E0800DF
:10061000760D031CF51A0800F300730E0F39F30072
:1006200076080739FD00FD0A2E237306F3067306CC
:10063000B10103100318B10AF30CFD0B1A2B031CB4
:1006400008004523B107310D103E84008317770859
:100650008000840A780880008313080003308A0031
:100660007308353E03188A0A82004334C0340734C5
:100670001F340034003403340334003400340034B5
:10068000003400340034F0340F34F30003308A00B7
:1006900073084D3E03188A0A82000034033405347F
:1006A00008340D340D340D340F3411341134113439
:1006B00011341134113411341534DB1BDB1E751F5A
:1006C00008006E2BDB1BDB1E751F08006D2BA022A4
:1006D000DB1BDB1E751F0800FB01FC0176088A1579
:1006E00045238A11031D08001321831700087C0489
:1006F00024218413000883137B041C2903198C2BE9
:100700005F3E84000014FE30000503190800FF3A24
:100710008605F938E20500345F3E840000100008C9
:0C0720000319080086040639E2040034C6
:04072C008A152F26D5
:100730008A1183128D009F2BB72303178D0A83160E
:100740000C1483120C080313031D9C2B0800962322
:100750000D30B7230A30B72BF400740EB0237408A1
:100760000F39F63E0318073E0A3EDA17303ECC0832
:1007700003190C1EBD2B99000034840037084C0768
:10078000B03E031C503E903E0406840604068317C8
:10079000800083134C08503A031DCC0A00345430B7
:1007A000751B42305B190800B7237508AC23760827
:1007B000AC237708AC237808AC23A82B5E1908007B
:1007C0008A3096236508AC23A8234530651CD223C4
:1007D000E50147080319080084000008F3004708F2
:1007E000AC233D30B7237308AC23A82B4B084B0731
:1007F000103E840083170008B400840A0008B50086
:10080000831304308A004B08CB0A093E03188A0A76
:100810008200222C3A2C222C3A2C4A2C3A2C3A2CAC
:100820003A2C3A2C3A2C3A2C312C3A2C4A2C4A2C81
:100830003A2C3A2C6D2C6D2C6D2C6D2C6D2C6D2C56
:100840006D2C6D2C340827242F30B7233508F30086
:100850000830FD00F30D2F24FD0B2A2C0800070D96
:10086000B52BB41F3A2CB409B509B50A0319B40A5B
:100870002D30B723350F3E2CB40AB50134084F2470
:100880006430F30035083A25B51BB40A3408F30088
:100890002E305C2C34084F242F30B7233508DA1360
:1008A000F3009C3E031C5E2CF3009C3E031C5B2C5F
:1008B000F30032305C2C3130B723DA17FD017308B6
:1008C000F300F63E031C662CFD0A602C7D0803191C
:1008D000DA1B6B247308DA17B52B1030FD00B10159
:1008E000B201B301792C33088A24B30032088A2478
:1008F000B200B50DB40DB30DB20DB10DFD0B732CDF
:10090000DA13310891243208912433089124DA1B38
:100910000800B52B333EF300F31DFD3EF31FD03E20
:100920000800F300730E952473080F390319DA1BBE
:10093000B52B08003608043C031D623404308A00DD
:1009400023085A3C193C031C6834A93E03188A0A40
:1009500082000F349134A434683468346834182D1C
:100960006834122D683468340434E52C6834CB2C98
:10097000F92CEA2C012D1B2D0A2D6834C72CF22CE2
:100980006834683468342308B7233D30B72BC32458
:100990006B08FD3EB02BC324DF084E300319B72B84
:1009A0003A083B066E300319B72B560E56060F3920
:1009B000DF1ED6065430D61C43305F1D2038B723C7
:1009C0003A08B4003B08B5003A2CC32447307E18DF
:1009D0004D30B72BC3247E0E0739AC3E8A153B261B
:1009E0008A11B72BC3243030EE1A31306E1E4130DD
:1009F000B72BC3245E1C80347430DE187B30962302
:100A00008334C3244430E31B5230E31A4330631B66
:100A10004930B72BC3246B0EF300F30CF30C2F24D7
:100A2000F30C2F2CC324050D803E2F24050D2F2CF5
:100A3000C324590EAC2BC32402308A153B268A11DD
:100A4000B40003308A153B268A11B5003A2C3608CB
:100A5000043C031D62342308313C013C031C683410
:100A60000319362DCB015A155B15382D5A115B1120
:100A70008A11B52BB401B501083AFD00083AFD060C
:100A80000310B50DB40DF30D0318B5070318B40A20
:060A9000FD0B402D0800E3
:0A0A960083161C0E83120D135C067C
:100AA0000C3903190800DC0604390319DE1D5B2D1F
:100AB000FF30E5000800031DDE19632DDE15B808C0
:100AC00003195C1A812DB8080319A22D03305D02A9
:100AD000031C462E83161C0D8312DE19803EB80BB4
:100AE000902D031C4B2EDC1B4F2E5B148A115230B1
:100AF0008C2354308C2342308C238A11DE11121146
:100B00009F2DB8015C1218305E18083005061839A0
:100B100085068A1158308C2342308C238A11982DF7
:100B200080300318DC06F80DF70DF60DF50D5C139B
:100B3000DD01640891020630031C91028C106430C0
:100B4000810008001219AF2DE508031D9F2D2A30E2
:100B500091001215DD0183168C1483129F2D0A302B
:100B60005D020318982D83161C0D8312DE19803E3A
:100B7000031C9F2D83161C1E031083120318DE18FE
:100B8000C32DDE145E15DD0803197F2D8A11523046
:100B900080234230DE19543080238A112130B8007E
:100BA000DC135C13982D8C10DD0A5C1AF12DB8084B
:100BB0000319DE1DEE2D5D08143C03191B2E503069
:100BC0005D02031C08001211DE1183161C1E0310A7
:100BD0008312031C0800DE145E150800DD194D2E7B
:100BE00008005D180800B80803190B2E03015C1CEF
:100BF00018305E18103A050648058506DD18182ECF
:100C00005C100314F80DF70DF60DF50D03185C14C8
:100C1000DD01B803080012115C12481ADC168A11B3
:100C200058308C2354308C2342308C238A11080096
:100C30000130DC0608005C190800DE1F372E831621
:100C400010309C061C1E03101C0E83120D135C0634
:100C50000C39DC060318392E5E15DE1C08005E1008
:100C6000DE10051650308A118C238A110800DE161A
:100C700008005E18422E5E14051250308A1180233F
:100C80008A110800DE1408005C179F2D5C1BEB1A0C
:100C9000442E0130502E0230502E0330502E04309E
:100CA000E5080319E5001211B801DD015C128A1193
:100CB00058308C2352308C2342308C2354308C2378
:100CC00065090319672E453080237A30E6008A11C2
:020CD0009F2D56
:0E0CD200031DC02E5A1BDA0106308A005A0894
:100CE0001F39763E03188A0ADA0A8200832EE92E1B
:100CF000912E0034832EE72E942E832EE92E9F2EE4
:100D0000A12EA52EC02E851383168513C226831609
:100D100085178312C526851B8F2EC3260134DA144E
:100D2000C02E4430EA260034D6267308103C03193E
:100D300001347308283C031D8F2EDA170134BE30AE
:100D4000EA2ED6267308DB000134D626DA1BAE2E37
:100D5000730C5B0CB400B501B50CB82E5B0EF0390A
:100D6000B500730EF039F3005B0E0F397304B40055
:100D70005A14DA14553A0319C02E8A15C9210134C0
:100D80005A170034C326E830C62E363083168C102E
:100D9000120283120A3E910012158C1CCD2E1211E4
:100DA0008C100800D426D42600000800D726DA26A6
:100DB000DA26DA2685138316851303108517831226
:100DC000D326851B0314F30C2D30C62608003330C0
:100DD000EA2ECC30F300EC26EF26EF26EF26F30CBC
:100DE000851383168513031885173230C62683169C
:060DF00085178312013497
:0A0DF6006217E21300276213E217F0
:100E000007308A005908E21B590E07390A3E0318B9
:100E10008A0A8200152F212F242F242F242F152FEB
:100E2000152F122FF030E21FD9056208C039831642
:100E300085048312080062093F38831685058312F2
:100E400008001B27850508001B27FF3A85040800BA
:100E50006217E2132D276213E21707308A00590840
:100E6000E21B590E0739373E03188A0A8200080030
:100E7000080008003F2F462F572F592F4D2F0508E8
:100E8000E21805096205C0398506080005086219DF
:100E900005096205C03985060800DC1E0800B8088F
:100EA0008A1169268A1100380319DC120800050925
:100EB0005A2F05086205C039031D642F621C080003
:100EC0006210B401B5016F2F62180800621402307D
:100ED0008A153B26B40003303B26B50001308A1545
:060EE00035218A11080013
:041000000034003484
:0C1004007E19442804303602031C6234BC
:1010100022083D3C031D623408308A002008210666
:10102000F300E039031D5F3420088A11B72321083B
:10103000B7233A30B7232030B72308308A0073082B
:10104000243E03188A0A820046285128592861281C
:1010500066286E28F3287628BC28BC28BC287B2864
:101060005F34BC28BC28BC2880288B2893285F3498
:1010700098285F345F349D285F345F345F34A22842
:10108000AA28AF285F34B7287E1171342008543A5B
:1010900003192D29153A03196B2A0C3A0319EA2A68
:1010A0005F342008523A0319A42B013A0319002B8C
:1010B0005F342008503A0319FC2A1B3A03196A2BA3
:1010C0005F342008503A0319FE2A5F342008563A4C
:1010D0000319332A053A031971295F342008443A69
:1010E0000319892A123A0319AC29F32820084F3A28
:1010F00003199F2B5F342008433A03192B2A5F34CE
:101100002008533A0319E029143A0319BF2A043A74
:101110000319A3295F342008433A0319362B103AE8
:10112000031963295F342008463A0319AA2A5F3459
:101130002008443A0319D6295F342008543A031989
:1011400028295F3420084F3A0319BC291C3A031997
:101150008A295F342008553A0319512B5F3420083F
:10116000493A0319912B193A0319CE2B5F34200801
:10117000483A03191B2A5F3420084C3A031D5F3498
:101180003608043C031D62342308F3005A3C193C22
:10119000031C683441302102063E4F2223088A1185
:1011A000B7238A1541302102F3002308B400083028
:1011B000F318403073190230B10003107318B10DE9
:1011C000A03084001A30FD0031098005840AFD0B2F
:1011D000E52834085F3E8400310880043408001C90
:1011E00003158A117E2B2008473C031D5F34360807
:1011F000043C031D623430302302F300F839031D30
:101200006234F03021180A295905703C03195A102C
:10121000F30E0F3059057304D900F30001304F224B
:101220006217E213C030211CE2068A110027590818
:10123000211C590E07398A11B52B03103608043AC0
:10124000031D62342308313C013C03180800683454
:101250001624031808000130312916240318080049
:1012600003305A1B62343521C72956060F39D6067A
:101270000030631F40293A083B04031D5F161030FD
:10128000DF053508BB003408BA00DF155F17DF162D
:10129000B901E31ADB143B0403195F29E31E0800BC
:1012A0003A0856243508B9003B0856243408B907D3
:1012B000B51BB90A3A08B4003B08B50008005F1630
:1012C0005610D61008001624031808003504031D14
:1012D0005A1B623402304F223508F30003304F228C
:1012E000C7291624031808003504031981294F085B
:1012F0007824031C683450087824031D031C8329B8
:101300006834E01185296118E0153508C1003408FA
:10131000C000C729162403180800350403199A29A8
:1013200051087824031C683452087824031D031CD8
:101330009C29683460129E29E11860163508C300A4
:101340003408C200C7291624031808005A1B623447
:10135000C4003508C500C729DD230318BA29800851
:10136000031D6234643C031C6E34730DC6007308A5
:101370008A114F2CC601C329162403180800B41F74
:10138000341FC6295A102D308A11B72BC9218A1152
:10139000312C3408BC000317A60003133508BD0028
:1013A0000317A70003135A14DA1008003608053C87
:1013B000031D6234F92303180800C7008A11AC2BFF
:1013C000DD2303180800BE00173C031C6E34000820
:1013D0003A3C031D6234840ADE2303186234BF00E2
:1013E0003B3C031C6E3400082F3C031D6234840A0E
:1013F00030300002031D031C6834F300F839031D6C
:101400006834840A8008031D6234F30E0310730DE0
:10141000BE04F830D3003E081F39F3008A115D2462
:101420003F08F3003A305C242F30B7233E0EF30020
:10143000730C0739B52B3608043C031D62346E1259
:10144000EE122308313C0319EE16FE3903196E160D
:1014500049228A11F32C1D21031C0800031DE113EE
:101460000319E1171B293608043C031D62342308C5
:10147000393C093C031C6834033EF300E038831612
:101480009D008312E0306B057304EB004D228A113E
:10149000C82C6E08F3000E304F2AF30000308A1576
:1014A0002F268A1583128D007308031783160C14D8
:1014B00083120C060319682A8C0683160C158B13ED
:1014C00055308D00AA308D008C148B170C118312AF
:1014D000031373080800DD230318080003196E3492
:1014E0008008031D62345B128A152F268A15831229
:1014F000E0308D00730883160C1483128C080319D6
:10150000862A8D0A031D7B2A0313653455228A110E
:101510004F2CDD230318080003196E348008031DC7
:1015200062349622031808008A114F2CF3008A15A2
:101530002F268A158312E0308D0083160C14831237
:1015400073080C060319552A8D0A031D9D2A0313DF
:1015500003146B343608043C031D6234E301230892
:10156000433A0319E3160A3A03196317E308031D04
:1015700063166308F3000D304F228A11022D3608DE
:10158000043C031D62341D21031CE02A6E14EE0688
:101590007E060139031DD02AFE14D222FE18A300B4
:1015A00049229C2B121950347E106E1CFE197E1499
:1015B00003307E18063083169C008312FE1008004C
:1015C0002308523C031D68346C1486108316861061
:1015D0008A110028DD230318F82A8008031D6234CD
:1015E000643C031C6E346117643CD8008A114F2C94
:1015F00061136430D800C3298A119A2C8A11272DCF
:10160000DD230318080003196834F4003A3000029F
:10161000031D6234840AB401DE2303180800800825
:1016200003191E2BB4002C300002031D6234840AFF
:10163000DE23031808008008031D6234B500740817
:1016400045230319272B03014523031D6534831705
:1016500035088000841334088000831384177408CD
:1016600080008A114F243A30B7234A2CDD23031817
:101670000800031968348008031D62344523031DE4
:101680006B34800173088A114F2CF300E030840022
:10169000000873060319080001308407831C482BD7
:1016A0000034DD2303180800031DB400B41B6834A4
:1016B0008008031D62348A11F4228A1580043408DC
:1016C0008223D03E8A153B268A157304552234089E
:1016D0008A114F2CDD2303180800031DB400B41B2E
:1016E00068348008031D62348A11F4228A15FF3A97
:1016F000800534088223D03E8A153B268A15F309DB
:101700007305662B0310F4000130F4180430F30065
:101710007418F30D7419F30EF40E740D740D1F3953
:1017200008001D21031C080020302318EB04FF3A99
:10173000231CEB056B084D2223088A11B72B1D21B2
:10174000031C08004030952B3608063C031D62340C
:101750000130F3002308483A0319B42B1F3A031D44
:1017600062340430F30012302406423A0319BD2BD0
:10177000123A031D62340310F30D2508533A03197E
:10178000C52B1B3A031D6234F30E7308CD042308E6
:101790008A11B7232408B7232508B72BDD230318A4
:1017A00008008008031D6234CE00E017E801E9015B
:1017B0008A114F2C233084000800DA230008393CBA
:1017C000093C031CF72BF300840A0008393C093C50
:1017D000031CF52BB1001A30730203186E34730822
:1017E00062243107031CE32B6E34730808000314D2
:1017F0006234DA23032403180800F300F30E0324F1
:10180000031C7304080030300002031CF72BF63E63
:10181000031C122CDF39F93E031CF72BFA3E031888
:101820006234063E0A3E840A03100800DA235A177F
:1018300000082D3C03191F2C5A13023C0319840A7B
:10184000DE2303180800B40100080319422C2E3CC3
:10185000031DF72B0730FD00840A00080319422CF2
:10186000393C093C031CF72B7D196224FD18B40791
:101870000310FD0CFD080319031C2C2CFB3E031860
:10188000B40A2C2C5A1F4B2CF309B4080319542CFE
:101890003408643CB400B5016824B208031D013E5D
:1018A000B5007308B4000800F30A4B2CB401B5006E
:1018B0005E245E24B5070318B40A08000310B50DB2
:1018C000B40D0800B200B207B20DB207320D080025
:1018D0001030FD00B101B201B50DB40DB20D643090
:1018E00032020318B200B10DFD0B6C2C3108080058
:0A18F0003402031D0800B5080800CB
:0618FA009A08EA1A832C93
:10190000EA01462D6C14EC148A1500278A1503137E
:1019100083128601831660308F0007309B00E7300A
:1019200085002730860003300E0640308E18503078
:10193000831203196C0EFE00031EFE15831603307E
:101940008E00D5308100F930920083120030920071
:101950008E018F013130900020306325A030632547
:1019600083171030632581010B1164000B1DB52C0A
:1019700083161930990018151812981683129817A3
:10198000FE1D181641309F0000303B26EB00E0386A
:1019900083169D000E303B26EE008A15D4228A1550
:1019A00083160D178C141C0E83010D130C39DC00EB
:1019B0005C0DE7388500FF3086000B17FE1D8B1786
:1019C000CA090730E0001430CF005030D0000A3090
:1019D000D1005A30D2006430D8003D30D4000D30F0
:1019E0003B26E3001030FD00B401D030B1003108D7
:1019F0003B26B5003408B5080319092DB4000310BF
:101A0000B50C031C072D8A11F4228A158004340AB0
:101A1000FB2C0730B404B40AB10AFD0BF72C1130CB
:101A20008A11A7238A15F30106303B268A15D62092
:101A30008A15F30A07303B268A15D6208A15F30A41
:101A400008303B268A15D6208A15F30A09303B2632
:101A50008A15D6208A15F30A0A303B268A15D62025
:101A60008A15F30A0B303B268A15D6208A150130D9
:101A70003B26D9008A11FB268A15FE1D462D4D30C6
:101A80008A11802327308A11A7238A156400CC0885
:101A9000031D1F26FE19462D5B1896255E19C525C8
:101AA0000B19D8250C18FE250C1B45268A11282752
:101AB0008A155A190C26671B822C8C1E462D181964
:101AC0007D2C8325462D84008001840A0409703909
:101AD000031D642D08003608203E84001A08DB1917
:101AE000080080000A3A03190800073A03197D2DFF
:101AF0003608013E831CB6000800B608031908002A
:101B00008001DB150800981C882D181218167E1508
:101B10006B25DB1D08008A150220B601DB118A1136
:101B20000038031D9623A8238A15C12D8A11CF23BF
:101B30008A155B107E18A82D8A111C208A15611D3C
:101B4000AA2DDC1676087A06031DC12DD50A55127A
:101B5000E701C12D0130DD005C145C1658308A119C
:101B600080234230751B543080230830751B1030A1
:101B7000C8002230B80083168C148312F93091000B
:101B800012158A11E9238A1508005E1180305E1C47
:101B9000D42D7430DE1CD12D57087A3C031C08006C
:101BA0007B308A11962383308A11A7238A15080077
:101BB0000B11D40BE62DDA19E70A5E163D30D4007E
:101BC0006D0FED0005306D0203188511EA1EEA0A5B
:101BD000121D1F158A15FE18D2228A1165090319D4
:101BE000E501E508031DDE238A15E608031DE60B63
:101BF000080045308A118C238A1508000C10D31B6D
:101C0000D303DF195F1908008030DF065F054F300E
:101C10008A117E238A1508004C1B08008A11F623BE
:101C20008A1519304B0203181A2E2C308A11B7234B
:101C30008A1508005A118A11A8238A1508000C1E5B
:101C400008003708903E840083170008831399002A
:101C5000B70A503037060319B701CC030800031741
:101C600083168C1C0800831203138C1E2F2EF40085
:101C70006B2574082F2E2F268C0183128D0083165E
:101C80000C1483120C08031308000C131E085706CB
:101C9000D70657065702031C003CFC39031D832E50
:101CA00057087A3C0318DE1A652E743C031C632E19
:101CB000611D0800343C031C852E61114A308A11D5
:101CC000A7238A150800E115662EE1116119852EFA
:101CD000611532308A11A7238A1512110B1383164E
:101CE0001C121C0E83120D130B175C060C39DC063C
:101CF000DE01631EE301DF01BA01BB0150308A112E
:101D00008C238A150800611D08007E1C5E1E0800D9
:101D10000030F500F701F8019F26F600FA008A115D
:101D2000F3228A15031D972EB626F600FA008A11B3
:101D300067208A15DB12AA25DE01ED0108000E30AE
:101D40008A005508A63E03188A0A8200BE2E19345E
:101D5000CA2EB62E11341B341C34DC2EB62EBE2EE9
:101D60001934CA2E38343934B62E12348A11A622C8
:101D70008A155B1E0800F501F701F801C408031D70
:101D8000E11BC32E77140319E11DC72E7714EE1A39
:101D9000F714003475164508F8004408031DDA2EC0
:101DA0000A30E11DD92E4308F8004208031DDA2E3F
:101DB0005208F801F700013475165808F7000E3480
:101E0000031E08008B138316031360308F002730E6
:101E10008600E730850007309B00E6309D000630E5
:101E20009C00D73081001930990026309800831229
:101E300098171816FF30860081010130E327C2276A
:101E40001030E3278C1E0800C827031D08008317E5
:101E500010308400F001C8270319282F0B3A03190A
:101E6000392F013A0319C82772088000F007840A45
:101E70002B2FF008031D822F031712088D00130863
:101E80008F00143084001108F1000F308A00100810
:101E9000083C083C031C822F8207592F5F2F872F95
:101EA000992FA12FAC2F822F822FED2F0101000F30
:101EB000FF0F56308D000F308F00123084008316D4
:101EC0008C170C140000000083120C088000840A98
:101ED0000E088000840A8D0A03198F0AF10B5F2F08
:101EE00010300402F1000F30C227F00110308400DE
:101EF0000008F007840AB527F10B782F7009013E1E
:101F0000B527C2270313C8270319282F822F84302F
:101F1000D127FC308D050430F40000088C00840AC1
:101F200000088E00840AD527F40B8D2FF10B872F24
:101F3000722F9430D1271F308D04D527F10B992FA4
:101F4000722F83168C010C1483120C088000840AF3
:101F50008D0AF10BA12F702F0430D12700088C00BF
:101F6000840AD527F10BAC2F722FF3000F3A031917
:101F7000BF2F0B3A0319BF2F013A031DC12F0530A4
:101F8000C2277308640003130C1EC42F9900043485
:101F90009818ED2F64008C1ECA2F1A08F2000F3A11
:101FA000080083168C0083120800640083165530E5
:101FB0008D00AA308D008C148C18DC2F83128D0AB2
:101FC00003198F0A013464008C1A08000B1DE32FDB
:101FD0000B11FF3E031DE32F0434031386108316F9
:101FE0008610FF308500860081009B0007309C0032
:101FF00098019901830198018B018A0164000028EE
:02400E00742F0D
:02401000FF3F70
:1042000066000000100000004C003D004600580011
:104210004F004D005000430000000000000041002E
:104220003D004F00700065006E005400680065009E
:1042300072006D0020004700610074006500770087
:1042400061007900200034002E0033000000570088
:104250004400540020007200650073006500740083
:104260002100000054006800650072006D006F00BE
:104270007300740061007400200064006900730022
:1042800063006F006E006E006500630074006500DF
:104290006400000054006800650072006D006F004B
:1042A0007300740061007400200063006F006E00F2
:1042B0006E006500630074006500640000004E003D
:1042C000470000005300450000004E00530000006E
:1042D0004200560000004E00460000004F00520011
:1042E00000004F00450000004D00650064006900BB
:1042F00075006D000000480069006700680000005C
:104300004C006F007700200070006F0077006500A0
:10431000720000004500720072006F007200200001
:10432000000042003D00310034003A00330030000C
:104330002000300037002D00300031002D00320009
:10434000300032003100000043003D003400200006
:104350004D0048007A0000004500430053004C0027
:0443600050004200C7
:1043A000000000000000000000000000000000000D
:1043B00000000000000000000000000000000000FD
:1043C0007400750076007700780079007A007B0031
:1043D00000000000000000000000000000000000DD
:1043E00000000000000000000000000000000000CD
:1043F00000000000000000000000000000000000BD
:00000001FF
