:020000040000FA
:080000008A1500278A15A82CBF
:08000800F000030E8301F1007A
:100010000408F2000A08B0008A111108F3008C18D5
:1000200026260D1B982530088A0072088400710E60
:080030008300F00E700E0900C0
:08003800761B4028761A6C23A8
:100040007808B4007908B5007608FA0077087B06CE
:10005000031DE601FB067F115B179120EC01E11EF9
:100060003723031937287F1D61196E2808007F1573
:100070005B13F0227F1D0800DB12F70091206E2831
:10008000DA1577084E060319E013761E6C23372322
:10009000F61A761E55280319502855398007582816
:1000A00077088A1591228A115828FF3A601F800527
:1000B0006013DB17DB1886287F19632891207F19CE
:1000C000611908006E289120DB1661190800403084
:1000D0005B1F70301E23DB135B1F912079087806AD
:1000E0007706F6137606F400F40E7406F400F40CAA
:1000F000F40CF4060130F418F4067418F6177F189F
:1001000008005230761B41308A110E2C912050305D
:10011000F6000430F700AA30F8003908F900DB10C7
:100120006E28F71BA12B00308A0077089A3E03182F
:100130008A0A8200352972298F29AB2BA429AD297F
:10014000B329A12BC629D629D32AE12AD32AE12A09
:10015000EA29AC2BF629AB2BAC2BAC2B262AAC2BEB
:10016000AC2BA12BAC2BAB2BAC2B2F2A392AAC2BD5
:10017000AC2BAC2BAC2BAC2BAC2BAC2BA12BA12BDD
:10018000A12BA12BA12BA12BA12BA12BA12BA12B0F
:10019000A12BA12B452A4F2AAC2BAC2BAC2BAC2B83
:1001A000AC2BAC2B592A792AAC2BAC2BAC2BAC2B1F
:1001B000AC2BAC2BA12BA12BA12BA12BA12BA12BC9
:1001C000A62B992AAC2BAC2BAC2BAC2BAC2BAC2B91
:1001D000AC2BAC2BAC2BAC2BAC2BAC2BAC2BAC2B67
:1001E000AC2BAC2BD32AE12AD32AE12AA12BA12BB9
:1001F000A12BA12BA12BA12BA12BA12BA22AA62B9A
:10020000AC2BAC2BAC2BD32AE12AD32AE12AA12B8D
:10021000A12BA12BA12BAC2BAC2BAC2BAC2BAC2B47
:10022000AC2BAC2BAC2BAC2BAC2BAC2BA12BC22A0C
:10023000C82AAC2B603020297A08C038F61F7F39D5
:100240007606031D7F15F60600347806031D7F151C
:10025000F80600347A1E1A291C2134082521350895
:100260007906031D7F15F9060034761B5229EA2210
:100270006209EE38ED1EFD39F4000301C4080319CC
:10028000C5080319E11901386D1A02388316DA0816
:100290000319DB088312031D1038F405FF3A7805B3
:1002A00074042529F61A08007908B50041390319A4
:1002B0005A12031D5A1A60295A160530CE00E0174B
:1002C0004D30C223790808394630C22379080439F1
:1002D0005730C223790802394830C22378080239DE
:1002E0004330C22B761B8A29EA2244084504611D4B
:1002F0007F197C290319080076160319E11D862948
:1003000042080319520825214308302944082521B1
:1003100045083029F61E0800C401C5010800761FF3
:100320009729013034052521350830211C297818FA
:10033000DE16631A080079080B3C0319E31B08005A
:10034000E317DE1A63170800761F0800AA30780248
:10035000031D08001C2139083029761BAC2B5F1ABD
:100360005F1B0800142A761F080060100301F61EA8
:10037000761ABB29790861060339E1061C21611C44
:10038000E010E11C6011780803382529761BA12BA9
:1003900083165A080319DB0803197F19D029D429B9
:1003A000761625215B08302183120800761F08008D
:1003B000DF19DC29F61E08001C215F1E3A082521E2
:1003C0005F1E3B0830215F13E31ADF1D08005F1D2D
:1003D000DB140800761B0800EA22611F7F19F2294E
:1003E000611D08007616580825213029761B1C2926
:1003F000DF195F1B08005F1A142A3B087902F4001A
:100400003A08031C013E7802031CFF3A031D1B2A15
:10041000031CF409E0307405031D1B2A5F19080052
:100420005F15DF134F30C42B5F123A083B040319EA
:10043000232A5F1708005F1DDF0A5F1D0800631B8A
:10044000232ABA01BB01DF014F30D02B761F0800F1
:10045000BF1B2A291C213E0825213F083029761B75
:100460005A1C0800DA181A291C213C0825213D08CD
:100470003029761B6D1D0800611A1A291C210317EB
:1004800030082521310803133029761F0800E010B9
:10049000F61AAC2B7808D0007908CF00AC2B761F69
:1004A00008006011F61AAC2B7808D2007908D10048
:1004B000AC2B761B672AC008761EE01903190800CA
:1004C0001030202140082521410830213834E01126
:1004D000F61E0800761E732A1C21400803195008D6
:1004E000252141083029C00803190800C001C101B5
:1004F0000800761B872AC208761E601A03190800B6
:10050000103020214208252143083021393460125F
:10051000F61E0800761E932A1C2142080319520871
:10052000252143083029C20803190800C201C3016C
:1005300008000310460C7F1D0318761B0800761672
:1005400030212529761F0800DF19A82AF61E080089
:10055000DF1AD60E7F11AC237F19B52A1C21560E47
:10056000033930216A1B79082521631BDF1EC02A4D
:10057000560E5606031D5F1BC02A5F16DF155F1758
:10058000DF120800761F08001C21033025213029C6
:10059000761FE31F080063137808143C0319E31661
:1005A000031C63170800761F08007F19DB1FAC2BA4
:1005B0007808F61E03190800E700770ACE00E01756
:1005C0000800761B7F1DA62BE80A67086802031C3B
:1005D000E0170800761B08003723FF3A8005080063
:1005E0000030F600F801F901E0080319092B601743
:1005F00060180634E018303460193134E019602A8C
:10060000601A802AE01F082B6808F8004E080800CE
:10061000E0014D08031D272B5B1A1D2B2030FE0027
:10062000DB1ACA0A4A081F39E03E8A1560268A1179
:10063000031D0800FE0B112B5B167F117A04F600D8
:100640003408F8003508F9007B08F700080010307E
:10065000F6007430FE00F40103142F2BFE0AF40D93
:1006600074084D0503192E2BCD067E080800770867
:10067000F500750CF400740C1F39BA3E8400F51BAC
:100680000034033075180C30F400F518F40E00092E
:100690007405F40E740E0800C334C1348F349F34D3
:1006A0000234003403340334C034203400340034C2
:1006B00000340034F0340F340034043407340C3484
:1006C0001234133413341534173419341A341A34D9
:1006D0001A341A341A341E34770D031CF61A080023
:1006E000F400740E0F39F40077080739FE00FE0A93
:1006F00092237406F4067406B10103100318B10ABC
:10070000F40CFE0B7E2B031C08009923B107310D5E
:10071000103E8400831778088000840A79088000DE
:100720008313080003308A0074084C3E03188A0AB9
:100730008200F40003308A0074085C3E03188A0AC1
:100740008200DB1B7F1D761F0800B22BDB1B7F1D89
:10075000761F0800B12BEA22DB1B7F1D761F0800E5
:10076000B401B50177088A1542238A11031D0800D8
:100770001C218317000835043021841300088313DB
:10078000340425290319D02B5F3E84000014FE3069
:10079000000503190800FF3A8605F938E205003420
:1007A0005F3E840000100008031908008604063923
:0407B000E20400342B
:0C07B4008A1560268A1103190800F3233F
:1007C00003170D0ADA2BDA230D30F3230A30F32B4B
:1007D000F500750EEC2375080F39F63E0318073E39
:1007E0000A3EDA17303ECC0803190C1EF92B99008B
:1007F0000034840037084C07B03E031C503E903E46
:100800000406840604068317800083134C08503ABC
:10081000031DCC0A00345430761B42305B190800AB
:10082000F3237608E8237708E8237808E823790893
:10083000E823E42BDE1808008A30DA236408E82372
:10084000E4234530641C0E24E40147080319080022
:1008500084000008F4004708E8233D30F3237408BF
:10086000E823E42B4B084B07103E84008317000855
:10087000FC00840A0008FD00831304308A004B0842
:10088000CB0A453E03188A0A8200672C7F2C672C0E
:100890007F2C7F2C7F2C8F2C7F2C7F2C7F2C7F2CF0
:1008A0007F2C7F2C7F2C7F2C7D2C7F2C7F2CB32CBE
:1008B0008F2C8F2C7F2C7F2C672C932C932CB52C7A
:1008C000B52CB52CB52CB52CB52CB52CB52C7C087D
:1008D0006C242F30F3237D08F4000830FE00F40D63
:1008E0007424FE0B6F2C0800070DF12BFC09FD0989
:1008F000FD0A0319FC0A2D30F32BFC1B76247D0F17
:10090000832CFC0AFD017C0894246430F4007D08EB
:100910008725FD1BFC0A7C08F4002E30A22C7C08E5
:1009200094242F30F3237D08F4007408DA139C3EDE
:10093000031CA42CF4009C3E031CA12CF4003230B8
:10094000A22C3130F323DA17FE017408F400F63ECE
:10095000031CAC2CFE0AA62C7E080319DA1BB1245A
:100960007408DA17F12BFC1B76241030FE00B1015D
:10097000B201B301C12C3308D224B3003208D2240F
:10098000B200FD0DFC0DB30DB20DB10DFE0BBB2C75
:10099000DA133108D9243208D9243308D924DA1BD0
:1009A0000800F12B333EF400F41DFD3EF41FD03E51
:1009B0000800F400740EDD2474080F390319DA1BE3
:1009C000F12B08003608043C031D623404308A0011
:1009D00023085A3C193C031C6834F13E03188A0A68
:1009E00082000F349134A4346F2D68346834602D44
:1009F00068345A2D6834683404342D2D6834132D2E
:100A0000412D322D492D632D522D68340F2D3A2D55
:100A10006834683468342308F3233D30F32B0B2506
:100A20006A08FD3EEC2B0B25DF084E300319F32B33
:100A30003A083B046E300319F32B560E56060F3955
:100A4000DF1ED6065430D61C43305F1D2038F323FA
:100A50003A08FC003B08FD007F2C0B2547307F182F
:100A60004D30F32B0B257F0E0739AC3E8A156026DF
:100A70008A11F32B0B253030ED1A31306D1E4130C9
:100A8000F32B0B255E1E803474305E1B7B30DA2323
:100A900083340B254430E31B5230E31A4330631B8D
:100AA0004930F32B0B256A0EF400F40CF40C74247B
:100AB000F40C742C0B25050D803E7424050D742C4C
:100AC0000B25590EE82B0B2502308A1560268A115A
:100AD000FC0003308A1560268A11FD007F2C0B254F
:100AE0004F306D195230F32B3608043C031D62342D
:100AF0002308313C013C031C68340319832DCB01CE
:100B00005A155B15852D5A115B118A11F12BFC01C9
:100B1000FD01083AFE00083AFE060310FD0DFC0D2B
:100B2000F40D0318FD070318FC0AFE0B8D2D0800B9
:100B30005E0983161C0683120D135C06C039DC06A1
:100B40006119803900380319080040390319DE1D86
:100B5000AC2DFF30E4000800031DDE19B42DDE15B6
:100B6000B80803195C1AD02DB8080319F22D033008
:100B70005D02031C972E5C0DDE19803EB80BDF2D45
:100B800003189C2E5C18A02E5B148A115230D023BF
:100B90005430D0234230D0238A11DE111211EF2DB0
:100BA000B8015C121830DE1B0830050618398506BE
:100BB0008A115830D0234230D0238A11E82D0130D9
:100BC0000318DC06F90DF80DF70DF60DF9065C11AA
:100BD000DD01730891020630031C91028C10643011
:100BE000810008001219FF2DE408031DEF2D2730A6
:100BF00091001215DD0183168C148312EF2D0A303B
:100C00005D020318182E5C0DDE19803E0318EF2DCF
:100C1000DD080319CE2D8A115230C4234230DE196B
:100C20005430C4238A112130B8005C105C11E82DC7
:100C300032305D020318E82DDE195E1EE82D5E1BC2
:100C40005C1FE82D4030DE06DC06E82D8C10DD0A46
:100C50005C1A3E2EB808031D3B2E5D08143C031998
:100C6000682E50305D02031C08001211DE115E1860
:100C7000DE145E100800DD199E2E08005D180800C5
:100C8000B8080319582E0301DC1D18305E1A103AFB
:100C9000050648058506DD18652EDC110314F90DDF
:100CA000F80DF70DF60D0318DC15DD01B80308008B
:100CB00012115C12481ADC168A115830D0235430B5
:100CC000D0234230D0238A1108000830DC06080007
:100CD0005C0DDE19803E031C08004030DE1D8030B4
:100CE000DE06DC06DE1D8A2E5E147F18862EDE1ED2
:100CF00008005E0950390319080010308506DE0629
:100D00005E0550308A11C2238A110800DE11DC1FF3
:100D10000800E82D7F1C0800DE1B10305E0610392D
:100D200003190800DE065E14802E5C15EF2D5C1999
:100D3000EA1A952E0130A12E0230A12E0330A12EE9
:100D40000430E4080319E4005C0DDE19803E031C46
:100D50001211B801DD015C128A115830D0235230D3
:100D6000D0234230D0235430D0238A116409031990
:100D7000BF2E45308A11C4238A117A30E500EF2D49
:100D8000031DD72E06308A006E081F39CB3E03188C
:100D90008A0AEE0A8200DA2E3E2FE62E0034DA2E80
:100DA0003C2FE92EDA2E3E2FF62EF82EFC2E0314C1
:100DB0001327003485138316851317278316851789
:100DC00083121A27851BD72E1827013444303F275A
:100DD00000342B277408103A03190134EE17383AFF
:100DE000031901340A3A03190134D72EBE303F2FBC
:100DF0002B277408EF0001342B27EE1B052F740CF2
:100E00006F0CFC00FD01FD0C0F2F6F0EF039FD0083
:100E1000740EF039F4006F0E0F397404FC00553A6B
:100E20000319D72E03108A15C221EE0101341827A9
:100E3000E8301B2F363083168C10120283120A3EC4
:100E4000910012158C1C222F12118C1008002927DA
:100E50002927000008002C272F272F272F2785134D
:100E6000831685130310851783122827851B031407
:100E7000F40C2D301B27080033303F2FCC30F4000A
:100E80004127442744274427F40C851383168513F0
:100E90000318851732301B278316851783120134F8
:100EA0006217E21355276213E21707308A005908C8
:100EB000E21B590E07395F3E03188A0A82006A2F27
:100EC000762F792F792F792F6A2F6A2F672FF0309D
:100ED000E21FD9056208C039831685048312080011
:100EE00062093F388316850583120800702785053F
:100EF00008007027FF3A850408006217E213822772
:100F00006213E21707308A005908E21B590E0739AD
:100F10008C3E03188A0A8200080008000800942FFB
:100F20009B2FAC2FAE2FA22F0508E21805096205F2
:100F3000C039850608000508621905096205C0392F
:100F400085060800DC1E0800B8088A11C0268A1130
:100F500000380319DC1208000509AF2F05086205E7
:100F6000C039031DB92FE21D0800E211FC01FD018B
:100F7000C42FE2190800E21502308A156026FC0031
:100F800003306026FD0001308A1533218A110800E4
:041000000034003484
:0C100400DA1A422804303602031C623461
:1010100022083D3C031D623420088A11F323210875
:10102000F3233A30F3232030F32308308A002008DA
:101030002106F400E039031D832C7408223E0318B6
:101040008A0A820044284F2857285F2864286C2881
:10105000F3287428BC28BC28BC287B285F34BC2813
:10106000BC28BC2880288B2893285F3498285F34BC
:101070005F349D285F345F345F34A228AA28AF28EC
:101080005F34B728DA1271342008543A03192D2935
:10109000153A03196D2A0C3A0319E82A5F3420081F
:1010A000523A0319A12B013A0319FE2A5F34200892
:1010B000503A0319FA2A1B3A0319672B5F342008A8
:1010C000503A0319FC2A5F342008563A0319352A8E
:1010D000053A03196D295F342008443A0319842A1C
:1010E000123A0319A629F32820084F3A03199C2B1A
:1010F0001B3ADE2A5F342008433A03192E2A5F3454
:101100002008533A0319E329143A0319B32A043A7D
:1011100003199D295F342008433A0319342B103AF0
:10112000031961295F342008463A03199E2A5F3467
:101130002008443A0319D9295F342008543A031986
:1011400028295F3420084F3A0319B5291C3A03199E
:1011500085295F342008553A03194E2B5F34200847
:10116000493A03198E2B193A0319CB2B5F34200807
:10117000483A03191E2A5F3420084C3A031D5F3495
:101180003608043C031D62342308F4005A3C193C21
:10119000031C683441302102063E512223088A1183
:1011A000F3238A1541302102F4002308FC000830A3
:1011B000F418403074190230B10003107418B10DE6
:1011C000A03084001A30FE0031098005840AFE0B2D
:1011D000E5287C085F3E8400310880047C08001C00
:1011E00003158A11C22B2008473C031D5F343608C3
:1011F000043C031D623430302302F400F839031D2F
:101200006234F03021180A295905703C03195A102C
:10121000F40E0F3059057404D900F4000130512246
:101220006217E213C030211CE2068A1155275908C3
:10123000211C590E07398A11F12B03103608043A84
:10124000031D62342308313C013C03180800683454
:101250001124031808000130312911240318080053
:1012600003303321C02956060F39D6060030631FDC
:101270003E293A083B04031D5F161030DF057D0848
:10128000BB007C08BA00DF155F17DF16B901E31A4F
:10129000DB143B0403195D29E31E08003A085C24B3
:1012A0007D08B9003B085C247C08B907FD1BB90A1E
:1012B0003A08FC003B08FD0008005F165610D610E7
:1012C0000800112403180800031962340230512267
:1012D0007D08F40003305122C029152403180800AA
:1012E00003197C294F087E24031C683450087E248F
:1012F000031D031C7E296834E01180296118E01564
:101300007D08C1007C08C000C0291524031808000E
:101310000319942951087E24031C683452087E2442
:10132000031D031C9629683460129829E118601681
:101330007D08C3007C08C200C029112403180800DE
:10134000C4007D08C5007830D300C029DA23031813
:10135000B3298008031D6234643C031C6E34740D91
:10136000C6008A11952CC601BC2915240318080053
:10137000FC1F7C1FBF295A102D308A11F32BC92165
:101380008A117D2C30306D1DC9296116031C611234
:10139000D0295A14DA14031CDA103C30D1212E3033
:1013A000831784007C088000840A7D0880008313F2
:1013B00008003608053C031D6234F42303180800B6
:1013C000C7008A11E82BDA2303180800BE00173C77
:1013D000031C6E3400083A3C031D6234840ADB238C
:1013E00003186234BF003B3C031C6E3400082F3CE2
:1013F000031D6234840A30300002031D031C68346C
:10140000F400F839031D6834840A8008031D62342F
:10141000F40E0310740DBE047830D3003E081F395B
:10142000F4008A11A3243F08F4003A30A2242F309C
:10143000F3233E0EF400740C0739F12B3608043CFC
:10144000031D62346D12ED122308313C0319ED16B1
:10145000FE3903196D164B228A113B2D1D21031CE9
:1014600008006210031962141B293608043C031D8E
:1014700062342308393C093C031C6834033EF40001
:10148000E03883169D008312E0306A057404EA0098
:101490004F228A11102D6D08F4000E30512AF400ED
:1014A00000308A1554268A1583128D00740803179C
:1014B00083160C1483120C0603196A2A8C068316F1
:1014C0000C158B1355308D00AA308D008C148B17A2
:1014D0000C1183120C0803130800DA230318080008
:1014E00003196E348008031D62345B12E0308A15E4
:1014F00060268A150319812A03170D0F772A031313
:10150000653456228A11942CDA2303180800031933
:101510006E348008031D62349122031D08008A1175
:10152000952CF400E0308A1560268A15740603199C
:10153000572A03170D0F932A03136B343608043C04
:10154000031D6234E3012308433A0319E3160A3A00
:1015500003196317E308031D63166308F4000D30D5
:1015600051228A114A2D3608043C031D62341D2184
:10157000031CD42A6D14ED067F060139031DC42A0D
:10158000FF14C622FF18A3004B22992B12195034C6
:101590007F106D1CFF197F1403307F1806308316EF
:1015A0009C008312FF1008002308523C031D68347E
:1015B0006B148610831686108A11002823084F3A70
:1015C000031D1D3A031D68346D11231C6D15C42ABB
:1015D000DA230318F62A8008031D6234643C031CD6
:1015E0006E346117643CD8008A11942C6113643006
:1015F000D800BC298A11E22C8A11742DDA23031831
:10160000080003196834F5003A300002031D623403
:10161000840AFC01DB2303180800800803191C2B33
:10162000FC002C300002031D6234840ADB23031803
:1016300008008008031D6234FD0075084223031969
:10164000252B03014223031D653483177D08800089
:1016500084137C08800083138417750880008A1126
:1016600094243A30F3238F2CDA230318080003194B
:1016700068348008031D62344223031D6B348001EB
:101680008A11952CF400E0308400000874060319D8
:10169000080001308407831C452B0034DA2303182B
:1016A0000800031DFC00FC1B68348008031D623425
:1016B0008A1138238A1580047C087F23D03E8A153E
:1016C00060268A15740457227C088A11942CDA2328
:1016D00003180800031DFC00FC1B68348008031D70
:1016E00062348A1138238A15FF3A80057C087F23EB
:1016F000D03E8A1560268A15F4097405632B031001
:10170000F5000130F5180430F4007518F40D751962
:10171000F40EF50E750D750D1F3908001D21031C03
:10172000080020302318EA04FF3A231CEA056A085F
:101730004F2223088A11F32B1D21031C080040307F
:10174000922B3608063C031D62340130F400230856
:10175000483A0319B12B1F3A031D62340430F400D8
:1017600012302406423A0319BA2B123A031D62348E
:101770000310F40D2508533A0319C22B1B3A031D1D
:101780006234F40E7408CD0423088A11F32324086C
:10179000F3232508F32BDA23031808008008031D20
:1017A0006234CE00E017E701E8018A11942C23305F
:1017B00084000800D7230008393C093C031C5A2C3C
:1017C000F400840A0008393C093C031CF22BB100E8
:1017D0001A30740203186E34740868243107031C2D
:1017E000E02B6E3474080800D723FE23031808008A
:1017F000F400F40EFE23031C7404080030300002D1
:10180000031C5A2CF63E031C0D2CDF39F93E031C39
:101810005A2CFA3E03186234063E0A3E840A03102C
:101820000800D72300082D3C1B2CD7235A1700088B
:101830002D3C03191E2C5A13023C0319840ADB2386
:1018400003180800FC0100080319412C2E3C031D5D
:101850005A2C0730FE00840A00080319412C393C39
:10186000093C031C5A2C7E196824FE18FC0703103F
:10187000FE0CFE080319031C2B2CFB3E0318FC0A6C
:101880002B2C5A1F4A2CF409FC080319582C7C08ED
:10189000643CFC00FD016E240318F40AB208031D29
:1018A000013EFD007408FC000319FD080310080048
:1018B000F40A4A2C03146234FC01FD0064246424FD
:1018C000FD070318FC0A08000310FD0DFC0D0800BD
:1018D000B200B207B20DB207320D08001030FE00A0
:1018E000B101B201FD0DFC0DB20D643032020318DE
:1018F000B200B10DFE0B722C310808007C02031DF2
:101900000800FD0808002108323A031D5F34200852
:10191000433A0319952C0B3A031D5F341D21031C18
:1019200008006212031962161B291124031808000B
:0C1930008316DA007D08DB008312C0295A
:04193C009A08E91A02
:10194000A42CE9016A2D6B14EB148A1500278A1563
:10195000031383128601831660308F0007309B00CB
:10196000E73085002730860003300E0640308E18A1
:101970005030831203196B0EFF00031EFF158316F0
:1019800003308E00D5308100F93092008312003090
:1019900092008E018F013130900020309925A030C7
:1019A0009925831710309925BF1781010B11640009
:1019B0000B1DD72C8316193099001815181298167C
:1019C00083129817FF1D181641309F0000306026C3
:1019D000EA00E03883169D000E306026ED008A157F
:1019E000C8228A1583160D178C141C0983010D1348
:1019F000C039DC00FF3086005C1FF739DC1FEF398F
:101A000085000B17FF1D8B17CA090730E000143043
:101A1000CF005030D0000A30D1005A30D2006430AC
:101A2000D8003D30D4000D306026E3001030FE00B9
:101A3000FC01D030B10031086026FD007C08FD08B3
:101A400003192D2DFC000310FD0C031C2B2D8A11F6
:101A500038238A1580047C0A1F2D0730FC04FC0AF9
:101A6000B10AFE0B1B2D11308A11E3238A15F401F4
:101A7000063060268A15D6208A15F40A07306026BB
:101A80008A15D6208A15F40A083060268A15D620D1
:101A90008A15F40A093060268A15D6208A15F40AB8
:101AA0000A3060268A15D6208A15F40A0B30602683
:101AB0008A15D6208A1501306026D9008A11502750
:101AC0008A15FF1D6A2D4D308A11C42327308A11D3
:101AD000E3238A156400CC08031D4426FF196A2DF0
:101AE0005B18B925DE18E8250B19F5250C181B26FF
:101AF0000C1B6A268A117D278A155A192F26661B08
:101B0000A32C8C1E6A2D18199E2C981C8A2D181235
:101B10001816DA16A125DB1D6A2D8A150220B601DA
:101B2000DB118A110038031DDA23E4238A15E4252A
:101B30006A2D84008001840A04097039031D9A2DDE
:101B400008003608203E84001A08DB1908008000CF
:101B50000A3A03190800073A0319B32D3608013E63
:101B6000831CB6000800B608031908008001DB15C5
:101B700008008A110B248A155B108A111C208A1513
:101B80007F18CB2D611DCD2DDC1677087B06031D3C
:101B9000E42DD50A5512E601E42D0130DD00DC15F7
:101BA0005C1658308A11C4235430761F4230C42347
:101BB0000830761B1030C8002230B80083168C1411
:101BC0008312F930910012158A1125248A15080014
:101BD000DE105E1A5E1FF02D5708803C031C0800C3
:101BE0008A114225E3238A1508000B11D40B032E1A
:101BF000DA19E60AE1173D30D4006C0FEC0005302D
:101C00006C0203188511E91EE90A121D1F158A15B9
:101C1000FF18C6228A1164090319E401E408031DB0
:101C20001A248A15E508031DE50B080045308A11C2
:101C3000D0238A1508000C10D31F2926DF195F193D
:101C400008008030DF065F054F308A11C2238A15F5
:101C50000800D30B0800BF17C401C50108004C08D9
:101C60003C3C031C08008A1132248A1522304B02A6
:101C700003183F2E2C308A11F3238A1508005A11BD
:101C80008A11E4238A1508000C1E08003708903ECC
:101C900084008317000883139900B70A5030370671
:101CA0000319B701CC030800031783168C1C080026
:101CB000831203138C1E542EF500A1257508542E93
:101CC00054268C0183128D0083160C1483120C0889
:101CD000031308000C131E085706D70657065702B1
:101CE000031C003CFC39031DA02E5708803C031C3C
:101CF0008A2E7A3C031C882E611D0800343C031C8C
:101D0000A22E6111E1114A308A11E3238A150800DD
:101D1000E1158B2EE1116119A22E611532308A1165
:101D2000E3238A1512118030DE055C17631EE30180
:101D3000DF01BA01BB0150308A11D0238A15080097
:101D4000611D08007F1CE11F08000030F600F8014B
:101D5000F901E112B526F7008A112620761A6C23C4
:101D60007708FB00E1138A15CD2D0E308A00550847
:101D7000BC3E03188A0A8200003419340134CC2E88
:101D800011341B341C340E34CC2E0034193401347D
:0C1D900038343934CC2E1234E116003403
:101E0000031E08008B138316031360308F002730E6
:101E10008600E730850007309B00E6309D000630E5
:101E20009C00D73081001930990026309800831229
:101E300098171816FF30860081010130E327C2276A
:101E40001030E3278C1E0800C827031D08008317E5
:101E500010308400F001C8270319282F0B3A03190A
:101E6000392F013A0319C82772088000F007840A45
:101E70002B2FF008031D822F031712088D00130863
:101E80008F00143084001108F1000F308A00100810
:101E9000083C083C031C822F8207592F5F2F872F95
:101EA000992FA12FAC2F822F822FED2F0101000F30
:101EB000FF0F56308D000F308F00123084008316D4
:101EC0008C170C140000000083120C088000840A98
:101ED0000E088000840A8D0A03198F0AF10B5F2F08
:101EE00010300402F1000F30C227F00110308400DE
:101EF0000008F007840AB527F10B782F7009013E1E
:101F0000B527C2270313C8270319282F822F84302F
:101F1000D127FC308D050430F40000088C00840AC1
:101F200000088E00840AD527F40B8D2FF10B872F24
:101F3000722F9430D1271F308D04D527F10B992FA4
:101F4000722F83168C010C1483120C088000840AF3
:101F50008D0AF10BA12F702F0430D12700088C00BF
:101F6000840AD527F10BAC2F722FF3000F3A031917
:101F7000BF2F0B3A0319BF2F013A031DC12F0530A4
:101F8000C2277308640003130C1EC42F9900043485
:101F90009818ED2F64008C1ECA2F1A08F2000F3A11
:101FA000080083168C0083120800640083165530E5
:101FB0008D00AA308D008C148C18DC2F83128D0AB2
:101FC00003198F0A013464008C1A08000B1DE32FDB
:101FD0000B11FF3E031DE32F0434031386108316F9
:101FE0008610FF308500860081009B0007309C0032
:101FF00098019901830198018B018A0164000028EE
:02400E00742F0D
:02401000FF3F70
:1042000067000000100000004C003D004600580010
:104210004F004D005000430000000000000041002E
:104220003D004F00700065006E005400680065009E
:1042300072006D0020004700610074006500770087
:1042400061007900200035002E0033000000570087
:104250004400540020007200650073006500740083
:104260002100000054006800650072006D006F00BE
:104270007300740061007400200064006900730022
:1042800063006F006E006E006500630074006500DF
:104290006400000054006800650072006D006F004B
:1042A0007300740061007400200063006F006E00F2
:1042B0006E006500630074006500640000004E003D
:1042C000470000005300450000004E00530000006E
:1042D0004200560000004E00460000004F00520011
:1042E00000004F00450000004D00650064006900BB
:1042F00075006D000000480069006700680000005C
:104300004C006F007700200070006F0077006500A0
:10431000720000004500720072006F007200200001
:10432000000042003D00310036003A003400330006
:104330002000320034002D00300032002D00320009
:10434000300032003200000043003D003400200005
:104350004D0048007A0000004500430053004C0027
:0443600050004200C7
:1043A000000000000000000000000000000000000D
:1043B00000000000000000000000000000000000FD
:1043C0007400750076007700780079007A007B0031
:1043D00000000000000000000000000000000000DD
:1043E00000000000000000000000000000000000CD
:1043F00000000000000000000000000000000000BD
:00000001FF
