:020000040000FA
:080000008A1500278A15A52CC2
:08000800F000030E8301F1007A
:100010000408F2000A08B0008A111108F3008C18D5
:1000200012260D1B8A2530088A0072088400710E82
:080030008300F00E700E0900C0
:08003800761B4028761A5E23B6
:100040007808B4007908B5007608FA0077087B06CE
:10005000031DE601FB067F115B178F20EC015E1F7D
:100060002923031937287F1D61196E2808007F1581
:100070005B13E2227F1D0800DB12F7008F206E2841
:10008000DA1577084E060319E013761E5E2329233E
:10009000F61A761E55280319502855398007582816
:1000A00077088A1591228A115828FF3A601F800527
:1000B0006013DB17DB1884287F1963288F207F19D2
:1000C000611908006E288F20DB1661190800403086
:1000D0005B1F70301023DB135B1F8F2079087806BD
:1000E0007706F6137606F400F40E7406F400F40CAA
:1000F000F40CF4060130F418F4067418F6175230B4
:10010000761B41308A11002C8F205030F6000430CD
:10011000F700AA30F8003908F900DB106E28F71B49
:10012000932B00308A007708983E03188A0A8200D1
:1001300030296D2989299D2B9E29A729AD29932B2B
:10014000C029D029C52AD32AC52AD32AE0299E2B23
:10015000EC299D2B9E2B9E2B1C2A9E2B9E2B932B9A
:100160009E2B9D2B9E2B252A2F2A9E2B9E2B9E2B32
:100170009E2B9E2B9E2B9E2B932B932B932B932B63
:10018000932B932B932B932B932B932B932B932B7F
:100190003B2A452A9E2B9E2B9E2B9E2B9E2B9E2BD5
:1001A0004F2A6F2A9E2B9E2B9E2B9E2B9E2B9E2B87
:1001B000932B932B932B932B932B932B982B8F2A4F
:1001C0009E2B9E2B9E2B9E2B9E2B9E2B9E2B9E2BE7
:1001D0009E2B9E2B9E2B9E2B9E2B9E2B9E2B9E2BD7
:1001E000C52AD32AC52AD32A932B932B932B932B3F
:1001F000932B932B932B932B982A982B9E2B9E2BF0
:100200009E2BC52AD32AC52AD32A932B932B932B13
:10021000932B9E2B9E2B9E2B9E2B9E2B9E2B9E2BA1
:100220009E2B9E2B9E2B9E2B932BB42ABA2A9E2B61
:1002300060301E297A08C038F61F7F397606031D04
:100240007F15F60600347806031D7F15F806003486
:100250003408232135087906031D7F15F90600347B
:10026000761B4D29DC226209EE38ED1EFD39F400C3
:100270000301C4080319C5080319E11901386D1AEF
:1002800002388316DA080319DB088312031D1038BD
:10029000F405FF3A780574042329F61A0800790852
:1002A000B500413903195A12031D5A1A5B295A160F
:1002B0000530CE00E0174D30B423790808394630B8
:1002C000B423790804395730B42379080239483007
:1002D000B423780802394330B42B761B8429DC22FE
:1002E00044080319C50803197F198029E11D080076
:1002F000420803197F297616232143082B29520827
:100300007616232145082B29F61E0800C401C501D5
:100310000800761F912901303405232135082B214F
:100320001A297818DE17631A080079080B3C03199C
:10033000E31B0800E317DE1B63170800761F0800A5
:10034000AA307802031D08001A2139082B29761BD0
:100350009E2B5F1A5F1B08000A2A761F0800601098
:100360000301F61E761AB529790861060339E106FC
:100370001A21611CE010E11C601178080338232960
:10038000761B932B83165A080319DB0803197F1970
:10039000CA29CE29761623215B082B218312080057
:1003A000761F08001A215F1E3A0823215F1E3B08B2
:1003B0002B215F13E31ADF1D08005F1DDB1408000B
:1003C000761B0800DC22611F7F19E829611D0800E7
:1003D0007616580823212B29761B1A29DF195F1B53
:1003E00008005F1A0A2A3B087902F4003A08031C45
:1003F000013E7802031CFF3A031D112A031CF40975
:10040000E0307405031D112A5F1908005F15DF1322
:100410004F30B62B5F123A083B040319192A5F17B5
:1004200008005F1DDF0A5F1D0800631B192ABA015F
:10043000BB01DF014F30C22B761F08001A21D31FEA
:1004400028293E0823213F082B29761B5A1C080027
:10045000DA1818291A213C0823213D082B29761B7C
:100460006D1D0800611A18291A2103172E0823216F
:100470002F0803132B29761F0800E010F61A9E2B75
:100480007808D0007908CF009E2B761F08006011F5
:10049000F61A9E2B7808D2007908D1009E2B761B85
:1004A0005D2AC008761EE0190319080010301E21CD
:1004B0004008232141082B213834E011F61E0800A2
:1004C000761E692A1A214008031950082321410881
:1004D0002B29C00803190800C001C1010800761BC0
:1004E0007D2AC208761E601A0319080010301E21EA
:1004F0004208232143082B2139346012F61E0800DC
:10050000761E892A1A21420803195208232143081A
:100510002B29C20803190800C201C30108000310F7
:10052000460C7F1D0318761B080076162B21232905
:10053000761F0800DF1AD60E7F119E237F19A72A87
:100540001A21560E03392B216A1B79082321631BBC
:10055000DF1EB22A560E5606031D5F1BB22A5F1617
:10056000DF155F17DF120800761F08001A2103301D
:1005700023212B29761FE31F080063137808143CFE
:100580000319E316031C63170800761F08007F1980
:10059000DB1F9E2B7808F61E03190800E700770A78
:1005A000CE00E0170800761B7F1D982BE80A67082D
:1005B0006802031CE0170800761B08002923FF3A95
:1005C000800508000030F600F801F901E008031981
:1005D000FB2A601760180634E01830346019313493
:1005E000E019562A601A762AE01FFA2A6808F800ED
:1005F0004E080800E0014D08031D192B5B1A0F2B54
:100600002030FE00DB1ACA0A4A081F39E03E8A156C
:100610005B268A11031D0800FE0B032B5B167F115E
:100620007A04F6003408F8003508F9007B08F70072
:1006300008001030F6007430FE00F4010314212B82
:10064000FE0AF40D74084D050319202BCD067E0813
:1006500008007708F500750CF400740C1F39BA3ED9
:100660008400F51B0034033075180C30F400F518C5
:10067000F40E00097405F40E740E0800C334C1347E
:100680008F349F340234003403340334C0342034B4
:100690000034003400340034F0340F3400340434B7
:1006A00007340C341234133413341534173419341A
:1006B0001A341A341A341A341A341E34770D031CBF
:1006C000F61A0800F400740E0F39F40077080739A1
:1006D000FE00FE0A84237406F4067406B1010310BA
:1006E0000318B10AF40CFE0B702B031C08008B23BB
:1006F000B107310D103E8400831778088000840A0A
:10070000790880008313080003308A0074083E3E95
:1007100003188A0A8200F40003308A0074084E3EEF
:1007200003188A0A8200DB1B7F1D761F0800A42B9A
:10073000DB1B7F1D761F0800A32BDC22DB1B7F1D2C
:10074000761F0800B401B50177088A1542238A1183
:10075000031D08001A218317000835042B21841378
:1007600000088313340423290319C22B5F3E84003D
:100770000014FE30000503190800FF3A8605F93819
:10078000E20500345F3E84000010000803190800F1
:0807900086040639E20400347E
:080798008A155B268A11031982
:1007A0000800E52303170D0ACC2BCC230D30E523DD
:1007B0000A30E52BF500750EDE2375080F39F63E7D
:1007C0000318073E0A3EDA17303ECC0803190C1E08
:1007D000EB2B99000034840037084C07B03E031C13
:1007E000503E903E0406840604068317800083135F
:1007F0004C08503A031DCC0A00345430761B42306A
:100800005B190800E5237608DA237708DA237808ED
:10081000DA237908DA23D62B5E1908008A30CC2334
:100820006408DA23D6234530641C0024E401470819
:100830000319080084000008F4004708DA233D305B
:10084000E5237408DA23D62B4B084B07103E8400AF
:1008500083170008FC00840A0008FD00831304309D
:100860008A004B08CB0A373E03188A0A8200592CAB
:10087000712C592C712C712C712C812C712C712C98
:10088000712C712C712C712C712C712C6F2C712C82
:10089000712CA52C812C812C712C712C592C852C20
:1008A000852CA72CA72CA72CA72CA72CA72CA72CD2
:1008B000A72C7C085E242F30E5237D08F400083047
:1008C000FE00F40D6624FE0B612C0800070DE32BDF
:1008D000FC09FD09FD0A0319FC0A2D30E52BFC1B60
:1008E00068247D0F752CFC0AFD017C088624643089
:1008F000F4007D087925FD1BFC0A7C08F4002E30ED
:10090000942C7C0886242F30E5237D08F40074089D
:10091000DA139C3E031C962CF4009C3E031C932C83
:10092000F4003230942C3130E523DA17FE017408DC
:10093000F400F63E031C9E2CFE0A982C7E08031938
:10094000DA1BA3247408DA17E32BFC1B682410308D
:10095000FE00B101B201B301B32C3308C424B300CB
:100960003208C424B200FD0DFC0DB30DB20DB10D63
:10097000FE0BAD2CDA133108CB243208CB2433081C
:10098000CB24DA1B0800E32B333EF400F41DFD3EBC
:10099000F41FD03E0800F400740ECF2474080F3901
:1009A0000319DA1BE32B08003608043C031D6234EC
:1009B00004308A0023085A3C193C031C6834E33E87
:1009C00003188A0A82000F349134A434612D6834EC
:1009D0006834522D68344C2D6834683404341F2D2B
:1009E0006834052D332D242D3B2D552D442D683491
:1009F000012D2C2D6834683468342308E5233D30FC
:100A0000E52BFD246A08FD3EDE2BFD24DF084E3079
:100A10000319E52B3A083B066E300319E52B560EF9
:100A200056060F39DF1ED6065430D61C43305F1DE4
:100A30002038E5233A08FC003B08FD00712CFD241A
:100A400047307F184D30E52BFD247F0E0739AC3E33
:100A50008A155B268A11E52BFD243030ED1A3130E2
:100A60006D1E4130E52BFD245E1C80347430DE1891
:100A70007B30CC238334FD244430E31B5230E31A13
:100A80004330631B4930E52BFD246A0EF400F40C5F
:100A9000F40C6624F40C662CFD24050D803E6624BF
:100AA000050D662CFD24590EDA2BFD2402308A1523
:100AB0005B268A11FC0003308A155B268A11FD0033
:100AC000712CFD244F306D195230E52B3608043C53
:100AD000031D62342308313C013C031C68340319B4
:100AE000752DCB015A155B15772D5A115B118A11A3
:100AF000E32BFC01FD01083AFE00083AFE06031054
:100B0000FD0DFC0DF40D0318FD070318FC0AFE0B88
:040B10007F2D08002D
:0C0B140083161C0E83120D135C060C39B6
:100B200003190800DC0604390319DE1D9A2DFF3075
:100B3000E4000800031DDE19A22DDE15B808031914
:100B40005C1AC02DB8080319E12D03305D02031CA7
:100B5000852E83161C0D8312DE19803EB80BCF2D17
:100B6000031C8A2EDC1B8E2E5B148A115230C2238A
:100B70005430C2234230C2238A11DE111211DE2DFD
:100B8000B8015C1218305E18083005061839850661
:100B90008A115830C2234230C2238A11D72D8030A7
:100BA0000318DC06F90DF80DF70DF60D5C13DD01E9
:100BB000730891020630031C91028C10643081008E
:100BC00008001219EE2DE408031DDE2D2A309100D5
:100BD0001215DD0183168C148312DE2D0A305D029E
:100BE0000318D72D83161C0D8312DE19803E031CBB
:100BF000DE2D83161C1E031083120318DE18022E2E
:100C0000DE145E15DD080319BE2D8A115230B6239D
:100C10004230DE195430B6238A112130B800DC137B
:100C20005C13D72D8C10DD0A5C1A302EB80803191E
:100C3000DE1D2D2E5D08143C03195A2E50305D0226
:100C4000031C08001211DE1183161C1E03108312F0
:100C5000031C0800DE145E150800DD198C2E080048
:100C60005D180800B80803194A2E03015C1C1830EF
:100C70005E18103A050648058506DD18572E5C10EB
:100C80000314F90DF80DF70DF60D03185C14DD01D2
:100C9000B803080012115C12481ADC168A11583089
:100CA000C2235430C2234230C2238A1108000130CB
:100CB000DC0608005C190800DE1F762E8316103053
:100CC0009C061C1E03101C0E83120D135C060C39AF
:100CD000DC060318782E5E15DE1C08005E10DE10A0
:100CE000051650308A11C2238A110800DE1608004A
:100CF0005E18812E5E14051250308A11B6238A11B7
:100D00000800DE1408005C17DE2D5C1BEA1A832E37
:100D100001308F2E02308F2E03308F2E0430E408E6
:100D20000319E4001211B801DD015C128A11583078
:100D3000C2235230C2234230C2235430C22364093A
:100D40000319A62E4530B6237A30E5008A11DE2D30
:100D5000031DBF2E06308A006E081F39B33E0318EC
:100D60008A0AEE0A8200C22E262FCE2E0034C22E10
:100D7000242FD12EC22E262FDE2EE02EE42E031499
:100D8000FB260034851383168513FF2683168517EB
:100D900083120227851BBF2E0027013444302727EA
:100DA000003413277408103A03190134EE17383A47
:100DB000031901340A3A03190134BF2EBE30272F1C
:100DC00013277408EF0001341327EE1BED2E740C6B
:100DD0006F0CFC00FD01FD0CF72E6F0EF039FD00CD
:100DE000740EF039F4006F0E0F397404FC00553A9C
:100DF0000319BF2E03108A15C221EE01013400270A
:100E0000E830032F363083168C10120283120A3E0C
:100E1000910012158C1C0A2F12118C10080011273A
:100E200011270000080014271727172717278513F5
:100E3000831685130310851783121027851B03144F
:100E4000F40C2D30032708003330272FCC30F4006A
:100E500029272C272C272C27F40C85138316851380
:100E60000318851732300327831685178312013440
:100E70006217E2133D276213E21707308A00590810
:100E8000E21B590E0739473E03188A0A8200522F87
:100E90005E2F612F612F612F522F522F4F2FF03075
:100EA000E21FD9056208C039831685048312080041
:100EB00062093F3883168505831208005827850587
:100EC00008005827FF3A850408006217E2136A27D2
:100ED0006213E21707308A005908E21B590E0739DE
:100EE000743E03188A0A82000800080008007C2F5C
:100EF000832F942F962F8A2F0508E2180509620583
:100F0000C039850608000508621905096205C0395F
:100F100085060800DC1E0800B8088A11A8268A1178
:100F200000380319DC1208000509972F050862052F
:100F3000C039031DA12FE21D0800E211FC01FD01D3
:100F4000AC2FE2190800E21502308A155B26FC007E
:100F500003305B26FD0001308A1535218A11080017
:041000000034003484
:0C100400DA1A442804303602031C62345F
:1010100022083D3C031D623408308A002008210666
:10102000F400E039031D802C20088A11E5232108F3
:10103000E5233A30E5232030E52308308A007408A0
:10104000243E03188A0A820046285128592861281C
:1010500066286E28F5287628BE28BE28BE287D285A
:101060005F34BE28BE28BE2882288D2895285F348C
:101070009A285F345F349F285F345F345F34A4283C
:10108000AC28B1285F34B928DA1271342008543AF8
:1010900003192F29153A03196D2A0C3A0319E82A66
:1010A0005F342008523A0319A12B013A0319FE2A92
:1010B0005F342008503A0319FA2A1B3A0319672BA8
:1010C0005F342008503A0319FC2A5F342008563A4E
:1010D0000319352A053A03196F295F342008443A69
:1010E0000319842A123A0319A629F52820084F3A31
:1010F00003199C2B1B3ADE2A5F342008433A03195C
:101100002E2A5F342008533A0319E329143A0319AD
:10111000B32A043A03199F295F342008433A03197C
:10112000342B103A031963295F342008463A031917
:101130009E2A5F342008443A0319D9295F342008D5
:10114000543A03192A295F3420084F3A0319B52964
:101150001C3A031987295F342008553A03194E2B8E
:101160005F342008493A03198E2B193A0319CB2B07
:101170005F342008483A03191E2A5F3420084C3A8D
:10118000031D5F343608043C031D62342308F40059
:101190005A3C193C031C683441302102063E51225E
:1011A00023088A11E5238A1541302102F40023081F
:1011B000FC000830F418403074190230B1000310FC
:1011C0007418B10DA03084001A30FE00310980057A
:1011D000840AFE0BE7287C085F3E84003108800407
:1011E0007C08001C03158A11B42B2008473C031D02
:1011F0005F343608043C031D623430302302F400AF
:10120000F839031D6234F03021180C295905703C5F
:1012100003195A10F40E0F3059057404D900F40064
:10122000013051226217E213C030211CE2068A11FC
:101230003D275908211C590E07398A11E32B031049
:101240003608043A031D62342308313C013C03187C
:10125000080068345324031808000130332953244C
:101260000318080003303521C02956060F39D60669
:101270000030631F40293A083B04031D5F161030FD
:10128000DF057D08BB007C08BA00DF155F17DF169D
:10129000B901E31ADB143B0403195F29E31E0800BC
:1012A0003A0859247D08B9003B0859247C08B9073D
:1012B000FD1BB90A3A08FC003B08FD0008005F1658
:1012C0005610D6100800532403180800031962347E
:1012D000023051227D08F40003305122C02911242C
:1012E0000318080003197E294F087B24031C683467
:1012F00050087B24031D031C80296834E0118229D7
:101300006118E0157D08C1007C08C000C0291124C7
:10131000031808000319962951087B24031C68341C
:1013200052087B24031D031C9829683460129A29F3
:10133000E11860167D08C3007C08C200C029532450
:1013400003180800C4007D08C500C029DA2303186B
:10135000B3298008031D6234643C031C6E34740D91
:10136000C6008A11872CC601BC2911240318080065
:10137000FC1F7C1FBF295A102D308A11E52BC92173
:101380008A116F2C2E306D1DC9296116031C611244
:10139000D0295A14DA14031CDA103C30D1212C3035
:1013A000831784007C088000840A7D0880008313F2
:1013B00008003608053C031D6234F42303180800B6
:1013C000C7008A11DA2BDA2303180800BE00173C85
:1013D000031C6E3400083A3C031D6234840ADB238C
:1013E00003186234BF003B3C031C6E3400082F3CE2
:1013F000031D6234840A30300002031D031C68346C
:10140000F400F839031D6834840A8008031D62342F
:10141000F40E0310740DBE04F830D3003E081F39DB
:10142000F4008A1195243F08F4003A3094242F30B8
:10143000E5233E0EF400740C0739E32B3608043C18
:10144000031D62346D12ED122308313C0319ED16B1
:10145000FE3903196D164B228A112D2D1F21031CF5
:1014600008006210031962141D293608043C031D8C
:1014700062342308393C093C031C6834033EF40001
:10148000E03883169D008312E0306A057404EA0098
:101490004F228A11022D6D08F4000E30512AF400FB
:1014A00000308A154F268A1583128D0074080317A1
:1014B00083160C1483120C0603196A2A8C068316F1
:1014C0000C158B1355308D00AA308D008C148B17A2
:1014D0000C1183120C0803130800DA230318080008
:1014E00003196E348008031D62345B12E0308A15E4
:1014F0005B268A150319812A03170D0F772A031318
:10150000653456228A11862CDA2303180800031941
:101510006E348008031D62349122031D08008A1175
:10152000872CF400E0308A155B268A1574060319AF
:10153000572A03170D0F932A03136B343608043C04
:10154000031D6234E3012308433A0319E3160A3A00
:1015500003196317E308031D63166308F4000D30D5
:1015600051228A113C2D3608043C031D62341F2190
:10157000031CD42A6D14ED067F060139031DC42A0D
:10158000FF14C622FF18A3004B22992B12195034C6
:101590007F106D1CFF197F1403307F1806308316EF
:1015A0009C008312FF1008002308523C031D68347E
:1015B0006B148610831686108A11002823084F3A70
:1015C000031D1D3A031D68346D11231C6D15C42ABB
:1015D000DA230318F62A8008031D6234643C031CD6
:1015E0006E346117643CD8008A11862C6113643014
:1015F000D800BC298A11D42C8A11662DDA2303184D
:10160000080003196834F5003A300002031D623403
:10161000840AFC01DB2303180800800803191C2B33
:10162000FC002C300002031D6234840ADB23031803
:1016300008008008031D6234FD0075084223031969
:10164000252B03014223031D653483177D08800089
:1016500084137C08800083138417750880008A1126
:1016600086243A30E523812CDA2303180800031975
:1016700068348008031D62344223031D6B348001EB
:101680008A11872CF400E0308400000874060319E6
:10169000080001308407831C452B0034DA2303182B
:1016A0000800031DFC00FC1B68348008031D623425
:1016B0008A112A238A1580047C087F23D03E8A154C
:1016C0005B268A15740457227C088A11862CDA233B
:1016D00003180800031DFC00FC1B68348008031D70
:1016E00062348A112A238A15FF3A80057C087F23F9
:1016F000D03E8A155B268A15F4097405632B031006
:10170000F5000130F5180430F4007518F40D751962
:10171000F40EF50E750D750D1F3908001F21031C01
:10172000080020302318EA04FF3A231CEA056A085F
:101730004F2223088A11E52B1F21031C080040308B
:10174000922B3608063C031D62340130F400230856
:10175000483A0319B12B1F3A031D62340430F400D8
:1017600012302406423A0319BA2B123A031D62348E
:101770000310F40D2508533A0319C22B1B3A031D1D
:101780006234F40E7408CD0423088A11E52324087A
:10179000E5232508E52BDA23031808008008031D3C
:1017A0006234CE00E017E701E8018A11862C23306D
:1017B00084000800D7230008393C093C031C572C3F
:1017C000F400840A0008393C093C031CF22BB100E8
:1017D0001A30740203186E34740865243107031C30
:1017E000E02B6E3474080800D723FE23031808008A
:1017F000F400F40EFE23031C7404080030300002D1
:10180000031C572CF63E031C0D2CDF39F93E031C3C
:10181000572CFA3E03186234063E0A3E840A03102F
:101820000800D7235A1700082D3C03191A2C5A1305
:10183000023C0319840ADB2303180800FC0100089A
:1018400003193D2C2E3C031D572C0730FE00840A43
:10185000000803193D2C393C093C031C572C7E1908
:101860006524FE18FC070310FE0CFE080319031C78
:10187000272CFB3E0318FC0A272C5A1F462CF40980
:10188000FC080319512C7C08643CFC00FD016B240E
:10189000B208031D013EFD007408FC000319FD0899
:1018A0000800F40A462C1124031C5A1F08000314D4
:1018B0006234FC01FD0061246124FD070318FC0A69
:1018C00008000310FD0DFC0D0800B200B207B20DB8
:1018D000B207320D08001030FE00B101B201FD0D5B
:1018E000FC0DB20D643032020318B200B10DFE0BD4
:1018F0006F2C310808007C02031D0800FD08080059
:101900002108323A031D5F342008433A0319922C10
:101910000B3A031D5F341F21031C080062120319D8
:1019200062161D295324031808008316DA007D0867
:06193000DB008312C02958
:0A1936009A08E91AA12CE901642DBA
:101940006B14EB148A1500278A1503138312860182
:10195000831660308F0007309B00E730850027300A
:10196000860003300E0640308E1850308312031963
:101970006B0EFF00031EFF15831603308E00D5305B
:101980008100F93092008312003092008E018F01A5
:101990003130900020308125A03081258317103010
:1019A000812581010B1164000B1DD32C8316193086
:1019B000990018151812981683129817FF1D1816FB
:1019C00041309F0000305B26EA00E03883169D001E
:1019D0000E305B26ED008A15C8228A1583160D1776
:1019E0008C141C0E83010D130C39DC005C0DE738E0
:1019F0008500FF3086000B17FF1D8B17CA090730C3
:101A0000E0001430CF005030D0000A30D1005A30FE
:101A1000D2006430D8003D30D4000D305B26E300A6
:101A20001030FE00FC01D030B10031085B26FD0013
:101A30007C08FD080319272DFC000310FD0C031C76
:101A4000252D8A112A238A1580047C0A192D073036
:101A5000FC04FC0AB10AFE0B152D11308A11D523A6
:101A60008A15F40106305B268A15D8208A15F40AF7
:101A700007305B268A15D8208A15F40A08305B26C1
:101A80008A15D8208A15F40A09305B268A15D820D1
:101A90008A15F40A0A305B268A15D8208A15F40ABA
:101AA0000B305B268A15D8208A1501305B26D900B9
:101AB0008A1138278A15FF1D642D4D308A11B623EF
:101AC00027308A11D5238A156400CC08031D3F26D0
:101AD000FF19642D5B18B4255E19E3250B19F62553
:101AE0000C181C260C1B65268A1165278A155A19A5
:101AF0002A26661BA02C8C1E642D18199B2CA12550
:101B0000642D84008001840A04097039031D822D2C
:101B100008003608203E84001A08DB1908008000FF
:101B20000A3A03190800073A03199B2D3608013EAB
:101B3000831CB6000800B608031908008001DB15F5
:101B40000800981CA62D18121816DA168925DB1D18
:101B500008008A150220B601DB118A110038031D26
:101B6000CC23D6238A15DF2D8A11FD238A155B101D
:101B70007F18C62D8A111C208A15611DC82DDC1600
:101B800077087B06031DDF2DD50A5512E601DF2DF0
:101B90000130DD005C145C1658308A11B6235430D5
:101BA000761F4230B6230830761B1030C800223032
:101BB000B80083168C148312F930910012158A1123
:101BC00017248A1508005E1180305E1CF22D7430D7
:101BD000DE1CEF2D57087A3C031C08007B308A116D
:101BE000CC2383308A11D5238A1508000B11D40B1E
:101BF000042EDA19E60A5E163D30D4006C0FEC00B4
:101C000005306C0203188511E91EE90A121D1F1523
:101C10008A15FF18C6228A1164090319E401E40831
:101C2000031D0C248A15E508031DE50B080045304B
:101C30008A11C2238A1508000C10D31BD303DF19A5
:101C40005F1908008030DF065F054F308A11B4232A
:101C50008A1508004C083C3C031C08008A11242407
:101C60008A1522304B0203183A2E2C308A11E523B4
:101C70008A1508005A118A11D6238A1508000C1EED
:101C800008003708903E84008317000883139900EA
:101C9000B70A503037060319B701CC030800031701
:101CA00083168C1C0800831203138C1E4F2EF50024
:101CB000892575084F2E4F268C0183128D008316BF
:101CC0000C1483120C08031308000C131E0857068B
:101CD000D70657065702031C003CFC39031DA42EEF
:101CE00057087A3C0318DE1A862E743C031C842E97
:101CF000611D0800343C031CA62E6111E1114A301D
:101D00008A11D5238A150800E115872EE111611982
:101D1000A62E611532308A11D5238A1512110B13A4
:101D200083161C121C0E83120D130B175C060C3944
:101D3000DC06DE01631EE301DF01BA01BB015030A6
:101D40008A11C2238A150800611D08007F1C5E1ECF
:101D500008000030F600F801F901B826F7008A11F2
:101D60002620761A5E237708FB00DE018A15C82D2F
:101D70000E308A005508BF3E03188A0A82000034DC
:101D800019340134CF2E11341B341C340E34CF2EB1
:101D900000341934013438343934CF2E12345E17FC
:021DA00000340D
:101E0000031E08008B138316031360308F002730E6
:101E10008600E730850007309B00E6309D000630E5
:101E20009C00D73081001930990026309800831229
:101E300098171816FF30860081010130E327C2276A
:101E40001030E3278C1E0800C827031D08008317E5
:101E500010308400F001C8270319282F0B3A03190A
:101E6000392F013A0319C82772088000F007840A45
:101E70002B2FF008031D822F031712088D00130863
:101E80008F00143084001108F1000F308A00100810
:101E9000083C083C031C822F8207592F5F2F872F95
:101EA000992FA12FAC2F822F822FED2F0101000F30
:101EB000FF0F56308D000F308F00123084008316D4
:101EC0008C170C140000000083120C088000840A98
:101ED0000E088000840A8D0A03198F0AF10B5F2F08
:101EE00010300402F1000F30C227F00110308400DE
:101EF0000008F007840AB527F10B782F7009013E1E
:101F0000B527C2270313C8270319282F822F84302F
:101F1000D127FC308D050430F40000088C00840AC1
:101F200000088E00840AD527F40B8D2FF10B872F24
:101F3000722F9430D1271F308D04D527F10B992FA4
:101F4000722F83168C010C1483120C088000840AF3
:101F50008D0AF10BA12F702F0430D12700088C00BF
:101F6000840AD527F10BAC2F722FF3000F3A031917
:101F7000BF2F0B3A0319BF2F013A031DC12F0530A4
:101F8000C2277308640003130C1EC42F9900043485
:101F90009818ED2F64008C1ECA2F1A08F2000F3A11
:101FA000080083168C0083120800640083165530E5
:101FB0008D00AA308D008C148C18DC2F83128D0AB2
:101FC00003198F0A013464008C1A08000B1DE32FDB
:101FD0000B11FF3E031DE32F0434031386108316F9
:101FE0008610FF308500860081009B0007309C0032
:101FF00098019901830198018B018A0164000028EE
:02400E00742F0D
:02401000FF3F70
:1042000066000000100000004C003D004600580011
:104210004F004D005000430000000000000041002E
:104220003D004F00700065006E005400680065009E
:1042300072006D0020004700610074006500770087
:1042400061007900200035002E003000000057008A
:104250004400540020007200650073006500740083
:104260002100000054006800650072006D006F00BE
:104270007300740061007400200064006900730022
:1042800063006F006E006E006500630074006500DF
:104290006400000054006800650072006D006F004B
:1042A0007300740061007400200063006F006E00F2
:1042B0006E006500630074006500640000004E003D
:1042C000470000005300450000004E00530000006E
:1042D0004200560000004E00460000004F00520011
:1042E00000004F00450000004D00650064006900BB
:1042F00075006D000000480069006700680000005C
:104300004C006F007700200070006F0077006500A0
:10431000720000004500720072006F007200200001
:10432000000042003D00320031003A003100380008
:104330002000310037002D00300031002D00320008
:10434000300032003100000043003D003400200006
:104350004D0048007A0000004500430053004C0027
:0443600050004200C7
:1043A000000000000000000000000000000000000D
:1043B00000000000000000000000000000000000FD
:1043C0007400750076007700780079007A007B0031
:1043D00000000000000000000000000000000000DD
:1043E00000000000000000000000000000000000CD
:1043F00000000000000000000000000000000000BD
:00000001FF
