:020000040000FA
:080000008A1500278A15A62CC1
:08000800F000030E8301F1007A
:100010000408F2000A08B0008A111108F3008C18D5
:1000200018260D1B902530088A0072088400710E76
:080030008300F00E700E0900C0
:08003800761B4028761A6423B0
:100040007808B4007908B5007608FA0077087B06CE
:10005000031DE601FB067F115B179120EC015E1F7B
:100060002F23031937287F1D61196E2808007F157B
:100070005B13E8227F1D0800DB12F70091206E2839
:10008000DA1577084E060319E013761E64232F2332
:10009000F61A761E55280319502855398007582816
:1000A00077088A158F228A115828FF3A601F800529
:1000B0006013DB17DB1886287F19632891207F19CE
:1000C000611908006E289120DB1661190800403084
:1000D0005B1F70301623DB135B1F912079087806B5
:1000E0007706F6137606F400F40E7406F400F40CAA
:1000F000F40CF4060130F418F4067418F6177F189F
:1001000008005230761B41308A11062C9120503065
:10011000F6000430F700AA30F8003908F900DB10C7
:100120006E28F71B992B00308A0077089A3E031837
:100130008A0A8200352972298F29A32BA429AD2987
:10014000B329992BC629D629CB2AD92ACB2AD92A31
:10015000E629A42BF229A32BA42BA42B222AA42B1F
:10016000A42B992BA42BA32BA42B2B2A352AA42B0D
:10017000A42BA42BA42BA42BA42BA42B992B992B1D
:10018000992B992B992B992B992B992B992B992B4F
:10019000992B992B412A4B2AA42BA42BA42BA42BBB
:1001A000A42BA42B552A752AA42BA42BA42BA42B57
:1001B000A42BA42B992B992B992B992B992B992B09
:1001C0009E2B952AA42BA42BA42BA42BA42BA42BCD
:1001D000A42BA42BA42BA42BA42BA42BA42BA42BA7
:1001E000A42BA42BCB2AD92ACB2AD92A992B992BF9
:1001F000992B992B992B992B992B992B9E2A9E2BD6
:10020000A42BA42BA42BCB2AD92ACB2AD92A992BCD
:10021000992B992B992BA42BA42BA42BA42BA42B87
:10022000A42BA42BA42BA42BA42BA42B992BBA2A4C
:10023000C02AA42B603020297A08C038F61F7F39E5
:100240007606031D7F15F60600347806031D7F151C
:10025000F80600347A1E1A291C2134082521350895
:100260007906031D7F15F9060034761B5229E22218
:100270006209EE38ED1EFD39F4000301C4080319CC
:10028000C5080319E11901386D1A02388316DA0816
:100290000319DB088312031D1038F405FF3A7805B3
:1002A00074042529F61A08007908B50041390319A4
:1002B0005A12031D5A1A60295A160530CE00E0174B
:1002C0004D30BA23790808394630BA237908043901
:1002D0005730BA23790802394830BA2378080239EE
:1002E0004330BA2B761B8A29E22244084504611D5B
:1002F0007F197C290319080076160319E11D862948
:1003000042080319520825214308302944082521B1
:1003100045083029F61E0800C401C5010800761FF3
:100320009729013034052521350830211C297818FA
:10033000DE17631A080079080B3C0319E31B080059
:10034000E317DE1B63170800761F0800AA30780247
:10035000031D08001C2139083029761BA42B5F1AC5
:100360005F1B0800102A761F080060100301F61EAC
:10037000761ABB29790861060339E1061C21611C44
:10038000E010E11C6011780803382529761B992BB1
:1003900083165A080319DB0803197F19D029D429B9
:1003A000761625215B08302183120800761F08008D
:1003B0001C215F1E3A0825215F1E3B0830215F1378
:1003C000E31ADF1D08005F1DDB140800761B080020
:1003D000E222611F7F19EE29611D08007616580878
:1003E00025213029761B1C29DF195F1B08005F1AA5
:1003F000102A3B087902F4003A08031C013E7802F7
:10040000031CFF3A031D172A031CF409E03074058E
:10041000031D172A5F1908005F15DF134F30BC2B2F
:100420005F123A083B0403191F2A5F1708005F1D7B
:10043000DF0A5F1D0800631B1F2ABA01BB01DF0131
:100440004F30C82B761F0800D31F2A291C213E08D5
:1004500025213F083029761B5A1C0800DA181A2972
:100460001C213C0825213D083029761B6D1D080004
:10047000611A1A291C21031730082521310803139A
:100480003029761F0800E010F61AA42B7808D00057
:100490007908CF00A42B761F08006011F61AA42B50
:1004A0007808D2007908D100A42B761B632AC008F3
:1004B000761EE0190319080010302021400825217C
:1004C000410830213834E011F61E0800761E6F2AEC
:1004D0001C21400803195008252141083029C00873
:1004E00003190800C001C1010800761B832AC20855
:1004F000761E601A031908001030202142082521B9
:100500004308302139346012F61E0800761E8F2A07
:100510001C21420803195208252143083029C2082A
:1005200003190800C201C30108000310460C7F1D17
:100530000318761B0800761630212529761F08003F
:10054000DF1AD60E7F11A4237F19AD2A1C21560E67
:10055000033930216A1B79082521631BDF1EB82A65
:10056000560E5606031D5F1BB82A5F16DF155F1770
:10057000DF120800761F08001C21033025213029D6
:10058000761FE31F080063137808143C0319E31671
:10059000031C63170800761F08007F19DB1FA42BBC
:1005A0007808F61E03190800E700770ACE00E01766
:1005B0000800761B7F1D9E2BE80A67086802031C53
:1005C000E0170800761B08002F23FF3A800508007B
:1005D0000030F600F801F901E0080319012B60175B
:1005E00060180634E018303460193134E0195C2AA0
:1005F000601A7C2AE01F002B6808F8004E080800EB
:10060000E0014D08031D1F2B5B1A152B2030FE0047
:10061000DB1ACA0A4A081F39E03E8A155C268A118D
:10062000031D0800FE0B092B5B167F117A04F600F0
:100630003408F8003508F9007B08F700080010308E
:10064000F6007430FE00F4010314272BFE0AF40DAB
:1006500074084D050319262BCD067E08080077087F
:10066000F500750CF400740C1F39BA3E8400F51BBC
:100670000034033075180C30F400F518F40E00093E
:100680007405F40E740E0800C334C1348F349F34E3
:100690000234003403340334C034203400340034D2
:1006A00000340034F0340F340034043407340C3494
:1006B0001234133413341534173419341A341A34E9
:1006C0001A341A341A341E34770D031CF61A080033
:1006D000F400740E0F39F40077080739FE00FE0AA3
:1006E0008A237406F4067406B10103100318B10AD4
:1006F000F40CFE0B762B031C08009123B107310D7F
:10070000103E8400831778088000840A79088000EE
:100710008313080003308A007408443E03188A0AD1
:100720008200F40003308A007408543E03188A0AD9
:100730008200DB1B7F1D761F0800AA2BDB1B7F1DA1
:10074000761F0800A92BE222DB1B7F1D761F080005
:10075000B401B50177088A1540238A11031D0800EA
:100760001C218317000835043021841300088313EB
:10077000340425290319C82B5F3E84000014FE3081
:10078000000503190800FF3A8605F938E205003430
:100790005F3E840000100008031908008604063933
:0407A000E20400343B
:0C07A4008A155C268A1103190800EB235B
:1007B00003170D0AD22BD2230D30EB230A30EB2B7B
:1007C000F500750EE42375080F39F63E0318073E51
:1007D0000A3EDA17303ECC0803190C1EF12B9900A3
:1007E0000034840037084C07B03E031C503E903E56
:1007F0000406840604068317800083134C08503ACD
:10080000031DCC0A00345430761B42305B190800BB
:10081000EB237608E0237708E0237808E0237908C3
:10082000E023DC2B5E1908008A30D2236408E02321
:10083000DC234530641C0624E40147080319080042
:1008400084000008F4004708E0233D30EB237408DF
:10085000E023DC2B4B084B07103E84008317000875
:10086000FC00840A0008FD00831304308A004B0852
:10087000CB0A3D3E03188A0A82005F2C772C5F2C3E
:10088000772C772C772C872C772C772C772C772C40
:10089000772C772C772C772C752C772C772CAB2C0E
:1008A000872C872C772C772C5F2C8B2C8B2CAD2CCA
:1008B000AD2CAD2CAD2CAD2CAD2CAD2CAD2C7C08C5
:1008C00064242F30EB237D08F4000830FE00F40D83
:1008D0006C24FE0B672C0800070DE92BFC09FD09B1
:1008E000FD0A0319FC0A2D30EB2BFC1B6E247D0F37
:1008F0007B2CFC0AFD017C088C246430F4007D080C
:100900007F25FD1BFC0A7C08F4002E309A2C7C0805
:100910008C242F30EB237D08F4007408DA139C3EFE
:10092000031C9C2CF4009C3E031C992CF4003230D8
:100930009A2C3130EB23DA17FE017408F400F63EEE
:10094000031CA42CFE0A9E2C7E080319DA1BA92482
:100950007408DA17E92BFC1B6E241030FE00B1017D
:10096000B201B301B92C3308CA24B3003208CA2437
:10097000B200FD0DFC0DB30DB20DB10DFE0BB32C8D
:10098000DA133108D1243208D1243308D124DA1BF8
:100990000800E92B333EF400F41DFD3EF41FD03E69
:1009A0000800F400740ED52474080F390319DA1BFB
:1009B000E92B08003608043C031D623404308A0029
:1009C00023085A3C193C031C6834E93E03188A0A80
:1009D00082000F349134A434672D68346834582D64
:1009E0006834522D683468340434252D68340B2D56
:1009F000392D2A2D412D5B2D4A2D6834072D322D9E
:100A00006834683468342308EB233D30EB2B03252E
:100A10006A08FD3EE42B0325DF084E300319EB2B5B
:100A20003A083B066E300319EB2B560E56060F396B
:100A3000DF1ED6065430D61C43305F1D2038EB2312
:100A40003A08FC003B08FD00772C032547307F184F
:100A50004D30EB2B03257F0E0739AC3E8A155C2603
:100A60008A11EB2B03253030ED1A31306D1E4130E9
:100A7000EB2B03255E1C80347430DE187B30D223D0
:100A8000833403254430E31B5230E31A4330631BA5
:100A90004930EB2B03256A0EF400F40CF40C6C24A3
:100AA000F40C6C2C0325050D803E6C24050D6C2C7C
:100AB0000325590EE02B032502308A155C268A1186
:100AC000FC0003308A155C268A11FD00772C032573
:100AD0004F306D195230EB2B3608043C031D623445
:100AE0002308313C013C031C683403197B2DCB01E6
:100AF0005A155B157D2D5A115B118A11E92BFC01EA
:100B0000FD01083AFE00083AFE060310FD0DFC0D3B
:100B1000F40D0318FD070318FC0AFE0B852D0800D1
:100B200083161C0E83120D135C060C390319080082
:100B3000DC0604390319DE1DA02DFF30E400080097
:100B4000031DDE19A82DDE15B80803195C1AC62D81
:100B5000B8080319E72D03305D02031C8B2E8316A2
:100B60001C0D8312DE19803EB80BD52D031C902E70
:100B7000DC1B942E5B148A115230C8235430C823D6
:100B80004230C8238A11DE111211E42DB8015C1223
:100B900018305E1808300506183985068A11583055
:100BA000C8234230C8238A11DD2D80300318DC06AB
:100BB000F90DF80DF70DF60D5C13DD0173089102C8
:100BC0000630031C91028C10643081000800121959
:100BD000F42DE408031DE42D2A3091001215DD01E7
:100BE00083168C148312E42D0A305D020318DD2D68
:100BF00083161C0D8312DE19803E031CE42D831620
:100C00001C1E031083120318DE18082EDE145E1556
:100C1000DD080319C42D8A115230BC234230DE197D
:100C20005430BC238A112130B800DC135C13DD2D55
:100C30008C10DD0A5C1A362EB8080319DE1D332E1F
:100C40005D08143C0319602E50305D02031C08003F
:100C50001211DE1183161C1E03108312031C0800E0
:100C6000DE145E150800DD19922E08005D180800DC
:100C7000B8080319502E03015C1C18305E18103A96
:100C8000050648058506DD185D2E5C100314F90D78
:100C9000F80DF70DF60D03185C14DD01B80308001C
:100CA00012115C12481ADC168A115830C8235430CD
:100CB000C8234230C8238A1108000130DC0608002E
:100CC0005C190800DE1F7C2E831610309C061C1E4B
:100CD00003101C0E83120D135C060C39DC0603187E
:100CE0007E2E5E15DE1C08005E10DE1005165030EC
:100CF0008A11C8238A110800DE1608005E18872EA4
:100D00005E14051250308A11BC238A110800DE14CB
:100D100008005C17E42D5C1BEA1A892E0130952E21
:100D20000230952E0330952E0430E4080319E400B8
:100D30001211B801DD015C128A115830C8235230FB
:100D4000C8234230C8235430C82364090319AC2E89
:0C0D50004530BC237A30E5008A11E42D08
:040D5C00031DC52E80
:100D600006308A006E081F39B93E03188A0AEE0A57
:100D70008200C82E2C2FD42E0034C82E2A2FD72E16
:100D8000C82E2C2FE42EE62EEA2E03140127003461
:100D90008513831685130527831685178312082765
:100DA000851BC52E0627013444302D270034192712
:100DB0007408103A03190134EE17383A0319013454
:100DC0000A3A03190134C52EBE302D2F1927740895
:100DD000EF0001341927EE1BF32E740C6F0CFC008E
:100DE000FD01FD0CFD2E6F0EF039FD00740EF03983
:100DF000F4006F0E0F397404FC00553A0319C52E28
:100E000003108A15C021EE0101340627E830092FAE
:100E1000363083168C10120283120A3E910012158E
:100E20008C1C102F12118C10080017271727000098
:100E300008001A271D271D271D27851383168513D4
:100E40000310851783121627851B0314F40C2D300D
:100E50000927080033302D2FCC30F4002F273227FC
:100E600032273227F40C8513831685130318851750
:0C0E7000323009278316851783120134E5
:040E7C006217E21304
:100E800043276213E21707308A005908E21B590E04
:100E900007394D3E03188A0A8200582F642F672FA6
:100EA000672F672F582F582F552FF030E21FD90585
:100EB0006208C039831685048312080062093F382E
:100EC00083168505831208005E27850508005E27C6
:100ED000FF3A850408006217E21370276213E217D5
:100EE00007308A005908E21B590E07397A3E031869
:100EF0008A0A8200080008000800822F892F9A2F92
:100F00009C2F902F0508E21805096205C039850657
:100F100008000508621905096205C0398506080040
:100F2000DC1E0800B8088A11AE268A1100380319A1
:100F3000DC12080005099D2F05086205C039031D54
:100F4000A72FE21D0800E211FC01FD01B22FE219FA
:100F50000800E21502308A155C26FC0003305C268E
:0C0F6000FD0001308A1533218A110800C1
:041000000034003484
:0C100400DA1A422804303602031C623461
:1010100022083D3C031D623420088A11EB2321087D
:10102000EB233A30EB232030EB2308308A002008F2
:101030002106F400E039031D812C7408223E0318B8
:101040008A0A820044284F2857285F2864286C2881
:10105000F3287428BC28BC28BC287B285F34BC2813
:10106000BC28BC2880288B2893285F3498285F34BC
:101070005F349D285F345F345F34A228AA28AF28EC
:101080005F34B728DA1271342008543A03192D2935
:10109000153A03196B2A0C3A0319E62A5F34200823
:1010A000523A03199F2B013A0319FC2A5F34200896
:1010B000503A0319F82A1B3A0319652B5F342008AC
:1010C000503A0319FA2A5F342008563A0319332A92
:1010D000053A03196D295F342008443A0319822A1E
:1010E000123A0319A429F32820084F3A03199A2B1E
:1010F0001B3ADC2A5F342008433A03192C2A5F3458
:101100002008533A0319E129143A0319B12A043A81
:1011100003199D295F342008433A0319322B103AF2
:10112000031961295F342008463A03199C2A5F3469
:101130002008443A0319D7295F342008543A031988
:1011400028295F3420084F3A0319B3291C3A0319A0
:1011500085295F342008553A03194C2B5F34200849
:10116000493A03198C2B193A0319C92B5F3420080B
:10117000483A03191C2A5F3420084C3A031D5F3497
:101180003608043C031D62342308F4005A3C193C21
:10119000031C683441302102063E4F2223088A1185
:1011A000EB238A1541302102F4002308FC000830AB
:1011B000F418403074190230B10003107418B10DE6
:1011C000A03084001A30FE0031098005840AFE0B2D
:1011D000E5287C085F3E8400310880047C08001C00
:1011E00003158A11BA2B2008473C031D5F343608CB
:1011F000043C031D623430302302F400F839031D2F
:101200006234F03021180A295905703C03195A102C
:10121000F40E0F3059057404D900F40001304F2248
:101220006217E213C030211CE2068A1143275908D5
:10123000211C590E07398A11E92B03103608043A8C
:10124000031D62342308313C013C03180800683454
:1012500054240318080001303129542403180800CD
:1012600003303321BE2956060F39D6060030631FDE
:101270003E293A083B04031D5F161030DF057D0848
:10128000BB007C08BA00DF155F17DF16B901E31A4F
:10129000DB143B0403195D29E31E08003A085A24B5
:1012A0007D08B9003B085A247C08B907FD1BB90A20
:1012B0003A08FC003B08FD0008005F165610D610E7
:1012C00008005424031808000319623402304F2226
:1012D0007D08F40003304F22BE290F2403180800B4
:1012E00003197C294F087C24031C683450087C2493
:1012F000031D031C7E296834E01180296118E01564
:101300007D08C1007C08C000BE290F240318080016
:101310000319942951087C24031C683452087C2446
:10132000031D031C9629683460129829E118601681
:101330007D08C3007C08C200BE295424031808009D
:10134000C4007D08C500BE29D8230318B129800830
:10135000031D6234643C031C6E34740DC6008A1194
:101360008D2CC601BA290F2403180800FC1F7C1F0E
:10137000BD295A102D308A11EB2BC7218A11752CEB
:1013800030306D1DC7296116031C6112CE295A1415
:10139000DA14031CDA103C30CF212E30831784007E
:1013A0007C088000840A7D088000831308003608CA
:1013B000053C031D6234F22303180800C7008A119C
:1013C000E02BD82303180800BE00173C031C6E3422
:1013D00000083A3C031D6234840AD923031862349E
:1013E000BF003B3C031C6E3400082F3C031D6234DD
:1013F000840A30300002031D031C6834F400F839FD
:10140000031D6834840A8008031D6234F40E03103F
:10141000740DBE04F830D3003E081F39F4008A1161
:101420009B243F08F4003A309A242F30EB233E0EE1
:10143000F400740C0739E92B3608043C031D6234B0
:101440006D12ED122308313C0319ED16FE39031914
:101450006D1649228A11332D1D21031C08006210CC
:10146000031962141B293608043C031D6234230847
:10147000393C093C031C6834033EF400E038831611
:101480009D008312E0306A057404EA004D228A113F
:10149000082D6D08F4000E304F2AF40000308A1534
:1014A00050268A1583128D007408031783160C14B6
:1014B00083120C060319682A8C0683160C158B13ED
:1014C00055308D00AA308D008C148B170C118312AF
:1014D0000C0803130800D8230318080003196E34FE
:1014E0008008031D62345B12E0308A155C268A1581
:1014F00003197F2A03170D0F752A0313653454222D
:101500008A118C2CD8230318080003196E34800824
:10151000031D62348F22031D08008A118D2CF400F4
:10152000E0308A155C268A1574060319552A0317BC
:101530000D0F912A03136B343608043C031D6234EB
:10154000E3012308433A0319E3160A3A0319631720
:10155000E308031D63166308F4000D304F228A115F
:10156000422D3608043C031D62341D21031CD22A7F
:101570006D14ED067F060139031DC22AFF14C42233
:10158000FF18A3004922972B121950347F106D1CAD
:10159000FF197F1403307F18063083169C008312D6
:1015A000FF1008002308523C031D68346B1486109A
:1015B000831686108A11002823084F3A031D1D3A0E
:1015C000031D68346D11231C6D15C22AD82303181E
:1015D000F42A8008031D6234643C031C6E346117D6
:1015E000643CD8008A118C2C61136430D800BA296D
:1015F0008A11DA2C8A116C2DD823031808000319DC
:101600006834F5003A300002031D6234840AFC019C
:10161000D92303180800800803191A2BFC002C306A
:101620000002031D6234840AD923031808008008CD
:10163000031D6234FD00750840230319232B0301A9
:101640004023031D653483177D08800084137C08C4
:10165000800083138417750880008A118C243A3027
:10166000EB23872CD823031808000319683480085B
:10167000031D62344023031D6B3480018A118D2CBD
:10168000F400E030840000087406031908000130FB
:101690008407831C432B0034D82303180800031D40
:1016A000FC00FC1B68348008031D62348A1130235F
:1016B0008A1580047C087D23D03E8A155C268A1515
:1016C000740455227C088A118C2CD8230318080036
:1016D000031DFC00FC1B68348008031D62348A1162
:1016E00030238A15FF3A80057C087D23D03E8A1579
:1016F0005C268A15F4097405612B0310F50001308E
:10170000F5180430F4007518F40D7519F40EF50E83
:10171000750D750D1F3908001D21031C08002030B0
:101720002318EA04FF3A231CEA056A084D2223081D
:101730008A11EB2B1D21031C08004030902B36082A
:10174000063C031D62340130F4002308483A0319B3
:10175000AF2B1F3A031D62340430F400123024060C
:10176000423A0319B82B123A031D62340310F40DE8
:101770002508533A0319C02B1B3A031D6234F40E9B
:101780007408CD0423088A11EB232408EB232508D1
:10179000EB2BD823031808008008031D6234CE0009
:1017A000E017E701E8018A118C2C2330840008003F
:1017B000D5230008393C093C031C582CF400840A4A
:1017C0000008393C093C031CF02BB1001A307402AC
:1017D00003186E34740866243107031CDE2B6E3444
:1017E00074080800D523FC2303180800F400F40E45
:1017F000FC23031C7404080030300002031C582C26
:10180000F63E031C0B2CDF39F93E031C582CFA3E24
:1018100003186234063E0A3E840A03100800D523EA
:101820005A1700082D3C0319182C5A13023C0319AF
:10183000840AD92303180800FC01000803193B2C73
:101840002E3C031D582C0730FE00840A00080319A3
:101850003B2C393C093C031C582C7E196624FE188D
:10186000FC070310FE0CFE080319031C252CFB3E8D
:101870000318FC0A252C5A1F442CF409FC080319F0
:10188000522C7C08643CFC00FD016C240318F40A13
:10189000B208031D013EFD007408FC000319FD0899
:1018A00003100800F40A442C0F24031C5A1F0800DC
:1018B00003146234FC01FD0062246224FD07031856
:1018C000FC0A08000310FD0DFC0D0800B200B20771
:1018D000B20DB207320D08001030FE00B101B201A6
:1018E000FD0DFC0DB20D643032020318B200B10DD3
:1018F000FE0B702C310808007C02031D0800FD0857
:1019000008002108323A031D5F342008433A0319C6
:10191000932C0B3A031D5F341D21031C0800621237
:10192000031962161B295424031808008316DA00D1
:081930007D08DB008312BE29D3
:081938009A08E91AA22CE9014A
:10194000652D6B14EB148A1500278A150313831277
:101950008601831660308F0007309B00E7308500DA
:101960002730860003300E0640308E185030831228
:1019700003196B0EFF00031EFF15831603308E0044
:10198000D5308100F93092008312003092008E0130
:101990008F013130900020308225A03082258317BE
:1019A0001030822581010B1164000B1DD42C83168D
:1019B0001930990018151812981683129817FF1DE0
:1019C000181641309F0000305C26EA00E03883168C
:1019D0009D000E305C26ED008A15C6228A158316FE
:1019E0000D178C141C0E83010D130C39DC005C0DDB
:1019F000E7388500FF3086000B17FF1D8B17CA09DB
:101A00000730E0001430CF005030D0000A30D10051
:101A10005A30D2006430D8003D30D4000D305C26FE
:101A2000E3001030FE00FC01D030B10031085C262C
:101A3000FD007C08FD080319282DFC000310FD0C97
:101A4000031C262D8A1130238A1580047C0A1A2D46
:101A50000730FC04FC0AB10AFE0B162D11308A1166
:101A6000DB238A15F40106305C268A15D6208A15F8
:101A7000F40A07305C268A15D6208A15F40A083045
:101A80005C268A15D6208A15F40A09305C268A1548
:101A9000D6208A15F40A0A305C268A15D6208A15C3
:101AA000F40A0B305C268A15D6208A1501305C2694
:101AB000D9008A113E278A15FF1D652D4D308A11E8
:101AC000BC2327308A11DB238A156400CC08031D50
:101AD0004026FF19652D5B18B5255E19E4250B1905
:101AE000F7250C181D260C1B66268A116B278A15F4
:101AF0005A192B26661BA12C8C1E652D18199C2C9F
:101B0000A225652D84008001840A04097039031D13
:101B1000832D08003608203E84001A08DB190800CF
:101B200080000A3A03190800073A03199C2D360869
:101B3000013E831CB6000800B608031908008001A6
:101B4000DB150800981CA72D18121816DA168A251E
:101B5000DB1D08008A150220B601DB118A1100384E
:101B6000031DD223DC238A15E02D8A1103248A1554
:101B70005B108A111C208A157F18C72D611DC92D85
:101B8000DC1677087B06031DE02DD50A5512E60109
:101B9000E02D0130DD005C145C1658308A11BC2346
:101BA0005430761F4230BC230830761B1030C800FA
:101BB0002230B80083168C148312F930910012156C
:101BC0008A111D248A1508005E1180305E1CF32DD9
:101BD0007430DE1CF02D57087A3C031C08007B3063
:101BE0008A11D22383308A11DB238A1508000B1156
:101BF000D40B052EDA19E60A5E163D30D4006C0FC0
:101C0000EC0005306C0203188511E91EE90A121D6B
:101C10001F158A15FF18C4228A1164090319E401EB
:101C2000E408031D12248A15E508031DE50B0800CE
:101C300045308A11C8238A1508000C10D31BD30322
:101C4000DF195F1908008030DF065F054F308A1109
:101C5000BA238A1508004C083C3C031C08008A1172
:101C60002A248A1522304B0203183B2E2C308A116D
:101C7000EB238A1508005A118A11DC238A15080003
:101C80000C1E08003708903E840083170008831359
:101C90009900B70A503037060319B701CC03080082
:101CA000031783168C1C0800831203138C1E502EFE
:101CB000F5008A257508502E50268C0183128D0060
:101CC00083160C1483120C08031308000C131E084F
:101CD0005706D70657065702031C003CFC39031D64
:101CE000A52E57087A3C0318DE1A872E743C031C75
:101CF000852E611D0800343C031CA72E6111E111E3
:101D00004A308A11DB238A150800E115882EE1117B
:101D10006119A72E611532308A11DB238A15121141
:101D20000B1383161C121C0E83120D130B175C066B
:101D30000C39DC06DE01631EE301DF01BA01BB01E1
:101D400050308A11C8238A150800611D08007F1CC5
:101D50005E1E08000030F600F801F901B926F70010
:101D60008A112620761A64237708FB00DE018A1583
:101D7000C92D0E308A005508C03E03188A0A820019
:101D8000003419340134D02E11341B341C340E3479
:101D9000D02E00341934013438343934D02E123472
:041DA0005E17003496
:101E0000031E08008B138316031360308F002730E6
:101E10008600E730850007309B00E6309D000630E5
:101E20009C00D73081001930990026309800831229
:101E300098171816FF30860081010130E327C2276A
:101E40001030E3278C1E0800C827031D08008317E5
:101E500010308400F001C8270319282F0B3A03190A
:101E6000392F013A0319C82772088000F007840A45
:101E70002B2FF008031D822F031712088D00130863
:101E80008F00143084001108F1000F308A00100810
:101E9000083C083C031C822F8207592F5F2F872F95
:101EA000992FA12FAC2F822F822FED2F0101000F30
:101EB000FF0F56308D000F308F00123084008316D4
:101EC0008C170C140000000083120C088000840A98
:101ED0000E088000840A8D0A03198F0AF10B5F2F08
:101EE00010300402F1000F30C227F00110308400DE
:101EF0000008F007840AB527F10B782F7009013E1E
:101F0000B527C2270313C8270319282F822F84302F
:101F1000D127FC308D050430F40000088C00840AC1
:101F200000088E00840AD527F40B8D2FF10B872F24
:101F3000722F9430D1271F308D04D527F10B992FA4
:101F4000722F83168C010C1483120C088000840AF3
:101F50008D0AF10BA12F702F0430D12700088C00BF
:101F6000840AD527F10BAC2F722FF3000F3A031917
:101F7000BF2F0B3A0319BF2F013A031DC12F0530A4
:101F8000C2277308640003130C1EC42F9900043485
:101F90009818ED2F64008C1ECA2F1A08F2000F3A11
:101FA000080083168C0083120800640083165530E5
:101FB0008D00AA308D008C148C18DC2F83128D0AB2
:101FC00003198F0A013464008C1A08000B1DE32FDB
:101FD0000B11FF3E031DE32F0434031386108316F9
:101FE0008610FF308500860081009B0007309C0032
:101FF00098019901830198018B018A0164000028EE
:02400E00742F0D
:02401000FF3F70
:1042000066000000100000004C003D004600580011
:104210004F004D005000430000000000000041002E
:104220003D004F00700065006E005400680065009E
:1042300072006D0020004700610074006500770087
:1042400061007900200035002E0031000000570089
:104250004400540020007200650073006500740083
:104260002100000054006800650072006D006F00BE
:104270007300740061007400200064006900730022
:1042800063006F006E006E006500630074006500DF
:104290006400000054006800650072006D006F004B
:1042A0007300740061007400200063006F006E00F2
:1042B0006E006500630074006500640000004E003D
:1042C000470000005300450000004E00530000006E
:1042D0004200560000004E00460000004F00520011
:1042E00000004F00450000004D00650064006900BB
:1042F00075006D000000480069006700680000005C
:104300004C006F007700200070006F0077006500A0
:10431000720000004500720072006F007200200001
:10432000000042003D00310037003A003400340004
:104330002000310031002D00300032002D0032000D
:10434000300032003100000043003D003400200006
:104350004D0048007A0000004500430053004C0027
:0443600050004200C7
:1043A000000000000000000000000000000000000D
:1043B00000000000000000000000000000000000FD
:1043C0007400750076007700780079007A007B0031
:1043D00000000000000000000000000000000000DD
:1043E00000000000000000000000000000000000CD
:1043F00000000000000000000000000000000000BD
:00000001FF
